:02000002D0002C
:1040000000400D00D88E0D00000006000C000501D8
:08401000040128050000000076
:10401800DC870D0009480A49884208B505D0094AD5
:10402800824202D0121A04F040FB0748074A0021D6
:10403800121A04F060FB014808BD00BFECE203203F
:10404800488E0D0054E3032058E30320F4E70320CF
:1040580070B503F07FFA074C074BE41AA408002553
:104068001E46A54204D056F8253098470135F8E792
:1040780070BD00BF388E0D00F08D0D0000F090B8B7
:1040880008B500F001F9BDE8084003F031BA01F0C5
:1040980083B801F089B801F087B80078B0FA80F0E9
:1040A80040097047012303707047000010B5104C99
:1040B8002DED028B9FED0F8AB6EE001AB0EE480A7E
:1040C800F7EE000A0021204600F0BAFB4FF47A70A0
:1040D80001F0DBF8B0EE481AF0EE480AB0EE480AF4
:1040E8002046002100F0ACFBBDEC028B012010BD86
:1040F8005CE303200000000010B596B001F0A4FBBB
:10410800234A01460DA801F0EDFF0DA801F05EFC61
:1041180001F09AFB1F4A01460DA801F0E3FF0DA824
:1041280001F054FC01F090FB1B4A01460DA801F078
:10413800D9FF0DA801F04AFC0DA801F096FA17491D
:1041480003A801F03DF903A908A801F039F908A866
:1041580001F074F9044608A844B901F08CF916AACC
:10416800022322F84E0D0321009406E001F085F9A0
:10417800002300930246102307210DA801F02EFA10
:1041880001F062FB00220DA901F0D1FB16B010BDB1
:1041980090E3032064E3032084E303206CE303201B
:1041A80010B503F0E9F8174C4FF4165103F0D8F89E
:1041B800154800F047FC204600F0A0FA9FED131ABE
:1041C8002046F0EE410AB0EE410A002100F038FB2B
:1041D8000021132003F0FCF9002302220C490D48AA
:1041E80000F062FF002302220B490C4800F05CFF3C
:1041F8000B4A0C490C4802F000F9BDE81040FFF7E3
:104208007BBF00BF5CE30320A4E3032000000000A1
:10421800A0E30320F0870D0080E30320F5870D005D
:10422800FE870D00B5400D00D7630D00F0B50E46B2
:104238008FB0002104460160416009AD194604A809
:10424800174601F0BDF81499284601F0B9F8169BF5
:104258000293159B01932046009504AB3A463146DC
:1042680001F08EFE20460FB0F0BD00B5BFB03EABEA
:10427800012203F8F41D194601F060FA3FB05DF819
:1042880004FB00000000000030B52DED028B504CFF
:1042980089B000F09BFD2368C01AB0F5FA6FC0F032
:1042A800848000F093FD20604A484B4D4B4C00F051
:1042B800B3FCBDEEC00A474885ED000A00F0CEFC0D
:1042C800BDEEC00A84ED000A03F056F82B68444A94
:1042D800012102F0EDFD03F04FF82368414A012166
:1042E80002F0E6FD132003F09DF903F099FC9FED21
:1042F800323B41EC100BB0EE431AF0EE631A9FED1F
:10430800304B9FED312B00F077FF374BB0EE408AF2
:10431800F0EE608A83ED000B0022344B51EC100B59
:1043280003F074FF30B3B0EE480AF0EE680A0621D5
:1043380004A802F014FF2E4B049A1B788DF8003065
:104348002C493C2302A802F079F9039C7CB16368EC
:10435800013B63605BB9236820469B689847A36864
:10436800013BA3601BB923682046DB68984704A873
:1043780002F070FE01F068FA01F0F6FAA8B1182010
:1043880000F0E2F8C1B21C48FFF76FFF072000F009
:10439800DBF8C1B21948FFF768FF032000F0D4F832
:1043A800C0F307211648FFF760FF09B0BDEC028B88
:1043B80030BD00BFAFF30080000000000000000027
:1043C80000000000000059400000000000FEAF405F
:1043D800B8E30320A4E30320A0E3032080E3032041
:1043E80008880D0011880D0098E30320000049405B
:1043F8008CE303201E880D0064E3032090E3032070
:1044080084E303202DE9F047364B374FDFF80CA142
:10441800364EDFF80C818EB04FF0010983F800901A
:1044280000F0DCFC3249384609AC01F0B4F83149F7
:1044380004A8002501F0AFF83946204600F0C0FF77
:1044480004AB8DE83000029510222B495046FFF747
:10445800EDFE32464146504603F03EF9DFF8C4A06F
:10446800264904A801F097F83946204600F0A8FF2D
:1044780004AB8DE830000295102221495046FFF721
:10448800D5FE32464146504603F026F91D4904A898
:1044980001F081F839461C4F204600F091FF04AB2B
:1044A8008DE83000029510221849194C3846FFF75C
:1044B800BDFE32464146384603F00EF90622022177
:1044C800144800F0B9FA4B460E220F21204600F09E
:1044D8005BF832461049204603F0FEF80EB0BDE8FE
:1044E800F08700BF8CE303206CE3032058E303202C
:1044F80030880D0055880D007A880D0083880D00DE
:10450800A8880D00B4880D0084E30320D9880D0025
:104518005CE30320A4E30320AB450D0090E30320F4
:10452800D5590D0064E3032038B50446C0688318E4
:104538000A2B154605D8204404F0B7F8E3681D4453
:10454800E560012038BD000010B588B0002404AB38
:104558000122ADF80E0000930194094BADF8164006
:1045680011460DF10E00ADF81840079400F07EFDDD
:10457800079B0A2B0CBFDDF81600204608B010BDBB
:1045880031450D0000F02ABC10B504460170427098
:104598008370012103EB430004F062F86060204659
:1045A80010BD10B50446406800F0FEFD204610BD61
:1045B80010B500210446007803F01BF8142000F021
:1045C800FDFB2078012103F014F81420BDE8104009
:1045D80000F0F4BB70B506460D46082415F0800FB0
:1045E80014BF01210021707803F003F8013C304624
:1045F800FFF7DEFF6D0014F0FF04EDB2EED170BDE1
:1046080013F0800FF8B50D46164614BFC021E021FF
:104618005A061F4658BF41F010013306044658BFDA
:1046280041F00801700658BF41F004012A0658BF3E
:1046380041F002016B0658BF41F001012046FFF727
:10464800C9FF39462046FFF7C5FF31462046FFF728
:10465800C1FF29462046BDE8F840FFF7BBBF2DE95A
:10466800F84F04460D46002191469A469DF828B019
:10467800FFF7B0FF00212046FFF7ACFF00212046DE
:10468800FFF7A8FF00212046FFF7A4FF03274FF0FC
:104698000108002617FB0588A278F3B29A421BD9B5
:1046A800AB420DD1616815FB07F201F80290626810
:1046B80002F808A0022217FB0522616801F802B07F
:1046C800606803EB43014218415C937852782046B6
:1046D800FFF796FF0136DFE720460021FFF77AFF54
:1046E80020460021FFF776FF20460021FFF772FFE2
:1046F80020460021BDE8F84FFFF76CBF73B50446AC
:104708000121007802F064FF0121607802F060FF67
:1047180000252E46A378E9B28B4205F1010506D99A
:10472800002300961A462046FFF799FFF2E702B0E9
:1047380070BD000000000000F8B5B5EEC01AF7EE35
:10474800007AF1EE10FA2DED048BF0EE418A48BFA5
:1047580071EE278AB0EE408AF4EEE78AF1EE10FA9D
:10476800C4BFF7EE007A78EEE78AB0EE609A18EEEA
:10477800900A03F067FA2FA3D3E9002304460D46F5
:1047880003F026FD60B179EE487A17EE900A03F03F
:1047980059FA0022264B03F0A9FA22462B4625E0B7
:1047A800F6EE007AF4EEE78AF1EE10FA2FD41EA3A3
:1047B800D3E900232046294603F00AFD50B379EED9
:1047C800487A17EE900A03F03DFA224606460F464D
:1047D8002B4615A1D1E9000103F0D4F802460B4697
:1047E8003046394603F082FA114B002203F07EFA74
:1047F800044618EE100A0D4603F024FA02460B464A
:104808002046294603F0C0F803F02AFD04E019EE1B
:10481800100A01E018EE100ABDEC048B00EE100A35
:10482800F8BD00BFAFF30080555555555555E53FC8
:1048380000001840555555555555C53F0000000016
:104848002DE9F0432DED048BF5EE400AF1EE10FA58
:1048580083B080468946F0EE409AB0EE609AB0EE9A
:10486800418A6ED011EE100A03F0ECF9F6EE007AE8
:10487800B4EEE78AF1EE10FA06460F4610D519EEA7
:10488800100A03F0DFF900224D4B03F07DF83246A1
:104898003B4603F02BFA03F0E3FC08EE900A03E032
:1048A80079EE088AE9EE488A19EE900A03F0CAF907
:1048B80032463B4604460D463046394603F064F816
:1048C800064618EE900A0F4603F0BCF902460B465E
:1048D8003046394603F056F803F0C2FC34A3D3E956
:1048E800002309EE100A2946204603F04DF803F08C
:1048F800B7FCF0EE680A01EE100AB0EE490AFFF7BD
:104908001BFFB0EE691AF0EE680AB0EE408AB0EE0E
:10491800490AFFF711FF26A3D3E9002320462946B9
:10492800F0EE409A03F02EF803F09AFCF0EE680AD5
:1049380001EE100AB0EE490AFFF7FEFEF0EE408ADB
:1049480003E0F0EE418AF0EE419A19EE900A03F086
:1049580079F919A3D3E9002303F0C8F903F060FC3F
:10496800C5B218EE100A03F06DF913A3D3E90023BA
:1049780003F0BCF903F054FCC4B218EE900A03F03B
:1049880061F90DA3D3E9002303F0B0F903F048FC63
:10499800C0B200902B46224649464046FFF75FFECC
:1049A80003B0BDEC048BBDE8F08300BFAFF300801B
:1049B800555555555555D53F0000000000E06F404E
:1049C8000000F03F00F00ABA10B503682F2B044628
:1049D80004D9074A00210A2000F018FB23681F2B7E
:1049E80083BF03F01F03236002484FF0A04010BDAF
:1049F800C54D0D000003005007B502AB43F8040D88
:104A08001846FFF7E1FF019A01239340C0F80835E3
:104A180003B05DF804FB07B502AB43F8040D184674
:104A2800FFF7D2FFD0F81035019823FA00F000F014
:104A3800010003B05DF804FB027201228171027467
:104A48007047000010B500210446807902F0C0FDCF
:104A5800074AA37912681B01D118D05C4B7803F080
:104A68001F0343EA4010FFF7C7FF0023E36010BDB0
:104A7800BCE303202DE9F74F044600F0A7F9E368EB
:104A8800834284BF0023E360237C33B9E368C01A00
:104A9800B0F5FA6F01D20120A8E00025554E257423
:104AA80000F094F9A3793268E0601B01D1182571F0
:104AB800E570A57065702570D05C4B7803F01F0316
:104AC80043EA4010FFF798FFFA2000F0DEFB0121CF
:104AD800A07902F07DFDA37932681B01D118D25C60
:104AE8004B7802A803F01F0343EA421340F8043D41
:104AF800FFF76AFF019B4FF0010808FA03F3C0F8BB
:104B08000C35142000F0C1FB01F09AFFA37932683C
:104B18001B01D118D05C4B7803F01F0343EA401007
:104B2800FFF76AFF282000F049F92946A07902F02A
:104B38004FFD2F464FF0000BA37932681B01D118A7
:104B480012F803A04B7803F01F0343EA4A1A5046B1
:104B5800FFF761FF5046FFF75EFF80455FFA8BF96C
:104B680008D101200BF1010B00F028F9BBF1FF0F70
:104B7800E2D1D946A37932681B01D11812F8038013
:104B88004B7803F01F0343EA48184046FFF743FFFA
:104B98004046FFF740FFB9F1FF0F5FFA80F814D0E5
:104BA800032D0ED9EB070CD4FA080137A35C5B0080
:104BB800DBB2A354217A49453CBF43F00103A35417
:104BC800FFB20135EDB2552DB4D101F03BFF272FCF
:104BD8000BD92278637821791344A2781344E278B8
:104BE8001344DBB299423FF456AF002003B0BDE84E
:104BF800F08F00BFBCE3032010B50446FFF73AFF6F
:104C080028B1A37800EE103AB8EE400A10BD9FED27
:104C1800010A10BD0000C07F08B5FFF7EDFFF2EEF6
:104C2800027A60EE277AB1EE047A87EE870ADFED22
:104C3800027A30EE270A08BD0000004210B504468B
:104C4800FFF718FF28B1237800EE103AB8EE400AB3
:104C580010BD9FED010A10BD0000C07FFFF7EEBF39
:104C680008B500F0BBF8014B186008BDBCE3032091
:104C780008B5024B1B689B68019308BD78020300C6
:104C880008B5024B1B681B6D019308BD7802030031
:104C980008B5024B1B689B6D019308BD78020300A1
:104CA80008B5024B1B681B6E019308BD7802030010
:104CB80008B5034B1B68D3F89830019308BD000072
:104CC8007802030008B5034B1B68D3F8A83001939A
:104CD80008BD00007802030008B5034B1B68D3F831
:104CE800B430019308BD00007802030008B5034BF7
:104CF8001B68D3F8D830019308BD00007802030080
:104D080008B5034B1B68D3F8DC30019308BD0000DD
:104D18007802030008B5034B1B68D3F8EC30019305
:104D280008BD00007802030008B5034B1B68D3F8E0
:104D3800F030019308BD00007802030008B5024B6B
:104D48001B689B68019308BD4802030008B5024B25
:104D58001B681B69019308BD4802030008B5024B94
:104D68001B685B69019308BD4802030008B5024B44
:104D78001B681B6B019308BD4802030008B5024B72
:104D88001B685B6C019308BD4802030008B5024B21
:104D98001B68DB6C019308BD4802030008B5024B91
:104DA8001B685B6D019308BD4802030008B5024B00
:104DB8001B685B68019308BD1802030008B5024B25
:104DC8001B68DB68019308BD1802030008B5024B95
:104DD8001B685B69019308BD1802030008B5024B04
:104DE8001B681B68019308BD2C02030008B5024B21
:104DF8001B685B68019308BD2C02030008B5024BD1
:104E08001B689B68019308BD2C02030008B5024B80
:104E18001B68DB68019308BD2C02030008B5024B30
:104E28001B681B69019308BD2C02030008B5024BDF
:104E38001B681B6A019308BD2C02030008B5024BCE
:104E48001B685B6A019308BD2C02030008B5024B7E
:104E58001B681B6B019308BD2C02030008B5024BAD
:104E68001B681B6A019308BD2802030008B5024BA2
:104E78001B685B6A019308BD2802030008B5024B52
:104E88001B689B6A019308BD2802030008B5024B02
:104E98001B68DB6A019308BD2802030008B5024BB2
:104EA8001B681B6B019308BD2802030008B5024B61
:104EB8001B685B6B019308BD2802030008B5024B11
:104EC8001B681B6C019308BD2802030008B5024B40
:104ED8001B685B69019308BD6402030008B5024BB7
:104EE8001B689B68019308BD6802030008B5024B64
:104EF8001B68DB68019308BD6802030008B5024B14
:104F08001B68DB69019308BD3002030008B5024B3A
:104F18001B681B6A019308BD3002030008B5024BE9
:104F28001B681B68019308BD3C02030008B5024BCF
:104F38001B68DB68019308BD3C02030008B5024BFF
:104F48001B681B69019308BD3C02030008B5024BAE
:104F58001B685B69019308BD3C02030008B5024B5E
:104F68001B689B69019308BD3C02030008B5024B0E
:104F78001B68DB69019308BD3C02030008B5024BBE
:104F88001B681B6A019308BD3C02030008B5024B6D
:104F98001B689B6A019308BD3C02030008B5024BDD
:104FA8001B681B68019308BD4C02030008B5024B3F
:104FB8001B685B68019308BD4C02030008B5024BEF
:104FC8001B681B69019308BD4C02030008B5024B1E
:104FD8001B685B69019308BD4C02030008B5024BCE
:104FE8001B689B69019308BD4C02030008B5024B7E
:104FF8001B68DB69019308BD4C02030008B5024B2E
:105008001B681B6A019308BD4C02030008B5024BDC
:105018001B685B6B019308BD6002030008B5024B77
:105028001B681B6D019308BD6002030008B5024BA5
:105038001B685B68019308BD2002030008B5024B9A
:105048001B685B69019308BD2002030008B5024B89
:105058001B68DB6C019308BD2002030008B5024BF6
:105068001B685B6D019308BD2002030008B5034B64
:105078001B68D3F88430019308BD000020020300A8
:1050880008B5034B1B68D3F88830019308BD0000AE
:105098002002030008B5034B1B68D3F89430019332
:1050A80008BD00002002030008B5024B1B681B68FE
:1050B800019308BD4402030008B5024B1B685B68F6
:1050C800019308BD4402030008B5024B1B685B69E5
:1050D800019308BD4402030008B5024B1B681B6A14
:1050E800019308BD4402030008B5024B1B68DB6B43
:1050F800019308BD4402030008B5024B1B685B68B6
:10510800019308BD4002030008B5024B1B689B6869
:10511800019308BD4002030008B5024B1B68DB6819
:10512800019308BD4002030008B5024B1B681B69C8
:10513800019308BD4002030008B5024B1B685B6978
:10514800019308BD4002030008B5024B1B689B6928
:10515800019308BD4002030008B5024B1B68DB69D8
:10516800019308BD4002030008B5024B1B681B6A87
:10517800019308BD4002030008B5024B1B681B6B76
:10518800019308BD4002030008B5024B1B685B6B26
:10519800019308BD4002030008B5024B1B681B6859
:1051A800019308BD1C02030008B5024B1B685B682D
:1051B800019308BD1C02030008B5024B1B689B68DD
:1051C800019308BD1C02030008B5024B1B685B6A0B
:1051D800019308BD1C02030008B5024B1B68DB6A7B
:1051E800019308BD1C02030008B5024B1B681B6B2A
:1051F800019308BD1C0203002DE9F04F2DED028B31
:10520800B0EE448AF0EE648A55EC114B57EC126B01
:1052180083B011EE102A2B4612EE100A39468DED96
:10522800000B5BEC13AB02F0C9FF9DED000B38BB24
:1052380051EC100B22462B4602F0A4FB5246804646
:1052480089465B4651EC180B02F09CFB02460B4664
:105258004046494602F04AFD2246804689462B468A
:105268003046394602F08EFB02460B464046494618
:1052780002F066FE52465B4602F086FB41EC100BDC
:1052880003B0BDEC028BBDE8F08F0021FFF7D6BE5E
:1052980010B5836804460BB902F025FAC36898472D
:1052A800A3681BB1032221462046984720461021B7
:1052B800BDE8104002F015BA7047002070477047EB
:1052C8000020704770470020704710B5142104462D
:1052D80002F007FA204610BD10B51421044602F06A
:1052E80000FA204610BD10B51421044602F0F9F961
:1052F800204610BDFEF7CDBEFEF7CBBEFEF7C9BEF9
:1053080008B50A20024A0021FFF780FE08BD00BF49
:10531800C54D0D0010B5036804469B689847A368FF
:10532800013BA3602BB923682046DB68BDE8104029
:10533800184710BDA0F13003DAB2092A01D818467F
:105348007047A0F16103052B01D857387047A0F1C9
:105358004103052B94BF37384FF0FF3070470000EA
:1053680010B500230370044B04461868FFF70EFDC0
:1053780001232370204610BDCCE3032010B5037829
:1053880004461BB1024B1868FFF708FD204610BD04
:10539800CCE3032008B582798B799A4206D106229C
:1053A80003F074F9B0FA80F0400908BD002008BD88
:1053B80010B514220446002103F09DF9204610BDC3
:1053C80010B5034601F1140251F8044B43F8044B9D
:1053D8009142F9D110BD70B50C4605461646FFF747
:1053E800E7FF2CB910222146284603F084F916E07D
:1053F800012E09D12B4604F1100254F8041B43F87E
:10540800041B9442F9D108E06A1E0F23E15C02F8FC
:10541800011F013BDBB2FF2BF8D101232B74284677
:1054280070BD38B5044615461A46FFF7D4FF2573F4
:1054380001232D0A65732374204638BD037C13F0BD
:10544800FD0F14BF0120002070471FB50446FFF769
:10545800F5FF08B9208809E010220021684603F00A
:105468004AF910226946204603F010F9003018BFA7
:10547800012004B010BD00887047704710B503467E
:1054880001F1140251F8044B43F8044B9142F9D14D
:1054980010BD10B551B1034601F1100251F8044B8B
:1054A80043F8044B9142F9D10123037410BD10B5A0
:1054B8000446FFF7C3FF28B9088823881B1A5842F7
:1054C800584110BD1022204603F0E0F8B0FA80F0F1
:1054D800400910BDF7B505460E4619B9102203F06C
:1054E8000AF951E02421304603F067F9042802D074
:1054F800002710243BE03078FFF71CFF041E47DB31
:105508007078FFF717FF002842DB40EA04108DF897
:105518000400B078FFF70EFF041E39DBF078FFF7C0
:1055280009FF002834DB40EA04109DF80430C0B2BB
:1055380040EA03202880002327E02CB3F05DFFF722
:10554800F9FE030612D4013C0001285524213046F7
:1055580003F033F90137874208D2F05DFFF7EAFE1E
:1055680040B20028A2BF2B5D1843285501372421DB
:10557800304603F022F98742DFD32C440023A542AA
:1055880002D004F8013DFAE701232B7403B0F0BD03
:1055980000232B80CFE738B504460D46FFF708FFF8
:1055A80020462946FFF796FF204638BDF0B58BB157
:1055B8000024E51C8D420FD8661C055D875D974267
:1055C80005D12E44B14207D31C60681CF0BD0135DB
:1055D8002C44EEE71846F0BD0020F0BD2DE9F74356
:1055E80004460E461D461746002A3AD00A4601AB25
:1055F800016AFFF7DBFF9DF82830226A03BBF8B188
:10560800961C2E44361A1F2E2BD8DDF8048008F17C
:105618000209C8EB0202121A00EB080105EB0900A7
:1056280092B22144204403F04BF86B1C04F8083074
:105638002A46394604EB090003F037F8266210E0E1
:10564800901C2B181F2B0CD86B1CA35422442062CF
:105658003946567020442A4603F027F8226A2A441D
:105668002262206A03B0BDE8F0831FB504460346F2
:1056780000F11F02002003F8010B93424FF00001D4
:10568800F9D104AA062302F8013D01232162009101
:1056980020461946FFF7A2FF204604B010BD73B597
:1056A8000A460E4601AB016A0446FFF77FFF05462E
:1056B80078B10198226A2918121A521B21442044F1
:1056C80002F0F3FF236A5D1B256231462046FFF78F
:1056D800E6FF02B070BD000038B500254FF6FF7335
:1056E800044643800E22294605700571063003F0F2
:1056F80002F804F11400FFF75BFE04F12800FFF73D
:1057080057FE044904F13C0001F0EBFCE564256513
:10571800204638BD888B0D0010B58369C26903EB3C
:10572800C2029342184606D0046824888C4203F1CA
:105738000803F6D110BD002010BD000073B5144653
:105748000A4641B33CB305682E78F42C28BFF424EC
:105758003EB1A8890023224602B0BDE87040FFF799
:10576800BBBA68884FF6FF73984216D02B7943F07E
:105778000801082905D1A98900962346FFF7B6FA3A
:105788000DE043F00403042B07D1A98900962346B2
:10579800FFF7B6FA03E0034801E06FF0D10002B06A
:1057A80070BD00BFF2FEFFFF10B50A6852F8023F55
:1057B80003605368436010BD1FB502680B68128808
:1057C8001B889A420C460CD101466846FFF7ECFF4D
:1057D800214602A8FFF7E8FF02A96846FFF7DAFDAD
:1057E80000B9002004B010BD10B504463420FEF7FF
:1057F8004EFC014668B10023036043608360C360C8
:10580800036143618361C361036243628362C3626C
:105818000363216019B90A4A0A20FFF7F7FB002041
:10582800FFF726FA20B1064A00210A20FFF7EEFB0F
:10583800002221680348FFF777FA204610BD00BF11
:10584800C54D0D00355C0D0010B50A4C2368DB070B
:105858000ED42046FEF721FC50B10748FFF7C4FFDD
:105868002046FEF71FFC054A0549034801F034FFAE
:10587800014810BDC4E30320C0E3032058E303201C
:10588800495A0D0070B504468CB003A80E46FFF7C0
:1058980067FD2368093B012B19D8FFF7D5FFA188BD
:1058A8000068FFF739FF024658B9202304930A4BD2
:1058B8000590009304AA034608493220FFF7AEFB7F
:1058C80005E0F56C1DB1336DE1682069A84703A8B0
:1058D800FFF754FD0CB070BD92890D0048890D008A
:1058E800084609B90A4601E0096A0022FFF7C8B963
:1058F80010B50C4611B90A46084606E001212046B3
:10590800FFF7CDFE216A00222046BDE81040FFF7D0
:10591800BFB913B501A8FFF723FD0020FFF7C0F9B1
:10592800044601A8FFF72AFD204602B010BD73B552
:1059380005460C4601A81646FFF712FD21462846E3
:10594800FFF7CEFF002808DB31462846FFF7D0FFD7
:10595800002802DB2846FFF7DCFF044601A8FFF712
:105968000DFD204602B070BD0368D8690028D4BF79
:105978000020012070470B68036013B15A68013298
:105988005A60704710B551F8043B044640F8043B90
:10599800FFF7F1FF23680BB9FFF7B2FC204610BDF3
:1059A80010B551F8043B044640F8043BFFF7E3FF09
:1059B800204610BD10B50446006828B14368013B75
:1059C80043600BB9FFF7A6FC204610BD10B504468E
:1059D8000430FFF7EFFF204610BD70B50468436838
:1059E800054604EBC306A64204D0201DFFF7E2FFDC
:1059F8000834F8E72868FFF7D7FB284670BD70B56C
:105A080004684368054604EBC306A64204D0201D7B
:105A1800FFF7D0FF0834F8E72868FFF7C5FB2846EA
:105A280070BD10B5046904F11800FFF7E8FF04F130
:105A38000C00FFF7D2FF2046BDE81040FEF729BB57
:105A4800F8B504680746C4B1A569E36905EBC30660
:105A5800AE4204D0281DFFF7ADFF0835F8E7A0696E
:105A6800FFF7A2FB04F10C00FFF7C9FF2046FFF780
:105A7800B4FF3421204601F034FE3846F8BD00005A
:105A880073B500250560456006462420FEF7FFFA39
:105A9800044678B103464FF6FF7223F8022BC0F88C
:105AA80002505D608572C572C5600561456185619A
:105AB800C5610562002314200193FEF7E8FA034646
:105AC80028B1012242608260084A0260046102A88B
:105AD800726840F8042D73603460FFF76BFF336819
:105AE8000BB9FFF70DFC304602B070BD24890D00DC
:105AF800884270B515461AD9904219D2A1F1080604
:105B0800511A0439151F44182B1F9E4225D0042C06
:105B180007D055F8043C44F8043C29462046FFF7D2
:105B28002AFF2846FFF746FF083D083CECE714D05B
:105B38000C1D061D231F9D420FD0042E07D054F8BC
:105B4800043C46F8043C21463046FFF714FF204643
:105B5800FFF730FF08340836ECE770BD2DE9F04157
:105B6800046843680546884604EBC307A74218D073
:105B780041462046FFF720FE064608B90834F5E7F7
:105B88008CB1201DFFF716FF2B686A6804F1080125
:105B980003EBC2022046FFF7ABFF6B68013B6B606B
:105BA80002E0002600E026463046BDE8F081F7B561
:105BB800044651F8043B4768009301A8FFF7DBFE51
:105BC8006668A3689E4214DB0136002E0BDDF000E8
:105BD800FFF7E2FA054618B394E8060001EBC202A3
:105BE800FFF786FF00E000252068FFF7DDFA256053
:105BF800A6602668626806EBC70506EBC20229465E
:105C080005F10800FFF774FF35B1009B46F83730FF
:105C180001A9281DFFF7AFFE636801336360012502
:105C280001A8FFF7C7FE284603B0F0BD2DE9F041F3
:105C380004468EB003A80D46FFF792FB2368032B9A
:105C480002D0042B42D087E004A8FFF719FF049B79
:105C580022891A806268049952F8083FC1F8023014
:105C68005368C1F8063007A8049B069305A9FFF7F7
:105C780082FE06A905F11800FFF799FF044607A858
:105C8800FFF798FE2023069374B9364B009306AAB3
:105C98002346354907943220FFF7C0F9049B214673
:105CA8001888FFF705F80DE0304A0092002306AA8D
:105CB8002D4907930120FFF7B1F96B6A13B1E96A1F
:105CC80004A8984705A8FFF775FE45E021892846EE
:105CD800FFF722FD074600283ED00468A369E16962
:105CE8004FF6FF72228003EBC101994203D053F8AB
:105CF800080B4280F9E7E668236906EBC308B0455C
:105D080004D0301DFFF756FE0836F8E7002323615C
:105D1800A669E36906EBC308B04504D0301DFFF758
:105D280049FE0836F8E70023E361A372E372AB6A21
:105D380013B1296B3846984720230D4A06930092E1
:105D4800002309490793012006AAFFF767F9394696
:105D580005F11800FFF702FF03A8FFF70FFB0EB0CD
:105D6800BDE8F081AA890D0048890D00D0890D0091
:105D7800ED890D008842F8B506460C46154614D93B
:105D8800904213D2A2F108056C1AA1F10807044445
:105D9800AF4218D01CB129462046FFF701FE281D46
:105DA800FFF708FE083D083CF2E70CD0AC420AD0E9
:105DB8001EB121463046FFF7F3FD201DFFF7FAFD1F
:105DC80008340836F2E7F8BD70B50E1E05460BDD3F
:105DD800F000FFF7E1F9044670B195E8060001EB21
:105DE800C202FFF7C7FF00E000242868FFF7DCF9CC
:105DF8002C60AE60012070BD70BD73B50446456867
:105E08006846FFF7CDFD6168A368994205DB01315B
:105E18002046FFF7D9FF064698B12368626803EB6E
:105E2800C50503EBC202294605F10800FFF7A2FFEA
:105E38001DB169462846FFF7B3FD63680133636007
:105E4800012601A8FFF7B6FD304602B070BD8842B2
:105E5800F8B506460C46154614D9904213D2A2F15D
:105E680008056C1AA1F108070444AF4218D01CB108
:105E780029462046FFF786FD281DFFF79BFD083DB4
:105E8800083CF2E70CD0AC420AD01EB1214630469D
:105E9800FFF778FD201DFFF78DFD08340836F2E77F
:105EA800F8BD70B50E1E05460BDDF000FFF774F95E
:105EB800044670B195E8060001EBC202FFF7C7FF80
:105EC80000E000242868FFF76FF92C60AE6001201D
:105ED80070BD70BD73B5044645686846FFF752FD4E
:105EE8006168A368994205DB01312046FFF7D9FFB5
:105EF800064698B12368626803EBC50503EBC20246
:105F0800294605F10800FFF7A2FF1DB1694628469A
:105F1800FFF738FD636801336360012601A8FFF7C6
:105F280049FD304602B070BD10B50446406808B15E
:105F3800FEF7AFF8204610BD07B503690C308DE8B1
:105F4800090003F13C0001F085F86846FFF7ECFF13
:105F580003B05DF804FB000038B500230446036075
:105F680014200D46FEF793F828B10123436083609F
:105F7800024B036005612060204638BDEC880D00A7
:105F88002DE9F04188B005461E46542000230F46EF
:105F9800904604930593FEF77AF8CDF818D0044696
:105FA8000790B0B1FFF798FB394604F13C0084F83C
:105FB800048001F0C3F80F9BE3643146109B23650E
:105FC80004F11400FFF75AFA0E9904F12800FFF7BC
:105FD80055FA2146002601AB02AA03A80796FFF747
:105FE800BBFF039B059A039203A805930494FFF74C
:105FF800E1FC06A8FFF798FF049B2968059A2B6027
:1060080008A86B6806916A6040F8043D05960496F6
:10601800FFF7D0FC05A8FFF7CDFC296819B9034A9A
:106028000A20FEF7F3FF08B0BDE8F081C54D0D006A
:1060380010B50446406808B1FEF72BF8204610BD9D
:1060480007B503690C308DE809006846FFF7F0FFD3
:1060580003B05DF804FB000038B500230446036074
:1060680014200D46FEF713F828B10123436083601E
:10607800024B036005612060204638BD08890D0089
:10608800F0B5002687B006604660044618200F4623
:10609800FDF7FDFFCDF810D00546059038B1FFF7A4
:1060A80087F939462846AE82EE82FFF7E7F90023E2
:1060B8002946059302AA01AB03A8FFF7CDFF039B6E
:1060C80062682560636003A80392FFF773FC04A865
:1060D800FFF7AEFF23680BB9FFF712F9204607B0A8
:1060E800F0BD00002DE9F04F17469FB0804605A887
:1060F8000E46FFF735F93C682379002B00F0F38052
:106108003368DD681B6905EBC303039304F1140AC4
:1061180004F1280B039BAB4223D0D5F800905046DE
:1061280009F11401FFF7C3F9002800F0E18009F133
:1061380028015846FFF7BBF9002800F0D9802368EA
:1061480023F47F41D9F8003023F47F43994240F08B
:10615800CF8020236B4A139300230092149313AA31
:10616800BDE004F128052846FFF76FF918B966491C
:106178002846FFF78EF93368D3F800905B6809EB7F
:10618800C30AD145294608D0D9F80000FFF78FF98E
:10619800002837D109F10809F3E706A8FFF770FFCF
:1061A80013AA2B4604F1380C964618685968154608
:1061B80003C5083363452A46F7D118682860069A4C
:1061C8000023143271460120FEF77CFD00287ED1A1
:1061D800356806A90BA8FFF7E3FB28460BA9FFF7CC
:1061E8000CFE05460CA8FFF7E5FB002D6FD03268C2
:1061F8005368126803F10053013B07A802EBC30977
:10620800FFF7D8FB04F114052846FFF71EF968B913
:106218003E4B3D491A88013292B21A8013A80123D5
:10622800FFF7FFF813A92846FFF728F94FF02C0AC3
:106238005246002113A802F05EFA012306AAADF81F
:106248004C30ADF84EA02B4604F1240C15461868C6
:1062580059689646AEE80300083363457246F6D19E
:106268001868CEF800000FCD0DF1580EAEE80F00FB
:106278002B68CEF8003023798DF85030D9F80030EB
:106288009B8AADF86C30E36B15930022204B1C936E
:10629800A11D13A81D94FEF73DFD20BB012323700B
:1062A800346839460C340BA8FFF76CFB20460BA961
:1062B800FFF710FE04460CA8FFF77CFB9CB92023CF
:1062C8000B93144B00930C9423460BAA07E0394612
:1062D8004046FFF757FB07A8FFF76CFB0AE00E499B
:1062E8003220FEF79BFE39464046FFF74BFB01E0A4
:1062F80008350FE705A8FFF741F840461FB0BDE88D
:10630800F08F00BFBD8A0D0038890D00C8E3032057
:106318008D580D00968A0D0048890D00024800230B
:106328000360FEF72BBD00BFCCE3032070470020BD
:10633800704710B51021044601F0D3F9204610BD6E
:1063480008B508B1FFF7F5FF08BD10B58368044626
:1063580013B1032201469847204610BD002202606F
:1063680010B54FF69C728280B1F9044084808A800F
:1063780002680C6804600A6010BD10B50446006825
:10638800FEF712FF204610BD38B5C468F4B1237873
:10639800022B03D104F10C00FFF7EFFF656835B15C
:1063A8002846FFF7D2FF1021284601F09AF9A56880
:1063B80035B12846FFF7C9FF1021284601F091F9A9
:1063C80020461421BDE8384001F08BB938BD10B51E
:1063D80088B00446684600F084FE694604A800F0C8
:1063E800A2FE04A8A047044604A800F033FE6846AD
:1063F80000F030FE204608B010BDF0B5102485B07E
:1064080007460E46154600212246684602F073F9F3
:10641800002269461046ADF80040029703960195A0
:10642800FEF74AFE05B0F0BD13B5044691E8050035
:1064380000234B600B602060626001A80193009309
:10644800FFF7B8FA204602B010BDF7B50C4602AD0A
:1064580054F8043B45F8083D06460F4601A8214676
:10646800FFF789FA29463046FFF7DEFF01A8FFF754
:10647800A1FA2046FFF79EFA3846082101F031F9C3
:10648800304603B0F0BD13B50B46044603C88DE88B
:10649800030093E8030084E803009DE8030083E811
:1064A800030002B010BD000038B5002304460360A5
:1064B80010200D46FDF7EBFD28B1012343608360F2
:1064C800024B0360C5602060204638BDF08A0D008D
:1064D800826810B50AB901F006F9C368BDE8104032
:1064E800184708B5006800F11001FFF7F1FF08BD73
:1064F800826810B50AB901F0F6F8C368BDE8104023
:10650800184708B5006800F11001FFF7F1FF08BD52
:1065180038B5002383608B6804460D462BB10222F0
:106528009847EB68E360AB68A360204638BD00007D
:10653800F0B589B004686846FFF710FF00238DF8AE
:1065480008304FF00202D4E84F3F002B03D1C4E8D3
:10655800412F0029F7D102D08DF8083063E014F1FB
:106568000C0503D069462846FFF7F8FEBFF35F8F96
:1065780001236370002004F10803BFF35F8F53E821
:10658800006F43E80002002AF9D1BFF35F8F002EA5
:1065980049D0FEF75BFD20B129463046FFF798FF4A
:1065A8003AE0314602A8FFF7B3FFE068B4F91050AB
:1065B80008B102F0DFF806901020ADF81C50FDF786
:1065C80066FD0546E8B1002787601820FDF75FFDE6
:1065D800044688B10146876002A8FFF754FF049B70
:1065E800A268A360059B049206A9E268E36004F12F
:1065F80010000592FFF7B2FE0D4BEB600D4B2C60BF
:10660800AB6006A8FFF7B9FE02A8FFF79EFE0022BE
:1066180029460948FEF722FD3046FFF796FE10216D
:10662800304601F05EF86846FFF7A7FE09B0F0BDF6
:10663800EB640D0061670D0099520D002DE9F04FD4
:106648008BB006460F46904699469DF850A0FEF737
:106658003BFD07AD834630BB4FF62E73059005A969
:106668002846ADF81830FFF779FE1420FDF70FFD26
:10667800044658B10223037001234370C0F804B0E4
:10668800C0F808B029460C30FFF768FE30462146AE
:1066980040F8044BFFF708FF2846FFF76EFE05A8F1
:1066A800FFF76BFE52E000240C2314206C60AC60F2
:1066B8000793FDF7ECFC014618B104704470446080
:1066C800846004A80391FFF7EFFE224B089308208B
:1066D800FDF7DDFC044628B1039B40F8043B04A900
:1066E800FFF749F900955FFA8AF34A46414638466A
:1066F8000994FEF7F1FC20B9039B5B7803F0FF02D5
:1067080083B1039B059304A906A8FFF734F905A9EB
:106718003046FFF789FE06A8FFF74CF904A8FFF7F3
:1067280049F913E04FF69C7305A903A80592ADF843
:106738001830FFF7FDFE05A8FFF71FFE05A8099909
:10674800FFF783FE06A8FFF735F9DAE730460BB006
:10675800BDE8F08FD1680D00022AF8B5044606D0CE
:10676800032A17D0012A22D10B6803601FE01820E2
:106778000E68FDF78CFC054650B13146FFF7C8FEA0
:106788003069B6F9147008B101F0F4FF2861AF82DE
:1067980025600CE0046854B104F11000FFF7EDFD2A
:1067A8002046FFF7D2FD1821204600F09AFF00206E
:1067B800F8BD38B5002383608B6804460D462BB1BD
:1067C80002229847EB68E360AB68A360204638BDB7
:1067D800022A70B5044606D0032A11D0012A18D11E
:1067E8000B68036015E014200E68FDF750FC0546A1
:1067F80020B13146FFF7DDFF337C2B74256008E0BC
:10680800046834B12046FFF7A0FD1421204600F0AB
:1068180068FF002070BD0000F0B5002387B00C466B
:10682800BFF35F8F50E8006F40E80032002AF9D1CB
:10683800BFF35F8F002E3FD01846FEF707FC0746D0
:1068480020B121463046FFF753FE2EE0314601A81D
:10685800FFF7AFFF23788DF814301020FDF717FCF1
:106868000546D0B187601420FDF711FC044678B1C5
:106878008760014601A8FFF706FE039BA268A36094
:10688800049B0392E268E3609DF814300492237439
:106898000A4BEB600A4B2C60AB6001A8FFF755FD73
:1068A800002229460748FEF7D9FB3046FFF74DFD81
:1068B8001021304600F015FF07B0F0BD0B650D0044
:1068C800D9670D0099520D0030B585B004460D46C4
:1068D80068461146FFF7B9FD7CB124B228460DB1D0
:1068E80001F048FF029002A96846ADF80C40FFF796
:1068F8001FFE02A8FFF741FD1DE000988DF8084033
:106908004FF00102D0E84F3FA34203D1C0E8412F26
:106918000029F7D102D08DF808300CE010F10C01F5
:106928004FF0010318BF0373BFF35F8F043000F803
:10693800033CFFF771FF01A8FFF73CF805B030BD35
:10694800002211464068FEF70FBC0022114640683D
:10695800FEF71ABC00224068FEF70EBC002281F048
:1069680001014068FEF7F8BB00231A461946406843
:10697800FEF7EABB00231A4619464068FEF7DCBB5F
:10698800002211464068FEF7CFBB0022114640683E
:10699800FEF7BABB002202214068FEF7BDBB002308
:1069A8001A464068FEF7A8BB024B03225A60024A07
:1069B8001A607047D0E303200C8B0D007047F8B5C0
:1069C800064615460C468F18BC4206D0336814F8A4
:1069D800011B9B6830469847F6E72846F8BD002219
:1069E800007CFEF73BBA0021007CFEF73FBA00218D
:1069F800007CFEF743BA0021007CFEF747BA00216D
:106A0800007CFEF74BBA10B51421044600F069FE6D
:106A1800204610BD10B504464FF47A730846A360AB
:106A28000021044B207461602360FEF747FA20467A
:106A380010BD00BF408B0D000021007CFEF736BA68
:106A4800FEF7FCB9FEF7F2B9704710B518210446F5
:106A580000F047FE204610BDF0B5037D062B8DB033
:106A68000E4600F104074FF0000402D000F10805BB
:106A780018E00CAD394605F8304D2F232A460A2078
:106A8800FEF724FA284601F090FE33680246DB68D8
:106A98002946304698470FE024B12E21304600F0B1
:106AA800C9F9044415F8011D0A22304600F0FEF920
:106AB800BD420444F0D120460DB0F0BD10B5054BE1
:106AC8000446112240F8043B002101F014FE204640
:106AD80010BD00BF688B0D000346074A10B543F888
:106AE800042B01F1100251F8044B43F8044B914276
:106AF800F9D10A781A7010BD688B0D0010B59DF891
:106B0800084044EA032343EA024242EA01610423BB
:106B18004160037510BD37B50D788B784A78C97810
:106B280000912946FFF7EAFF03B030BD014B024A46
:106B38001A607047D8E303202A8C0D000022114602
:106B48004068FEF711BB002211464068FEF71CBBE7
:106B580000224068FEF710BB002281F00101406866
:106B6800FEF7FABA00231A4601214068FEF7ECBA8C
:106B780000231A4619464068FEF7DEBA002211467D
:106B88004068FEF7D1BA002211464068FEF7BCBA49
:106B9800002202214068FEF7BFBA00231A46406867
:106BA800FEF7AABA38B5054688B104684CB1A3689F
:106BB8001BB103222146204698471021204600F0A9
:106BC80090FD28461421BDE8384000F08ABD38BD44
:106BD80010B103685B681847704710B5036804462E
:106BE800BBB15868FEF7AAF878B923685A7C12B97D
:106BF8005868FEF7ABF823685868FEF7AFF82068C6
:106C08000023236028B1FFF7CDFF206808B1FFF704
:106C1800C9FF204610BD000038B50C4B0360044680
:106C2800D0F8CC0108B1FDF736FAD4F8C45135B123
:106C38002846FFF7D2FF0421284600F052FDA0683D
:106C480008B1FFF7C5FF204638BD00BF5C8C0D00BA
:106C580038B50E4C0E4B23600025022304F5E47072
:106C68006360A560C4F8C451C4F8C851FEF786F83B
:106C7800084BC4F8CC5184F8D05123602046064A0A
:106C88000649BDE8384000F027BD00BFDCE303201B
:106C9800908C0D005C8C0D0058E30320216C0D00D6
:106CA80000231A464068FEF727BA002202214068EE
:106CB800FEF732BA002211464068FEF725BA0022D4
:106CC80011464068FEF730BA00231A461946406854
:106CD800FEF732BA00231A4619464068FEF734BA5E
:106CE800002281F001014068FEF736BA00224068B0
:106CF800FEF742BA002211464068FEF745BA002264
:106D080011464068FEF730BA2DE9F043002495B0EB
:106D180016460D460746FFF7D1FE214620220CA84D
:106D2800009401F0E8FC40230C9321466B460CAA22
:106D38003046FEF7DBF80446002844D1024601211C
:106D48006868FEF7F1F90221804622466868FEF776
:106D5800EBF9009E81462146002E34D0002932D11D
:106D68007368022B02D00A2B09D02AE0B8F1000F71
:106D780027D0716938460431FFF7CDFE20E0B9F11C
:106D8800000F1ED07469112201A801F0B4FC06237B
:106D98008DF8143001AD04F10803183418685968E7
:106DA8002A4603C20833A3421546F7D101A906A80B
:106DB80007ADFFF791FE0FCD3C1D0FC42B68237064
:106DC8000121F669C8E70098FEF788F8384615B03B
:106DD800BDE8F083024B034A1A6000225A607047EC
:106DE800B0E50320908C0D00F8B506460D468F18C7
:106DF8000024BD420CD0336815F8011B9B6830464F
:106E08009847002801DB0444F3E7002C08BF044638
:106E18002046F8BD70B505460C46084649B101F054
:106E2800C4FC2B68024621462846DB68BDE8704052
:106E3800184770BD03689B68184738B50D2105468B
:106E4800FFF7F8FF0A2104462846FFF7F3FF20441E
:106E580038BD30B58BB00B4600218DF82410012ABF
:106E680098BF0A220DF12304B3FBF2F505FB123398
:106E780003F0FF03092B94BF30333733DBB22146CD
:106E880004F801392B46002DEED1FFF7C3FF0BB0F4
:106E980030BD10B42AB903685DF8044B9B68C9B2C9
:106EA8001847D2B25DF8044BFFF7D3BFFFF7F1BF25
:106EB8000CB42DE9F04387B000AF07F1380405465C
:106EC80054F8049B3C600E4623464A461421381D5C
:106ED800FEF77AF9132805D8391D2846FFF79AFFD7
:106EE800044613E000F1080323F00703E846ADEB7E
:106EF800030D411C23464A4668463C60FEF764F988
:106F080069462846FFF786FF0446C5461EB128464F
:106F1800FFF793FF044420461C37BD46BDE8F04305
:106F280002B0704710B50446FFF70FFA204610BDAF
:106F38000348044A04490023836000F0CDBB00BF26
:106F4800B8E5032058E303202D6F0D00704710B5F6
:106F58001021044600F0C5FB204610BD70B5084B53
:106F68000360044600250E4640F80C5FFDF7FEFE60
:106F780030462671FDF7C2FFA560204670BD00BFF0
:106F8800C48C0D000079FDF7C1BF00002DE9F14F59
:106F980059EC108B07460E460022002310EE100A0B
:106FA800494601F015F928B109F1004399462D2306
:106FB80033700136002301240A22D9B28F4202D944
:106FC80054430133F9E7204600F02AFE42464B4677
:106FD80000F08CFE82468B4601F0AAF9804689466D
:106FE80000F04EFE02460B465046594600F0CAFCD9
:106FF8000022174B01F000F918B118F1010849F106
:107008000009E51722462B464046494601F078F923
:1070180001230A22314600F024FAAFB1304601F0CC
:10702800C4FB2E2333540130064422462B464046E7
:10703800494601F065F93B46104631460A2201B03F
:10704800BDE8F04F00F00DBA01B0BDE8F08F00BF09
:107058000000E03F10B504460068FEF7A5F820469A
:1070680010BD10B50446006808B1FEF79DF800236E
:107078002360A360636010BD38B504460D46006800
:107088000131FEF799F810B184E82100012038BDDC
:1070980010B50368044613B143688B4207D22046F3
:1070A800FFF7EAFF20B1A3680BB92268137001202B
:1070B80010BD70B50E46114604461546FFF7E8FFA9
:1070C80018B92046FFF7CDFF09E02A463146A560EA
:1070D800206801F0EAFA2268A3680021D15420460A
:1070E80070BD38B5002304460360436083600373B2
:1070F8000D4639B1084601F058FB2946024620469C
:10710800FFF7D7FF204638BD884210B50B46044626
:1071180007D0096819B19A68FFF7CBFF01E0FFF7BC
:10712800A0FF204610BD10B500230446036043604D
:1071380083600373FFF7E8FF204610BD38B50546A6
:107148000C4641B1084601F030FB2146024628466C
:10715800FFF7AFFF01E0FFF784FF284638BD10B501
:1071680000238AB004460360436083600373C8B297
:1071780001A9FFF70BFF01A92046FFF7DFFF204613
:107188000AB010BD044B00204FF6FF7218705880EB
:107198009A80FDF74BBF00BFC8E50320024B1A6871
:1071A800024B1A60704700BFECE20320D0E50320D1
:1071B80070474174704708B5007CFDF7E7FE20EA88
:1071C800E07008BD08B5007CFDF7B8FE20EAE07065
:1071D80008BD08B5007CFDF7C1FE30EA200028BFD5
:1071E8004FF0FF3008BD08B5007CFDF7AFFE30EA70
:1071F800200028BF4FF0FF3008BD007CFDF7B6BE69
:1072080010B51421044600F06CFA204610BD70B584
:10721800457C04460E4625B9007CFDF7B7FE0028DC
:1072280005DD3146207CBDE87040FDF77FBE28466D
:1072380070BD000010B50446084611460022626081
:107248004FF47A72A260054A2260012220746274A7
:107258001A46FDF763FE204610BD00BF008D0D00E5
:10726800007CFDF78BBE000038B50C4D296811F085
:10727800010411D12846FCF710FF68B1084A094BF0
:1072880009482146FFF7D6FF2846FCF70BFF074AB7
:107298000749054800F020FA034838BD6CE603208A
:1072A80070E60320E8E50320D4E5032058E3032033
:1072B800B9710D0041747047704708B50021007C12
:1072C800FDF78CFE30EA200028BF4FF0FF3008BDE4
:1072D80008B50121007CFDF781FE30EA200028BFB7
:1072E8004FF0FF3008BD08B5007CFDF76FFE20EABF
:1072F800E07008BD08B5007CFDF760FE20EAE0708C
:1073080008BD007CFDF77ABE10B51421044600F0D4
:10731800E8F9204610BD38B50446007C0D46FDF757
:1073280055FE002801DC607C28B12946207CFDF749
:107338005DFE20EAE07038BD10B5044600236360A6
:107348004FF47A73A360054B236001230846217428
:1073580063741146FDF722FE204610BD308D0D00E6
:107368000022007CFDF722BE10B51422044600213D
:1073780001F0C1F9204610BD30B50E4D87B001A807
:10738800FFF7F2FF296811F0010410D12846FCF735
:1073980084FE60B101AA21460748FFF7CDFF2846C1
:1073A800FCF780FE054A0649034800F095F90248B3
:1073B80007B030BDF4E60320F8E6032058E30320C5
:1073C800C1720D00002211464068FDF7ADBE0022D3
:1073D80011464068FDF7C8BE002211464068FDF717
:1073E800D3BE00224068FDF7C7BE002281F001012C
:1073F8004068FDF7B1BE00231A4619464068FDF7FC
:10740800A3BE00231A4619464068FDF795BE002220
:1074180011464068FDF778BE002202214068FDF75A
:107428007BBE00231A464068FDF766BE024B042265
:107438005A60024A1A6070470CE70320608D0D00FD
:1074480010B5044601F0B1F90138231820469842D6
:1074580006D20278197800F8011B03F80129F6E72B
:1074680010BD70B50C46911E222920D82546294604
:1074780010B9234430220EE0B0FBF2F602FB1600EE
:10748800C1B205F8011B092894BF3031573105F8FE
:10749800011C3046EBE7994202D201F8012BFAE7CA
:1074A800002320460B70FFF7CBFF204670BD00205D
:1074B80070BD000008B50C4B33B1FFF75DFF0368E2
:1074C8001B699847002809DC084B63B1FFF7CCFE1D
:1074D80003681B699847002803DC08BDAFF30080E8
:1074E800F2E7AFF3008008BD0000000000000000D4
:1074F80008B5FFF7DFFFFDF769FC014B186008BD11
:1075080018E7032007B5002300931A466FF07701A8
:10751800FDF7C0FD03B05DF804FB000007B5438824
:107528000A2B08D0502B09D1094B1B683BB103B07B
:107538005DF804EB1847FFF7E5FF06E0002300932A
:107548001A466FF07701FDF7A5FD03B05DF804FB5F
:1075580014E7032010B5FDF729FC044601F0E2F812
:10756800074B13B12046AFF3008000210448FDF714
:10757800BBFD00210348BDE81040FDF781BD00BFF9
:107588000000000025750D0010B504460F48FFF7F0
:10759800F9FC28B1A4F10B03022B01D8002010BD7F
:1075A80000F058F8FFF748FA08B1012CF6D9FFF7B0
:1075B8005BFEFFF755FE18B1A4F10903012BEDD9C5
:1075C800232C8CBF0020012010BD00BF34E703200E
:1075D800232838B504460D460AD8FF2908D0FFF7F6
:1075E800D3FF28B129462046BDE83840FDF706BC40
:1075F80038BD38B504460D46FDF708FCFF2810D005
:10760800062804D84D2323FA00F0C30709D42046DE
:10761800FFF7BAFF28B129462046BDE83840FDF7F4
:10762800FDBB38BD0D2810B504469CBF0E34A4B26E
:107638002046FFF7A9FF50B103212046FDF7D6FBEE
:10764800032804D12046BDE81040FDF7FFBB002009
:1076580010BD000038B50B4D296811F001040FD199
:107668002846FCF71AFD58B121460748FFF7D2F91A
:107678002846FCF717FD054A0549034800F02CF891
:10768800014838BD1CE7032020E7032058E3032006
:10769800C5690D0070B50C4C0C4E0D4D00212046EF
:1076A800FFF75CFC20460B4C3246294600F014F8E4
:1076B80001212046FFF752FC324629462046BDE804
:1076C800704000F009B800BF34E7032058E30320F6
:1076D800556F0D0044E703200B460146184600F09D
:1076E800C7BFFCF7D6BC08B5FDF776FD244B1A6872
:1076F800D0075CBF01221A60224B1A68D1075CBF11
:1077080001221A60204B1A68D2075CBF01221A6056
:107718001E4B1A68D0075CBF01221A601C4B1A68FE
:10772800D1075CBF01221A601A4B1A68D2075CBFE6
:1077380001221A60184B1A68D0075CBF01221A6030
:10774800164B1A68D1075CBF01221A60144B1A68DD
:10775800D2075CBF01221A60124B1A68D0075CBFBF
:1077680001221A60104B1A68D1075CBF01221A6007
:107778000E4B1A68D2075CBF01221A60704700BF1F
:1077880080E703207CE7032078E7032074E70320E1
:1077980070E703206CE7032068E7032064E7032011
:1077A80060E703205CE7032058E7032054E7032041
:1077B800184B1A68D1075CBF01221A60164B1A6869
:1077C800D2075CBF01221A60144B1A68D0075CBF4D
:1077D80001221A60124B1A68D1075CBF01221A6095
:1077E800104B1A68D2075CBF01221A600E4B1A6848
:1077F800D0075CBF01221A600C4B1A68D1075CBF26
:1078080001221A600A4B1A68D2075CBF01221A606B
:10781800704700BFA0E703209CE7032098E70320F8
:1078280094E7032090E703208CE7032088E70320F0
:1078380084E70320184B1A68D1075CBF01221A603D
:10784800164B1A68D2075CBF01221A60144B1A68DB
:10785800D0075CBF01221A60124B1A68D1075CBFBF
:1078680001221A60104B1A68D2075CBF01221A6005
:107878000E4B1A68D0075CBF01221A600C4B1A68BD
:10788800D1075CBF01221A600A4B1A68D2075CBF95
:1078980001221A60704700BFC0E70320BCE703203D
:1078A800B8E70320B4E70320B0E70320ACE70320E0
:1078B800A8E70320A4E70320244B1A68D0075CBF7D
:1078C80001221A60224B1A68D1075CBF01221A6094
:1078D800204B1A68D2075CBF01221A601E4B1A6837
:1078E800D0075CBF01221A601C4B1A68D1075CBF25
:1078F80001221A601A4B1A68D2075CBF01221A606B
:10790800184B1A68D0075CBF01221A60164B1A6818
:10791800D1075CBF01221A60144B1A68D2075CBFFA
:1079280001221A60124B1A68D0075CBF01221A6044
:10793800104B1A68D1075CBF01221A600E4B1A68F7
:10794800D2075CBF01221A60704700BFF0E703202E
:10795800ECE70320E8E70320E4E70320E0E703205F
:10796800DCE70320D8E70320D4E70320D0E703208F
:10797800CCE70320C8E70320C4E7032081F00041D7
:1079880002E000BF83F0004330B54FEA41044FEAFC
:10799800430594EA050F08BF90EA020F1FBF54EA97
:1079A800000C55EA020C7FEA645C7FEA655C00F033
:1079B800E2804FEA5454D4EB5555B8BF6D420CDD04
:1079C8002C4480EA020281EA030382EA000083EA87
:1079D800010180EA020281EA0303362D88BF30BD27
:1079E80011F0004F4FEA01314FF4801C4CEA11317D
:1079F80002D0404261EB410113F0004F4FEA0333DC
:107A08004CEA133302D0524263EB430394EA050F66
:107A180000F0A780A4F10104D5F1200E0DDB02FAD5
:107A28000EFC22FA05F2801841F1000103FA0EF269
:107A3800801843FA05F359410EE0A5F120050EF12F
:107A4800200E012A03FA0EFC28BF4CF0020C43FA60
:107A580005F3C01851EBE37101F0004507D54FF06D
:107A6800000EDCF1000C7EEB00006EEB0101B1F5BD
:107A7800801F1BD3B1F5001F0CD349085FEA300003
:107A88004FEA3C0C04F101044FEA445212F5800F0E
:107A980080F09A80BCF1004F08BF5FEA500C50F1AB
:107AA800000041EB045141EA050130BD5FEA4C0C8E
:107AB800404141EB010111F4801FA4F10104E9D117
:107AC80091F0000F04BF01460020B1FA81F308BF0E
:107AD8002033A3F10B03B3F120020CDA0C3208DDDA
:107AE80002F1140CC2F10C0201FA0CF021FA02F1B5
:107AF8000CE002F11402D8BFC2F1200C01FA02F125
:107B080020FA0CFCDCBF41EA0C019040E41AA2BF49
:107B180001EB0451294330BD6FEA04041F3C1CDA11
:107B28000C340EDC04F11404C4F1200220FA04F031
:107B380001FA02F340EA030021FA04F345EA0301DB
:107B480030BDC4F10C04C4F1200220FA02F001FA9D
:107B580004F340EA0300294630BD21FA04F029461F
:107B680030BD94F0000F83F4801306BF81F48011B8
:107B78000134013D4EE77FEA645C18BF7FEA655C2B
:107B880029D094EA050F08BF90EA020F05D054EAFD
:107B9800000C04BF1946104630BD91EA030F1EBF02
:107BA8000021002030BD5FEA545C05D14000494106
:107BB80028BF41F0004130BD14F580043CBF01F5F9
:107BC800801130BD01F0004545F0FE4141F47001DF
:107BD8004FF0000030BD7FEA645C1ABF19461046BA
:107BE8007FEA655C1CBF0B46024650EA013406BFBB
:107BF80052EA033591EA030F41F4002130BD00BF7A
:107C080090F0000F04BF0021704730B54FF4806436
:107C180004F132044FF000054FF0000150E700BFB7
:107C280090F0000F04BF0021704730B54FF4806416
:107C380004F1320410F0004548BF40424FF0000103
:107C48003EE700BF42004FEAE2014FEA31014FEA46
:107C580002701FBF12F07F4393F07F4F81F0605195
:107C6800704792F0000F14BF93F07F4F704730B504
:107C78004FF4607401F0004521F0004120E700BF97
:107C880050EA010208BF704730B54FF000050AE01E
:107C980050EA010208BF704730B511F0004502D51F
:107CA800404261EB41014FF4806404F132045FEA21
:107CB800915C3FF4DCAE4FF003025FEADC0C18BFC6
:107CC80003325FEADC0C18BF033202EBDC02C2F1BC
:107CD800200300FA03FC20FA02F001FA03FE40EA4E
:107CE8000E0021FA02F11444C1E600BF70B54FF04E
:107CF800FF0C4CF4E06C1CEA11541DBF1CEA135530
:107D080094EA0C0F95EA0C0F00F0DEF82C4481EA97
:107D1800030621EA4C5123EA4C5350EA013518BFB7
:107D280052EA033541F4801143F4801338D0A0FBA4
:107D380002CE4FF00005E1FB02E506F00042E0FB51
:107D480003E54FF00006E1FB03569CF0000F18BF57
:107D58004EF0010EA4F1FF04B6F5007F64F54074FF
:107D680004D25FEA4E0E6D4146EB060642EAC62192
:107D780041EA55514FEAC52040EA5E504FEACE2EFF
:107D8800B4F1FD0C88BFBCF5E06F1ED8BEF1004F02
:107D980008BF5FEA500E50F1000041EB045170BD7E
:107DA80006F0004646EA010140EA020081EA0301C2
:107DB800B4EB5C04C2BFD4EB0C0541EA045170BDBE
:107DC80041F480114FF0000E013C00F3AB8014F138
:107DD800360FDEBF002001F0004170BDC4F1000481
:107DE800203C35DA0C341BDC04F11404C4F1200502
:107DF80000FA05F320FA04F001FA05F240EA02005D
:107E080001F0004221F0004110EBD37021FA04F692
:107E180042EB06015EEA430E08BF20EAD37070BD4C
:107E2800C4F10C04C4F1200500FA04F320FA05F0AB
:107E380001FA04F240EA020001F0004110EBD370AD
:107E480041F100015EEA430E08BF20EAD37070BD1D
:107E5800C4F1200500FA05F24EEA020E20FA04F3F6
:107E680001FA05F243EA020321FA04F001F00041A5
:107E780021FA04F220EA020000EBD3705EEA430E16
:107E880008BF20EAD37070BD94F0000F0FD101F045
:107E98000046400041EB010111F4801F08BF013C7E
:107EA800F7D041EA060195F0000F18BF704703F0BC
:107EB8000046520043EB030313F4801F08BF013D43
:107EC800F7D043EA0603704794EA0C0F0CEA1355FF
:107ED80018BF95EA0C0F0CD050EA410618BF52EAB9
:107EE8004306D1D181EA030101F000414FF00000BF
:107EF80070BD50EA410606BF1046194652EA4306CD
:107F080019D094EA0C0F02D150EA013613D195EA40
:107F18000C0F05D152EA03361CBF104619460AD188
:107F280081EA030101F0004141F0FE4141F4700192
:107F38004FF0000070BD41F0FE4141F4780170BD82
:107F480070B54FF0FF0C4CF4E06C1CEA11541DBFE7
:107F58001CEA135594EA0C0F95EA0C0F00F0A7F8E9
:107F6800A4EB050481EA030E52EA03354FEA013116
:107F780000F088804FEA03334FF0805545EA131329
:107F880043EA12634FEA022245EA111545EA1065F1
:107F98004FEA00260EF000419D4208BF964244F188
:107FA800FD0404F5407402D25B084FEA3202B61AA7
:107FB80065EB03055B084FEA32024FF480104FF47B
:107FC800002CB6EB020E75EB030E22BFB61A7546EF
:107FD80040EA0C005B084FEA3202B6EB020E75EB82
:107FE800030E22BFB61A754640EA5C005B084FEAEA
:107FF8003202B6EB020E75EB030E22BFB61A7546B7
:1080080040EA9C005B084FEA3202B6EB020E75EBC1
:10801800030E22BFB61A754640EADC0055EA060E82
:1080280018D04FEA051545EA16754FEA06164FEAC5
:10803800C30343EA52734FEAC2025FEA1C1CC0D171
:1080480011F4801F0BD141EA00014FF000004FF0FE
:10805800004CB6E711F4801F04BF01430020B4F1BF
:10806800FD0C88BFBCF5E06F3FF6AFAEB5EB030C77
:1080780004BFB6EB020C5FEA500C50F1000041EB74
:10808800045170BD0EF0004E4EEA113114EB5C0441
:10809800C2BFD4EB0C0541EA045170BD41F4801114
:1080A8004FF0000E013C90E645EA060E8DE60CEA1C
:1080B800135594EA0C0F08BF95EA0C0F3FF43BAF39
:1080C80094EA0C0F0AD150EA01347FF434AF95EAF0
:1080D8000C0F7FF425AF104619462CE795EA0C0FD4
:1080E80006D152EA03353FF4FDAE1046194622E7A1
:1080F80050EA410618BF52EA43067FF4C5AE50EA7B
:1081080041047FF40DAF52EA43057FF4EBAE12E76A
:108118004FF0FF3C06E000BF4FF0010C02E000BF4B
:108128004FF0010C4DF804CD4FEA410C7FEA6C5C2E
:108138004FEA430C18BF7FEA6C5C1BD001B050EAD1
:10814800410C0CBF52EA430C91EA030F02BF90EABC
:10815800020F0020704710F1000F91EA030F58BF7B
:10816800994208BF90422CBFD8176FEAE37040F0DD
:10817800010070474FEA410C7FEA6C5C02D150EA7B
:10818800013C07D14FEA430C7FEA6C5CD6D152EA36
:10819800033CD3D05DF8040B704700BF84461046FB
:1081A80062468C461946634600E000BF01B5FFF7FA
:1081B800B7FF002848BF10F1000F01BD4DF808EDCA
:1081C800FFF7F4FF0CBF012000205DF808FB00BF9B
:1081D8004DF808EDFFF7EAFF34BF012000205DF8F5
:1081E80008FB00BF4DF808EDFFF7E0FF94BF012042
:1081F80000205DF808FB00BF4DF808EDFFF7CEFF43
:1082080094BF012000205DF808FB00BF4DF808ED81
:10821800FFF7C4FF34BF012000205DF808FB00BF52
:108228004A0011D212F5001211D20DD56FF47873ED
:10823800B3EB62520ED44FEAC12343F0004343EA42
:10824800505323FA02F070474FF00000704750EA8D
:10825800013002D14FF0FF3070474FF000007047F7
:108268004FEA4102B2F1E04324BFB3F5001CDCF150
:10827800FE5C0DD901F0004C4FEAC0024CEA507088
:10828800B2F1004F40EB830008BF20F001007047B7
:1082980011F0804F21D113F13872BCBF01F00040BA
:1082A800704741F480114FEA5252C2F11802C2F1EC
:1082B800200C10FA0CF320FA02F018BF40F001006D
:1082C8004FEAC1234FEAD32303FA0CFC40EA0C001F
:1082D80023FA02F34FEA4303CCE77FEA625307D15C
:1082E80050EA01331EBF4FF0FE4040F44000704793
:1082F80001F0004040F0FE4040F40000704700BF2D
:1083080053B94AB9002908BF00281CBF4FF0FF31F4
:108318004FF0FF3000F0A2B9ADF1080C6DE904CEC2
:1083280000F02AF8DDF804E0DDE9022304B0704724
:10833800D0B500220E4B06460F46FFF7D7FCFFF7D5
:108348006FFF0446FFF75CFC00220A4BFFF7CEFCE8
:1083580002460B4630463946FFF714FBFFF760FF2D
:108368002346002242EA000210461946D0BD00BF4B
:108378000000F03D0000F0412DE9F0478C460E4624
:108388000446089D002B50D18A4217466CD9B2FA90
:1083980082FEBEF1000F0BD0CEF1200420FA04F4C7
:1083A80001FA0EF644EA060C02FA0EF700FA0EF489
:1083B8004FEA1749220CBCFBF9F01FFA87F809FBB2
:1083C80010C642EA064600FB08F3B34209D9F6197B
:1083D80000F1FF3280F02281B34240F21F8102385F
:1083E8003E44F61AA2B2B6FBF9F309FB136642EA59
:1083F800064403FB08F8A04509D9E41903F1FF3244
:1084080080F00A81A04540F20781023B3C44C8EB5A
:10841800040443EA00400021002D62D024FA0EF43F
:1084280000232C606B60BDE8F0878B4207D9002DD4
:1084380055D0002185E841000846BDE8F087B3FA29
:1084480083F1002940F09080B34202D3824200F2C7
:10845800F880841A66EB03060120B446002D40D04C
:1084680085E81010BDE8F08712B90127B7FBF2F7CD
:10847800B7FA87FEBEF1000F35D1F31B4FEA174854
:108488001FFA87FC0121B3FBF8F0220C08FB103619
:1084980042EA06460CFB00F3B34207D9F61900F18D
:1084A800FF3202D2B34200F2CE801046F61AA2B2D0
:1084B800B6FBF8F308FB136642EA06440CFB03FC20
:1084C800A44507D9E41903F1FF3202D2A44500F20A
:1084D800B5801346CCEB040443EA00409CE72946E8
:1084E8002846BDE8F087CEF1200106FA0EF307FA18
:1084F8000EF720FA01F94FEA1748CE4049EA030976
:10850800B6FBF8FA4FEA194408FB1A661FFA87FC0B
:1085180044EA06430AFB0CF29A4200FA0EF40AD91E
:10852800DB190AF1FF3180F087809A4240F284809B
:10853800AAF1020A3B449B1A1FFA89F9B3FBF8F126
:1085480008FB113349EA034301FB0CF69E4207D9A5
:10855800DB1901F1FF326BD29E4269D902393B44E3
:108568009B1B41EA0A418EE7C1F1200E22FA0EF464
:108578008B40234320FA0EF706FA01F44FEA134C16
:1085880026FA0EF63C43B6FBFCF9270C0CFB1966E1
:108598001FFA83F847EA064609FB08F7B74202FACA
:1085A80001F200FA01FA08D9F61809F1FF3041D2B0
:1085B800B7423FD9A9F102091E44F61BA0B2B6FB87
:1085C800FCF40CFB146640EA064704FB08F8B845BF
:1085D80007D9FF1804F1FF3028D2B84526D9023C44
:1085E8001F4444EA0940C8EB0707A0FB02894F452E
:1085F80044464E4614D329D065B3BAEB040367EB5F
:10860800060707FA0EFECB40CF404EEA030385E883
:1086180088000021BDE8F0871346F8E61046E0E63A
:10862800B8EB020469EB03060138E5E70446D8E72E
:10863800114695E78146C0E78A467CE7023B3C4401
:1086480048E708460AE702383E442FE7C245E7D321
:108658003E46D1E72946BDE8F08700BF704700BF16
:10866800024B0A460146186800F04DB850E3032053
:1086780010B5054C13462CB10A4601460220AFF34B
:10868800008010BD204610BD0000000010B5013963
:108698000244904207D010F8013B11F8014FA34261
:1086A800F7D0181B10BD002010BD10B5431E0A449A
:1086B800914204D011F8014B03F8014FF8E710BDBF
:1086C800884210B501EB020301D8421E0BE0984224
:1086D800FBD28118D21AD34204D013F8014D01F805
:1086E800014DF8E710BD994204D011F8014B02F88A
:1086F800014FF8E710BD02440346934202D003F845
:10870800011BFAE7704738B502FB01F42146FCF774
:108718006BFD054618B122460021FFF7ECFF2846FD
:1087280038BD000038B5124B1C68A36B0546D3B999
:108738001820FCF731FD43F20E33A06303804AF69C
:10874800CD33438041F2342383804EF26D63C3807E
:108758004DF6EC630381052343810B2383810122BA
:108768000023C0E90423A36B00221D615A6138BDB0
:1087780050E30320024B0146186800F003B800BF1D
:1087880050E3032070B5064608460C4600F00DF885
:10879800451C29463046FCF727FD064618B12A46EF
:1087A8002146FFF782FF304670BD034613F8012BC0
:1087B800002AFBD1181A0138704710B50346014446
:1087C8008B4204D01A785C1C0AB12346F8E7181AC1
:1087D80010BD00001D400D0059400D0085400D00E2
:1087E80089400D000000000074656D700068756DAB
:1087F800696469747900746F67676C654C656400B7
:1088080054656D703A2025660048756D6964697411
:10881800793A202566006C696768742D6D65746502
:10882800722F6C6576656C0035633162396130642E
:108838002D623562652D346134302D386637612DEF
:1088480036366233366430613531373600666463F4
:1088580066346133662D336665642D346564322D64
:10886800383465362D30346262623961653034647B
:1088780034006261745374617465006363393763EB
:108888003230632D353832322D343830302D616432
:1088980065352D31663636316432313333656500DE
:1088A800706F776572536F757263650064326232F8
:1088B800366266332D393739322D343266632D39B5
:1088C8006538612D3431663631303764663034634B
:1088D800006261744C6576656C0000000000000061
:1088E80000000000CD520D00D3520D00415F0D0075
:1088F800FD520D00CF520D000000000000000000E6
:10890800C7520D00E1520D0049600D0001530D00E2
:10891800C9520D000000000000000000C1520D0007
:10892800EF520D002B5A0D0005530D00C3520D00D8
:108938007BE327747BF815ACDD49A913000072F5B9
:10894800776972696E672E626C6500537461727420
:1089580020646973636F766572696E6720736572E8
:1089680076696365732E0053746172742064697349
:10897800636F766572696E6720636861726163749C
:1089880065726973746963732E005065657220643B
:108998006576696365206973206D697373696E67AD
:1089A80021004661696C656420746F206170706590
:1089B8006E6420706565722043656E7472616C2008
:1089C8006465766963652E00436F6E6E65637465D2
:1089D800642062792043656E7472616C20646576E8
:1089E8006963652E00446973636F6E6E65637465B1
:1089F800642062792072656D6F746520646576699C
:108A080063652E0043616E6E6F7420616464206E2E
:108A180065772070656572206465766963652E00E8
:108A28004E6577207065726970686572616C20693F
:108A38007320636F6E6E65637465642E00466169AA
:108A48006C656420746F20617070656E6420646961
:108A580073636F76657265642063686172616374BD
:108A6800657269737469632E004661696C65642078
:108A7800746F20617070656E6420646973636F76CB
:108A88006572656420736572766963652E00466158
:108A9800696C656420746F20617070656E64206C09
:108AA8006F63616C20636861726163746572697376
:108AB8007469632E004475706C6963617465642021
:108AC8006368617261637465726973746963206352
:108AD800616E6E6F742062652061646465642E0047
:108AE800000000000000000035630D003B630D002E
:108AF80091630D0049630D0037630D00000000000D
:108B080000000000A7690D009D690D0093690D0024
:108B180089690D007D690D0071690D0065690D0099
:108B28005D690D0053690D0049690D00116D0D0057
:108B38000000000000000000C5690D000F6A0D006C
:108B4800E7690D00C7690D00EF690D00F7690D00B1
:108B5800FF690D00076A0D0000000000000000001A
:108B6800616A0D00516A0D00536A0D006C6E006653
:108B78006E00636F64650064657461696C000D0A5A
:108B880000253031307520005D20002564002C2040
:108B98000028293A2000205B00636F6465203D208F
:108BA8000025690064657461696C73203D2000626A
:108BB8006175640053657269616C0053657269611F
:108BC8006C31007479706500706172616D00636D5D
:108BD8006400696400686E64007374726D0066698D
:108BE8006C74006C766C0061646448616E646C65DA
:108BF800720072656D6F766548616E646C657200AF
:108C0800656E756D48616E646C657273004A534F8A
:108C18004E53747265616D4C6F6748616E646C6524
:108C28007200617070006E6F6E65007472616365CA
:108C380000696E666F007761726E006572726F729E
:108C48000070616E696300616C6C000000000000D8
:108C580000000000A36B0D00996B0D008F6B0D00D9
:108C6800856B0D00796B0D006D6B0D00616B0D0050
:108C7800596B0D004F6B0D00456B0D00116D0D000C
:108C88000000000000000000A96C0D00B36C0D008E
:108C9800BD6C0D00C76C0D00D16C0D00DD6C0D00B6
:108CA800E96C0D00F56C0D00FD6C0D00076D0D00F5
:108CB800116D0D000000000000000000556F0D0050
:108CC800576F0D005A00252B3033643A2530327522
:108CD8000025592D256D2D25645425483A254D3AF2
:108CE8002553257A0061736374696D65000000007F
:108CF8000000000000000000B9710D0009720D00AD
:108D080017720D00F16D0D00CD710D00EF710D00A2
:108D1800DB710D0003720D00BB710D00BF710D00FA
:108D28000000000000000000C1720D0011730D006A
:108D38001F730D00F16D0D00FD720D00C3720D0063
:108D4800D9720D000B730D00EF720D00BD720D008E
:108D580000000000000000002B740D0021740D00BD
:108D680017740D00CD730D000B740D00FF730D000B
:108D7800F3730D00EB730D00E1730D00D7730D0055
:108D8800116D0D0000000000000000000000000050
:108D980000000000000000000000000000000000CB
:108DA80000000000000000000000000000000000BB
:108DB80000000000000000000000000000000000AB
:108DC800000000000000000000000000000000009B
:108DD800000000000000000000000000000000008B
:108DE80000000000430000000D440D008D450D00FB
:108DF800CD490D00694C0D0025630D00B1690D00CA
:108E0800356B0D00596C0D00DD6D0D00396F0D00CF
:108E18008D710D00A5710D0035740D009D760D0046
:108E2800F5760D00B9770D003D780D00C1780D007D
:088E3800000000000000000032
:088E400040F5FF7F0100000076
:108E4800ED8C0D00000000008C8D0D00AC8D0D0028
:108E5800CC8D0D00000000000000000000000000A4
:108E680000000000EC8D0D00000000000000000074
:108E780000000000000000000000000000000000EA
:108E880000000000000000000000000000000000DA
:108E980000000000000000000000000000000000CA
:088EA80000000000F0E20320CD
:108EB000FFFFFFFF00000102030405060708090A7F
:108EC0000B0C0D0E0F101112131415161718191A7A
:088ED0001B1C1D1E1F202800C1
:048ED8007856341282
:04000003D0004018D1
:00000001FF
