:02000002D0002C
:1040000000400D0088770D00000006000C0005013F
:08401000040115050000000089
:1040180050730D0009480A49884208B505D0094A75
:10402800824202D0121A03F021F90748074A0021F8
:10403800121A03F026F9014808BD00BF28E403203E
:10404800F8760D0090E4032090E40320F0E70320C5
:1040580070B502F06FF8074C074BE41AA408002566
:104068001E46A54204D056F8253098470135F8E792
:1040780070BD00BFF0760D00AC760D0000F03CB8C6
:1040880008B500F07DF8BDE8084002F021B800F05E
:10409800A3BE00F0A9BE00F0A7BE0078B0FA80F079
:1040A80040097047012303707047000010B5104C99
:1040B8002DED028B9FED0F8AB6EE001AB0EE480A7E
:1040C800F7EE000A0021204600F06AFA4FF47A70F1
:1040D80000F0FBFEB0EE481AF0EE480AB0EE480ACF
:1040E8002046002100F05CFABDEC028B012010BDD7
:1040F80094E403200000000010B501F02DFF164CD9
:104108004FF4165101F01CFF144800F04BFB2046F9
:1041180000F0A6F99FED121A2046F0EE410AB0EE23
:10412800410A002100F03CFA0021132002F040F877
:10413800002302220B490C4800F0DEFD02220B4945
:104148000B48002300F0D8FD0A4A0B490B48BDE88C
:10415800104000F04DBF00BF94E40320B4E40320F6
:1041680000000000B0E4032064730D00A0E4032005
:1041780069730D0072730D00B5400D00CD4F0D0031
:1041880030B52DED028B3E483E4D3F4C89B000F0D6
:10419800F3FBBDEEC00A3A4885ED000A00F00EFCBC
:1041A800BDEEC00A84ED000A01F0D6FE2B68374A3E
:1041B800012101F053FC01F0CFFE2368344A0121AC
:1041C80001F04CFC132002F01DF802F019FB9FEDE2
:1041D800263B41EC100BB0EE431AF0EE631A9FED4C
:1041E800244B9FED252B00F027FE2A4BB0EE408A8A
:1041F800F0EE608A83ED000B0022274B51EC100B88
:1042080002F0F4FD30B3B0EE480AF0EE680A062179
:1042180004A801F07AFD214B049A1B788DF8003030
:104228001F493C2302A800F0FDFF039C7CB1636892
:10423800013B63605BB9236820469B689847A36885
:10424800013BA3601BB923682046DB68984704A894
:1042580001F0D6FC41F2883000F037FE09B0BDEC21
:10426800028B30BDAFF300800000000000000000AA
:1042780000000000000059400000000000FEAF40B0
:10428800B4E40320B0E40320A0E403207C730D0011
:1042980085730D00A8E40320000049409CE4032036
:1042A80092730D0038B50C4B0C4C01251D7000F0B5
:1042B800CFFB062202210A4800F06EFA2B460E2296
:1042C8000F21204600F012F82046064A0649BDE8AC
:1042D800384001F0F1BF00BF9CE4032094E40320C0
:1042E800B4E4032090E403200F430D0010B5044606
:1042F800017042708370012103EB430002F0A0FFBC
:104308006060204610BD10B50446406800F06CFDA2
:10431800204610BD10B500210446007801F059FF71
:10432800142000F085FB2078012101F052FF1420B1
:10433800BDE8104000F07CBB70B506460D46082469
:1043480015F0800F14BF01210021707801F041FFA2
:10435800013C3046FFF7DEFF6D0014F0FF04EDB2BC
:10436800EED170BD13F0800FF8B50D46164614BF98
:10437800C021E0215A061F4658BF41F010013306FC
:10438800044658BF41F00801700658BF41F00401C7
:104398002A0658BF41F002016B0658BF41F00101DF
:1043A8002046FFF7C9FF39462046FFF7C5FF3146CB
:1043B8002046FFF7C1FF29462046BDE8F840FFF731
:1043C800BBBF2DE9F84F04460D46002191469A4699
:1043D8009DF828B0FFF7B0FF00212046FFF7ACFF9B
:1043E80000212046FFF7A8FF00212046FFF7A4FF81
:1043F80003274FF00108002617FB0588A278F3B2BF
:104408009A421BD9AB420DD1616815FB07F201F83E
:104418000290626802F808A0022217FB0522616870
:1044280001F802B0606803EB43014218415C9378DD
:1044380052782046FFF796FF0136DFE72046002135
:10444800FFF77AFF20460021FFF776FF204600217C
:10445800FFF772FF20460021BDE8F84FFFF76CBF59
:1044680073B504460121007801F0A2FE01216078AD
:1044780001F09EFE00252E46A378E9B28B4205F195
:10448800010506D9002300961A462046FFF799FF32
:10449800F2E702B070BD0000F8B5B5EEC01AF7EE4D
:1044A800007AF1EE10FA2DED048BF0EE418A48BF48
:1044B80071EE278AB0EE408AF4EEE78AF1EE10FA40
:1044C800C4BFF7EE007A78EEE78AB0EE609A18EE8D
:1044D800900A02F0A7F92FA3D3E9002304460D465A
:1044E80002F066FC60B179EE487A17EE900A02F0A5
:1044F80099F90022264B02F0E9F922462B4625E0DD
:10450800F6EE007AF4EEE78AF1EE10FA2FD41EA345
:10451800D3E900232046294602F04AFC50B379EE3D
:10452800487A17EE900A02F07DF9224606460F46B1
:104538002B4615A1D1E9000102F014F802460B46FA
:104548003046394602F0C2F9114B002202F0BEF99A
:10455800044618EE100A0D4602F064F902460B46AE
:104568002046294602F000F802F06AFC04E019EE41
:10457800100A01E018EE100ABDEC048B00EE100AD8
:10458800F8BD00BFAFF30080555555555555E53F6B
:1045980000001840555555555555C53F00000000B9
:1045A8002DE9F0432DED048BF5EE400AF1EE10FAFB
:1045B80083B080468946F0EE409AB0EE609AB0EE3D
:1045C800418A6ED011EE100A02F02CF9F6EE007A4C
:1045D800B4EEE78AF1EE10FA06460F4610D519EE4A
:1045E800100A02F01FF900224D4B01F0BDFF3246C0
:1045F8003B4602F06BF902F023FC08EE900A03E058
:1046080079EE088AE9EE488A19EE900A02F00AF96A
:1046180032463B4604460D463046394601F0A4FF73
:10462800064618EE900A0F4602F0FCF802460B46C2
:104638003046394601F096FF02F002FC34A3D3E974
:10464800002309EE100A2946204601F08DFF02F0EA
:10465800F7FBF0EE680A01EE100AB0EE490AFFF720
:104668001BFFB0EE691AF0EE680AB0EE408AB0EEB1
:10467800490AFFF711FF26A3D3E90023204629465C
:10468800F0EE409A01F06EFF02F0DAFBF0EE680AF5
:1046980001EE100AB0EE490AFFF7FEFEF0EE408A7E
:1046A80003E0F0EE418AF0EE419A19EE900A02F02A
:1046B800B9F819A3D3E9002302F008F902F0A0FB26
:1046C800C5B218EE100A02F0ADF813A3D3E900231F
:1046D80002F0FCF802F094FBC4B218EE900A02F063
:1046E800A1F80DA3D3E9002302F0F0F802F088FB4B
:1046F800C0B200902B46224649464046FFF761FE6D
:1047080003B0BDEC048BBDE8F08300BFAFF30080BD
:10471800555555555555D53F0000000000E06F40F0
:104728000000F03F00F094B910B503682F2B044641
:1047380004D9074A00210A2000F0A2FA23681F2B97
:1047480083BF03F01F03236002484FF0A04010BD51
:10475800394A0D000003005007B502AB43F8040DB9
:104768001846FFF7E1FF019A01239340C0F8083586
:1047780003B05DF804FB07B502AB43F8040D184617
:10478800FFF7D2FFD0F81035019823FA00F000F0B7
:10479800010003B05DF804FB02720122817102740A
:1047A8007047000010B500210446807901F000FD33
:1047B800074AA37912681B01D118D05C4B7803F023
:1047C8001F0343EA4010FFF7C7FF0023E36010BD53
:1047D800C8E403202DE9F74F044600F031F9E368F7
:1047E800834284BF0023E360237C33B9E368C01AA3
:1047F800B0F5FA6F01D20120A8E00025554E2574C6
:1048080000F01EF9A3793268E0601B01D118257108
:10481800E570A57065702570D05C4B7803F01F03B8
:1048280043EA4010FFF798FFFA2000F04EFB012101
:10483800A07901F0BDFCA37932681B01D118D25CC4
:104848004B7802A803F01F0343EA421340F8043DE3
:10485800FFF76AFF019B4FF0010808FA03F3C0F85D
:104868000C35142000F031FB00F0C2FEA379326849
:104878001B01D118D05C4B7803F01F0343EA4010AA
:10488800FFF76AFF282000F0D3F82946A07901F045
:104898008FFC2F464FF0000BA37932681B01D1180B
:1048A80012F803A04B7803F01F0343EA4A1A504654
:1048B800FFF761FF5046FFF75EFF80455FFA8BF90F
:1048C80008D101200BF1010B00F0B2F8BBF1FF0F8A
:1048D800E2D1D946A37932681B01D11812F80380B6
:1048E8004B7803F01F0343EA48184046FFF743FF9D
:1048F8004046FFF740FFB9F1FF0F5FFA80F814D088
:10490800032D0ED9EB070CD4FA080137A35C5B0022
:10491800DBB2A354217A49453CBF43F00103A354B9
:10492800FFB20135EDB2552DB4D100F063FE272F4B
:104938000BD92278637821791344A2781344E2785A
:104948001344DBB299423FF456AF002003B0BDE8F0
:10495800F08F00BFC8E4032010B50446FFF73AFF04
:1049680028B1A37800EE103AB8EE400A10BD9FEDCA
:10497800010A10BD0000C07F08B5FFF7EDFFF2EE99
:10498800027A60EE277AB1EE047A87EE870ADFEDC5
:10499800027A30EE270A08BD0000004210B504462E
:1049A800FFF718FF28B1237800EE103AB8EE400A56
:1049B80010BD9FED010A10BD0000C07FFFF7EEBFDC
:1049C80008B500F045F8014B186008BDC8E403209D
:1049D80008B5024B1B689B68019308BD4802030099
:1049E80008B5024B1B681B69019308BD4802030008
:1049F80008B5024B1B685B69019308BD48020300B8
:104A080008B5024B1B681B6B019308BD48020300E5
:104A180008B5024B1B685B6C019308BD4802030094
:104A280008B5024B1B685B68019308BD18020300B8
:104A380008B5024B1B68DB68019308BD1802030028
:104A480008B5024B1B685B69019308BD1802030097
:104A580008B5024B1B681B68019308BD2C020300B4
:104A680008B5024B1B685B68019308BD2C02030064
:104A780008B5024B1B689B68019308BD2C02030014
:104A880008B5024B1B68DB68019308BD2C020300C4
:104A980008B5024B1B681B69019308BD2C02030073
:104AA80008B5024B1B681B6A019308BD2C02030062
:104AB80008B5024B1B685B6A019308BD2C02030012
:104AC80008B5024B1B681B6B019308BD2C02030041
:104AD80008B5024B1B681B6A019308BD2802030036
:104AE80008B5024B1B685B6A019308BD28020300E6
:104AF80008B5024B1B689B6A019308BD2802030096
:104B080008B5024B1B68DB6A019308BD2802030045
:104B180008B5024B1B681B6B019308BD28020300F4
:104B280008B5024B1B685B6B019308BD28020300A4
:104B380008B5024B1B681B6C019308BD28020300D3
:104B480008B5024B1B685B69019308BD640203004A
:104B580008B5024B1B689B68019308BD68020300F7
:104B680008B5024B1B68DB68019308BD68020300A7
:104B780008B5024B1B68DB69019308BD30020300CE
:104B880008B5024B1B681B6A019308BD300203007D
:104B980008B5024B1B681B68019308BD3C02030063
:104BA80008B5024B1B68DB68019308BD3C02030093
:104BB80008B5024B1B681B69019308BD3C02030042
:104BC80008B5024B1B685B69019308BD3C020300F2
:104BD80008B5024B1B689B69019308BD3C020300A2
:104BE80008B5024B1B68DB69019308BD3C02030052
:104BF80008B5024B1B681B6A019308BD3C02030001
:104C080008B5024B1B689B6A019308BD3C02030070
:104C180008B5024B1B681B68019308BD4C020300D2
:104C280008B5024B1B685B68019308BD4C02030082
:104C380008B5024B1B681B69019308BD4C020300B1
:104C480008B5024B1B685B69019308BD4C02030061
:104C580008B5024B1B689B69019308BD4C02030011
:104C680008B5024B1B68DB69019308BD4C020300C1
:104C780008B5024B1B681B6A019308BD4C02030070
:104C880008B5024B1B685B6B019308BD600203000B
:104C980008B5024B1B685B68019308BD200203003E
:104CA80008B5024B1B685B69019308BD200203002D
:104CB80008B5024B1B68DB6C019308BD200203009A
:104CC80008B5024B1B685B6D019308BD2002030009
:104CD80008B5034B1B68D3F88830019308BD000062
:104CE8002002030008B5034B1B68D3F894300193E6
:104CF80008BD00002002030008B5024B1B681B68B2
:104D0800019308BD4402030008B5024B1B685B68A9
:104D1800019308BD4402030008B5024B1B681B6AD7
:104D2800019308BD4402030008B5024B1B68DB6B06
:104D3800019308BD4402030008B5024B1B685B6879
:104D4800019308BD4002030008B5024B1B689B682D
:104D5800019308BD4002030008B5024B1B68DB68DD
:104D6800019308BD4002030008B5024B1B681B698C
:104D7800019308BD4002030008B5024B1B685B693C
:104D8800019308BD4002030008B5024B1B689B69EC
:104D9800019308BD4002030008B5024B1B68DB699C
:104DA800019308BD4002030008B5024B1B681B6A4B
:104DB800019308BD4002030008B5024B1B681B6B3A
:104DC800019308BD4002030008B5024B1B685B6BEA
:104DD800019308BD4002030008B5024B1B681B681D
:104DE800019308BD1C02030008B5024B1B685B68F1
:104DF800019308BD1C02030008B5024B1B689B68A1
:104E0800019308BD1C02030008B5024B1B685B6ACE
:104E1800019308BD1C02030008B5024B1B68DB6A3E
:104E2800019308BD1C02030008B5024B1B681B6BED
:104E3800019308BD1C0203002DE9F04F2DED028BF4
:104E4800B0EE448AF0EE648A55EC114B57EC126BC5
:104E580083B011EE102A2B4612EE100A39468DED5A
:104E6800000B5BEC13AB01F099FF9DED000B38BB19
:104E780051EC100B22462B4601F074FB524680463B
:104E880089465B4651EC180B01F06CFB02460B4659
:104E98004046494601F01AFD2246804689462B467F
:104EA8003046394601F05EFB02460B46404649460D
:104EB80001F036FE52465B4601F056FB41EC100B02
:104EC80003B0BDEC028BBDE8F08F0021FFF7E8BE10
:104ED80010B5836804460BB901F0F5F9C368984723
:104EE800A3681BB10322214620469847204610217B
:104EF800BDE8104001F0E5B910B5036804469B68A9
:104F08009847A368013BA3602BB923682046DB6858
:104F1800BDE81040184710BD10B50446006828B118
:104F28004368013B43600BB9FFF7E6FF204610BD1D
:104F38000B68036013B15A6801325A607047000069
:104F4800024800230360FFF763BD00BFCCE40320E1
:104F580070470020704710B51021044601F0B1F9E0
:104F6800204610BD08B508B1FFF7F5FF08BD10B51C
:104F78008368044613B1032201469847204610BDB2
:104F880038B5C468ECB12378022B02D1E068FFF78A
:104F98002BFF656835B12846FFF7E9FF1021284641
:104FA80001F08FF9A56835B12846FFF7E0FF102119
:104FB800284601F086F920461421BDE8384001F062
:104FC80080B938BD10B588B00446684600F05FFE69
:104FD800694604A800F07DFE04A8A047044604A87A
:104FE80000F00EFE684600F00BFE204608B010BD2B
:104FF800F0B5102485B007460E4615460021224616
:10500800684602F03EF9002269461046ADF80040B5
:10501800029703960195FFF777FE05B0F0BD13B52B
:10502800044691E8050000234B600B602060626035
:1050380001A801930093FFF76FFF204602B010BD4F
:10504800F7B50C4602AD54F8043B45F8083D064652
:105058000F4601A82146FFF76BFF29463046FFF7A8
:10506800DEFF01A8FFF758FF2046FFF755FF384637
:10507800082101F026F9304603B0F0BD13B50B4600
:10508800044603C88DE8030093E8030084E803009E
:105098009DE8030083E8030002B010BD826810B5E4
:1050A8000AB901F010F9C368BDE81040184708B5FF
:1050B800006800F11001FFF7F1FF08BD826810B524
:1050C8000AB901F000F9C368BDE81040184708B5EF
:1050D800006800F11001FFF7F1FF08BD38B50023A3
:1050E80083608B6804460D462BB102229847EB6813
:1050F800E360AB68A360204638BD00002DE9F041AD
:105108004FF69C7386B00468B1F904208B800023A5
:105118000F688DF800300B604FF00200D4E84F1F85
:10512800994203D1C4E8450F002DF7D102D08DF87C
:1051380000106BE014F10C051EBFE76022821F46C9
:105148000123BFF35F8F0020637004F10803BFF3EE
:105158005F8F53E8006F43E80002002AF9D1BFF3DC
:105168005F8F002E52D0FFF7A3FD20B129463046AD
:10517800FFF794FF43E031466846FFF7AFFFE0686A
:10518800B4F9105008B102F0BBF804901020ADF843
:105198001450FEF77CFF054630B34FF00008C0F806
:1051A80008801820FEF773FF0446C0B1C0F80880D5
:1051B80001466846FFF762FF029BA268A360039B53
:1051C8000292E268E360BDF81430A3824FF69C7344
:1051D800ADF81430049B03922361CDF810800E4B78
:1051E800EB600E4B2C60AB600498FFF7FDFD684642
:1051F800FFF7BDFE002229460948FFF761FD30464A
:10520800FFF7B5FE1021304601F05BF83846FFF78E
:10521800EBFD06B0BDE8F081B7500D0015530D0049
:10522800D94E0D002DE9F04F8BB007AD4FF0000BB4
:105238000646994614200C230F4690469DF850A028
:10524800C5F804B0C5F808B00793FEF720FF044678
:1052580038B180F800B080F801B0C0F804B0C0F8E8
:1052680008B00023102003940493FEF710FF28B120
:10527800012343608360234B0360C4600490224B86
:1052880008930820FEF703FF044628B1039B40F863
:10529800043B04A9FFF74CFE00955FFA8AF34A46DF
:1052A800414638460994FFF737FDB8B9039B5B7848
:1052B80003F0FF0293B94FF69C7305A903A8059262
:1052C800ADF81830FFF71AFF0598FFF78DFD05A810
:1052D8000999FFF7B5FE06A8FFF71EFE039B059385
:1052E80004A906A8FFF724FE05A93046FFF797FE94
:1052F80006A8FFF711FE04A8FFF70EFE30460BB014
:10530800BDE8F08FAC730D0081540D00022AF8B58A
:10531800044606D0032A17D0012A21D10B6803605E
:105328001EE018200E68FEF7B2FE054650B1314661
:10533800FFF7D4FE3069B6F9147008B101F0E0FF48
:105348002861AF8225600BE004684CB12069FFF743
:105358004BFD2046FFF70BFE1821204600F0B1FF59
:105368000020F8BD38B5002383608B6804460D46DD
:105378002BB102229847EB68E360AB68A360204634
:1053880038BD022A70B5044606D0032A11D0012A76
:1053980018D10B68036015E014200E68FEF777FE3D
:1053A800054620B13146FFF7DDFF337C2B742560BD
:1053B80008E0046834B12046FFF7D9FD14212046DF
:1053C80000F07FFF002070BDF0B5002387B00C46C9
:1053D800BFF35F8F50E8006F40E80032002AF9D130
:1053E800BFF35F8F002E3FD01846FFF761FC0746DA
:1053F80020B121463046FFF761FE2EE0314601A874
:10540800FFF7B0FF23788DF814301020FEF73FFE29
:105418000546D0B187601420FEF739FE044678B1FE
:105428008760014601A8FFF729FE039BA268A360D5
:10543800049B0392E268E3609DF81430049223749D
:105448000A4BEB600A4B2C60AB6001A8FFF78FFD9D
:10545800002229460748FFF733FC3046FFF787FD4F
:105468001021304600F02DFF07B0F0BDD7500D00D9
:105478008B530D00D94E0D0030B585B004460D464E
:1054880068461146FFF7DCFD7CB124B228460DB111
:1054980001F036FF029002A96846ADF80C40FFF70C
:1054A8002DFE0298FFF7A0FC1DE000988DF808403B
:1054B8004FF00102D0E84F3FA34203D1C0E8412F8B
:1054C8000029F7D102D08DF808300CE010F10C015A
:1054D8004FF0010318BF0373BFF35F8F043000F868
:1054E800033CFFF771FF01A8FFF716FD05B030BDBB
:1054F800002211464068FFF757BC00221146406859
:10550800FFF762BC00224068FFF756BC002281F01A
:1055180001014068FFF740BC00231A46194640685D
:10552800FFF732BC00231A4619464068FFF724BC2F
:10553800002211464068FFF717BC00221146406858
:10554800FFF702BC002202214068FFF705BC0023D8
:105558001A464068FFF7F0BB024B03225A60024A22
:105568001A607047D0E40320C8730D007047F8B57F
:10557800064615460C468F18BC4206D0336814F808
:10558800011B9B6830469847F6E72846F8BD00227D
:10559800007CFFF79DBA0021007CFFF7A1BA00212B
:1055A800007CFFF7A5BA0021007CFFF7A9BA00210B
:1055B800007CFFF7ADBA10B51421044600F081FE57
:1055C800204610BD10B504464FF47A730846A36010
:1055D8000021044B207461602360FFF7A9FA20467C
:1055E80010BD00BFFC730D000021007CFFF798BAC6
:1055F800FFF75EBAFFF754BA704710B51821044692
:1056080000F05FFE204610BDF0B5037D062B8DB07F
:105618000E4600F104074FF0000402D000F108051F
:1056280018E00CAD394605F8304D2F232A460A20DC
:10563800FFF786FA284601F07EFE33680246DB68EB
:105648002946304698470FE024B12E21304600F015
:10565800C7F9044415F8011D0A22304600F0FCF988
:10566800BD420444F0D120460DB0F0BD10B5054B45
:105678000446112240F8043B002101F002FE2046B6
:1056880010BD00BF24740D000346074A10B543F847
:10569800042B01F1100251F8044B43F8044B9142DA
:1056A800F9D10A781A7010BD24740D0010B59DF850
:1056B800084044EA032343EA024242EA0161042320
:1056C8004160037510BD37B50D788B784A78C97875
:1056D80000912946FFF7EAFF03B030BD014B024AAB
:1056E8001A607047D8E40320E6740D0000221146C2
:1056F8004068FFF759BB002211464068FFF764BBBA
:1057080000224068FFF758BB002281F00101406881
:10571800FFF742BB00231A4619464068FFF734BB1F
:1057280000231A4619464068FFF726BB0022114697
:105738004068FFF719BB002211464068FFF704BB19
:10574800002202214068FFF707BB00231A46406881
:10575800FFF7F2BA38B5054688B104684CB1A368BA
:105768001BB103222146204698471021204600F00D
:10577800A8FD28461421BDE8384000F0A2BD38BD78
:1057880010B103685B681847704710B50368044692
:10579800BBB15868FFF71CF978B923685A7C12B96D
:1057A8005868FFF71DF923685868FFF721F9206842
:1057B8000023236028B1FFF7CDFF206808B1FFF769
:1057C800C9FF204610BD000038B50C4B03600446E5
:1057D800D0F8CC0108B1FEF75EFCD4F8C45135B15D
:1057E8002846FFF7D2FF0421284600F06AFDA0688A
:1057F80008B1FFF7C5FF204638BD00BF18750D007A
:1058080038B50D4C0D4B23600025022304F5E470D8
:105818006360A560C4F8C451C4F8C851FFF7F8F82C
:10582800074BC4F8CC5123602046064A0649BDE818
:10583800384000F041BD00BFDCE403204C750D008A
:1058480018750D0090E40320D1570D0000231A4667
:105858004068FFF771BA002202214068FFF77CBA5E
:10586800002211464068FFF76FBA002211464068CF
:10587800FFF77ABA00231A4619464068FFF77CBA40
:1058880000231A4619464068FFF77EBA002281F0C5
:1058980001014068FFF780BA00224068FFF78CBA20
:1058A800002211464068FFF78FBA0022114640686F
:1058B800FFF77ABA2DE9F043002495B016460D4655
:1058C8000746FFF7D3FE214620220CA8009401F0DA
:1058D800D8FC40230C9321466B460CAA3046FFF7B0
:1058E8003FF90446002844D1024601216868FFF7C1
:1058F8003BFA0221804622466868FFF735FA009E87
:1059080081462146002E34D0002932D17368022BFB
:1059180002D00A2B09D02AE0B8F1000F27D071690C
:1059280038460431FFF7CFFE20E0B9F1000F1ED052
:105938007469112201A801F0A4FC06238DF8143023
:1059480001AD04F108031834186859682A4603C2DF
:105958000833A3421546F7D101A906A807ADFFF7FA
:1059680093FE0FCD3C1D0FC42B6823700121F669EF
:10597800C8E70098FFF7ECF8384615B0BDE8F083A3
:10598800024B034A1A6000225A607047ACE60320B3
:105998004C750D00F8B506460D468F180024BD421B
:1059A8000CD0336815F8011B9B68304698470028CF
:1059B80001DB0444F3E7002C08BF04462046F8BD89
:1059C80070B505460C46084649B101F0B4FC2B6891
:1059D800024621462846DB68BDE87040184770BD7E
:1059E80003689B68184738B50D210546FFF7F8FF8F
:1059F8000A2104462846FFF7F3FF204438BD30B596
:105A08008BB00B4600218DF82410012A98BF0A227A
:105A18000DF12304B3FBF2F505FB123303F0FF038A
:105A2800092B94BF30333733DBB2214604F80139F0
:105A38002B46002DEED1FFF7C3FF0BB030BD10B4DD
:105A48002AB903685DF8044B9B68C9B21847D2B2FB
:105A58005DF8044BFFF7D3BFFFF7F1BF0CB42DE996
:105A6800F04387B000AF07F13804054654F8049BAB
:105A78003C600E4623464A461421381DFFF7C4F9F8
:105A8800132805D8391D2846FFF79AFF044613E066
:105A980000F1080323F00703E846ADEB030D411CB2
:105AA80023464A4668463C60FFF7AEF969462846F1
:105AB800FFF786FF0446C5461EB12846FFF793FF49
:105AC800044420461C37BD46BDE8F04302B0704789
:105AD80010B50446FFF74BFA204610BD0348044AA8
:105AE80004490023836000F0E7BB00BFB4E603204D
:105AF80090E40320D95A0D00704710B510210446D0
:105B080000F0DFFB204610BD70B5084B036004466B
:105B180000250E4640F80C5FFEF772FF30462671EE
:105B2800FFF726F8A560204670BD00BF80750D0000
:105B38000079FFF725B800002DE9F14F59EC108BDB
:105B480007460E460022002310EE100A494601F0CF
:105B58002FF928B109F1004399462D2333700136F6
:105B6800002301240A22D9B28F4202D954430133B7
:105B7800F9E7204600F044FE42464B4600F0A6FEF8
:105B880082468B4601F0C4F98046894600F068FEDB
:105B980002460B465046594600F0E4FC0022174BDB
:105BA80001F01AF918B118F1010849F10009E517CF
:105BB80022462B464046494601F092F901230A2223
:105BC800314600F03EFAAFB1304601F0B4FB2E2367
:105BD80033540130064422462B464046494601F0DC
:105BE8007FF93B46104631460A2201B0BDE8F04F26
:105BF80000F027BA01B0BDE8F08F00BF0000E03F19
:105C080010B504460068FFF7EFF8204610BD10B540
:105C18000446006808B1FFF7E7F800232360A36093
:105C2800636010BD38B504460D4600680131FFF7C2
:105C3800E3F810B184E82100012038BD10B50368ED
:105C4800044613B143688B4207D22046FFF7EAFFA8
:105C580020B1A3680BB922681370012010BD70B57C
:105C68000E46114604461546FFF7E8FF18B92046C8
:105C7800FFF7CDFF09E02A463146A560206801F00C
:105C8800F5FA2268A3680021D154204670BD38B5C2
:105C98000023044603604360836003730D4639B1F3
:105CA800084601F048FB294602462046FFF7D7FF81
:105CB800204638BD884210B50B46044607D009680F
:105CC80019B19A68FFF7CBFF01E0FFF7A0FF204664
:105CD80010BD10B50023044603604360836003735E
:105CE800FFF7E8FF204610BD38B505460C4641B120
:105CF800084601F020FB214602462846FFF7AFFF81
:105D080001E0FFF784FF284638BD10B500238AB0AC
:105D180004460360436083600373C8B201A9FFF7B8
:105D28000BFF01A92046FFF7DFFF20460AB010BD90
:105D3800044B00204FF6FF72187058809A80FEF7C7
:105D4800A7BF00BFC4E60320024B1A68024B1A60C3
:105D5800704700BF28E40320CCE603207047417455
:105D6800704708B5007CFEF74BFF20EAE07008BDDD
:105D780008B5007CFEF71CFF20EAE07008BD08B5F6
:105D8800007CFEF725FF30EA200028BF4FF0FF30E7
:105D980008BD08B5007CFEF713FF30EA200028BFD5
:105DA8004FF0FF3008BD007CFEF71ABF10B5142174
:105DB800044600F086FA204610BD70B5457C0446BE
:105DC8000E4625B9007CFEF71BFF002805DD31468D
:105DD800207CBDE87040FEF7E3BE284670BD000099
:105DE80010B5044608461146002262604FF47A72E4
:105DF800A260054A22600122207462741A46FEF7E6
:105E0800C7FE204610BD00BFBC750D00007CFEF724
:105E1800EFBE0000F8B5194C25684DB98420FEF78F
:105E280036F9064618B18422294601F02AFA266076
:105E3800134D2E684EB98420FEF729F9074618B18C
:105E48008422314601F01DFA2F600E4F396811F097
:105E5800010611D13846FEF720F968B122682B688F
:105E680009483146FFF7BCFF3846FEF71BF9074AD9
:105E78000749054800F020FA0348F8BDECE603207E
:105E8800E4E60320E8E60320D0E6032090E40320BC
:105E9800655D0D0041747047704708B50021007CAE
:105EA800FEF7D6FE30EA200028BF4FF0FF3008BDCD
:105EB80008B50121007CFEF7CBFE30EA200028BFA0
:105EC8004FF0FF3008BD08B5007CFEF7B9FE20EAA8
:105ED800E07008BD08B5007CFEF7AAFE20EAE07075
:105EE80008BD007CFEF7C4BE10B51421044600F0BE
:105EF800E8F9204610BD38B50446007C0D46FEF78B
:105F08009FFE002801DC607C28B12946207CFEF732
:105F1800A7FE20EAE07038BD10B504460023636090
:105F28004FF47A73A360054B23600123084621745C
:105F380063741146FEF76CFE204610BDEC750D002B
:105F48000022007CFEF76CBE10B514220446002126
:105F580001F097F9204610BD30B50E4D87B001A865
:105F6800FFF7F2FF296811F0010410D12846FEF767
:105F780094F860B101AA21460748FFF7CDFF2846EB
:105F8800FEF790F8054A0649034800F095F90248DB
:105F980007B030BDF0E60320F4E6032090E40320C8
:105FA800A15E0D00002211464068FEF7DDBE00220A
:105FB80011464068FEF7F8BE002211464068FEF719
:105FC80003BF00224068FEF7F7BE002281F00101FE
:105FD8004068FEF7E1BE00231A4619464068FEF7FE
:105FE800D3BE00231A4619464068FEF7C5BE0022F4
:105FF80011464068FEF7A8BE002202214068FEF75D
:10600800ABBE00231A464068FEF796BE024B042238
:106018005A60024A1A60704708E703201C760D0090
:1060280010B5044601F087F9013823182046984234
:1060380006D20278197800F8011B03F80129F6E75F
:1060480010BD70B50C46911E222920D82546294638
:1060580010B9234430220EE0B0FBF2F602FB160022
:10606800C1B205F8011B092894BF3031573105F832
:10607800011C3046EBE7994202D201F8012BFAE7FE
:10608800002320460B70FFF7CBFF204670BD002091
:1060980070BD000008B50C4B33B1FFF75DFF036816
:1060A8001B699847002809DC084B63B1FFF7B2FE6B
:1060B80003681B699847002803DC08BDAFF300801C
:1060C800F2E7AFF3008008BD000000000000000008
:1060D80008B5FFF7DFFFFEF7B3FC014B186008BDFA
:1060E80014E7032007B5002300931A466FF07701E1
:1060F800FEF7F8FD03B05DF804FB000007B5438820
:106108000A2B08D0502B09D1094B1B683BB103B0AF
:106118005DF804EB1847FFF7E5FF06E0002300935E
:106128001A466FF07701FEF7DDFD03B05DF804FB5A
:1061380010E7032010B5FEF773FC044601F0B8F829
:10614800074B13B12046AFF3008000210448FEF747
:10615800EBFD00210348BDE81040FEF7B9BD00BFC4
:106168000000000005610D0010B504460F48FFF758
:10617800DFFC28B1A4F10B03022B01D8002010BDCD
:1061880000F058F8FFF730FA08B1012CF6D9FFF7FC
:1061980041FEFFF73BFE18B1A4F10903012BEDD92D
:1061A800232C8CBF0020012010BD00BF30E7032046
:1061B800232838B504460D460AD8FF2908D0FFF72A
:1061C800D3FF28B129462046BDE83840FEF750BC29
:1061D80038BD38B504460D46FEF752FCFF2810D0EE
:1061E800062804D84D2323FA00F0C30709D4204613
:1061F800FFF7BAFF28B129462046BDE83840FEF728
:1062080047BC38BD0D2810B504469CBF0E34A4B257
:106218002046FFF7A9FF50B103212046FEF720FCD6
:10622800032804D12046BDE81040FEF749BC0020F1
:1062380010BD000038B50B4D296811F001040FD1CD
:106248002846FDF72AFF58B121460748FFF7BAF953
:106258002846FDF727FF054A0549034800F02CF8B2
:10626800014838BD18E703201CE7032090E4032009
:1062780075550D0070B50C4C0C4E0D4D0021204687
:10628800FFF742FC20460B4C3246294600F014F832
:1062980001212046FFF738FC324629462046BDE852
:1062A800704000F009B800BF30E7032090E40320F5
:1062B800015B0D0040E703200B460146184600F03D
:1062C800C7BFFDF7E6BE08B5FEF7A6FD244B1A6862
:1062D800D0075CBF01221A60224B1A68D1075CBF45
:1062E80001221A60204B1A68D2075CBF01221A608B
:1062F8001E4B1A68D0075CBF01221A601C4B1A6833
:10630800D1075CBF01221A601A4B1A68D2075CBF1A
:1063180001221A60184B1A68D0075CBF01221A6064
:10632800164B1A68D1075CBF01221A60144B1A6811
:10633800D2075CBF01221A60124B1A68D0075CBFF3
:1063480001221A60104B1A68D1075CBF01221A603B
:106358000E4B1A68D2075CBF01221A60704700BF53
:106368007CE7032078E7032074E7032070E7032025
:106378006CE7032068E7032064E7032060E7032055
:106388005CE7032058E7032054E7032050E7032085
:10639800184B1A68D1075CBF01221A60164B1A689D
:1063A800D2075CBF01221A60144B1A68D0075CBF81
:1063B80001221A60124B1A68D1075CBF01221A60C9
:1063C800104B1A68D2075CBF01221A600E4B1A687C
:1063D800D0075CBF01221A600C4B1A68D1075CBF5A
:1063E80001221A600A4B1A68D2075CBF01221A60A0
:1063F800704700BF9CE7032098E7032094E7032039
:1064080090E703208CE7032088E7032084E7032034
:1064180080E70320184B1A68D1075CBF01221A6075
:10642800164B1A68D2075CBF01221A60144B1A680F
:10643800D0075CBF01221A60124B1A68D1075CBFF3
:1064480001221A60104B1A68D2075CBF01221A6039
:106458000E4B1A68D0075CBF01221A600C4B1A68F1
:10646800D1075CBF01221A600A4B1A68D2075CBFC9
:1064780001221A60704700BFBCE70320B8E7032079
:10648800B4E70320B0E70320ACE70320A8E7032024
:10649800A4E70320A0E70320244B1A68D0075CBFB9
:1064A80001221A60224B1A68D1075CBF01221A60C8
:1064B800204B1A68D2075CBF01221A601E4B1A686B
:1064C800D0075CBF01221A601C4B1A68D1075CBF59
:1064D80001221A601A4B1A68D2075CBF01221A609F
:1064E800184B1A68D0075CBF01221A60164B1A684D
:1064F800D1075CBF01221A60144B1A68D2075CBF2F
:1065080001221A60124B1A68D0075CBF01221A6078
:10651800104B1A68D1075CBF01221A600E4B1A682B
:10652800D2075CBF01221A60704700BFECE7032066
:10653800E8E70320E4E70320E0E70320DCE70320A3
:10654800D8E70320D4E70320D0E70320CCE70320D3
:10655800C8E70320C4E70320C0E7032081F0004117
:1065680002E000BF83F0004330B54FEA41044FEA30
:10657800430594EA050F08BF90EA020F1FBF54EACB
:10658800000C55EA020C7FEA645C7FEA655C00F067
:10659800E2804FEA5454D4EB5555B8BF6D420CDD38
:1065A8002C4480EA020281EA030382EA000083EABB
:1065B800010180EA020281EA0303362D88BF30BD5B
:1065C80011F0004F4FEA01314FF4801C4CEA1131B1
:1065D80002D0404261EB410113F0004F4FEA033310
:1065E8004CEA133302D0524263EB430394EA050F9B
:1065F80000F0A780A4F10104D5F1200E0DDB02FA0A
:106608000EFC22FA05F2801841F1000103FA0EF29D
:10661800801843FA05F359410EE0A5F120050EF163
:10662800200E012A03FA0EFC28BF4CF0020C43FA94
:1066380005F3C01851EBE37101F0004507D54FF0A1
:10664800000EDCF1000C7EEB00006EEB0101B1F5F1
:10665800801F1BD3B1F5001F0CD349085FEA300037
:106668004FEA3C0C04F101044FEA445212F5800F42
:1066780080F09A80BCF1004F08BF5FEA500C50F1DF
:10668800000041EB045141EA050130BD5FEA4C0CC2
:10669800404141EB010111F4801FA4F10104E9D14B
:1066A80091F0000F04BF01460020B1FA81F308BF42
:1066B8002033A3F10B03B3F120020CDA0C3208DD0E
:1066C80002F1140CC2F10C0201FA0CF021FA02F1E9
:1066D8000CE002F11402D8BFC2F1200C01FA02F159
:1066E80020FA0CFCDCBF41EA0C019040E41AA2BF7E
:1066F80001EB0451294330BD6FEA04041F3C1CDA46
:106708000C340EDC04F11404C4F1200220FA04F065
:1067180001FA02F340EA030021FA04F345EA03010F
:1067280030BDC4F10C04C4F1200220FA02F001FAD1
:1067380004F340EA0300294630BD21FA04F0294653
:1067480030BD94F0000F83F4801306BF81F48011EC
:106758000134013D4EE77FEA645C18BF7FEA655C5F
:1067680029D094EA050F08BF90EA020F05D054EA31
:10677800000C04BF1946104630BD91EA030F1EBF36
:106788000021002030BD5FEA545C05D1400049413A
:1067980028BF41F0004130BD14F580043CBF01F52D
:1067A800801130BD01F0004545F0FE4141F4700113
:1067B8004FF0000030BD7FEA645C1ABF19461046EE
:1067C8007FEA655C1CBF0B46024650EA013406BFEF
:1067D80052EA033591EA030F41F4002130BD00BFAE
:1067E80090F0000F04BF0021704730B54FF480646B
:1067F80004F132044FF000054FF0000150E700BFEC
:1068080090F0000F04BF0021704730B54FF480644A
:1068180004F1320410F0004548BF40424FF0000137
:106828003EE700BF42004FEAE2014FEA31014FEA7A
:1068380002701FBF12F07F4393F07F4F81F06051C9
:10684800704792F0000F14BF93F07F4F704730B538
:106858004FF4607401F0004521F0004120E700BFCB
:1068680050EA010208BF704730B54FF000050AE052
:1068780050EA010208BF704730B511F0004502D553
:10688800404261EB41014FF4806404F132045FEA55
:10689800915C3FF4DCAE4FF003025FEADC0C18BFFA
:1068A80003325FEADC0C18BF033202EBDC02C2F1F0
:1068B800200300FA03FC20FA02F001FA03FE40EA82
:1068C8000E0021FA02F11444C1E600BF70B54FF082
:1068D800FF0C4CF4E06C1CEA11541DBF1CEA135564
:1068E80094EA0C0F95EA0C0F00F0DEF82C4481EACC
:1068F800030621EA4C5123EA4C5350EA013518BFEC
:1069080052EA033541F4801143F4801338D0A0FBD8
:1069180002CE4FF00005E1FB02E506F00042E0FB85
:1069280003E54FF00006E1FB03569CF0000F18BF8B
:106938004EF0010EA4F1FF04B6F5007F64F5407433
:1069480004D25FEA4E0E6D4146EB060642EAC621C6
:1069580041EA55514FEAC52040EA5E504FEACE2E33
:10696800B4F1FD0C88BFBCF5E06F1ED8BEF1004F36
:1069780008BF5FEA500E50F1000041EB045170BDB2
:1069880006F0004646EA010140EA020081EA0301F6
:10699800B4EB5C04C2BFD4EB0C0541EA045170BDF2
:1069A80041F480114FF0000E013C00F3AB8014F16C
:1069B800360FDEBF002001F0004170BDC4F10004B5
:1069C800203C35DA0C341BDC04F11404C4F1200536
:1069D80000FA05F320FA04F001FA05F240EA020091
:1069E80001F0004221F0004110EBD37021FA04F6C7
:1069F80042EB06015EEA430E08BF20EAD37070BD81
:106A0800C4F10C04C4F1200500FA04F320FA05F0DF
:106A180001FA04F240EA020001F0004110EBD370E1
:106A280041F100015EEA430E08BF20EAD37070BD51
:106A3800C4F1200500FA05F24EEA020E20FA04F32A
:106A480001FA05F243EA020321FA04F001F00041D9
:106A580021FA04F220EA020000EBD3705EEA430E4A
:106A680008BF20EAD37070BD94F0000F0FD101F079
:106A78000046400041EB010111F4801F08BF013CB2
:106A8800F7D041EA060195F0000F18BF704703F0F0
:106A98000046520043EB030313F4801F08BF013D77
:106AA800F7D043EA0603704794EA0C0F0CEA135533
:106AB80018BF95EA0C0F0CD050EA410618BF52EAED
:106AC8004306D1D181EA030101F000414FF00000F3
:106AD80070BD50EA410606BF1046194652EA430601
:106AE80019D094EA0C0F02D150EA013613D195EA75
:106AF8000C0F05D152EA03361CBF104619460AD1BD
:106B080081EA030101F0004141F0FE4141F47001C6
:106B18004FF0000070BD41F0FE4141F4780170BDB6
:106B280070B54FF0FF0C4CF4E06C1CEA11541DBF1B
:106B38001CEA135594EA0C0F95EA0C0F00F0A7F81D
:106B4800A4EB050481EA030E52EA03354FEA01314A
:106B580000F088804FEA03334FF0805545EA13135D
:106B680043EA12634FEA022245EA111545EA106525
:106B78004FEA00260EF000419D4208BF964244F1BC
:106B8800FD0404F5407402D25B084FEA3202B61ADB
:106B980065EB03055B084FEA32024FF480104FF4AF
:106BA800002CB6EB020E75EB030E22BFB61A754623
:106BB80040EA0C005B084FEA3202B6EB020E75EBB6
:106BC800030E22BFB61A754640EA5C005B084FEA1E
:106BD8003202B6EB020E75EB030E22BFB61A7546EB
:106BE80040EA9C005B084FEA3202B6EB020E75EBF6
:106BF800030E22BFB61A754640EADC0055EA060EB7
:106C080018D04FEA051545EA16754FEA06164FEAF9
:106C1800C30343EA52734FEAC2025FEA1C1CC0D1A5
:106C280011F4801F0BD141EA00014FF000004FF032
:106C3800004CB6E711F4801F04BF01430020B4F1F3
:106C4800FD0C88BFBCF5E06F3FF6AFAEB5EB030CAB
:106C580004BFB6EB020C5FEA500C50F1000041EBA8
:106C6800045170BD0EF0004E4EEA113114EB5C0475
:106C7800C2BFD4EB0C0541EA045170BD41F4801148
:106C88004FF0000E013C90E645EA060E8DE60CEA50
:106C9800135594EA0C0F08BF95EA0C0F3FF43BAF6D
:106CA80094EA0C0F0AD150EA01347FF434AF95EA24
:106CB8000C0F7FF425AF104619462CE795EA0C0F08
:106CC80006D152EA03353FF4FDAE1046194622E7D5
:106CD80050EA410618BF52EA43067FF4C5AE50EAAF
:106CE80041047FF40DAF52EA43057FF4EBAE12E79F
:106CF8004FF0FF3C06E000BF4FF0010C02E000BF80
:106D08004FF0010C4DF804CD4FEA410C7FEA6C5C62
:106D18004FEA430C18BF7FEA6C5C1BD001B050EA05
:106D2800410C0CBF52EA430C91EA030F02BF90EAF0
:106D3800020F0020704710F1000F91EA030F58BFAF
:106D4800994208BF90422CBFD8176FEAE37040F011
:106D5800010070474FEA410C7FEA6C5C02D150EAAF
:106D6800013C07D14FEA430C7FEA6C5CD6D152EA6A
:106D7800033CD3D05DF8040B704700BF844610462F
:106D880062468C461946634600E000BF01B5FFF72E
:106D9800B7FF002848BF10F1000F01BD4DF808EDFE
:106DA800FFF7F4FF0CBF012000205DF808FB00BFCF
:106DB8004DF808EDFFF7EAFF34BF012000205DF829
:106DC80008FB00BF4DF808EDFFF7E0FF94BF012076
:106DD80000205DF808FB00BF4DF808EDFFF7CEFF77
:106DE80094BF012000205DF808FB00BF4DF808EDB6
:106DF800FFF7C4FF34BF012000205DF808FB00BF87
:106E08004A0011D212F5001211D20DD56FF4787321
:106E1800B3EB62520ED44FEAC12343F0004343EA76
:106E2800505323FA02F070474FF00000704750EAC1
:106E3800013002D14FF0FF3070474FF0000070472B
:106E48004FEA4102B2F1E04324BFB3F5001CDCF184
:106E5800FE5C0DD901F0004C4FEAC0024CEA5070BC
:106E6800B2F1004F40EB830008BF20F001007047EB
:106E780011F0804F21D113F13872BCBF01F00040EE
:106E8800704741F480114FEA5252C2F11802C2F120
:106E9800200C10FA0CF320FA02F018BF40F00100A1
:106EA8004FEAC1234FEAD32303FA0CFC40EA0C0053
:106EB80023FA02F34FEA4303CCE77FEA625307D190
:106EC80050EA01331EBF4FF0FE4040F440007047C7
:106ED80001F0004040F0FE4040F40000704700BF61
:106EE80053B94AB9002908BF00281CBF4FF0FF3129
:106EF8004FF0FF3000F0A2B9ADF1080C6DE904CEF7
:106F080000F02AF8DDF804E0DDE9022304B0704758
:106F1800D0B500220E4B06460F46FFF7D7FCFFF709
:106F28006FFF0446FFF75CFC00220A4BFFF7CEFC1C
:106F380002460B4630463946FFF714FBFFF760FF61
:106F48002346002242EA000210461946D0BD00BF7F
:106F58000000F03D0000F0412DE9F0478C460E4658
:106F68000446089D002B50D18A4217466CD9B2FAC4
:106F780082FEBEF1000F0BD0CEF1200420FA04F4FB
:106F880001FA0EF644EA060C02FA0EF700FA0EF4BD
:106F98004FEA1749220CBCFBF9F01FFA87F809FBE6
:106FA80010C642EA064600FB08F3B34209D9F619AF
:106FB80000F1FF3280F02281B34240F21F81023893
:106FC8003E44F61AA2B2B6FBF9F309FB136642EA8D
:106FD800064403FB08F8A04509D9E41903F1FF3278
:106FE80080F00A81A04540F20781023B3C44C8EB8F
:106FF800040443EA00400021002D62D024FA0EF474
:1070080000232C606B60BDE8F0878B4207D9002D08
:1070180055D0002185E841000846BDE8F087B3FA5D
:1070280083F1002940F09080B34202D3824200F2FB
:10703800F880841A66EB03060120B446002D40D080
:1070480085E81010BDE8F08712B90127B7FBF2F701
:10705800B7FA87FEBEF1000F35D1F31B4FEA174888
:107068001FFA87FC0121B3FBF8F0220C08FB10364D
:1070780042EA06460CFB00F3B34207D9F61900F1C1
:10708800FF3202D2B34200F2CE801046F61AA2B204
:10709800B6FBF8F308FB136642EA06440CFB03FC54
:1070A800A44507D9E41903F1FF3202D2A44500F23E
:1070B800B5801346CCEB040443EA00409CE729461C
:1070C8002846BDE8F087CEF1200106FA0EF307FA4C
:1070D8000EF720FA01F94FEA1748CE4049EA0309AA
:1070E800B6FBF8FA4FEA194408FB1A661FFA87FC40
:1070F80044EA06430AFB0CF29A4200FA0EF40AD953
:10710800DB190AF1FF3180F087809A4240F28480CF
:10711800AAF1020A3B449B1A1FFA89F9B3FBF8F15A
:1071280008FB113349EA034301FB0CF69E4207D9D9
:10713800DB1901F1FF326BD29E4269D902393B4417
:107148009B1B41EA0A418EE7C1F1200E22FA0EF498
:107158008B40234320FA0EF706FA01F44FEA134C4A
:1071680026FA0EF63C43B6FBFCF9270C0CFB196615
:107178001FFA83F847EA064609FB08F7B74202FAFE
:1071880001F200FA01FA08D9F61809F1FF3041D2E4
:10719800B7423FD9A9F102091E44F61BA0B2B6FBBB
:1071A800FCF40CFB146640EA064704FB08F8B845F3
:1071B80007D9FF1804F1FF3028D2B84526D9023C78
:1071C8001F4444EA0940C8EB0707A0FB02894F4562
:1071D80044464E4614D329D065B3BAEB040367EB93
:1071E800060707FA0EFECB40CF404EEA030385E8B8
:1071F80088000021BDE8F0871346F8E61046E0E66F
:10720800B8EB020469EB03060138E5E70446D8E762
:10721800114695E78146C0E78A467CE7023B3C4435
:1072280048E708460AE702383E442FE7C245E7D355
:107238003E46D1E72946BDE8F08700BF704700BF4A
:10724800024B0A460146186800F023B88CE4032074
:1072580010B5054C13462CB10A4601460220AFF37F
:10726800008010BD204610BD0000000010B5431E70
:107278000A44914204D011F8014B03F8014FF8E792
:1072880010BD02440346934202D003F8011BFAE7FB
:10729800704738B502FB01F42146FDF7C5FD0546E8
:1072A80018B122460021FFF7ECFF284638BD000040
:1072B80038B5124B1C68A36B0546D3B91820FDF7E7
:1072C8008BFD43F20E33A06303804AF6CD3343802F
:1072D80041F2342383804EF26D63C3804DF6EC6334
:1072E8000381052343810B23838101220023C0E905
:1072F8000423A36B00221D615A6138BD8CE403206E
:10730800024B0146186800F003B800BF8CE4032064
:1073180070B5064608460C4600F00DF8451C29468F
:107328003046FDF781FD064618B12A462146FFF78B
:107338009DFF304670BD034613F8012B002AFBD190
:10734800181A0138704700001D400D0059400D0003
:1073580085400D0089400D000000000074656D70C7
:107368000068756D696469747900746F67676C6526
:107378004C65640054656D703A2025660048756D4B
:1073880069646974793A202566006C696768742DA8
:107398006D657465722F6C6576656C000000000081
:1073A80000000000594F0D005F4F0D00894F0D0080
:1073B8006D4F0D005B4F0D00000000000000000045
:1073C80057550D004D550D0043550D0039550D000D
:1073D8002D550D0021550D0015550D000D550D00AD
:1073E80003550D00F9540D00BD580D0000000000B4
:1073F8000000000075550D00BF550D0097550D0094
:1074080077550D009F550D00A7550D00AF550D0080
:10741800B7550D00000000000000000011560D00D7
:1074280001560D0003560D006C6E00666E00636F0A
:1074380064650064657461696C000D0A002530316B
:10744800307520005D20002564002C200028293A92
:107458002000205B00636F6465203D2000256900E3
:1074680064657461696C73203D2000626175640015
:1074780053657269616C0053657269616C3100749F
:1074880079706500706172616D00636D6400696494
:1074980000686E64007374726D0066696C74006CC9
:1074A800766C0061646448616E646C657200726534
:1074B8006D6F766548616E646C657200656E756D9A
:1074C80048616E646C657273004A534F4E53747210
:1074D80065616D4C6F6748616E646C6572006170C0
:1074E80070006E6F6E6500747261636500696E6628
:1074F8006F007761726E006572726F720070616EF4
:10750800696300616C6C000000000000000000006E
:1075180053570D0049570D003F570D0035570D00C3
:1075280029570D001D570D0011570D0009570D0063
:10753800FF560D00F5560D00BD580D000000000067
:107548000000000055580D005F580D0069580D00E7
:1075580073580D007D580D0089580D0095580D0081
:10756800A1580D00A9580D00B3580D00BD580D00C5
:107578000000000000000000015B0D00035B0D002F
:107588005A00252B3033643A253032750025592DA1
:10759800256D2D25645425483A254D3A2553257ADD
:1075A8000061736374696D650000000000000000ED
:1075B80000000000655D0D00B55D0D00C35D0D00A8
:1075C8009D590D00795D0D009B5D0D00875D0D00D7
:1075D800AF5D0D00675D0D006B5D0D0000000000E4
:1075E80000000000A15E0D00F15E0D00FF5E0D00C1
:1075F8009D590D00DD5E0D00A35E0D00B95E0D0006
:10760800EB5E0D00CF5E0D009D5E0D0000000000DA
:10761800000000000B600D0001600D00F75F0D0019
:10762800AD5F0D00EB5F0D00DF5F0D00D35F0D0058
:10763800CB5F0D00C15F0D00B75F0D00BD580D0099
:107648000000000000000000000000000000000032
:107658000000000000000000000000000000000022
:107668000000000000000000000000000000000012
:107678000000000000000000000000000000000002
:1076880000000000000000000000000000000000F2
:1076980000000000000000000000000000000000E2
:1076A80043000000AD420D002D470D00C9490D00F3
:1076B800494F0D0061550D00E5560D0009580D00A4
:1076C80089590D00E55A0D00395D0D00515D0D0019
:1076D80015600D007D620D00D5620D0099630D00E7
:0876E8001D640D00A1640D00FA
:0876F00070F8FF7F01000000AB
:1076F800A9750D000000000048760D0068760D00A1
:1077080088760D0000000000000000000000000066
:1077180000000000A8760D00000000000000000036
:107728000000000000000000000000000000000051
:107738000000000000000000000000000000000041
:107748000000000000000000000000000000000031
:08775800000000002CE40320F6
:10776000FFFFFFFF00000102030405060708090AE6
:107770000B0C0D0E0F101112131415161718191AE1
:087780001B1C1D1E1F20280028
:0477880078563412E9
:04000003D0004018D1
:00000001FF
