:02000004080AE8
:1000000000000A08D42F0A080000050006000501B8
:080010000402EA0300000000F5
:10001800382C0A0809480A4908B5884205D0094A0F
:10002800824202D0121A02F095FD0748074A0021C1
:10003800121A02F09AFD064808BD00BF000300200E
:10004800442F0A08680300206803002000090020E4
:100058000009002070B501F0ABFB074B074C1E46AA
:10006800E41AA4080025A54204D056F8253098477C
:100078000135F8E770BD00BF042F0A083C2F0A08B5
:1000880000F050B808B500F069F8BDE8084001F084
:1000980051BB00F017BC00F01DBC0078B0FA80F02E
:1000A8004009704701230370704700001FB54FF0E7
:1000B8007C53009300224FF07E530021164800F035
:1000C800B7F9164B00221B7815498DF8003002A8A5
:1000D8003C2300F0BFFD039C7CB16368013B636077
:1000E8005BB9236820469B689847A368013BA360D7
:1000F8001BB923682046DB6898474FF47A7000F0F4
:1001080009FC002300931A460021034800F090F9E7
:10011800012004B010BD00BF6C0300207403002050
:100128004C2C0A0813B5094C204600F0E9F80023C6
:100138001A4620460093002100F07AF9044A05493E
:10014800054802B0BDE8104000F04BBC6C0300202D
:10015800532C0A08B5000A08BF090A0870470000AE
:1001680038B5094B094C01251D7000F02DFA2B46B6
:100178000F220E21204600F00FF82046BDE8384037
:10018800034A044901F0E8BB740300206C03002013
:1001980068030020BB010A0810B5044601704270CC
:1001A8008370012103EB430002F0BEFC606020462F
:1001B80010BD10B50446406800F08CFB204610BD09
:1001C80010B504460021007801F053FB142000F01C
:1001D800EBF92078012101F04CFBBDE81040142018
:1001E80000F0E2B970B506460D46082415F0800FF8
:1001F80014BF01210021707801F03BFB013C30461F
:10020800FFF7DEFF6D0014F0FF04EDB2EED170BD14
:10021800F8B516460D4604461F4613F0800F14BF66
:10022800C021E0215A0658BF41F01001330658BFDB
:1002380041F00801700658BF41F004012A0658BF72
:1002480041F002016B0658BF41F001012046FFF75B
:10025800C9FF39462046FFF7C5FF31462046FFF75C
:10026800C1FF29462046BDE8F840FFF7BBBF2DE98E
:10027800F04704460E460021904699469DF820A076
:10028800FFF7B0FF00212046FFF7ACFF0021204612
:10029800FFF7A8FF00212046FFF7A4FF002506EB83
:1002A8004607A278EBB29A4218D9B3420AD16268DB
:1002B80002F8078062683A4482F8019062683A441A
:1002C80082F802A0606803EB430142189378415C0E
:1002D80052782046FFF79CFF0135E2E720460021CF
:1002E800FFF780FF20460021FFF77CFF2046002112
:1002F800FFF778FF2046BDE8F0470021FFF772BFFF
:1003080073B504460121007801F0A2FA0025012105
:10031800607801F09DFA2E46A378E9B28B4205F188
:10032800010506D9002300961A462046FFF79FFFCD
:10033800F2E702B070BD00002DE9F84304460E460E
:1003480010460021154602F0C7FB28B128464FF099
:100358007E5102F01BF905464FF07E51284602F007
:10036800D9FB28B128464FF07E5102F00DF9054619
:10037800284601F0A7FD28A3D3E900238046894633
:1003880002F066F860B12146304602F0FDF801F04F
:1003980099FD0022244B01F0E9FD42464B4624E03A
:1003A8004FF07C51284602F097FB78BB1CA3D3E999
:1003B80000234046494602F04BF850B321463046E8
:1003C80002F0E2F801F07EFD424606460F4614A10F
:1003D800D1E900014B4601F015FC02460B463046B8
:1003E800394601F0C3FD104B002201F0BFFD06465F
:1003F80020460F4601F066FD02460B463046394658
:1004080001F002FC02F06CF8BDE8F8833046BDE864
:10041800F8832046BDE8F883555555555555C53FD1
:10042800555555555555E53F00001840000000004A
:100438002DE9F74F8A4601900021184615461C46BB
:10044800DDF830B002F03EFB002864D1584601F0D8
:1004580039FD8046894658464FF07C5102F03CFBF6
:1004680068B1204601F02EFD0022454B01F0CCFB7F
:1004780042464B4601F07AFD02F032F80CE059464C
:10048800204602F083F859460646204602F086F9CF
:100498000146304602F078F80446284601F012FD7D
:1004A80042464B4606460F464046494601F0ACFBDD
:1004B80080462046894601F005FD02460B46404627
:1004C800494601F09FFB02F00BF829A3D3E900236A
:1004D80080463946304601F097FB02F001F8214684
:1004E80002464046FFF728FF2A46214683464046F3
:1004F800FFF722FF1EA3D3E90023054639463046FD
:1005080001F080FB01F0ECFF214602464046FFF770
:1005180013FF044601E05C465D46284601F0D2FC24
:1005280015A3D3E9002301F021FD01F0B9FFC6B2FC
:10053800584601F0C7FC10A3D3E9002301F016FDCB
:1005480001F0AEFFC5B2204601F0BCFC0AA3D3E916
:10055800002301F00BFD01F0A3FF33462A46514664
:10056800C0B20C90019803B0BDE8F04FFFF77FBE12
:10057800555555555555D53F0000000000E06F40D2
:100588000000F03F00F020B808B5024B1B681B6B59
:10059800019308BDD001060808B5024B1B685B68CB
:1005A800019308BD9C01060808B5024B1B68DB686F
:1005B800019308BD9C01060808B5024B1B685B69DE
:1005C800019308BD9C01060808B5024B1B681B680F
:1005D800019308BDB001060808B5024B1B689B686B
:1005E800019308BDB001060808B5024B1B68DB681B
:1005F800019308BDB001060808B5024B1B681B69CA
:10060800019308BDB001060808B5024B1B681B6EB4
:10061800019308BDAC01060808B5024B1B685B6E68
:10062800019308BDAC01060808B5024B1B689B6E18
:10063800019308BDAC01060808B5024B1B68DB6EC8
:10064800019308BDAC01060808B5024B1B681B6F77
:10065800019308BDAC01060808B5024B1B685B6F27
:10066800019308BDAC01060808B5034B1B68D3F815
:100678008030019308BD0000AC01060808B5024BA4
:100688001B68DB69019308BDB401060808B5024B75
:100698001B681B6A019308BDB401060808B5024B24
:1006A8001B689B69019308BDC401060808B5024B85
:1006B8001B685B6A019308BDC401060808B5024BB4
:1006C8001B689B6A019308BDC401060808B5024B64
:1006D8001B68DB6A019308BDC401060808B5024B14
:1006E8001B681B6B019308BDC401060808B5024BC3
:1006F8001B685B6B019308BDC401060808B5024B73
:100708001B689B6B019308BDC401060808B5024B22
:100718001B681B6C019308BDC401060808B5024B91
:100728001B681B68019308BDD801060808B5024B71
:100738001B681B69019308BDD801060808B5024B60
:100748001B685B69019308BDD801060808B5024B10
:100758001B689B69019308BDD801060808B5024BC0
:100768001B68DB69019308BDD801060808B5024B70
:100778001B681B6A019308BDD801060808B5024B1F
:100788001B689B6C019308BDC001060808B5024BA5
:100798001B685B68019308BDA401060808B5024BF5
:1007A8001B685B69019308BDA401060808B5024BE4
:1007B8001B68DB6C019308BDA401060808B5024B51
:1007C8001B685B6D019308BDA401060808B5034BBF
:1007D8001B68D3F89030019308BD0000A4010608F7
:1007E80008B5034B1B68D3F89C30019308BD000083
:1007F800A401060808B5024B1B685B68019308BD95
:10080800CC01060808B5024B1B681B6A019308BD9A
:10081800CC01060808B5024B1B68DB6B019308BDC9
:10082800CC01060808B5024B1B685B68019308BD3C
:10083800C801060808B5024B1B689B68019308BDF0
:10084800C801060808B5024B1B68DB68019308BDA0
:10085800C801060808B5024B1B681B69019308BD4F
:10086800C801060808B5024B1B685B69019308BDFF
:10087800C801060808B5024B1B689B69019308BDAF
:10088800C801060808B5024B1B68DB69019308BD5F
:10089800C801060808B5024B1B681B6A019308BD0E
:1008A800C801060808B5024B1B681B6B019308BDFD
:1008B800C801060808B5024B1B685B6B019308BDAD
:1008C800C801060808B5024B1B681B68019308BDE0
:1008D800A001060808B5024B1B685B68019308BDB8
:1008E800A001060808B5024B1B689B68019308BD68
:1008F800A001060808B5024B1B68DB6A019308BD16
:10090800A001060808B5024B1B681B6B019308BDC4
:10091800A00106080021FFF741BF10B5836804460F
:100928000BB901F020F8C3689847A3681BB10322EC
:100938002146204698472046BDE81040102101F086
:1009480010B870470020704710B50446102101F018
:1009580008F8204610BD08B508B1FFF7F5FF08BD37
:1009680010B58368044613B1032201469847204610
:1009780010BD38B5C468ECB12378022B02D1E06809
:10098800FFF7A8FF656835B12846FFF7E9FF102192
:10099800284600F0E6FFA56835B12846FFF7E0FFD6
:1009A8001021284600F0DDFF2046BDE8384014211C
:1009B80000F0D7BF38BD10B588B00446684600F0CF
:1009C80093FC694604A800F0B1FC04A8A0470446BB
:1009D80004A800F042FC684600F03FFC204608B03E
:1009E80010BDF0B507460E46154685B010242246C0
:1009F8000021684602F0B9F8002269461046ADF8B1
:100A08000040029703960195FFF7F4FE05B0F0BD8C
:100A180038B5046805467CB16368013B63605BB91F
:100A2800236820469B689847A368013BA3601BB9CD
:100A380023682046DB689847284638BD13B5044626
:100A480091E8050000234B600B602060626001A8FC
:100A580001930093FFF7DCFF204602B010BD0B683E
:100A6800036013B15A6801325A607047F7B50C46F3
:100A780006460F4654F8043B02AD45F8083D2146AA
:100A880001A8FFF7ECFF29463046FFF7D7FF01A87A
:100A9800FFF7BEFF2046FFF7BBFF3846082100F0EE
:100AA80060FF304603B0F0BD13B50B46044603C8DB
:100AB8008DE8030093E8030084E803009DE8030041
:100AC80083E8030002B010BD826810B50AB900F0CF
:100AD8004AFFC368BDE81040184708B5006800F130
:100AE8001001FFF7F1FF08BD826810B50AB900F0E0
:100AF8003AFFC368BDE81040184708B5006800F120
:100B08001001FFF7F1FF08BD38B5002383608B683B
:100B180004460D462BB102229847EB68E360AB68A8
:100B2800A360204638BD00002DE9F0414FF69C73C4
:100B380004684FF0020086B0B1F904208B800023CE
:100B48000F688DF800300B60D4E84F1F994203D12D
:100B5800C4E8450F002DF7D102D08DF800106CE0E5
:100B680014F10C051CBFE7602282BFF35F8F18BF2A
:100B78001F4601236370BFF35F8F04F10803002051
:100B880053E8006F43E80002002AF9D1BFF35F8FF2
:100B9800002E52D0FFF70AFE20B129463046FFF753
:100BA80093FF43E031466846FFF7AEFFE068B4F9CB
:100BB800105008B102F018F804901020ADF8145045
:100BC800FFF767FA054630B34FF00008C0F8088011
:100BD8001820FFF75EFA0446C0B1C0F80880014645
:100BE8006846FFF761FF029BA268A360039B02921D
:100BF800E268E360BDF814300392A3824FF69C7359
:100C0800ADF81430049BCDF8108023610E4B2C6096
:100C1800EB600E4BAB600498FFF75CFE6846FFF78D
:100C28009FFE002229460A48FFF7C8FD3046FFF715
:100C380097FE1021304600F094FE3846FFF74AFE32
:100C480006B0BDE8F08100BFE30A0A08450D0A08AE
:100C580023090A082DE9F04F8BB007AD4FF0000BC0
:100C68000646994614200C230F4690469DF850A03E
:100C7800C5F804B0C5F808B00793FFF70AFA0446A8
:100C880038B180F800B080F801B0C0F804B0C0F8FE
:100C980008B00023102003940493FFF7FAF928B151
:100CA800012343608360234BC4600360224B04909C
:100CB80008200893FFF7EDF9044628B1039B04A91F
:100CC80040F8043BFFF7CBFE00955FFA8AF34A46EB
:100CD800414638460994FFF795FDB8B9039B5B7800
:100CE80003F0FF0293B94FF69C7305A903A8059278
:100CF800ADF81830FFF718FF0598FFF7EBFD05A8CA
:100D08000999FFF7B3FE06A8FFF782FE039B04A923
:100D180006A80593FFF7A3FE05A93046FFF78EFE48
:100D280006A8FFF775FE04A8FFF772FE30460BB061
:100D3800BDE8F08F682C0A08B10E0A08022AF8B537
:100D4800044606D0032A17D0012A21D10B68036074
:100D58001EE018200E68FFF79CF9054650B1314691
:100D6800FFF7D2FE3069B6F9147008B101F03CFF04
:100D78002861AF8225600BE004684CB12069FFF759
:100D8800A9FD2046FFF7ECFD1821204600F0E9FDFB
:100D98000020F8BD38B5002383608B6804460D46F3
:100DA8002BB102229847EB68E360AB68A36020464A
:100DB80038BD022A70B5044606D0032A11D0012A8C
:100DC80018D10B68036015E014200E68FFF761F96D
:100DD800054620B13146FFF7DDFF337C2B742560D3
:100DE80008E0046834B12046FFF7BAFD1421204614
:100DF80000F0B7FD002070BDF0B50C46BFF35F8F63
:100E080087B0002350E8006F40E80032002AF9D18B
:100E1800BFF35F8F002E3FD01846FFF7C7FC074689
:100E280020B121463046FFF75FFE2EE0314601A88B
:100E3800FFF7B0FF237810208DF81430FFF729F959
:100E48000546D0B187601420FFF723F9044678B12E
:100E58008760014601A8FFF727FE039BA268A360ED
:100E6800049B0392E268E3609DF8143004922374B3
:100E78000A4B2C60EB600A4BAB6001A8FFF770FDD2
:100E8800002229460748FFF799FC3046FFF768FD1E
:100E98001021304600F065FD07B0F0BD030B0A08CD
:100EA800BB0D0A0823090A0830B5044685B00D466B
:100EB80068461146FFF7DAFD7CB124B228460DB129
:100EC80001F092FE029002A96846ADF80C40FFF7C7
:100ED8002BFE0298FFF7FEFC1DE04FF00102009880
:100EE8008DF80840D0E84F3FA34203D1C0E8412F16
:100EF8000029F7D102D08DF808300CE010F10C0170
:100F08004FF0010318BF0373BFF35F8F043000F87D
:100F1800033CFFF771FF01A8FFF77AFD05B030BD6C
:100F28007047F8B5064615460C468F18BC4206D0E1
:100F3800336814F8011B9B6830469847F6E7284643
:100F4800F8BD0022007CFFF75FBB0021007CFFF7A3
:100F580063BB0021007CFFF767BB0021007CFFF723
:100F68006BBB0021007CFFF76FBB10B50446142152
:100F780000F0F7FC204610BD10B5044608464FF4B3
:100F88007A73A360044B0021207461602360FFF72B
:100F98006BFB204610BD00BF842C0A080021007C92
:100FA800FFF75ABB704710B50446182100F0D9FC6A
:100FB800204610BDF8B50F4600F10806051D0024AF
:100FC80016F8011D0A22384600F011F9AE42044411
:100FD80007D0002CF4D02E21384600F0DBF804446A
:100FE800EEE72046F8BD000010B50446044B112278
:100FF80040F8043B002101F0B8FD204610BD00BFB9
:10100800AC2C0A080346074A10B543F8042B01F133
:10101800100251F8044B914243F8044BF9D10A7875
:101028001A7010BDAC2C0A08024A41600260042202
:1010380002757047AC2C0A0810B59DF8084044EAC0
:10104800032343EA024242EA016104234160037533
:1010580010BD000037B5044D05609DF81850009587
:10106800FFF7EAFF03B030BDAC2C0A08014A024B77
:101078001A607047732D0A087803002000231A4667
:101088004068FFF7CFBB002202214068FFF7DABBB8
:10109800002211464068FFF7CDBB00221146406888
:1010A800FFF7D8BB00231A4619464068FFF7DABB9A
:1010B80000231A4619464068FFF7DCBB002281F07E
:1010C80001014068FFF7DEBB00224068FFF7EABB7A
:1010D800002211464068FFF7EDBB00221146406828
:1010E800FFF7D8BB70B516468EB0044608A8FFF7C0
:1010F8007BFF1122002103A801F037FD304601F0E3
:101108008EFD00250A4B009581B25B6803AA304624
:10111800FFF734FB20B129462046FFF785FF03E09F
:1011280003A92046FFF76EFF20460EB070BD00BF32
:10113800FC070020024B034A1A6000225A607047DD
:101148007C030020A42D0A08F8B506460D468F1822
:101158000024BD420CD0336815F8011B9B6830464B
:101168009847002801DB0444F3E7002C08BF044635
:101178002046F8BD70B505460C46084649B101F051
:101188004EFD2B68024621462846BDE87040DB68C4
:10119800184770BD03689B681847012A98BF0A2240
:1011A80030B50B468BB000218DF824100DF12304C7
:1011B800B3FBF2F505FB1233DBB2092B94BF3033D6
:1011C8003733DBB2214604F801392B46002DEFD125
:1011D800FFF7D0FF0BB030BD10B422B90368C9B215
:1011E8009B6810BC1847D2B210BCFFF7D6BFFFF7F8
:1011F800F3BF10B50446FFF7B3FB204610BD00004F
:10120800034800238360034A034900F0A5BB00BFDD
:101218008403002068030020FB110A08704710B5FA
:101228000446102100F09DFB204610BD70B5044611
:101238000E46074B0025036040F80C5FFFF7A4F942
:1012480030462671FFF71AFAA560204670BD00BF28
:10125800D82D0A080079FFF719BA10B504460068B6
:10126800FFF738FB204610BD10B50446006808B1EA
:10127800FFF730FB00232360A360636010BD38B51F
:1012880004460D4600680131FFF72CFB10B184E8D5
:101298002100012038BD10B50368044613B1436826
:1012A8008B4207D22046FFF7EAFF20B1A3680BB9AB
:1012B80022681370012010BD70B50E461146044611
:1012C8001546FFF7E8FF18B92046FFF7CDFF09E0FC
:1012D8002A463146A560206801F03CFC2268A368D4
:1012E8000021D154204670BD38B500230446036060
:1012F8004360836003730D4639B1084601F08FFCE3
:10130800294602462046FFF7D7FF204638BD8842C7
:1013180010B50B46044607D0096819B19A68FFF75B
:10132800CBFF01E0FFF7A0FF204610BD10B5044633
:1013380000230360436083600373FFF7E8FF2046E0
:1013480010BD00004FF6FF72034B00201870588044
:101358009A80FFF71BBA00BF94030020024B1A685B
:10136800024B1A60704700BF000300209C03002056
:1013780070474174704708B5007CFFF7C7F920EA49
:10138800E07008BD08B5007CFFF798F920EAE07026
:1013980008BD08B5007CFFF7A1F930EA200028BF96
:1013A8004FF0FF3008BD08B5007CFFF78FF930EA31
:1013B800200028BF4FF0FF3008BD007CFFF796B92A
:1013C80010B50446142100F0CCFA204610BD70B5C3
:1013D800457C04460E4625B9007CFFF797F900289E
:1013E80005DD3146207CBDE87040FFF75FB928462F
:1013F80070BD000010B50446084611460022626020
:101408004FF47A72A260054A207422600122627445
:101418001A46FFF743F9204610BD00BF142E0A08EC
:10142800007CFFF76BB9000038B50C4D296811F046
:10143800010411D12846FEF730FE68B1084A21465A
:10144800084B0948FFF7D6FF2846FEF72BFE074A48
:101458000749054800F080FA034838BD38040020E1
:101468003C040020B4030020A003002068030020EF
:1014780079130A0841747047704708B50021007C49
:10148800FFF764F930EA200028BF4FF0FF3008BDAD
:1014980008B50121007CFFF759F930EA200028BF80
:1014A8004FF0FF3008BD08B5007CFFF747F920EA88
:1014B800E07008BD08B5007CFFF738F920EAE07055
:1014C80008BD007CFFF752B910B50446142100F09E
:1014D80048FA204610BD38B50446007C0D46FFF793
:1014E8002DF9002801DC607C28B12946207CFFF713
:1014F80035F920EAE07038BD10B504460023636072
:101508004FF47A73A360054B0846236001232174C6
:1015180063741146FFF702F9204610BD442E0A08ED
:1015280010B504461422002101F01FFB054B20468C
:101538006360054BE36040F201132381812323821A
:1015480010BD00BF45050020C404002030B50E4D75
:1015580087B001A8FFF7E4FF296811F0010410D152
:101568002846FEF79AFD60B101AA21460748FFF711
:10157800C3FF2846FEF796FD054A0649034800F0D2
:10158800EBF9024807B030BDC0040020480600202F
:101598006803002081140A0810B5044614220021AB
:1015A80001F0E3FA054B20466360054BE36040F227
:1015B800011323818123238210BD00BFF806002078
:1015C8006006002010B50E4C86B001A8FFF7E4FFB6
:1015D8002368DB0710D42046FEF75FFD60B101AA3F
:1015E80001210848FFF788FF2046FEF75BFD064A01
:1015F8000649044800F0B0F9024806B010BD00BF23
:101608005C060020E40600206803002081140A0814
:10161800002211464068FFF71DB9F0B5164689B09B
:1016280011220F460446002103A801F09EFA304615
:1016380001F0F5FA0025009581B27B6803AA3046CF
:10164800FFF79CF820B129462046FFF7EDFC03E0A0
:1016580003A92046FFF7D6FC204609B0F0BD0022BA
:1016680011464068FFF716B9002211464068FFF797
:1016780021B900224068FFF715B9002281F0010165
:101688004068FFF7FFB800231A4619464068FFF77D
:10169800F1B800231A4619464068FFF7E3B800225C
:1016A80011464068FFF7C6B8002202214068FFF7DC
:1016B800C9B800231A464068FFF7B4B8024B0422A1
:1016C8005A60024A1A607047FC070020742E0A0804
:1016D80008B5144B33B1FFF739FF03681B69984706
:1016E800002816DC104B33B1FFF79EFE03681B6918
:1016F8009847002810DC0D4B0BB1AFF300800C4B62
:101708007BB1FFF75FFF03681B699847002806DC79
:1017180008BDAFF30080E5E7AFF30080EBE7AFF378
:10172800008008BD0000000000000000000000006C
:101738000000000008B5FFF7CBFFFEF73DFF014BA7
:10174800186008BD0C0800200248034A0349121A11
:1017580001F000BA0040024004400240402F0A084D
:1017680007B5002300931A466FF07701FFF738F8A2
:1017780003B05DF804FB000007B543880A2B08D0C6
:10178800502B09D1094B1B683BB103B05DF804EB42
:101798001847FFF7E5FF06E0002300931A466FF0AD
:1017A8007701FFF71DF803B05DF804FB040800207B
:1017B80038B5104C104D2368AB42104B0CBF0122BA
:1017C80000221A7002D0FFF7BFFF2560FEF7E4FE83
:1017D800044601F0E1F90A4B13B12046AFF300804B
:1017E80000210748FFF716F8BDE8384000210548F2
:1017F800FEF7ECBF004002401E1C279A0808002094
:101808000000000081170A0810B504460F48FFF7CA
:1018180021FD28B1A4F10D03022B01D8002010BD31
:1018280000F040F8FFF7BAFB08B1012CF6D9FFF732
:10183800FBFDFFF7F5FD18B1A4F11203012BEDD95B
:10184800172C8CBF0020012010BD00BF40080020CD
:10185800172838B504460D460AD8FF2908D0FFF7DF
:10186800D3FF28B129462046BDE83840FEF7B4BE6C
:1018780038BD38B504460D46FEF7B6FEFF2810D031
:10188800062804D84D2323FA00F0C30709D42046BC
:10189800FFF7BAFF28B129462046BDE83840FEF7D1
:1018A800ABBE38BD38B50B4D296811F001040FD116
:1018B8002846FEF7F2FB58B121460748FFF75CFBC4
:1018C8002846FEF7EFFB054A0549034800F044F8AF
:1018D800014838BD100800201408002068030020C3
:1018E800290F0A0813B5084C00231A461946009315
:1018F8002046FFF7AFFB2046044A054902B0BDE881
:10190800104000F029B800BF280800206803002014
:10191800AD0F0A0870B50C4C0C4E0D4D0021204639
:10192800FFF784FC20460B4C3246294600F014F899
:1019380001212046FFF77AFC324629462046BDE8B9
:10194800704000F009B800BF40080020680300207C
:1019580025120A08500800200B460146184601F0D7
:10196800EBB8FEF798BB08B5FEF7C4FF244B1A681E
:10197800D0075CBF01221A60224B1A68D1075CBFEE
:1019880001221A60204B1A68D2075CBF01221A6034
:101998001E4B1A68D0075CBF01221A601C4B1A68DC
:1019A800D1075CBF01221A601A4B1A68D2075CBFC4
:1019B80001221A60184B1A68D0075CBF01221A600E
:1019C800164B1A68D1075CBF01221A60144B1A68BB
:1019D800D2075CBF01221A60124B1A68D0075CBF9D
:1019E80001221A60104B1A68D1075CBF01221A60E5
:1019F8000E4B1A68D2075CBF01221A60704700BFFD
:101A08008C08002088080020840800208008002016
:101A18007C08002078080020740800207008002046
:101A28006C08002068080020640800206008002076
:101A3800184B1A68D1075CBF01221A60164B1A6846
:101A4800D2075CBF01221A60144B1A68D0075CBF2A
:101A580001221A60124B1A68D1075CBF01221A6072
:101A6800104B1A68D2075CBF01221A600E4B1A6825
:101A7800D0075CBF01221A600C4B1A68D1075CBF03
:101A880001221A600A4B1A68D2075CBF01221A6049
:101A9800704700BFAC080020A8080020A408002058
:101AA800A00800209C080020980800209408002026
:101AB80090080020184B1A68D1075CBF01221A60F1
:101AC800164B1A68D2075CBF01221A60144B1A68B9
:101AD800D0075CBF01221A60124B1A68D1075CBF9D
:101AE80001221A60104B1A68D2075CBF01221A60E3
:101AF8000E4B1A68D0075CBF01221A600C4B1A689B
:101B0800D1075CBF01221A600A4B1A68D2075CBF72
:101B180001221A60704700BFCC080020C8080020C6
:101B2800C4080020C0080020BC080020B808002015
:101B3800B4080020B0080020244B1A68D0075CBF06
:101B480001221A60224B1A68D1075CBF01221A6071
:101B5800204B1A68D2075CBF01221A601E4B1A6814
:101B6800D0075CBF01221A601C4B1A68D1075CBF02
:101B780001221A601A4B1A68D2075CBF01221A6048
:101B8800184B1A68D0075CBF01221A60164B1A68F6
:101B9800D1075CBF01221A60144B1A68D2075CBFD8
:101BA80001221A60124B1A68D0075CBF01221A6022
:101BB800104B1A68D1075CBF01221A600E4B1A68D5
:101BC800D2075CBF01221A60704700BFFC080020E2
:101BD800F8080020F4080020F0080020EC08002095
:101BE800E8080020E4080020E0080020DC080020C5
:101BF800D8080020D4080020D008002081F0004137
:101C080002E000BF83F0004330B54FEA41044FEAD9
:101C1800430594EA050F08BF90EA020F1FBF54EA74
:101C2800000C55EA020C7FEA645C7FEA655C00F010
:101C3800E2804FEA5454D4EB5555B8BF6D420CDDE1
:101C48002C4480EA020281EA030382EA000083EA64
:101C5800010180EA020281EA0303362D88BF30BD04
:101C680011F0004F4FEA01314FF4801C4CEA11315A
:101C780002D0404261EB410113F0004F4FEA0333B9
:101C88004CEA133302D0524263EB430394EA050F44
:101C980000F0A780A4F10104D5F1200E0DDB02FAB3
:101CA8000EFC22FA05F2801841F1000103FA0EF247
:101CB800801843FA05F359410EE0A5F120050EF10D
:101CC800200E012A03FA0EFC28BF4CF0020C43FA3E
:101CD80005F3C01851EBE37101F0004507D54FF04B
:101CE800000EDCF1000C7EEB00006EEB0101B1F59B
:101CF800801F1BD3B1F5001F0CD349085FEA3000E1
:101D08004FEA3C0C04F101044FEA445212F5800FEB
:101D180080F09A80BCF1004F08BF5FEA500C50F188
:101D2800000041EB045141EA050130BD5FEA4C0C6B
:101D3800404141EB010111F4801FA4F10104E9D1F4
:101D480091F0000F04BF01460020B1FA81F308BFEB
:101D58002033A3F10B03B3F120020CDA0C3208DDB7
:101D680002F1140CC2F10C0201FA0CF021FA02F192
:101D78000CE002F11402D8BFC2F1200C01FA02F102
:101D880020FA0CFCDCBF41EA0C019040E41AA2BF27
:101D980001EB0451294330BD6FEA04041F3C1CDAEF
:101DA8000C340EDC04F11404C4F1200220FA04F00F
:101DB80001FA02F340EA030021FA04F345EA0301B9
:101DC80030BDC4F10C04C4F1200220FA02F001FA7B
:101DD80004F340EA0300294630BD21FA04F02946FD
:101DE80030BD94F0000F83F4801306BF81F4801196
:101DF8000134013D4EE77FEA645C18BF7FEA655C09
:101E080029D094EA050F08BF90EA020F05D054EADA
:101E1800000C04BF1946104630BD91EA030F1EBFDF
:101E28000021002030BD5FEA545C05D140004941E3
:101E380028BF41F0004130BD14F580043CBF01F5D6
:101E4800801130BD01F0004545F0FE4141F47001BC
:101E58004FF0000030BD7FEA645C1ABF1946104697
:101E68007FEA655C1CBF0B46024650EA013406BF98
:101E780052EA033591EA030F41F4002130BD00BF57
:101E880090F0000F04BF0021704730B54FF4806414
:101E980004F132044FF000054FF0000150E700BF95
:101EA80090F0000F04BF0021704730B54FF48064F4
:101EB80004F1320410F0004548BF40424FF00001E1
:101EC8003EE700BF42004FEAE2014FEA31014FEA24
:101ED80002701FBF12F07F4393F07F4F81F0605173
:101EE800704792F0000F14BF93F07F4F704730B5E2
:101EF8004FF4607401F0004521F0004120E700BF75
:101F080050EA010208BF704730B54FF000050AE0FB
:101F180050EA010208BF704730B511F0004502D5FC
:101F2800404261EB41014FF4806404F132045FEAFE
:101F3800915C3FF4DCAE4FF003025FEADC0C18BFA3
:101F480003325FEADC0C18BF033202EBDC02C2F199
:101F5800200300FA03FC20FA02F001FA03FE40EA2B
:101F68000E0021FA02F11444C1E600BF70B54FF02B
:101F7800FF0C4CF4E06C1CEA11541DBF1CEA13550D
:101F880094EA0C0F95EA0C0F00F0DEF82C4481EA75
:101F9800030621EA4C5123EA4C5350EA013518BF95
:101FA80052EA033541F4801143F4801338D0A0FB82
:101FB80002CE4FF00005E1FB02E506F00042E0FB2F
:101FC80003E54FF00006E1FB03569CF0000F18BF35
:101FD8004EF0010EA4F1FF04B6F5007F64F54074DD
:101FE80004D25FEA4E0E6D4146EB060642EAC62170
:101FF80041EA55514FEAC52040EA5E504FEACE2EDD
:10200800B4F1FD0C88BFBCF5E06F1ED8BEF1004FDF
:1020180008BF5FEA500E50F1000041EB045170BD5B
:1020280006F0004646EA010140EA020081EA03019F
:10203800B4EB5C04C2BFD4EB0C0541EA045170BD9B
:1020480041F480114FF0000E013C00F3AB8014F115
:10205800360FDEBF002001F0004170BDC4F100045E
:10206800203C35DA0C341BDC04F11404C4F12005DF
:1020780000FA05F320FA04F001FA05F240EA02003A
:1020880001F0004221F0004110EBD37021FA04F670
:1020980042EB06015EEA430E08BF20EAD37070BD2A
:1020A800C4F10C04C4F1200500FA04F320FA05F089
:1020B80001FA04F240EA020001F0004110EBD3708B
:1020C80041F100015EEA430E08BF20EAD37070BDFB
:1020D800C4F1200500FA05F24EEA020E20FA04F3D4
:1020E80001FA05F243EA020321FA04F001F0004183
:1020F80021FA04F220EA020000EBD3705EEA430EF4
:1021080008BF20EAD37070BD94F0000F0FD101F022
:102118000046400041EB010111F4801F08BF013C5B
:10212800F7D041EA060195F0000F18BF704703F099
:102138000046520043EB030313F4801F08BF013D20
:10214800F7D043EA0603704794EA0C0F0CEA1355DC
:1021580018BF95EA0C0F0CD050EA410618BF52EA96
:102168004306D1D181EA030101F000414FF000009C
:1021780070BD50EA410606BF1046194652EA4306AA
:1021880019D094EA0C0F02D150EA013613D195EA1E
:102198000C0F05D152EA03361CBF104619460AD166
:1021A80081EA030101F0004141F0FE4141F4700170
:1021B8004FF0000070BD41F0FE4141F4780170BD60
:1021C80070B54FF0FF0C4CF4E06C1CEA11541DBFC5
:1021D8001CEA135594EA0C0F95EA0C0F00F0A7F8C7
:1021E800A4EB050481EA030E52EA03354FEA0131F4
:1021F80000F088804FEA03334FF0805545EA131307
:1022080043EA12634FEA022245EA111545EA1065CE
:102218004FEA00260EF000419D4208BF964244F165
:10222800FD0404F5407402D25B084FEA3202B61A84
:1022380065EB03055B084FEA32024FF480104FF458
:10224800002CB6EB020E75EB030E22BFB61A7546CC
:1022580040EA0C005B084FEA3202B6EB020E75EB5F
:10226800030E22BFB61A754640EA5C005B084FEAC7
:102278003202B6EB020E75EB030E22BFB61A754694
:1022880040EA9C005B084FEA3202B6EB020E75EB9F
:10229800030E22BFB61A754640EADC0055EA060E60
:1022A80018D04FEA051545EA16754FEA06164FEAA3
:1022B800C30343EA52734FEAC2025FEA1C1CC0D14F
:1022C80011F4801F0BD141EA00014FF000004FF0DC
:1022D800004CB6E711F4801F04BF01430020B4F19D
:1022E800FD0C88BFBCF5E06F3FF6AFAEB5EB030C55
:1022F80004BFB6EB020C5FEA500C50F1000041EB52
:10230800045170BD0EF0004E4EEA113114EB5C041E
:10231800C2BFD4EB0C0541EA045170BD41F48011F1
:102328004FF0000E013C90E645EA060E8DE60CEAF9
:10233800135594EA0C0F08BF95EA0C0F3FF43BAF16
:1023480094EA0C0F0AD150EA01347FF434AF95EACD
:102358000C0F7FF425AF104619462CE795EA0C0FB1
:1023680006D152EA03353FF4FDAE1046194622E77E
:1023780050EA410618BF52EA43067FF4C5AE50EA58
:1023880041047FF40DAF52EA43057FF4EBAE12E748
:102398004FF0FF3C06E000BF4FF0010C02E000BF29
:1023A8004FF0010C4DF804CD4FEA410C7FEA6C5C0C
:1023B8004FEA430C18BF7FEA6C5C1BD001B050EAAF
:1023C800410C0CBF52EA430C91EA030F02BF90EA9A
:1023D800020F0020704710F1000F91EA030F58BF59
:1023E800994208BF90422CBFD8176FEAE37040F0BB
:1023F800010070474FEA410C7FEA6C5C02D150EA59
:10240800013C07D14FEA430C7FEA6C5CD6D152EA13
:10241800033CD3D05DF8040B704700BF84461046D8
:1024280062468C461946634600E000BF01B5FFF7D7
:10243800B7FF002848BF10F1000F01BD4DF808EDA7
:10244800FFF7F4FF0CBF012000205DF808FB00BF78
:102458004DF808EDFFF7EAFF34BF012000205DF8D2
:1024680008FB00BF4DF808EDFFF7E0FF94BF01201F
:1024780000205DF808FB00BF4DF808EDFFF7CEFF20
:1024880094BF012000205DF808FB00BF4DF808ED5F
:10249800FFF7C4FF34BF012000205DF808FB00BF30
:1024A8004A0011D212F5001211D20DD56FF47873CB
:1024B800B3EB62520ED44FEAC12343F0004343EA20
:1024C800505323FA02F070474FF00000704750EA6B
:1024D800013002D14FF0FF3070474FF000007047D5
:1024E8004FEA4102B2F1E04324BFB3F5001CDCF12E
:1024F800FE5C0DD901F0004C4FEAC0024CEA507066
:10250800B2F1004F40EB830008BF20F00100704794
:1025180011F0804F21D113F13872BCBF01F0004097
:10252800704741F480114FEA5252C2F11802C2F1C9
:10253800200C10FA0CF320FA02F018BF40F001004A
:102548004FEAC1234FEAD32303FA0CFC40EA0C00FC
:1025580023FA02F34FEA4303CCE77FEA625307D139
:1025680050EA01331EBF4FF0FE4040F44000704770
:1025780001F0004040F0FE4040F40000704700BF0A
:1025880080F0004002E000BF81F0004142001FBF20
:102598005FEA410392EA030F7FEA226C7FEA236C29
:1025A8006AD04FEA1262D2EB1363C1BFD21841401E
:1025B80048404140B8BF5B42192B88BF704710F0B4
:1025C800004F40F4000020F07F4018BF404211F057
:1025D800004F41F4000121F07F4118BF494292EABF
:1025E800030F3FD0A2F1010241FA03FC10EB0C00EB
:1025F800C3F1200301FA03F100F0004302D5494278
:1026080060EB4000B0F5000F13D3B0F1807F06D324
:1026180040084FEA310102F10102FE2A51D2B1F11C
:10262800004F40EBC25008BF20F0010040EA030011
:102638007047490040EB000010F4000FA2F10102BE
:10264800EDD1B0FA80FCACF1080CB2EB0C0200FA48
:102658000CF0AABF00EBC25052421843BCBFD04096
:102668001843704792F0000F81F4000106BF80F410
:1026780000000132013BB5E74FEA41037FEA226CD3
:1026880018BF7FEA236C21D092EA030F04D092F09E
:10269800000F08BF0846704790EA010F1CBF0020D2
:1026A800704712F07F4F04D1400028BF40F000402F
:1026B800704712F100723CBF00F50000704700F04F
:1026C800004343F0FE4040F4000070477FEA226276
:1026D80016BF08467FEA23630146420206BF5FEA47
:1026E800412390EA010F40F4800070474FF0000347
:1026F80004E000BF10F0004348BF40425FEA000C0E
:1027080008BF704743F0964301464FF000001CE0B5
:1027180050EA010208BF70474FF000030AE000BF0B
:1027280050EA010208BF704711F0004302D5404249
:1027380061EB41015FEA010C02BF844601460020BB
:1027480043F0B64308BFA3F18053A3F50003BCFAD6
:102758008CF2083AA3EBC25310DB01FA02FC634483
:1027680000FA02FCC2F12002BCF1004F20FA02F28A
:1027780043EB020008BF20F00100704702F120027D
:1027880001FA02FCC2F1200250EA4C0021FA02F2DE
:1027980043EB020008BF20EADC7070474FF0FF0CE3
:1027A8001CEAD0521EBF1CEAD15392EA0C0F93EADE
:1027B8000C0F6FD01A4480EA010C400218BF5FEA80
:1027C80041211ED04FF0006343EA501043EA5111F3
:1027D800A0FB01310CF00040B1F5000F3EBF4900ED
:1027E80041EAD3715B0040EA010062F17F02FD2AF1
:1027F8001DD8B3F1004F40EBC25008BF20F00100D4
:10280800704790F0000F0CF0004C08BF49024CEAEA
:10281800502040EA51207F3AC2BFD2F1FF0340EA7C
:10282800C250704740F400004FF00003013A5DDCED
:1028380012F1190FDCBF00F000407047C2F100022E
:10284800410021FA02F1C2F1200200FA02FC5FEA1B
:10285800310040F1000053EA4C0308BF20EADC7065
:10286800704792F0000F00F0004C02BF400010F4D7
:10287800000F013AF9D040EA0C0093F0000F01F084
:10288800004C02BF490011F4000F013BF9D041EAA6
:102898000C018FE70CEAD15392EA0C0F18BF93EAA8
:1028A8000C0F0AD030F0004C18BF31F0004CD8D1D2
:1028B80080EA010000F00040704790F0000F17BF59
:1028C80090F0004F084691F0000F91F0004F14D09F
:1028D80092EA0C0F01D142020FD193EA0C0F03D1F7
:1028E8004B0218BF084608D180EA010000F00040FA
:1028F80040F0FE4040F40000704740F0FE4040F4D5
:10290800400070474FF0FF0C1CEAD0521EBF1CEA73
:10291800D15392EA0C0F93EA0C0F69D0A2EB030291
:1029280080EA010C49024FEA402037D04FF080532B
:1029380043EA111143EA10130CF000408B4238BFF0
:102948005B0042F17D024FF4000C8B4224BF5B1AFE
:1029580040EA0C00B3EB510F24BFA3EB510340EA4C
:102968005C00B3EB910F24BFA3EB910340EA9C00FA
:10297800B3EBD10F24BFA3EBD10340EADC001B016A
:1029880018BF5FEA1C1CE0D1FD2A3FF650AF8B420E
:1029980040EBC25008BF20F0010070470CF0004C1B
:1029A8004CEA50207F32C2BFD2F1FF0340EAC25046
:1029B800704740F400004FF00003013A37E792F007
:1029C800000F00F0004C02BF400010F4000F013A65
:1029D800F9D040EA0C0093F0000F01F0004C02BF60
:1029E800490011F4000F013BF9D041EA0C0195E7C9
:1029F8000CEAD15392EA0C0F08D142027FF47DAF62
:102A080093EA0C0F7FF470AF084676E793EA0C0F51
:102A180004D14B023FF44CAF08466EE730F0004C4F
:102A280018BF31F0004CCAD130F000427FF45CAFDF
:102A380031F000437FF43CAF5FE700BF4FF0FF3C4D
:102A480006E000BF4FF0010C02E000BF4FF0010CA0
:102A58004DF804CD4FEA40024FEA41037FEA226C69
:102A680018BF7FEA236C11D001B052EA530C18BF8B
:102A780090EA010F58BFB2EB030088BFC81738BFF0
:102A88006FEAE17018BF40F0010070477FEA226CDE
:102A980002D15FEA402C05D17FEA236CE4D15FEADA
:102AA800412CE1D05DF8040B704700BF844608460E
:102AB8006146FFE70FB5FFF7C9FF002848BF10F1CF
:102AC800000F0FBD4DF808EDFFF7F4FF0CBF012014
:102AD80000205DF808FB00BF4DF808EDFFF7EAFF9E
:102AE80034BF012000205DF808FB00BF4DF808ED59
:102AF800FFF7E0FF94BF012000205DF808FB00BF4E
:102B08004DF808EDFFF7D2FF94BF012000205DF8D3
:102B180008FB00BF4DF808EDFFF7C8FF34BF0120E0
:102B280000205DF808FB00BF024B0A460146186802
:102B380000F023B86403002010B5054C13462CB1EF
:102B48000A4601460220AFF3008010BD204610BDA2
:102B58000000000010B5431E0A44914204D011F849
:102B6800014B03F8014FF8E710BD034602449342B6
:102B780002D003F8011BFAE7704738B502FB01F4ED
:102B88002146FDF7BFFE054618B122460021FFF792
:102B9800ECFF284638BD000038B5124B05461C68C6
:102BA800A36BD3B91820FDF78DFE43F20E33A06353
:102BB80003804AF6CD33438041F2342383804EF2BA
:102BC8006D63C3804DF6EC630381052343810B23BA
:102BD800838101220023C0E90423A36B00221D6125
:102BE8005A6138BD64030020024B0146186800F0A2
:102BF80003B800BF6403002070B5064608460C46BB
:102C080000F00DF8451C29463046FDF77BFE0646C8
:102C180018B12A462146FFF79DFF304670BD03468E
:102C280013F8012B002AFBD1181A0138704700004D
:102C38001D000A085D000A0889000A088D000A08B4
:102C4800000000006C65642D6F6E00746F67676C20
:102C5800654C6564000000000000000000000000F2
:102C68004B090A0851090A087B090A085F090A087A
:102C78004D090A080000000000000000290F0A089A
:102C8800730F0A084B0F0A082B0F0A08530F0A087C
:102C98005B0F0A08630F0A086B0F0A0800000000A0
:102CA80000000000BD0F0A08AD0F0A08AF0F0A08A0
:102CB80066006C6E00666E00636F64650064657420
:102CC80061696C000D0A00253031307520005D20E7
:102CD800002564002C200028293A2000205B00638E
:102CE8006F6465203D200025690064657461696C26
:102CF80073203D2000626175640053657269616CE0
:102D08000055534253657269616C3100747970657E
:102D180000706172616D00636D6400696400686EC3
:102D280064007374726D0066696C74006C766C0074
:102D380061646448616E646C65720072656D6F767B
:102D48006548616E646C657200656E756D48616E8C
:102D5800646C657273004A534F4E53747265616DAB
:102D68004C6F6748616E646C657200617070006ECC
:102D78006F6E6500747261636500696E666F0077D7
:102D880061726E006572726F720070616E696300C5
:102D9800616C6C00000000000000000085100A084B
:102DA8008F100A0899100A08A3100A08AD100A081B
:102DB800B9100A08C5100A08D1100A08D9100A085B
:102DC800E3100A08ED100A080000000000000000E7
:102DD80025120A0827120A085A00252B3033643AAC
:102DE800253032750025592D256D2D25645425482B
:102DF8003A254D3A2553257A0061736374696D65E8
:102E080000000000000000000000000079130A081C
:102E1800C9130A08D7130A0851110A088D130A089A
:102E2800AF130A089B130A08C3130A087B130A087E
:102E38007F130A08000000000000000081140A083F
:102E4800D1140A08DF140A0851110A08BD140A0827
:102E580083140A0899140A08CB140A08AF140A083C
:102E68007D140A080000000000000000BB160A08D4
:102E7800B1160A08A7160A0819160A089B160A089E
:102E88008F160A0883160A087B160A0871160A089C
:102E980067160A0823160A08000000000000000050
:102EA800000000000000000000000000000000001A
:102EB800000000000000000000000000000000000A
:102EC80000000000000000000000000000000000FA
:102ED80000000000000000000000000000000000EA
:102EE80000000000000000000000000000000000DA
:102EF80000000000000000004300000069010A080B
:102F08008D050A0875100A083D110A0809120A08F1
:102F18004D130A0865130A08C5160A08ED180A08A9
:102F28001D190A0875190A08391A0A08BD1A0A0863
:082F3800411B0A080000000023
:042F4000000000008D
:102F4400012E0A0800000000A02E0A08C02E0A085C
:102F5400E02E0A080000000000000000000000004D
:102F640000000000002F0A0800000000000000001C
:102F7400000000000000000000000000000000004D
:102F8400000000000000000000000000000000003D
:102F9400000000000000000000000000000000002D
:082FA4000000000004030020FE
:102FAC00FFFFFFFF00000102030405060708090AE2
:102FBC000B0C0D0E0F101112131415161718191ADD
:082FCC001B1C1D1E1F20280024
:042FD40078563412E5
:04000005080A0018CD
:00000001FF
