:020000023000CC
:1000000000F003202102030065020300654603009F
:100010006902030011470300554703000000000078
:10002000000000000000000000000000558A0A00E7
:100030007102030000000000758A0A00758B0A0037
:10004000250D0A00770203000D590A00DD570A004A
:1000500029580A000D060A0019020A0055200A0054
:1000600041370A0055370A0069370A007702030052
:1000700077020300091F0A007702030077020300DA
:1000800001570A00491F0A00DD140A00C1580A007E
:1000900059350A005F350A00716A0A00B9C50700C0
:1000A00077020300770203007D370A0091370A00C8
:1000B0009D140A0019080A0000000000000000005A
:1000C00077020300AD140A00BD140A0075580A0037
:1000D00061960300C5030A007702030011520A006B
:1000E0006F770400A91C0A0019B20B000000000081
:1000F00000000000CD140A000000000089290A0059
:1001000000000000000000000000000000000000EF
:1001100000000000000000000000000000000000DF
:1001200000000000000000000000000000000000CF
:1001300000000000000000000000000000000000BF
:1001400000000000000000000000000000000000AF
:10015000000000000000000000000000000000009F
:10016000000000000000000000000000000000008F
:10017000000000000000000000000000000000007F
:10018000000000000000000000000000000000006F
:10019000000000000000000000000000000000005F
:1001A000000000000000000000000000000000004F
:1001B000000000000000000000000000000000003F
:1001C000000000000000000000000000000000002F
:1001D000000000000000000000000000000000001F
:1001E000000000000000000000000000000000000F
:1001F00000000000000000000000000000000000FF
:100200000000030008B00D00000028050C000300EA
:080210000000000000000000E6
:100220000C490D4A0D4B9B1A03DD043BC858D050B6
:10023000FBDC0A490A4A0020521A02DD043A8850BF
:10024000FCDC75F00FFC04F02DFB14F07DFF04F0D6
:100250008BFC000074A70D00005E0020506500209C
:10026000588F0120FEE7FEE7FEE7FEE7FEE7FEE728
:10027000FEE7FEE7FEE7FEE7D0400B1CD1409C46C0
:10028000203AD34018435242634693401843704784
:100290009140031C90409C46203A9340194352429F
:1002A0006346D3401943704781F0004102E000BF2C
:1002B00083F0004330B54FEA41044FEA430594EA26
:1002C000050F08BF90EA020F1FBF54EA000C55EA61
:1002D000020C7FEA645C7FEA655C00F0E2804FEA32
:1002E0005454D4EB5555B8BF6D420CDD2C4480EA14
:1002F000020281EA030382EA000083EA010180EA44
:10030000020281EA0303362D88BF30BD11F0004F91
:100310004FEA01314FF4801C4CEA113102D04042C7
:1003200061EB410113F0004F4FEA03334CEA133302
:1003300002D0524263EB430394EA050F00F0A7801A
:10034000A4F10104D5F1200E0DDB02FA0EFC22FA15
:1003500005F2801841F1000103FA0EF2801843FA09
:1003600005F359410EE0A5F120050EF1200E012AFA
:1003700003FA0EFC28BF4CF0020C43FA05F3C01838
:1003800051EBE37101F0004507D54FF0000EDCF1B1
:10039000000C7EEB00006EEB0101B1F5801F1BD35A
:1003A000B1F5001F0CD349085FEA30004FEA3C0C5E
:1003B00004F101044FEA445212F5800F80F09A8054
:1003C000BCF1004F08BF5FEA500C50F1000041EB58
:1003D000045141EA050130BD5FEA4C0C404141EB5C
:1003E000010111F4801FA4F10104E9D191F0000F83
:1003F00004BF01460020B1FA81F308BF2033A3F106
:100400000B03B3F120020CDA0C3208DD02F1140CFC
:10041000C2F10C0201FA0CF021FA02F10CE002F137
:100420001402D8BFC2F1200C01FA02F120FA0CFC30
:10043000DCBF41EA0C019040E41AA2BF01EB045179
:10044000294330BD6FEA04041F3C1CDA0C340EDC77
:1004500004F11404C4F1200220FA04F001FA02F3BA
:1004600040EA030021FA04F345EA030130BDC4F178
:100470000C04C4F1200220FA02F001FA04F340EA6D
:100480000300294630BD21FA04F0294630BD94F01E
:10049000000F83F4801306BF81F480110134013D05
:1004A0004EE77FEA645C18BF7FEA655C29D094EA76
:1004B000050F08BF90EA020F05D054EA000C04BFF4
:1004C0001946104630BD91EA030F1EBF00210020DF
:1004D00030BD5FEA545C05D14000494128BF41F07E
:1004E000004130BD14F580043CBF01F5801130BDE2
:1004F00001F0004545F0FE4141F470014FF000006D
:1005000030BD7FEA645C1ABF194610467FEA655C1D
:100510001CBF0B46024650EA013406BF52EA0335BF
:1005200091EA030F41F4002130BD00BF90F0000FAD
:1005300004BF0021704730B54FF4806404F13204E9
:100540004FF000054FF0000150E700BF90F0000FA2
:1005500004BF0021704730B54FF4806404F13204C9
:1005600010F0004548BF40424FF000013EE700BF99
:1005700042004FEAE2014FEA31014FEA02701FBF29
:1005800012F07F4393F07F4F81F06051704792F0FB
:10059000000F14BF93F07F4F704730B54FF4607475
:1005A00001F0004521F0004120E700BF50EA0102C0
:1005B00008BF704730B54FF000050AE050EA01026D
:1005C00008BF704730B511F0004502D5404261EBDD
:1005D00041014FF4806404F132045FEA915C3FF41E
:1005E000DCAE4FF003025FEADC0C18BF03325FEAB7
:1005F000DC0C18BF033202EBDC02C2F1200300FA6C
:1006000003FC20FA02F001FA03FE40EA0E0021FA90
:1006100002F11444C1E600BF70B54FF0FF0C4CF47A
:10062000E06C1CEA11541DBF1CEA135594EA0C0F30
:1006300095EA0C0F00F0DEF82C4481EA030621EA6B
:100640004C5123EA4C5350EA013518BF52EA0335A6
:1006500041F4801143F4801338D0A0FB02CE4FF058
:100660000005E1FB02E506F00042E0FB03E54FF088
:100670000006E1FB03569CF0000F18BF4EF0010E80
:10068000A4F1FF04B6F5007F64F5407404D25FEA7C
:100690004E0E6D4146EB060642EAC62141EA55512F
:1006A0004FEAC52040EA5E504FEACE2EB4F1FD0C71
:1006B00088BFBCF5E06F1ED8BEF1004F08BF5FEAEF
:1006C000500E50F1000041EB045170BD06F00046A1
:1006D00046EA010140EA020081EA0301B4EB5C044E
:1006E000C2BFD4EB0C0541EA045170BD41F4801146
:1006F0004FF0000E013C00F3AB8014F1360FDEBF6B
:10070000002001F0004170BDC4F10004203C35DA46
:100710000C341BDC04F11404C4F1200500FA05F3C9
:1007200020FA04F001FA05F240EA020001F000426A
:1007300021F0004110EBD37021FA04F642EB0601E0
:100740005EEA430E08BF20EAD37070BDC4F10C040A
:10075000C4F1200500FA04F320FA05F001FA04F2CE
:1007600040EA020001F0004110EBD37041F10001BA
:100770005EEA430E08BF20EAD37070BDC4F12005C5
:1007800000FA05F24EEA020E20FA04F301FA05F22D
:1007900043EA020321FA04F001F0004121FA04F2D5
:1007A00020EA020000EBD3705EEA430E08BF20EAA5
:1007B000D37070BD94F0000F0FD101F000464000DF
:1007C00041EB010111F4801F08BF013CF7D041EA61
:1007D000060195F0000F18BF704703F00046520065
:1007E00043EB030313F4801F08BF013DF7D043EA36
:1007F0000603704794EA0C0F0CEA135518BF95EAEC
:100800000C0F0CD050EA410618BF52EA4306D1D172
:1008100081EA030101F000414FF0000070BD50EA91
:10082000410606BF1046194652EA430619D094EA1B
:100830000C0F02D150EA013613D195EA0C0F05D105
:1008400052EA03361CBF104619460AD181EA030159
:1008500001F0004141F0FE4141F470014FF0000011
:1008600070BD41F0FE4141F4780170BD70B54FF0AC
:10087000FF0C4CF4E06C1CEA11541DBF1CEA13552C
:1008800094EA0C0F95EA0C0F00F0A7F8A4EB05040E
:1008900081EA030E52EA03354FEA013100F0888005
:1008A0004FEA03334FF0805545EA131343EA1263CE
:1008B0004FEA022245EA111545EA10654FEA002683
:1008C0000EF000419D4208BF964244F1FD0404F53C
:1008D000407402D25B084FEA3202B61A65EB030598
:1008E0005B084FEA32024FF480104FF4002CB6EB55
:1008F000020E75EB030E22BFB61A754640EA0C00D5
:100900005B084FEA3202B6EB020E75EB030E22BF14
:10091000B61A754640EA5C005B084FEA3202B6EB55
:10092000020E75EB030E22BFB61A754640EA9C0014
:100930005B084FEA3202B6EB020E75EB030E22BFE4
:10094000B61A754640EADC0055EA060E18D04FEAA2
:10095000051545EA16754FEA06164FEAC30343EA42
:1009600052734FEAC2025FEA1C1CC0D111F4801F0F
:100970000BD141EA00014FF000004FF0004CB6E708
:1009800011F4801F04BF01430020B4F1FD0C88BFA7
:10099000BCF5E06F3FF6AFAEB5EB030C04BFB6EBB2
:1009A000020C5FEA500C50F1000041EB045170BDA5
:1009B0000EF0004E4EEA113114EB5C04C2BFD4EBD2
:1009C0000C0541EA045170BD41F480114FF0000E56
:1009D000013C90E645EA060E8DE60CEA135594EAD2
:1009E0000C0F08BF95EA0C0F3FF43BAF94EA0C0FD5
:1009F0000AD150EA01347FF434AF95EA0C0F7FF44A
:100A000025AF104619462CE795EA0C0F06D152EA9D
:100A100003353FF4FDAE1046194622E750EA410681
:100A200018BF52EA43067FF4C5AE50EA41047FF492
:100A30000DAF52EA43057FF4EBAE12E74FF0FF3CF7
:100A400006E000BF4FF0010C02E000BF4FF0010CC8
:100A50004DF804CD4FEA410C7FEA6C5C4FEA430C41
:100A600018BF7FEA6C5C1BD001B050EA410C0CBF90
:100A700052EA430C91EA030F02BF90EA020F0020F2
:100A8000704710F1000F91EA030F58BF994208BF59
:100A900090422CBFD8176FEAE37040F00100704716
:100AA0004FEA410C7FEA6C5C02D150EA013C07D16D
:100AB0004FEA430C7FEA6C5CD6D152EA033CD3D0B8
:100AC0005DF8040B704700BF8446104662468C46B2
:100AD0001946634600E000BF01B5FFF7B7FF0028E5
:100AE00048BF10F1000F01BD4DF808EDFFF7F4FF0E
:100AF0000CBF012000205DF808FB00BF4DF808ED99
:100B0000FFF7EAFF34BF012000205DF808FB00BFBB
:100B10004DF808EDFFF7E0FF94BF012000205DF8DD
:100B200008FB00BF4DF808EDFFF7CEFF94BF012092
:100B300000205DF808FB00BF4DF808EDFFF7C4FF8B
:100B400034BF012000205DF808FB00BF4FEA410CD4
:100B50007FEA6C5C02D150EA013C0AD14FEA430CB7
:100B60007FEA6C5C02D152EA033C02D14FF00000F4
:100B700070474FF0010070474FEA410212F5001232
:100B800015D211D56FF47873B3EB625212D94FEAD4
:100B9000C12343F0004343EA505311F0004F23FABE
:100BA00002F018BF404270474FF00000704750EA13
:100BB000013005D111F0004008BF6FF000407047D0
:100BC0004FF00000704700BF4A0011D212F500122A
:100BD00011D20DD56FF47873B3EB62520ED44FEA95
:100BE000C12343F0004343EA505323FA02F0704715
:100BF0004FF00000704750EA013002D14FF0FF3053
:100C000070474FF0000070474FEA4102B2F1E043F5
:100C100024BFB3F5001CDCF1FE5C0DD901F0004CE3
:100C20004FEAC0024CEA5070B2F1004F40EB830033
:100C300008BF20F00100704711F0804F21D113F15F
:100C40003872BCBF01F00040704741F480114FEA98
:100C50005252C2F11802C2F1200C10FA0CF320FA21
:100C600002F018BF40F001004FEAC1234FEAD3233E
:100C700003FA0CFC40EA0C0023FA02F34FEA4303A8
:100C8000CCE77FEA625307D150EA01331EBF4FF031
:100C9000FE4040F44000704701F0004040F0FE404C
:100CA00040F40000704700BF7BB972B90029BEBF95
:100CB00000204FF0004106E008BF00281CBF6FF085
:100CC00000414FF0FF3000F019BAADF1080C6DE9AA
:100CD00004CE002909DB002B1ADB00F09DF8DDF8BB
:100CE00004E0DDE9022304B07047404261EB4101BA
:100CF000002B1BDB00F090F8DDF804E0DDE90223B7
:100D000004B0404261EB4101524263EB4303704740
:100D1000524263EB430300F07FF8DDF804E0DDE9C5
:100D2000022304B0404261EB41017047524263EB41
:100D3000430300F071F8DDF804E0DDE9022304B0BC
:100D4000524263EB4303704753B94AB9002908BFC5
:100D500000281CBF4FF0FF314FF0FF3000F0CEB93C
:100D6000ADF1080C6DE904CE00F056F8DDF804E0B2
:100D7000DDE9022304B07047430803F05533C01A7D
:100D8000830803F0333300F03330184400EB1010C5
:100D900000F00F3000EB002000EB0040000E704729
:100DA00038B50022002304460D46FFF7A7FE28B9F8
:100DB00020462946BDE8384000F00AB8204605F133
:100DC000004100F005F8404261EB410138BD00BF31
:100DD000D0B500220E4B06460F46FFF71DFCFFF76D
:100DE000F3FE0446FFF7A2FB00220A4BFFF714FCB8
:100DF00002460B4630463946FFF75AFAFFF7E4FE43
:100E00002346002242EA000210461946D0BD00BF28
:100E10000000F03D0000F0412DE9F0478C460E4601
:100E20000446089D002B50D18A4217466CD9B2FA6D
:100E300082FEBEF1000F0BD0CEF1200420FA04F4A4
:100E400001FA0EF644EA060C02FA0EF700FA0EF466
:100E50004FEA1749220CBCFBF9F01FFA87F809FB8F
:100E600010C642EA064600FB08F3B34209D9F61958
:100E700000F1FF3280F02281B34240F21F8102383C
:100E80003E44F61AA2B2B6FBF9F309FB136642EA36
:100E9000064403FB08F8A04509D9E41903F1FF3221
:100EA00080F00A81A04540F20781023B3C44C8EB38
:100EB000040443EA00400021002D62D024FA0EF41D
:100EC00000232C606B60BDE8F0878B4207D9002DB2
:100ED00055D0002185E841000846BDE8F087B3FA07
:100EE00083F1002940F09080B34202D3824200F2A5
:100EF000F880841A66EB03060120B446002D40D02A
:100F000085E81010BDE8F08712B90127B7FBF2F7AA
:100F1000B7FA87FEBEF1000F35D1F31B4FEA174831
:100F20001FFA87FC0121B3FBF8F0220C08FB1036F6
:100F300042EA06460CFB00F3B34207D9F61900F16A
:100F4000FF3202D2B34200F2CE801046F61AA2B2AD
:100F5000B6FBF8F308FB136642EA06440CFB03FCFD
:100F6000A44507D9E41903F1FF3202D2A44500F2E7
:100F7000B5801346CCEB040443EA00409CE72946C5
:100F80002846BDE8F087CEF1200106FA0EF307FAF5
:100F90000EF720FA01F94FEA1748CE4049EA030953
:100FA000B6FBF8FA4FEA194408FB1A661FFA87FCE9
:100FB00044EA06430AFB0CF29A4200FA0EF40AD9FC
:100FC000DB190AF1FF3180F087809A4240F2848079
:100FD000AAF1020A3B449B1A1FFA89F9B3FBF8F104
:100FE00008FB113349EA034301FB0CF69E4207D983
:100FF000DB1901F1FF326BD29E4269D902393B44C1
:101000009B1B41EA0A418EE7C1F1200E22FA0EF441
:101010008B40234320FA0EF706FA01F44FEA134CF3
:1010200026FA0EF63C43B6FBFCF9270C0CFB1966BE
:101030001FFA83F847EA064609FB08F7B74202FAA7
:1010400001F200FA01FA08D9F61809F1FF3041D28D
:10105000B7423FD9A9F102091E44F61BA0B2B6FB64
:10106000FCF40CFB146640EA064704FB08F8B8459C
:1010700007D9FF1804F1FF3028D2B84526D9023C21
:101080001F4444EA0940C8EB0707A0FB02894F450B
:1010900044464E4614D329D065B3BAEB040367EB3C
:1010A000060707FA0EFECB40CF404EEA030385E861
:1010B00088000021BDE8F0871346F8E61046E0E618
:1010C000B8EB020469EB03060138E5E70446D8E70C
:1010D000114695E78146C0E78A467CE7023B3C44DF
:1010E00048E708460AE702383E442FE7C245E7D3FF
:1010F0003E46D1E72946BDE8F08700BF704700BFF4
:1011000001F0FF01102A2BDB10F0070F08D010F8B8
:10111000013B013A8B422DD010F0070F42B3F6D1BC
:10112000F0B441EA012141EA014122F007047FF0D5
:1011300000070023F0E80256083C85EA010586EA2C
:10114000010685FA47F5A3FA87F586FA47F6A5FA68
:1011500087F68EB9EED1F0BC01F0FF0102F0070274
:1011600032B110F8013B013A83EA010313B1F8D11F
:101170000020704701387047002D06BF3546033800
:10118000073815F0010F07D1013015F4807F02BF39
:10119000013015F4C03F0130F0BC0138704700BF8A
:1011A00010F8012B11F8013B012A28BF9A42F7D011
:1011B000D01A7047034613F8012B002AFBD1181AE6
:1011C0000138704700B1807B704708B1C07B704721
:1011D000FF20704708B1808970474FF6FF70704755
:1011E00005C8101A7047000010B50D4B5B68C3F3BB
:1011F00008038AB08BB1202300240293094B00938B
:1012000002AA21463C202346039430F035F8064AD2
:1012100021460E202FF02AFBFEE70AB010BD00BFCA
:1012200000ED00E0B8FC0B000143040010B50C46D3
:10123000FFF7DAFF2046BDE8104009F00BB838B5DB
:1012400005460C46FFF7D0FF1DB16B6B9C4208BFF3
:1012500000242046BDE8384008F0DCBE38B502FB6B
:1012600001F4FFF7C1FF204608F0F4FF054618B16E
:10127000224600218BF025FB284638BD70B5164666
:101280000D46FFF7B1FF26B9284608F0C3FE3046E9
:1012900070BD304608F0DEFF044638B135B1324645
:1012A00029468BF0E8FA284608F0B4FE204670BDC7
:1012B000F8B50F460646FFF797FF384603F0D8FB10
:1012C00008F042FF0C4C206008F032FF25682062D5
:1012D000281AE06108F032FF281A6061384603F0EE
:1012E000F5FB0FCC35460FC50FCC0FC594E80300B6
:1012F00085E803003046F8BD5065002010B5104C5D
:101300002DED028B9FED0F8AB6EE001AB0EE480A63
:10131000F7EE000A0021204600F0EAFB4FF47A7055
:1013200000F0BDFFB0EE481AF0EE480AB0EE480AF1
:101330002046002100F0DCFBBDEC028B012010BD3B
:10134000786500200000000010B5034B03600446E0
:1013500000F01EFE204610BDD8FC0B0010B5044660
:10136000FFF7F2FF20464FF498718AF0C2FE204644
:1013700010BD000010B502F0A1FD164C4FF416513F
:1013800002F072FD144800F0D5FC204600F010FB7E
:101390009FED121A2046F0EE410AB0EE410A0021FC
:1013A00000F0A6FB0021132035F022FF00230222CB
:1013B0000B490C4822F090F902220B490B480023FC
:1013C00022F08AF90A4A0B490B48BDE8104001F0A7
:1013D00054BC00BF78650020C465002000000000F8
:1013E000C0650020E0FC0B009C650020E5FC0B00C4
:1013F000EEFC0B00FD1203004F2C030038B504680F
:1014000005467CB16368013B63605BB92368204695
:101410009B689847A368013BA3601BB923682046DB
:10142000DB689847284638BDF0B50E468FB00021DE
:1014300004460160416009AD194604A8174600F052
:10144000BFFF1499284600F0BBFF169B0293159B23
:1014500001932046009504AB3A46314601F036FB35
:1014600020460FB0F0BD00B5BFB03EAB012203F87F
:10147000F41D194601F058F83FB05DF804FB000078
:1014800070B504460E46154600F09AFE012231461C
:10149000204600F009FE20463A2100F0A7FD2A462A
:1014A00020460249BDE8704000F0F0BDDD2C0C0084
:1014B00030B52DED028BB0EE408AF0EE608AD3B0ED
:1014C00005460C464FF4807212A906A800F07CFD78
:1014D0001E4B06937D227B2106A800F095FD2A462F
:1014E00006A81B49FFF7CCFF22461A4906A8FFF7BA
:1014F000C7FF06A800F064FE012206A8164900F006
:10150000D3FD3A2106A800F071FDB0EE480AF0EED6
:10151000680A06A800F060FE06A800F086FD079B9A
:1015200003930E4B039A1B780D498DF8003004A8E5
:101530003C2301F0C3FC05A8FFF760FF06A8FFF7F6
:1015400003FF53B0BDEC028B30BD00BFD8FC0B00D5
:10155000E0FC0B00E5FC0B00F8FC0B00A86500208C
:10156000FEFC0B000000000070B5474C8AB015F07F
:1015700002FC2368C01AB0F5FA6F76D315F0FBFBB6
:1015800020604248424C434D434E00F0BDFCBDEE4E
:10159000C00A3E4884ED000A00F0D8FCBDEEC00A47
:1015A00085ED000A02F08AFC23683C4A012102F022
:1015B00041F902F083FC2B68394A012102F03AF923
:1015C000132035F03FFEFEF7C1FF9FED293B9FED55
:1015D0002A4BB0EE431AF0EE631A9FED292B41EC33
:1015E000100B00F013FE2968206886ED000BFFF752
:1015F0005FFF96ED000B002251EC100B294B8DED97
:10160000020BFFF799FA9DED020B98B1062106A88F
:1016100002F0F3FA244B069A1B788DF80030234928
:101620003C2304A801F04AFC05A8FFF7E7FE06A842
:1016300002F05EFA01F01EF801F03AF8A8B11820A5
:1016400000F0DCF8C1B21A48FFF70DFF072000F0E8
:10165000D5F8C1B21748FFF706FF032000F0CEF817
:10166000C0F307211448FFF7FEFE0AB070BD00BFAB
:1016700000000000000000000000000000005940D1
:101680000000000000FEAF40D8650020C4650020C7
:10169000C06500209C650020B865002007FD0B0098
:1016A00010FD0B0000004940A86500201DFD0B0047
:1016B00080650020AC650020A06500202DE9F04386
:1016C000354B364C364E374FDFF80491DFF8048146
:1016D0008FB001251D7002F08BFD062202213248D9
:1016E00000F022FB2B460E220F21204600F0A6F828
:1016F00032462E4920468AF0F7FC2D49384609AC7F
:1017000000F0D5FE2B4904A8002500F0D0FE394694
:10171000204600F055FE04AB02958DE83000102203
:1017200025494846FFF780FE3246414648468AF042
:10173000DBFCDFF8A490214904A800F0B8FE39468C
:10174000204600F03DFE04AB02958DE830001022EB
:101750001B494846FFF768FE3246414648468AF034
:10176000C3FC184904A800F0A2FE3946164F2046D3
:1017700000F026FE04AB02958DE8300010221349DC
:101780003846FFF751FE3246414638468AF0ACFCF7
:101790000FB0BDE8F08300BFA86500207865002089
:1017A0009871002088650020C46500205718030048
:1017B0002FFD0B0054FD0B0079FD0B0082FD0B008B
:1017C000A7FD0B00B3FD0B00A0650020D8FD0B00AA
:1017D000AC650020CD2603008065002038B50446A6
:1017E000C06883180A2B154605D820448BF043F8AF
:1017F000E3681D44E560012038BD000010B588B0E5
:10180000002404AB0122ADF80E0000930194094BB3
:10181000ADF8164011460DF10E00ADF818400794D2
:1018200029F0C8FE079B0A2B0CBFDDF816002046E6
:1018300008B010BDDD17030002F0DABC10B5044695
:10184000017042708370012103EB43008AF0C8FDF0
:101850006060204610BD10B5044640688AF0F4FF71
:10186000204610BD10B500210446007835F0D1FCAB
:10187000142012F045FD2078012135F0CAFC142017
:10188000BDE8104012F03CBD70B506460D46082478
:1018900015F0800F14BF01210021707835F0B9FCDC
:1018A000013C3046FFF7DEFF6D0014F0FF04EDB29F
:1018B000EED170BD13F0800FF8B50D46164614BF7B
:1018C000C021E0215A061F4658BF41F010013306DF
:1018D000044658BF41F00801700658BF41F00401AA
:1018E0002A0658BF41F002016B0658BF41F00101C2
:1018F0002046FFF7C9FF39462046FFF7C5FF3146AE
:101900002046FFF7C1FF29462046BDE8F840FFF713
:10191000BBBF2DE9F84F04460D46002191469A467B
:101920009DF828B0FFF7B0FF00212046FFF7ACFF7D
:1019300000212046FFF7A8FF00212046FFF7A4FF63
:1019400003274FF00108002617FB0588A278F3B2A1
:101950009A421BD9AB420DD1616815FB07F201F821
:101960000290626802F808A0022217FB0522616853
:1019700001F802B0606803EB43014218415C9378C0
:1019800052782046FFF796FF0136DFE72046002118
:10199000FFF77AFF20460021FFF776FF204600215F
:1019A000FFF772FF20460021BDE8F84FFFF76CBF3C
:1019B00073B504460121007835F01AFC01216078E6
:1019C00035F016FC00252E46A378E9B28B4205F1CE
:1019D000010506D9002300961A462046FFF799FF15
:1019E000F2E702B070BD0000F8B5B5EEC01AF7EE30
:1019F000007AF1EE10FA2DED048BF0EE418A48BF2B
:101A000071EE278AB0EE408AF4EEE78AF1EE10FA22
:101A1000C4BFF7EE007A78EEE78AB0EE609A18EE6F
:101A2000900AFEF7A5FD2FA3D3E9002304460D4637
:101A3000FFF764F860B179EE487A17EE900AFEF786
:101A400097FD0022264BFEF7E7FD22462B4625E0B8
:101A5000F6EE007AF4EEE78AF1EE10FA2FD41EA328
:101A6000D3E9002320462946FFF748F850B379EE22
:101A7000487A17EE900AFEF77BFD224606460F468F
:101A80002B4615A1D1E90001FEF712FC02460B46D8
:101A900030463946FEF7C0FD114B0022FEF7BCFD73
:101AA000044618EE100A0D46FEF762FD02460B468C
:101AB00020462946FEF7FEFBFFF7A6F804E019EEE4
:101AC000100A01E018EE100ABDEC048B00EE100ABB
:101AD000F8BD00BFAFF30080555555555555E53F4E
:101AE00000001840555555555555C53F000000009C
:101AF0002DE9F0432DED048BF5EE400AF1EE10FADE
:101B000083B080468946F0EE409AB0EE609AB0EE1F
:101B1000418A6ED011EE100AFEF72AFDF6EE007A29
:101B2000B4EEE78AF1EE10FA06460F4610D519EE2C
:101B3000100AFEF71DFD00224D4BFEF7BBFB32469F
:101B40003B46FEF769FDFFF75FF808EE900A03E0F9
:101B500079EE088AE9EE488A19EE900AFEF708FD48
:101B600032463B4604460D4630463946FEF7A2FB58
:101B7000064618EE900A0F46FEF7FAFC02460B46A0
:101B800030463946FEF794FBFFF73EF834A3D3E91D
:101B9000002309EE100A29462046FEF78BFBFFF7CB
:101BA00033F8F0EE680A01EE100AB0EE490AFFF7CA
:101BB0001BFFB0EE691AF0EE680AB0EE408AB0EE94
:101BC000490AFFF711FF26A3D3E90023204629463F
:101BD000F0EE409AFEF76CFBFFF716F8F0EE680A9D
:101BE00001EE100AB0EE490AFFF7FEFEF0EE408A61
:101BF00003E0F0EE418AF0EE419A19EE900AFEF70A
:101C0000B7FC19A3D3E90023FEF706FDFEF7DCFFBE
:101C1000C5B218EE100AFEF7ABFC13A3D3E90023FC
:101C2000FEF7FAFCFEF7D0FFC4B218EE900AFEF7FA
:101C30009FFC0DA3D3E90023FEF7EEFCFEF7C4FFE3
:101C4000C0B200902B46224649464046FFF761FE4F
:101C500003B0BDEC048BBDE8F08300BFAFF30080A0
:101C6000555555555555D53F0000000000E06F40D3
:101C70000000F03F02F0BCBA30B503682F2B8BB0E8
:101C800004461AD920230293114B04934FF4F373A3
:101C90000593104B06930025072303958DF80C3010
:101CA0000D4B009302AA0D493C202B462FF0E4FA7D
:101CB0000B4A29460A202EF0D9FD23681F2B85BF29
:101CC000084803F01F034FF0A04023600BB030BD65
:101CD000E1FD0B0046FE0B0022FE0B001EFE0B007A
:101CE000014304000003005007B502AB43F8040DA4
:101CF0001846FFF7C1FF019A01239340C0F8083549
:101D000003B05DF804FB07B502AB43F8040D1846B9
:101D1000FFF7B2FFD0F81035019823FA00F000F079
:101D2000010003B05DF804FB0272012281710274AC
:101D30007047000010B500210446807935F058FA4C
:101D4000074AA37912681B01D118D05C4B7803F0C5
:101D50001F0343EA4010FFF7C7FF0023E36010BDF5
:101D6000DC6500202DE9F74F044615F004F8E36820
:101D7000834284BF0023E360237C33B9E368C01A45
:101D8000B0F5FA6F01D20120A8E00025554E257468
:101D900014F0F1FFA3793268E0601B01D1182571BE
:101DA000E570A57065702570D05C4B7803F01F035B
:101DB00043EA4010FFF798FFFA2000F070FA012183
:101DC000A07935F015FAA37932681B01D118D25CDD
:101DD0004B7802A803F01F0343EA421340F8043D86
:101DE000FFF74AFF019B4FF0010808FA03F3C0F820
:101DF0000C35142000F053FA01F062FAA37932682E
:101E00001B01D118D05C4B7803F01F0343EA40104C
:101E1000FFF76AFF282012F073FA2946A07935F0FF
:101E2000E7F92F464FF0000BA37932681B01D11858
:101E300012F803A04B7803F01F0343EA4A1A5046F6
:101E4000FFF761FF5046FFF75EFF80455FFA8BF9B1
:101E500008D101200BF1010B12F052FABBF1FF0F78
:101E6000E2D1D946A37932681B01D11812F8038058
:101E70004B7803F01F0343EA48184046FFF743FF3F
:101E80004046FFF740FFB9F1FF0F5FFA80F814D02A
:101E9000032D0ED9EB070CD4FA080137A35C5B00C5
:101EA000DBB2A354217A49453CBF43F00103A3545C
:101EB000FFB20135EDB2552DB4D101F003FA272F51
:101EC0000BD92278637821791344A2781344E278FD
:101ED0001344DBB299423FF456AF002003B0BDE893
:101EE000F08F00BFDC65002010B50446FFF73AFF15
:101EF00028B1A37800EE103AB8EE400A10BD9FED6D
:101F0000010A10BD0000C07F08B5FFF7EDFFF2EE3B
:101F1000027A60EE277AB1EE047A87EE870ADFED67
:101F2000027A30EE270A08BD0000004210B50446D0
:101F3000FFF718FF28B1237800EE103AB8EE400AF8
:101F400010BD9FED010A10BD0000C07FFFF7EEBF7E
:101F500008B502F04DF9014B186008BDDC650020A2
:101F600010B5054B0360037C04461BB9406808B1FB
:101F70008AF06AFC204610BD84FE0B0010B50446B2
:101F8000FFF7EEFF204614218AF0B3F8204610BD7B
:101F900010B5034B03600446FFF7E2FF204610BD77
:101FA00094FE0B0010B50446FFF7F2FF20463021E7
:101FB0008AF09FF8204610BD0023C360436103767A
:101FC000437680F82A307047002310B5C3600123A0
:101FD0000374054B03604FF0FF3341608260C362BE
:101FE000FFF7EAFF10BD00BF94FE0B00C3688268D4
:101FF00010B593423FBF42685C1CC460D15424BFFB
:10200000012380F82A3010BD38B54469651C082DBD
:1020100009D800EB4403012445619C76DA76FFF78A
:10202000E5FF204638BD002038BD10B543690446A1
:1020300043B100EB4303597E09B1FFF7D7FF636952
:10204000013B6361A368E068616898424FF0000259
:102050002ABF5B180A5403F8012C10BD70B5044662
:10206000C068A56866682D1A134630440A4629469A
:102070008BF0A6FC85422DBFE368A368E360C0181F
:1020800036BF0123E06084F82A3070BD0EB403B57A
:1020900003AA52F8041B0192FFF7E0FF02B05DF8BB
:1020A00004EB03B0704700002DE9F04104460E46F2
:1020B000174612B12221FFF799FF0025715D06EB4B
:1020C0000508002971D0E268A3689A426DD20B0618
:1020D00033D501F0F003E02B17D198F8013003F06D
:1020E000C002802A11D105F1020816F8082002F07A
:1020F000C000802809D102F03F029B0142EA013270
:1021000003F47C631A4392B211E001F0E003C02BA8
:1021100046D105F1010816F8083003F0C002802A04
:102120003ED1890101F4F86203F03F031A432349C9
:102130002046FFF7ABFF454635E00C2918D00BD8F9
:10214000092921D00A2919D0082929D15C21204642
:10215000FFF74CFF622123E022291BD05C2919D014
:102160000D291DD15C212046FFF740FF722117E0A9
:102170005C212046FFF73AFF662111E05C212046F2
:10218000FFF734FF6E210BE05C212046FFF72EFFA6
:10219000742105E05C212046FFF728FF98F8001025
:1021A0002046FFF723FF013588E72FB12046222183
:1021B000BDE8F041FFF71ABFBDE8F0819CFE0B00BF
:1021C000426900EB42031A7E12B100221A76704770
:1021D0002C21FFF70BBF000007B5C26A002A07DBFE
:1021E0008DED000B0649FFF751FF03B05DF804FBCE
:1021F00053EC102B034903B05DF804EBFFF746BF27
:10220000ADFE0B00B3FE0B0001F0F2BF2DE9F04F65
:102210002DED028BB0EE448AF0EE648A55EC114B42
:1022200057EC126B83B011EE102A2B4612EE100AF7
:1022300039468DED000B5BEC13ABFEF755FC9DEDC5
:10224000000B38BB51EC100B22462B46FEF730F842
:102250005246804689465B4651EC180BFEF728F83B
:1022600002460B4640464946FEF7D6F922468046CE
:1022700089462B4630463946FEF71AF802460B4689
:1022800040464946FEF7F2FA52465B46FEF712F820
:1022900041EC100B03B0BDEC028BBDE8F08F0021C8
:1022A00028F0ECB810B5836804460BB989F040FFFC
:1022B000C3689847A3681BB103222146204698476C
:1022C00020461021BDE8104089F013BF7047002060
:1022D000704770470020704710B51421044689F0FC
:1022E00008FF204610BD10B51421044689F001FFF7
:1022F000204610BD12F0E2BE12F0E0BE10B58AB06A
:10230000202300240293084B009302AA2346074986
:1023100003943C202EF0B0FF0A20054A21462EF0FF
:10232000A5FA0AB010BD00BF17FF0B00F0FE0B00AE
:1023300001430400A0F13003DAB2092A01D818469B
:102340007047A0F16103052B01D857387047A0F101
:102350004103052B94BF37384FF0FF307047000022
:1023600010B500230370044B0446186811F047FAB7
:1023700001232370204610BDE865002010B50378C6
:1023800004461BB1024B186811F049FA204610BDF3
:10239000E865002008B582798B799A4206D1062239
:1023A0008AF05AFAB0FA80F0400908BD002008BD52
:1023B00010B51422044600218AF083FA204610BD8D
:1023C00010B5034601F1140251F8044B43F8044BD5
:1023D0009142F9D110BD10B5034601F1140251F834
:1023E000044B43F8044B9142F9D110BDF7B50546B3
:1023F0000E4619B910228AF064FA51E024213046C1
:102400008BF057F9042802D0002710243BE03078E5
:10241000FFF790FF041E47DB7078FFF78BFF002863
:1024200042DB40EA04108DF80400B078FFF782FF29
:10243000041E39DBF078FFF77DFF002834DB40EA2B
:1024400004109DF80430C0B240EA03202880002325
:1024500027E02CB3F05DFFF76DFF030612D4013CBB
:1024600000012855242130468BF023F9013787429B
:1024700008D2F05DFFF75EFF40B20028A2BF2B5DDF
:10248000184328550137242130468BF012F9874232
:10249000DFD32C440023A54202D004F8013DFAE723
:1024A00001232B7403B0F0BD00232B80CFE738B598
:1024B00004460D46FFF77CFF20462946FFF796FFAE
:1024C000204638BD38B500254FF6FF7304464380DB
:1024D0000E2229460570057106308AF0F2F904F1E2
:1024E0001400FFF765FF04F12800FFF761FF0449BE
:1024F00004F13C0001F043FBE5642565204638BD4E
:1025000067730D0010B58369C26903EBC202934281
:10251000184606D0046824888C4203F10803F6D1DB
:1025200010BD002010BD000073B514460A4641B32B
:102530003CB305682E78F42C28BFF4243EB1A8895A
:102540000023224602B0BDE870400FF0BDB8688895
:102550004FF6FF73984216D02B7943F008010829F3
:1025600005D1A989009623460FF0EAF80DE043F063
:102570000403042B07D1A989009623460FF024F900
:1025800003E0034801E06FF0D10002B070BD00BF6E
:10259000F2FEFFFF10B50A6852F8023F036053686D
:1025A000436010BD1FB502680B6812881B889A42F1
:1025B0000C460CD101466846FFF7ECFF214602A805
:1025C000FFF7E8FF02A96846FFF7E4FE00B9002024
:1025D00004B010BD30B505468BB0342012F06AFD52
:1025E000044668B10023036043608360C3600361F5
:1025F00043618361C361036243628362C3620363B5
:102600002C607CB920230293154B009302AA154934
:1026100003943C2023462EF02FFE134A21460A2025
:102620002EF024F900200FF0E9FB80B120230024D4
:1026300002930E4B009302AA0A4903943C202346BE
:102640002EF01AFE084A21460A202EF00FF9002229
:102650002968074810F07CF928460BB030BD00BF50
:1026600017FF0B00F0FE0B000143040067FF0B0097
:102670002D29030010B50A4C2368DB070ED4204631
:1026800011F024FA50B10748FFF7A4FF204611F0DB
:102690007FFA054A0549034889F026FD014810BD27
:1026A000E4650020E06500209871002041270300C8
:1026B0000368D8690028D4BF0020012070470B6848
:1026C000036013B15A6801325A60704710B504466E
:1026D0000430FEF793FE204610BD70B504684368D1
:1026E000054604EBC306A64204D0201DFEF786FE75
:1026F0000834F8E728688AF0A7F8284670BD70B556
:1027000004684368054604EBC306A64204D0201DB6
:10271000FEF774FE0834F8E728688AF095F8284632
:1027200070BD10B5046904F11800FFF7E8FF04F16B
:102730000C00FFF7D2FF2046BDE8104012F0BEBCEF
:10274000F8B504680746C4B1A569E36905EBC3069B
:10275000AE4204D0281DFEF751FE0835F8E7A06907
:102760008AF072F804F10C00FFF7C9FF2046FFF76A
:10277000B4FF3421204689F0BCFC3846F8BD000087
:1027800073B50025056045600646242012F092FCD2
:10279000044678B103464FF6FF7223F8022BC0F8C7
:1027A00002505D608572C572C560056145618561D5
:1027B000C561056200231420019312F07BFC0346DF
:1027C00028B1012242608260084A0260046102A8C6
:1027D000726840F8042D73603460FEF70FFE3368B2
:1027E0000BB9FFF78BFD304602B070BDDCFE0B006D
:1027F000884270B515461AD9904219D2A1F108063F
:10280000511A0439151F44182B1F9E4225D0042C41
:1028100007D055F8043C44F8043C29462046FFF70D
:102820004EFF2846FEF7EAFD083D083CECE714D0D1
:102830000C1D061D231F9D420FD0042E07D054F8F7
:10284000043C46F8043C21463046FFF738FF20465A
:10285000FEF7D4FD08340836ECE770BD2DE9F041F1
:10286000046843680546884604EBC307A74218D0AE
:1028700041462046FFF796FE064608B90834F5E7BC
:102880008CB1201DFEF7BAFD2B686A6804F10801BF
:1028900003EBC2022046FFF7ABFF6B68013B6B60A6
:1028A00002E0002600E026463046BDE8F081F7B59C
:1028B000044651F8043B4768009301A8FFF7FFFE68
:1028C0006668A3689E4214DB0136002E0BDDF00023
:1028D00089F0B2FF054618B394E8060001EBC20286
:1028E000FFF786FF00E00025206889F0ADFF256036
:1028F000A6602668626806EBC70506EBC202294699
:1029000005F10800FFF774FF35B1009B46F837303A
:1029100001A9281DFFF7D3FE636801336360012519
:1029200001A8FEF76BFD284603B0F0BD2DE9F0418C
:1029300004468EB003A80D46FFF712FD2368032B53
:1029400002D0042B42D087E004A8FFF719FF049BB4
:1029500022891A806268049952F8083FC1F802304F
:102960005368C1F8063007A8049B069305A9FFF732
:10297000A6FE06A905F11800FFF799FF044607A86F
:10298000FEF73CFD2023069374B9364B009306AA4C
:1029900023463549079432202EF06EFC049B2146D5
:1029A00018880EF059FE0DE0304A0092002306AA66
:1029B0002D49079301202EF05FFC6B6A13B1E96A81
:1029C00004A8984705A8FEF719FD45E02189284687
:1029D000FFF798FD074600283ED00468A369E16927
:1029E0004FF6FF72228003EBC101994203D053F8E6
:1029F000080B4280F9E7E668236906EBC308B04597
:102A000004D0301DFEF7FAFC0836F8E700232361F6
:102A1000A669E36906EBC308B04504D0301DFEF794
:102A2000EDFC0836F8E70023E361A372E372AB6ABA
:102A300013B1296B3846984720230D4A069300921C
:102A4000002309490793012006AA2EF015FC3946F8
:102A500005F11800FFF702FF03A8FFF78FFC0EB087
:102A6000BDE8F081C1FF0B00F0FE0B00E7FF0B009B
:102A700004000C0010B50446406808B112F01EFBBB
:102A8000204610BD07B503690C308DE8090003F13D
:102A90003C0001F02DF86846FFF7ECFF03B05DF84D
:102AA00004FB000038B500230446036014200D46E3
:102AB00012F000FB28B1012343608360024B0360E6
:102AC00005612060204638BDC0FE0B002DE9F041B5
:102AD00090B005461E4654200023069307930F46E8
:102AE000904612F0E7FA02AB044608930990B0B1A1
:102AF000FFF7E8FC394684F8048004F13C0001F05B
:102B00006BF8179BE364189B2365314604F11400AE
:102B1000FFF761FC169904F12800FFF75CFC2146E1
:102B2000002603AB04AA05A80996FFF7BBFF059B87
:102B3000079A059205A807930694FEF75FFC08A87C
:102B4000FFF798FF069B079A29682B6010A86B680F
:102B500008916A6040F81C3D07960696FEF74EFC09
:102B600007A8FEF74BFC2C687CB920230893084B80
:102B7000009308AA074909943C2023462EF07CFBC9
:102B8000054A21460A202DF071FE10B0BDE8F08103
:102B900017FF0B00F0FE0B00014304000248002366
:102BA000036010F022BE00BFE865002070470020DF
:102BB000704710B51021044689F09BFA204610BDDD
:102BC00008B508B1FFF7F5FF08BD10B583680446E6
:102BD00013B1032201469847204610BD002202602F
:102BE00010B54FF69C728280B1F9044084808A80CF
:102BF00002680C6804600A6010BD10B504460068E5
:102C000089F022FE204610BD38B5C468F4B123789F
:102C1000022B03D104F10C00FFF7EFFF656835B11B
:102C20002846FFF7D2FF1021284689F062FAA568EE
:102C300035B12846FFF7C9FF1021284689F059FA17
:102C400020461421BDE8384089F053BA38BD10B58C
:102C500088B00446684600F092FF694604A800F078
:102C6000B0FF04A8A047044604A800F041FF68464E
:102C700000F03EFF204608B010BDF0B5102485B02E
:102C800007460E46154600212246684689F019FE81
:102C9000002269461046ADF8004002970396019560
:102CA00020F076FD05B0F0BD13B5044691E80500AF
:102CB00000234B600B602060626001A801930093C9
:102CC000FEF79CFB204602B010BDF7B50C4602ADE6
:102CD00054F8043B45F8083D06460F4601A8214636
:102CE000FFF7EDFC29463046FFF7DEFF01A8FEF7AF
:102CF00085FB2046FEF782FB3846082189F0F9F96A
:102D0000304603B0F0BD13B50B46044603C88DE84A
:102D1000030093E8030084E803009DE8030083E8D0
:102D2000030002B010BD000038B500230446036064
:102D300010200D4612F0BEF928B1012343608360D4
:102D4000024B0360C5602060204638BD68010C005E
:102D5000826810B50AB989F0EBF9C368BDE8104084
:102D6000184708B5006800F11001FFF7F1FF08BD32
:102D7000826810B50AB989F0DBF9C368BDE8104074
:102D8000184708B5006800F11001FFF7F1FF08BD12
:102D900038B5002383608B6804460D462BB10222B0
:102DA0009847EB68E360AB68A360204638BD00003D
:102DB000F0B589B004686846FFF710FF00238DF86E
:102DC00008304FF00202D4E84F3F002B03D1C4E893
:102DD000412F0029F7D102D08DF8083063E014F1BB
:102DE0000C0503D069462846FFF7F8FEBFF35F8F56
:102DF00001236370002004F10803BFF35F8F53E8E1
:102E0000006F43E80002002AF9D1BFF35F8F002E64
:102E100049D027F0B1F820B129463046FFF798FF96
:102E20003AE0314602A8FFF7B3FFE068B4F910506A
:102E300008B18AF0C3FB06901020ADF81C5012F0C8
:102E400039F90546E8B100278760182012F032F9F9
:102E5000044688B10146876002A8FFF754FF049B2F
:102E6000A268A360059B049206A9E268E36004F1EE
:102E700010000592FFF7B2FE0D4BEB600D4B2C607E
:102E8000AB6006A8FFF7B9FE02A8FFF79EFE00227E
:102E90002946094827F0A6FC3046FFF796FE102188
:102EA000304689F026F96846FFF7A7FE09B0F0BD65
:102EB000632D0300D92F0300A52203002DE9F04F55
:102EC0008BB006460F46904699469DF850A020F0DC
:102ED00099FA07AD834630BB4FF62E73059005A9CE
:102EE0002846ADF81830FFF779FE142012F0E2F80A
:102EF000044658B10223037001234370C0F804B0A4
:102F0000C0F808B029460C30FFF768FE304621466D
:102F100040F8044BFFF708FF2846FFF76EFE05A8B0
:102F2000FFF76BFE52E000240C2314206C60AC60B1
:102F3000079312F0BFF8014618B104704470446062
:102F4000846004A80391FFF7EFFE224B089308204A
:102F500012F0B0F8044628B1039B40F8043B04A9E2
:102F6000FFF7ADFB00955FFA8AF34A4641463846C3
:102F7000099420F08BFC20B9039B5B7803F0FF02DF
:102F800083B1039B059304A906A8FFF798FB05A945
:102F90003046FFF789FE06A8FEF730FA04A8FEF7D0
:102FA0002DFA13E04FF69C7305A903A80592ADF81E
:102FB0001830FFF7FDFE05A8FFF71FFE05A80999C9
:102FC000FFF783FE06A8FEF719FADAE730460BB0E2
:102FD000BDE8F08F49310300022AF8B5044606D057
:102FE000032A17D0012A22D10B6803601FE01820A2
:102FF0000E6812F05FF8054650B13146FFF7C8FE83
:103000003069B6F9147008B18AF0D8FA2861AF8235
:1030100025600CE0046854B104F11000FFF7EDFDE9
:103020002046FFF7D2FD1821204689F062F80020E3
:10303000F8BD38B5002383608B6804460D462BB17C
:1030400002229847EB68E360AB68A360204638BD76
:10305000022A70B5044606D0032A11D0012A18D1DD
:103060000B68036015E014200E6812F023F8054683
:1030700020B13146FFF7DDFF337C2B74256008E07B
:10308000046834B12046FFF7A0FD1421204689F0E2
:1030900030F8002070BD0000F0B5002387B00C466A
:1030A000BFF35F8F50E8006F40E80032002AF9D18B
:1030B000BFF35F8F002E3FD0184626F05DFF074616
:1030C00020B121463046FFF753FE2EE0314601A8DD
:1030D000FFF7AFFF23788DF81430102011F0EAFFCE
:1030E0000546D0B18760142011F0E4FF044678B1A2
:1030F0008760014601A8FFF706FE039BA268A36054
:10310000049B0392E268E3609DF8143004922374F8
:103110000A4BEB600A4B2C60AB6001A8FFF755FD32
:1031200000222946074827F05DFB3046FFF74DFD9A
:103130001021304688F0DDFF07B0F0BD832D03007D
:1031400051300300A522030030B585B004460D467A
:1031500068461146FFF7B9FD7CB124B228460DB18F
:103160008AF02CFA029002A96846ADF80C40FFF7ED
:103170001FFE02A8FFF741FD1DE000988DF80840F2
:103180004FF00102D0E84F3FA34203D1C0E8412FE6
:103190000029F7D102D08DF808300CE010F10C01B5
:1031A0004FF0010318BF0373BFF35F8F043000F8C3
:1031B000033CFFF771FF01A8FEF720F905B030BD11
:1031C00000221146406825F0D8BA00221146406816
:1031D00025F0D1BA0022406825F0CCBA002281F057
:1031E0000101406825F04CBC00231A46194640688E
:1031F00025F0F4BB00231A461946406825F0B0BB01
:1032000000221146406825F03DBA00221146406870
:1032100025F088BA00220221406825F011BB002366
:103220001A46406825F0C4BC024B03225A60024A89
:103230001A607047EC65002084010C007047F8B5F7
:10324000064615460C468F18BC4206D0336814F863
:10325000011B9B6830469847F6E72846F8BD0022D8
:10326000007C11F0C9BC0021007C11F0EDBC0021F4
:10327000007C11F0FFBC0021007C11F01BBD00217F
:10328000007C11F03DBC10B51421044688F031FFDC
:10329000204610BD10B504464FF47A730846A3606B
:1032A0000021044B20746160236011F061FC204612
:1032B00010BD00BFB8010C000021007C11F016BD4C
:1032C00011F0BABE11F0AEBE38B5002383608B6832
:1032D00004460D462BB102229847EB68E360AB68C9
:1032E000A360204638BD704710B51821044688F009
:1032F00000FF204610BDF0B5037D062B8DB00E46B5
:1033000000F104074FF0000402D000F1080518E0B6
:103310000CAD394605F8304D2F232A460A2017F008
:1033200054F92846FDF746FF33680246DB68294614
:10333000304698470FE024B12E21304600F010FAB5
:10334000044415F8011D0A22304600F04FFABD4230
:103350000444F0D120460DB0F0BD000010B5054B7F
:103360000446112240F8043B002189F0AAFA2046C5
:1033700010BD00BFE0010C000346074A10B543F83A
:10338000042B01F1100251F8044B43F8044B914215
:10339000F9D10A781A7010BDE0010C0010B59DF843
:1033A000084044EA032343EA024242EA016104235B
:1033B0004160037510BD37B50D788B784A78C978B0
:1033C00000912946FFF7EAFF03B030BD70470A6855
:1033D0000B469268014618461047000010B5054B91
:1033E00000220446114640F8043B2DF0B9FD20466A
:1033F00010BD00BFF4010C0010B50446FFF7EEFF4E
:103400002046202188F075FE204610BD70B50E4C78
:1034100004601C2444609DF814409DF8106004F082
:10342000030444EA86040025E4B2047442748574FB
:103430004161427C85600F2A08BF044BC56006BF0E
:103440008361C061038370BDF4010C00CF330300BE
:10345000014B024A1A607047F46500201EFE0B0003
:1034600000221146406825F088B9002211464068C4
:1034700025F081B90022406825F07CB9002281F056
:103480000101406825F0FCBA00231A46012140687A
:1034900025F0A4BA00231A461946406825F060BA00
:1034A00000221146406825F0EDB800221146406820
:1034B00025F038B900220221406825F0C1B9002367
:1034C0001A46406825F074BB38B5054688B10468D3
:1034D0004CB1A3681BB10322214620469847102116
:1034E000204688F006FE28461421BDE8384088F0C2
:1034F00000BE38BD10B103685B681847704710B54F
:1035000003680446BBB1586810F0E2F878B9236844
:103510005A7C12B9586810F0F1F82368586810F016
:10352000FFF820680023236028B1FFF7CDFF206853
:1035300008B1FFF7C9FF204610BD000038B50C4B9D
:1035400003600446D0F8CC0108B111F0B9FDD4F8FD
:10355000C45135B12846FFF7D2FF0421284688F030
:10356000C8FDA06808B1FFF7C5FF204638BD00BF01
:10357000C4020C0038B50E4C0E4B2360002502230C
:1035800004F5E4706360A560C4F8C451C4F8C85180
:1035900010F02BF9084BC4F8CC5184F8D0512360BB
:1035A0002046064A0649BDE8384088F09DBD00BF68
:1035B000F8650020F8020C00C4020C00987100208D
:1035C0003D35030000231A46406825F0F1BA002279
:1035D0000221406825F034B900221146406825F0E8
:1035E000A1B800221146406825F04CB800231A46C5
:1035F0001946406825F0B4B900231A4619464068B8
:1036000025F0ECB9002281F00101406825F038BABC
:103610000022406825F0AEB800221146406825F02F
:10362000AAB800221146406825F0A7B82DE9F0435A
:10363000002495B016460D460746FFF78FFE21463B
:1036400020220CA8009489F03CF940230C932146D9
:103650006B460CAA304617F06DFF0446002844D193
:1036600002460121686825F00DF8022180462246B5
:10367000686825F007F8009E81462146002E34D068
:10368000002932D17368022B02D00A2B09D02AE01C
:10369000B8F1000F27D0716938460431FFF78BFE6F
:1036A00020E0B9F1000F1ED07469112201A889F041
:1036B00008F906238DF8143001AD04F1080318341D
:1036C000186859682A4603C20833A3421546F7D141
:1036D00001A906A807ADFFF74FFE0FCD3C1D0FC493
:1036E0002B6823700121F669C8E7009817F020FFC6
:1036F000384615B0BDE8F083024B034A1A60002239
:103700005A607047CC670020F8020C00F8B50646F6
:103710000D468F180024BD420CD0336815F8011BEC
:103720009B6830469847002801DB0444F3E7002CEF
:1037300008BF04462046F8BD70B505460C4608464D
:1037400049B1FDF737FD2B68024621462846DB6864
:10375000BDE87040184770BD08B5FFF7EDFF08BD24
:1037600003689B68184738B50D210546FFF7F8FF39
:103770000A2104462846FFF7F3FF204438BD38B538
:103780000546FFF7D9FF04462846FFF7ECFF204423
:1037900038BD30B58BB00B4600218DF82410012ABE
:1037A00098BF0A220DF12304B3FBF2F505FB123397
:1037B00003F0FF03092B94BF30333733DBB22146CC
:1037C00004F801392B46002DEED1FFF7B5FF0BB001
:1037D00030BD10B42AB903685DF8044B9B68C9B2C8
:1037E0001847D2B25DF8044BFFF7D3BFFFF7F1BF24
:1037F0002DE9F04107460E4615462AB90368C9B2BD
:103800009B68BDE8F04118470A2A02D1002901DA75
:1038100004E0D2B2BDE8F041FFF7BBBF2D21FFF7B6
:103820009FFF2A46044671423846FFF7B2FF204404
:10383000BDE8F0810CB42DE9F04387B000AF07F18B
:103840003804054654F8049B3C600E4623464A461D
:103850001421381D8AF0B4F8132805D8391D2846DC
:10386000FFF76AFF044613E000F1080323F00703A3
:10387000E846ADEB030D411C23464A4668463C60D2
:103880008AF09EF869462846FFF756FF0446C5466B
:103890001EB12846FFF767FF044420461C37BD468B
:1038A000BDE8F04302B0704710B5044630B189F06E
:1038B000C9FC90FBF4F303FB140010BD10BD88425B
:1038C00010B5044604DA081AFFF7EEFF204410BDD5
:1038D00010BD10B50446FFF778F9204610BD10B5AD
:1038E00004462DF055F9844208D01CB1BDE81040C3
:1038F0002DF034B9BDE810402DF06CB810BD70B596
:1039000005460E4614462DF043F950B144EA062010
:1039100040EA05402DF058F8E720BDE870402DF052
:10392000B3B870BDC2B2C0F30721C0F30740FFF7C0
:10393000E6BF00000348044A04490023836088F07E
:10394000D3BB00BFD467002098710020D338030098
:10395000704710B51021044688F0CBFB204610BDFF
:1039600070B5084B0360044600250E4640F80C5F16
:103970000FF01DFF3046267113F0B4F9A560204604
:1039800070BD00BF2C030C00007913F089B82DE93D
:10399000F04705460E4692461F4613F0ECF9002408
:1039A00081463FB113F0E7F9C9EB0000874201D22D
:1039B000BDE8F0872B6828461B6998470028F0DD92
:1039C0002B6828465B6998475445C1B203D1002350
:1039D0003370BDE8F0870D29F9D00A29F7D00829FE
:1039E00001D07F2905D1002CDBD006F1FF38013C46
:1039F00003E006F10108317001342B6828469B680A
:103A0000E4B298474646CCE72DE9F14F59EC108BCC
:103A100007460E460022002310EE100A4946FDF725
:103A20006DF828B109F1004399462D233370013612
:103A3000002301240A22D9B28F4202D95443013310
:103A4000F9E72046FCF782FD42464B46FCF7E4FDD1
:103A500082468B46FDF7BCF980468946FCF7A6FDF9
:103A600002460B4650465946FCF722FC0022174BF3
:103A7000FDF758F818B118F1010849F10009E517E8
:103A800022462B4640464946FDF75EF901230A22AD
:103A9000314600F046FBAFB13046FDF78BFB2E23DD
:103AA00033540130064422462B4640464946FDF732
:103AB0004BF93B46104631460A2201B0BDE8F04FB3
:103AC00000F02FBB01B0BDE8F08F00BF0000E03F69
:103AD0000023036043608360037310B50C680460C7
:103AE0004C6844608C6884600B604B608B6010BDD8
:103AF00010B50446006888F0A7FE204610BD10B53A
:103B00000446006808B188F09FFE00232360A3608C
:103B1000636010BD38B504460D460068013189F078
:103B2000EFFB10B184E82100012038BD10B5036817
:103B3000044613B143688B4207D22046FFF7EAFFE1
:103B400020B1A3680BB922681370012010BD70B5B5
:103B50000E46114604461546FFF7E8FF18B9204601
:103B6000FFF7CDFF09E02A463146A560206888F0BE
:103B700082FE2268A3680021D154204670BD38B56A
:103B80000023044603604360836003730D4639B12C
:103B90000846FDF70FFB294602462046FFF7D7FFF0
:103BA000204638BD884210B50B46044607D0096848
:103BB00019B19A68FFF7CBFF01E0FFF7A0FF20469D
:103BC00010BD10B500230446036043608360037397
:103BD000FFF7E8FF204610BD38B505460C4641B159
:103BE0000846FDF7E7FA214602462846FFF7AFFFF1
:103BF00001E0FFF784FF284638BD10B500238AB0E6
:103C000004460360436083600373C8B201A9FFF7F1
:103C1000FBFE01A92046FFF7DFFF20460AB010BDDA
:103C200070B504460E4609B9002070BD6AB18368BC
:103C3000D5182946FFF77AFF0028F5D02068A36839
:103C40003146184489F0A1FCA560012070BD07B57C
:103C500000238DF80410012201A98DF80530FFF72B
:103C6000DFFF03B05DF804FB00F07EBE00F09CBEF9
:103C7000014600228C2000F06FBE0020FFF7F8BF45
:103C8000044B00204FF6FF72187058809A8023F082
:103C90001DBB00BFE4670020024B1A68024B1A608C
:103CA000704700BF005E0020EC6700207047417441
:103CB000704708B5007C13F00DFF20EAE07008BDE6
:103CC00008B5007C13F003FE20EAE07008BD08B5DB
:103CD000007C13F0D1FE30EA200028BF4FF0FF3007
:103CE00008BD08B5007C13F05FFE30EA200028BF55
:103CF0004FF0FF3008BD007C13F006BA10B5142158
:103D0000044688F0F6F9204610BD70B5457C04469F
:103D10000E4625B9007C13F0DDFE002805DD314696
:103D2000207CBDE8704013F053BF284670BD0000F2
:103D300010B5044608461146002262604FF47A72BC
:103D4000A260054A22600122207462741A4613F0B0
:103D5000B7F9204610BD00BF68030C000023007CAB
:103D600013F048BB0022FFF7F9BF007C13F0EBB95A
:103D700038B50C4D296811F0010411D128460FF017
:103D8000A5FE68B1084A094B09482146FFF7D0FF54
:103D900028460FF0FDFE074A0749054888F0A4F9B8
:103DA000034838BD886800208C6800200468002023
:103DB000F067002098710020AD3C0300417470470B
:103DC000704708B50021007C13F05BFF30EA20004B
:103DD00028BF4FF0FF3008BD08B50121007C13F06B
:103DE00050FF30EA200028BF4FF0FF3008BD08B573
:103DF000007C13F044FF20EAE07008BD08B5007CA9
:103E000013F03BFF20EAE07008BD007C13F04CBFCC
:103E100010B51421044688F06CF9204610BD38B561
:103E20000446007C0D4613F02AFF002801DC607C6C
:103E300028B12946207C13F02DFF20EAE07038BD20
:103E400010B50446002363604FF47A73A360054BFA
:103E500023600123084621746374114613F0DAFECF
:103E6000204610BD98030C000022007C13F0FABE1F
:103E7000007C13F000BF10B514220446002188F026
:103E800020FD204610BD000010B500234FF47A72CB
:103E900086B00446436082600374074A02600123CF
:103EA000437401A8FFF7E7FF207C01A913F0B2FEDD
:103EB000204606B010BD00BF98030C0030B50E4D73
:103EC00087B001A8FFF7D7FF296811F0010410D1CE
:103ED00028460FF0FBFD60B101AA21460748FFF715
:103EE000AFFF28460FF054FE054A0649034888F004
:103EF000FBF8024807B030BD1069002014690020AB
:103F000098710020C13D03007047012070470000F8
:103F100083891BB10369B3F1004F02D19FED050AFC
:103F2000704707EE903A9FED047AF8EEE77A87EE55
:103F3000870A7047000000000000C84283891BB157
:103F40008369B3F1004F02D19FED050A704707EE78
:103F5000903A9FED047AF8EEE77A87EE870A704789
:103F6000000000000000C84200221146406824F012
:103F700089BB10B52421044688F0BBF8204610BD4B
:103F800000221146406824F0F8BB00221146406828
:103F900024F0F1BB0022406824F0ECBB002281F049
:103FA0000101406824F06CBD00231A4619464068A0
:103FB00024F014BD00231A461946406824F0D0BCF2
:103FC00000221146406824F0ADBB00220221406867
:103FD00024F036BC00231A46406824F0E9BD0000F6
:103FE00083897BB1036A002B0CDB07EE903ADFED8F
:103FF000076A9FED070AB8EEE77AC7EE267A27EE42
:10400000800A7047BFEE000A704700BF00FF7F477D
:104010000000C84283897BB14369002B0CDB07EEAB
:10402000903ADFED076A9FED070AB8EEE77AC7EE30
:10403000267A27EE800A7047BFEE000A704700BF5D
:1040400000FF7F470000C84270B50D46064600F1EC
:104050000C040FCD0FC495E8030084E80300336916
:10406000B3F1004F0EBF0223642293FBF2F373609F
:10407000B369B3F1004F0EBF0023642293FBF2F348
:10408000B360012070BD00002DE9F041164B0360C4
:10409000002588460227182686B04760856032468C
:1040A000294604460C3088F00CFC2A462946D8F8EC
:1040B000040024F0E7FA90B132462946684688F0B9
:1040C00000FC2A4669462846ADF8006006F0F2FB7F
:1040D00020B969462046FFF7B7FF00E06760204639
:1040E00006B0BDE8F08100BFFC030C00024B0422C7
:1040F0005A60024A1A60704728690020C8030C0001
:1041000010B50446FDF756F80138231820469842AA
:1041100006D20278197800F8011B03F80129F6E7A6
:1041200010BD70B50C46911E222920D8254629467F
:1041300010B9234430220EE0B0FBF2F602FB160069
:10414000C1B205F8011B092894BF3031573105F879
:10415000011C3046EBE7994202D201F8012BFAE745
:10416000002320460B70FFF7CBFF204670BD0020D8
:1041700070BD38B5031E0C4615460BDAB3F1004F7F
:104180004FF02D0214BF5842184601230A702A46E8
:10419000194400E00123FFF7C4FF204638BD0000AA
:1041A00008B50C4B33B1FFF789FE03681B699847CC
:1041B000002809DC084B63B1FFF7DAFD03681B69CF
:1041C0009847002803DC08BDAFF30080F2E7AFF3A7
:1041D000008008BD000000000000000008B5FFF7E7
:1041E000DFFF12F0C8FD014B186008BD3CA600209F
:1041F00000487047045E00201FB500230393012987
:104200004FF0050302468DF80C30094C00FA03F11B
:1042100008D16318605A9B7803A90091054910F0F2
:1042200085FE02E0605A10F0FBFE04B010BD00BF36
:10423000446000207942030010B50D4B03EB40129F
:1042400000219180DA783AB993F8233003F0FF0225
:1042500013B9084B1A705A60C4B2204600211EF0F0
:104260005DFA20460121BDE81040FFF7C5BF00BF41
:104270004460002030690020084BC0B203EB4013BB
:1042800010B5002101249980DC70FFF7B5FF044BC5
:104290001A7812B90A221C705A6010BD44600020BE
:1042A0003069002008B54001024B185A10F08CFB11
:1042B000C0B208BD4460002038B52E4B1A78002AE1
:1042C00056D05A68002A53D05A68013A5A60586842
:1042D00000284DD10A22284C5A60E3788BB1FFF7B1
:1042E000E1FF70B9A3889BB233B9A3880A339BB2AC
:1042F000A38001211EF012FAA3880A339BB2A38087
:1043000006E0E37823B11C4B0020D870FFF794FF40
:10431000238C194DFF2B1CD095F82330CBB10120F5
:10432000FFF7C0FF95F822305A1E5342534198427E
:104330000FD1AB8C9BB23BB9AB8C0A339BB2012142
:10434000AB8408461EF0EAF9A38C0A339BB2A3841F
:1043500038BD228C084BFF2A0AD093F823203AB1AB
:10436000002283F823200120BDE83840FFF764BF16
:1043700038BD00BF30690020446000202DE9F041C5
:104380001A4C22780746884602F0FF030AB92370C8
:104390006360174D7E01AB19A85B9B78012B0CBFA6
:1043A0000321022110F0D4FAB8F1010F03D14146E4
:1043B0003846FFF721FFAB5BFF2B05EB060812D059
:1043C0003846FFF76FFF98F802305A1E53425341A8
:1043D000984208D1012288F803202178034B11B9B3
:1043E0001A700A225A60BDE8F08100BF30690020CF
:1043F00044600020024B03EB4010808880B270477D
:1044000044600020BFF34F8F0549064BCA6802F491
:10441000E0621343CB60BFF34F8F00BFFDE700BFE7
:1044200000ED00E00400FA0534DF704735DF704727
:1044300033DF704770B5EFF3108572B60D4A94689C
:10444000012394B993600C4B0C49D3F88060314040
:1044500011600A49C3F88010D3F8841051604FF0FE
:10446000FF32C3F88420047000E0037005B962B61F
:10447000002070BD148F012000E100E0FC06FFBDAC
:1044800018DF704713DF704700F1804000F5C0402F
:10449000002382B0036003680193019B02B0704760
:1044A00010B503682F2B8AB0044616D92023029337
:1044B000002303930E4B1BB1AFF30080014600E0D5
:1044C0000C490D4B009302AA3C2000232CF0D4FE93
:1044D0000A4A00210A202CF0C9F923681F2B85BF46
:1044E000074803F01F034FF0A04023600AB010BD3F
:1044F0000000000048040C0022FE0B0001430400F1
:104500000003005008B574F035FBBDE808401EF00C
:1045100065B9000073B5144B5B68C3F30803044628
:104520000E46EBB902AD042245F8043D40F2DA60D4
:1045300029460FF002FDA8B9019B23420CBF0122BE
:104540000022B2420ED016B123EA040400E01C435C
:10455000042240F2DA61284601940FF021FD01E0C7
:104560004FF0FF3002B070BD00ED00E000B58DB03F
:1045700010F01AF8002108460FF059F90CA8002491
:1045800000F8254DFFF756FF2D4A136823F001036D
:1045900002211360204622462346009400F0E8FCE6
:1045A00000F018FC6BF0FEFD264BC3F8004510F040
:1045B00047FD254B4FF00042C3F808234FF4BE706F
:1045C000FFF762FFFFF714FE90F8813090F880202B
:1045D00003F01F030CA843EA421340F8243DFFF701
:1045E0005FFF039B194A03F5E07340F82320184B43
:1045F000C3F8004503F5A043C3F8004503F5805315
:10460000C3F8004503F53043C3F80045FFF710FF3A
:10461000A8B1202304930F4B05941BB1AFF3008086
:10462000014600E00C490D4B009304AA3C200023F6
:104630002CF022FE0A4A00210A202CF017F9FEE78E
:1046400010E000E000300140006000400400020083
:1046500000C001400000000048040C004C040C00A5
:10466000014304001EF0040F0CBFEFF30880EFF3CA
:1046700009808169004A10479947030000B58FB04F
:10468000039004910592039B049B059B20230693B2
:1046900000230793094B1BB1AFF30080014600E0F4
:1046A0000749084B009306AA3C2000232CF0E4FDA8
:1046B000054A002101202CF0D9F8FEE70000000097
:1046C00048040C0082040C000143040000B58BB0C8
:1046D0002023029300230393094B1BB1AFF3008007
:1046E000014600E00749084B009302AA3C20002342
:1046F0002CF0C2FD054A002101202CF0B7F8FEE79E
:104700000000000048040C0082040C000143040077
:1047100000B58BB02023029300230393094B1BB1F8
:10472000AFF30080014600E00749084B009302AA5E
:104730003C2000232CF0A0FD054A002104202CF091
:1047400095F8FEE70000000048040C0096040C00F9
:104750000143040000B58BB0202302930023039390
:10476000094B1BB1AFF30080014600E00749084B3D
:10477000009302AA3C2000232CF07EFD054A002174
:1047800005202CF073F8FEE70000000048040C0040
:104790009F040C000143040000B593B0036802932A
:1047A0004368039383680493C3680593036906937E
:1047B0004369079383690893C36909930E4B9B6A06
:1047C00013F0007301D0FFF7C5FF0B930B4B2022B2
:1047D0000A921BB1AFF30080014600E00849094B83
:1047E00000930AAA3C2000232CF046FD064A002133
:1047F00001202CF03BF8FEE700ED00E00000000097
:1048000048040C0082040C0001430400014B024ADE
:10481000DA637047005C00200545030010B54FF0D7
:1048200000531A4A1A604FF0FF325A60184B8EB08C
:1048300000249C601022214602A888F042F802233E
:1048400002A80293FFF71CFEA8B120230693114B88
:1048500007941BB1AFF30080014600E00E490F4BF7
:10486000009306AA3C2000232CF006FD0C4A0021F0
:104870000A202BF0FBFF0548FFF704FE72F060F8FA
:1048800072F0DCF80028FBD00EB010BD005C0020F8
:1048900000ED00E00000000048040C00AA040C0039
:1048A000014304001FB5042012F058FA184B1949AF
:1048B00001221A70184B194A1846D21A87F0DBFFEA
:1048C000174A906032F058F9002004F007FFFFF714
:1048D000A5FF11F0FFFB11F025FC32F02BFA6FF071
:1048E0007F402CF06BF8E7202CF0CEF84FF44421F9
:1048F00003220E238DE80E0000224FF440334FF0C8
:104900009151104632F0D6FA05B05DF804FB00BFB5
:104910002CD2002000000300005C0020005E00207C
:1049200000ED00E008B50EF037FE08B1FFF76AFDB4
:1049300008BD38B505460020FFF75CFD04460120A0
:10494000FFF758FD854204D9AC4234BF0020012056
:1049500038BD012038BD000008B5024B5860996091
:10496000FFF750FD80F3032008B5074B6FF05502A9
:104970001A735A7332F0FAF9044B64225A60002217
:104980009A60FFF73FFD00BFC0F3032080F30320D0
:1049900008B5044B45F6FE206E21002283E807008F
:1049A000FFF730FD80F3032008B50B4C50B14FF6F4
:1049B000FF736362094B4FF0FF321A725A7232F082
:1049C000D5F902E04EF6FA532360782363600023A2
:1049D000A360FFF717FD00BF80F30320C0F303209F
:1049E00008B518B9CB0701D4FFF7C0FD6FF0770009
:1049F00008BD000007B5154A52690192013203460D
:104A000002D101A8FFF710FD581E052819D8DFE8CC
:104A100000F00306090C13130198012808E001981F
:104A2000042805E00198022802E00198B0F5803FD3
:104A300014BF0020012005E00198B0FA80F0400981
:104A400000E0002003B05DF804FB00BFC0F30320CA
:104A500010B1044B1B68036011B1024B5B680B6023
:104A60000020704740690020002232F091B9704761
:104A700000B5114B18688BB0D8B14EF6602146F0E6
:104A800099FAB0B9202302930C4B03901BB1AFF3FA
:104A90000080014600E00A490A4B009302AA3C202C
:104AA00000232CF0E9FB084A00210E202BF0DEFE4B
:104AB000FEE70BB05DF804FB3C690020000000003D
:104AC00048040C00F3040C0001430400024B186876
:104AD00008B146F0F2B870473C6900201E4B10B593
:104AE00001241C70FFF71EFF0220FFF783FF1B4904
:104AF00040B11B4B5A680A609A684A6000225A60AB
:104B00009A6021E00320FFF775FF08B13C2318E00D
:104B10000420FFF76FFF08B11E2312E00520FFF706
:104B200069FF08B128230CE00620FFF763FF08B1F6
:104B3000322306E02046FFF75DFF08B1142300E0B2
:104B40000A230B6000234B604FF0FF30FFF76EFC31
:104B5000BDE810401DF0FABF386900204069002010
:104B600080F30320FFF7BABF07B5042046F088F8AA
:104B7000074B08491860084B0193022300934FF438
:104B8000C0620023054846F006FC46F02DFDFEE716
:104B90003C6900200A050C0048690020654B0300B1
:104BA000042807B50DD006280DD003280FD102A880
:104BB0004B4200F8013D012240F6A1310FF0F0F91F
:104BC00007E0012000E00220FFF7A4FC01E04FF025
:104BD000FF3003B05DF804FB032807B517D30428A2
:104BE00017D9062813D10D4B5B68C3F3080373B9BB
:104BF00002A9042241F8043D40F2DA600FF09DF969
:104C000028B9019880F00200C0F3400002E00020C3
:104C100000E0012003B05DF804FB00BF00ED00E000
:104C2000013809289CBF024B43F82010704700BF91
:104C300080F30320013809289ABF034B53F8200062
:104C40004FF0FF30704700BF80F3032010B58AB0EB
:104C50000446684687F03EFE089B636023880F2B5E
:104C600017D90D480D49132BA0EB0101E16010D9B4
:104C7000009A2261172B0CD9059A62611B2B08D967
:104C8000074A1F2BA2EB0002A26102D905F0C0FA6D
:104C9000E06100200AB010BD00E80320588F012019
:104CA00000E8032020B1012805D1044B987C70470F
:104CB000024B988870470020704700BFC0F3032064
:104CC00072B600207047000010B5044630B9DC2AE7
:104CD00004D1044887F0CFFD204610BD4FF0FF30CF
:104CE00010BD00BF00F0032038B50D46044658B98A
:104CF000DB2A09D906490A88DC2A05D11A60284628
:104D000087F0B9FD204638BD4FF0FF3038BD00BFF9
:104D100000F0032010B503682F2B8AB0044616D983
:104D200020230293002303930E4B1BB1AFF30080AB
:104D3000014600E00C490D4B009302AA3C200023E1
:104D40002CF09AFA0A4A00210A202BF08FFD2368E2
:104D50001F2B85BF074803F01F034FF0A0402360BF
:104D60000AB010BD0000000048040C0022FE0B0039
:104D700001430400000300500B461146024618464A
:104D80006CF056BE2DE9F8439046044689460FF074
:104D90000BFCB8F1000F0CBF4FF480574FF4803775
:104DA0000026B4FBF7F47C43B1450CD021464046C5
:104DB0006CF04AFF054638B96CF0DCFD0028FBD1E9
:104DC0003C440136F0E700250FF022FC2846BDE800
:104DD000F88300001FB50FF0E7FB6CF0E9FD04A8B5
:104DE000112440F8084DFFF795FF029B03F5E0738F
:104DF000032240F8232004A840F80C4DFFF78AFF57
:104E0000019A01239340C0F8083504A8152340F8FF
:104E1000043DFFF77FFF039B03F5E073042240F896
:104E20002320054B4FF40072C3F884210FF0F0FBF0
:104E3000002004B010BD00BF00E100E073B50446DF
:104E40000D4616460FF0B0FB084B00932046084B6A
:104E5000324629460FF015FC04466CF08BFD002805
:104E6000FBD10FF0D5FB204602B070BD75460400A3
:104E7000794D03002DE9F3470F4607F1030929F0A7
:104E800003091646C7EB090405460FF08DFBB44233
:104E900094BF341BB41B34F003041BD025F003086B
:104EA0004246214648466CF049FE824660BB6CF0A3
:104EB00061FD0028FBD14F4501D1454507D0C8EB26
:104EC0000501641A22464944384687F0DFFC254430
:104ED0002744361BBEB1A91925F003040331091B71
:104EE000224621F0030168466CF028FE824658B93C
:104EF0006CF040FD0028FBD1291B3246694438463E
:104F000087F0B9FC00E0B2460FF082FB504602B0D9
:104F1000BDE8F0870022FFF735BF0128F8B5064647
:104F20000C4617461D461DD1CB18B3F5007F1CD883
:104F30000FF03AFB00223146B1206CF005FD30B98C
:104F400020462A463946FFF795FF044601E06FF0F8
:104F5000020400220121C1206CF0F6FC0FF058FB86
:104F60002046F8BD4FF0FF30F8BD6FF00100F8BDEE
:104F700037B505460C460FF017FB8DB9022C01D151
:104F8000114B02E0032C18D1104B186800909B883D
:104F9000ADF804302A46294668466CF005FC0AE064
:104FA000012D0AD1012C08D102AA022102F8084DD4
:104FB0002F206CF0C9FC044601E04FF0FF340FF0E5
:104FC00027FB204603B030BDCCFA0B00D2FA0B0011
:104FD00030B595B014A8112440F83C4DFFF79AFE67
:104FE000059B364D03F5E073032240F8232014A8F7
:104FF00040F8404DFFF78EFE049A01239340C0F81D
:10500000083514A8152340F8383DFFF783FE069BAA
:1050100003F5E073042240F823200FF0C5FA0FCD0A
:1050200007AC0FC400222B682360114607A86CF060
:10503000D9FA00283CD120230C93214B0D901BB1B1
:10504000AFF30080014600E01E491F4B00930CAAFD
:10505000002301202CF010F900231A4600930321AD
:105060001846FFF785FF024610BB40238DF80F302E
:10507000164B18680C909B88ADF8343011460CA87C
:105080006CF092FB024698B9992301460CA88DF862
:1050900030306CF089FB024650B901238DF8303076
:1050A0000DF10F0102230CA88DF831306CF07CFB60
:1050B0000FF0AEFA002015B030BD00BFD8FA0B00DB
:1050C0000000000048040C0015050C00ECFA0B0071
:1050D00013B5104C13462278BAB9012222700094FD
:1050E0000A4601460C4871F012F948B92378012BA1
:1050F000FCD0084B1878003018BF0120404201E076
:105100004FF0FF300023237001E04FF0FF3002B07A
:1051100010BD00BF4C6900208460002010B54368BA
:105120008EB0044613B32023069300230793114B3C
:105130001BB1AFF30080014600E00F4920780F4A11
:105140000F4B012808BF134622690492A2680392FC
:10515000019362680B4B0292009306AA002332204F
:105160002CF08AF8636902221A7001E04269137018
:105170000EB010BD0000000048040C00EB4F0C0006
:1051800027050C002D050C0030B58DB00EF014FC79
:1051900000221F491F48204D71F0B0F820230493CE
:1051A0000023044605931DB1AFF30080014600E0E3
:1051B0001A49184B5A68126803921A690292DB68FE
:1051C0000193174B009304AA002301202CF054F8FC
:1051D00020230493002305931DB1AFF30080014603
:1051E00000E00E490F4A104B002C18BF13460193E4
:1051F0000E4B009304AA002301202CF03DF80EF082
:1052000003FC201C18BF012040420DB030BD00BF80
:105210009C630D00846000200000000048040C0026
:1052200062050C00B7060C0026F80C008B050C007C
:1052300073B504460D4616460EF0BEFB064B0093B2
:105240003246064B294620460FF01BFA04460EF064
:10525000DBFB204602B070BD75460400D150030050
:105260002DE9F041164C074688460EF0A5FB237841
:10527000254603F0FF06E3B9012327F47F6123707D
:105280004246234621F00F010E4871F078F818B11C
:1052900026706FF001040EE02A78094B012AFBD03A
:1052A0001A7802F0FF0432B100221A706FF0020483
:1052B00001E04FF0FF340EF0A7FB2046BDE8F0817F
:1052C0004C6900208460002070B505460C461646E7
:1052D0000EF072FB32462946204687F0CCFA0EF0DB
:1052E00093FB002070BDEFF31180402383F31188FE
:1052F000704780F311887047232870B504460E4626
:105300000CD8FEF775FF00EB0415EB78B34204D020
:10531000062B02D1204610F0BBFDEE7070BD0000E0
:1053200008B5054B588B10F0EAFD012303FA00F095
:10533000013880B208BD00BF9860002038B518233E
:105340000C4A58430C46135C012B02EB00050FD1AD
:105350002B79D9070CD5FFF7E3FF2A796B889207E1
:105360004CBF011B21461846BDE8384010F0B0BEC6
:1053700038BD00BF9860002070B50D460646014656
:1053800001201446FFF7DAFF29460220FFF7D6FF77
:1053900021460320FFF7D2FF31460520FFF7CEFF5D
:1053A00029460620FFF7CAFF21460720BDE87040C6
:1053B000FFF7C4BF70B5184D0646FFF7B1FF2B7F4E
:1053C00013F0020F0446688B04D010F093FD201AEE
:1053D00080B201E010F08EFD308095F83430688E98
:1053E00013F0020F04D010F085FD201A80B201E006
:1053F00010F080FD708095F84C30B5F84A0013F03D
:10540000020F04D010F076FD201A80B201E010F0F7
:1054100071FDB08070BD00BF98600020064B1A7906
:1054200010B9910704D501E0920701D4012100E0F1
:10543000002158880FF09BBA9860002010B5064BE9
:105440005C8820460FF0C0FAB0FA80F14909204686
:10545000BDE810400FF08BBA9860002038B51823D3
:105460000A4A58431518145C012C0DD1214668884E
:105470000FF06EFA29796888C1F3400101B1214625
:10548000BDE838400FF073BA38BD00BF9860002007
:1054900030B5104C637883428DB0054618D06178E2
:1054A0000D4A52F8200052F82120019220230B4A85
:1054B00004930290002300920949059304AA012055
:1054C0002BF0DAFE636B657013B1A16B2846984729
:1054D0000DB030BD9069002004080C0013060C00CC
:1054E00008060C0010B50A288AB058D016D8032830
:1054F00028D00ED8022863D12023324A029300928A
:105500000023012002AA304903932BF0B5FE0820A6
:1055100054E0082832D0092836D051E00E2823D094
:105520000BD80D284CD1294B002483F8244083F854
:105530002C409C6283F8254010E00F2836D081284B
:1055400018D03DE0202300240293214B009302AAAF
:1055500023461D49039401202BF08EFE72F02EFC91
:10556000052827D9204629E071F050FE174B93F803
:105570003C300BB1022021E001201FE06EF058FF0B
:10558000F0B971F041FE1BE06EF052FF10B171F006
:105590004FFE15E00D4B93F83C308BB1EAE70B4B17
:1055A00093F83C3063B171F033FE09E072F006FC11
:1055B000052802D8074B185C00E00020FFF768FFC1
:1055C0000AB010BD26060C0008060C0090690020E9
:1055D0003F060C0028080C00F0B5354E34788FB02B
:1055E000002C62D170F04CFB852810D078B12023BC
:1055F0000693304B009306AA2F4907943C2023467C
:105600002BF03AFE2D4A21460A202BF02FF90020DC
:1056100070F052FB70F0C4FB0028FBD003AF0024F5
:105620000C21384603947C60BC600EF015FF2146C7
:1056300005461922224887F044F9E8B2204D172880
:1056400088BF18202146AE46884217D07B5C1A09D5
:1056500002F13004392C88BF02F1570403F00F0324
:1056600005F8114003F130044A00392C88BF03F1DA
:1056700057040EEB020301315C70E5E7114871F04D
:1056800039FD80B12023002406930A4B009306AA1B
:10569000094907943C2023462BF0EEFD074A21469A
:1056A0000A202BF0E3F80123337000200FB0F0BD87
:1056B00090690020AA040C0008060C0001430400B5
:1056C000208F0120F8070C0070B5264C1E46A378E9
:1056D000012B8AB015463CD00A460146201D71F0C8
:1056E0002BFB002837D12946324604F1140071F013
:1056F00023FB0546002831D11B4871F0A3FD78B18A
:1057000020230293194B009302AA194903953C20C8
:105710002B462BF0B1FD174A29460A202BF0A6F89C
:10572000002012F09BFC71F059FD80B12023002570
:1057300002930E4B009302AA0D4903953C202B4681
:105740002BF09AFD0B4A29460A202BF08FF80123F3
:10575000A370002004E04FF0FF3001E06FF0010083
:105760000AB070BD90690020D4070C00AA040C0098
:1057700008060C00014304002DE9F043394C63781E
:10578000072B8DB00746884666D194F82430002B4D
:1057900062D0354B9B68002B5ED1EFF31083002B5A
:1057A0005AD1EFF31183052B56D8DFF8D890054670
:1057B000EB1B434546461EDA228BE169236A5B1ADE
:1057C0009342FAD815F8011B284871F0C4FA002852
:1057D000EED000262023049304AACDF8009033468F
:1057E000234905963C202BF047FD224A31460A20EA
:1057F0002BF03CF8DCE700238DF80F3094F82530CF
:1058000003F0FF0553BBDFF8708018480DF10F015E
:10581000AFB271F0B2FA38B99DF80F3005F8083020
:105820000135402DF1D12F4601233A461249134844
:1058300084F8253073F092F880B10A4A0C490023AD
:1058400082F82530202204920D4A0092322004AAC8
:1058500005932BF011FD01E04FF0FF3630460DB0FF
:10586000BDE8F08390690020148F0120A469002016
:1058700008060C00014304004D690020D4070C0009
:10588000A6060C0057060C00014B9861704700BF3C
:10589000506A0020014B9869704700BF506A002091
:1058A0002DE9F04106468CB0042900F2CC80DFE8F7
:1058B00001F085390C2C0300644B1A6B002A00F0B0
:1058C000C280FFF7E7FF9047BDE0604C002501274D
:1058D00004F1140084F8247084F82C50A56284F834
:1058E000255071F06CFA201D71F069FA8022584938
:1058F000304673F059F820230493564B00930595D6
:105900002B4604AA5449384655E05049002381F8F3
:1059100024302022C86904920A6A0593121A01925F
:105920004E4A13E0494A92F8241000248DF80F40A3
:1059300001F0FF03174681B982F825302021049138
:10594000D169126A0593521A0192454A009242495E
:1059500004AA01202BF090FC75E0DFF808813B4E93
:105960000DF10F0106F11400A5B271F006FA40B96D
:105970009DF80F3004F808300134402CEFD1254653
:1059800003E015B986F825505DE001232A46354924
:10599000354887F8253072F0E1FF002853D02B4AB4
:1059A0002D49002382F82530202204922F4A0092AC
:1059B000059304AA32202BF05FFC44E0234D01271D
:1059C00085F82C7072F0ECFF2023A8620493AB6A78
:1059D00001930024264B009304AA23461E490594F4
:1059E00038462BF049FCE9682B69AA6A13442A89D6
:1059F0005B1A934227D8DFF85880AB6A1348A3425A
:105A000018D918F80410043071F0A5F980B12023DA
:105A100000270493174B009304AA0F4905973C20D5
:105A20003B462BF029FC144A39460A202AF01EFF77
:105A30000134E2E7002380F82C308022836204499D
:105A4000304672F0B1FF0CB0BDE8F08190690020E3
:105A5000D0690020BF060C0008060C00D6060C001A
:105A6000C9060C004D690020D4070C00A6060C00E6
:105A7000E4060C00F0060C000143040010B50A4CCB
:105A800094F83C307BB90123022084F83C30FFF7C6
:105A9000FFFC6EF0CDFC08B971F0B6FB71F0B8FBFD
:105AA000002384F8243010BD90690020034AD06898
:105AB0001369926A1344181A704700BF9069002056
:105AC000F0B52B4C94F82C308DB0002B2ED0E16823
:105AD0002269A36A134422895B1A934226D8254F70
