:02000002D0002C
:1040000000400D0078940D00000006000C00050132
:08401000040129050000000075
:10401800E08C0D0009480A49884208B505D0094ACC
:10402800824202D0121A04F0C2FD0748074A002152
:10403800121A04F0E2FD014808BD00BFE8E30320BE
:10404800E8930D0050E4032050E40320F0E7032038
:1040580070B503F001FD074C074BE41AA4080025CE
:104068001E46A54204D056F8253098470135F8E792
:1040780070BD00BFE0930D0094930D0000F0A6B84A
:1040880008B500F0B5F9BDE8084003F0B3BC01F08D
:10409800CDBA01F0D3BA01F0D1BA0078B0FA80F005
:1040A80040097047012303707047000010B5104C99
:1040B8002DED028B9FED0F8AB6EE001AB0EE480A7E
:1040C800F7EE000A0021204600F0A6FC4FF47A70B3
:1040D80001F025FBB0EE481AF0EE480AB0EE480AA7
:1040E8002046002100F098FCBDEC028B012010BD99
:1040F80054E403200000000010B5034B036004469D
:1041080000F0BAFE204610BDFC8C0D0010B5044628
:10411800FFF7F2FF20464FF4987103F064FD204644
:1041280010BD000010B596B001F0C8FD234A014645
:104138000DA802F005FA0DA801F076FE01F0BEFD0B
:104148001F4A01460DA802F0FBF90DA801F06CFE0C
:1041580001F0B4FD1B4A01460DA802F0F1F90DA8C3
:1041680001F062FE0DA801F0BAFC174903A801F09E
:1041780061FB03A908A801F05DFB08A801F098FB02
:10418800044608A844B901F0B0FB16AA022322F895
:104198004E0D0321009406E001F0A9FB00230093D3
:1041A8000246102307210DA801F052FC01F086FDFC
:1041B80000220DA901F0F5FD16B010BD80E4032022
:1041C80060E403209CE4032068E4032010B503F0B6
:1041D80055FB174C4FF4165103F044FB154800F0FB
:1041E8001DFD204600F076FB9FED131A2046F0EEE9
:1041F800410AB0EE410A002100F00EFC0021132014
:1042080003F068FC002302220C490D4801F096F9DE
:10421800002302220B490C4801F090F90B4A0C4983
:104228000C4802F018FBBDE81040FFF77BBF00BF49
:1042380054E4032088E40320000000005CE4032029
:10424800048D0D00A4E40320098D0D00128D0D00CE
:10425800B5400D0033680D0038B5046805467CB1DB
:104268006368013B63605BB9236820469B68984795
:10427800A368013BA3601BB923682046DB68984705
:10428800284638BDF0B50E468FB0002104460160BF
:10429800416009AD194604A8174601F0CBFA1499F4
:1042A800284601F0C7FA169B0293159B01932046F6
:1042B800009504AB3A46314602F090F820460FB01C
:1042C800F0BD00B5BFB03EAB012203F8F41D19469E
:1042D80001F06EFC3FB05DF804FB00B5C1B00B0EF9
:1042E8008DF80C30C1F3074301918DF80D308DF82E
:1042F8000F10C1F30723042203A98DF80E3001F033
:1043080057FC41B05DF804FB70B504460E461546EF
:1043180000F0CAFE01223146204600F039FE204650
:104328003A2100F0D7FD2A4620460249BDE87040F0
:1043380000F020BE5B8D0D0030B52DED028BB0EE88
:10434800408AF0EE608AD3B005460C464FF480727E
:1043580012A906A800F0ACFD1E4B06937D227B2116
:1043680006A800F0C5FD2A4606A81B49FFF7CCFFA2
:1043780022461A4906A8FFF7C7FF06A800F094FED0
:10438800012206A8164900F003FE3A2106A800F00B
:10439800A1FDB0EE480AF0EE680A06A800F090FE0B
:1043A80006A800F0B6FD079B03930E4B039A1B78F3
:1043B8000D498DF8003004A83C2302F06DFB05A8D8
:1043C800FFF74AFF06A8FFF797FE53B0BDEC028B34
:1043D80030BD00BFFC8C0D00048D0D00098D0D0053
:1043E8001C8D0D007CE40320228D0D0000000000D0
:1043F8002DE9F041664C8AB000F02AFF2368C01A04
:10440800B0F5FA6FC0F0B48000F022FF2060614878
:10441800614C624D624E00F0EBFCBDEEC00A5D4897
:1044280084ED000A00F006FDBDEEC00A85ED000A25
:1044380003F024FA23685B4A012102F0A1FF03F08C
:104448001DFA2B68584A012102F09AFF132003F045
:104458006BFB03F067FE9FED483B9FED494BB0EEC9
:10446800431AF0EE631A9FED482B41EC100B01F054
:104478000DF92968206886ED000BFFF75DFF96EDC2
:10448800000B002251EC100B484B8DED020B04F091
:104498003FF99DED020B98B1062106A803F0C7F875
:1044A800434B069A1B788DF8003042493C2304A8F8
:1044B80002F0F2FA05A8FFF7CFFE06A803F032F8DB
:1044C80001F0FCFB01F08AFC002851D0062000F026
:1044D80027F95FFA80F841463748FFF7F2FE2120B6
:1044E80000F01EF9C0F3072739463448FFF7E9FE04
:1044F8001A2000F015F90446192000F011F9061BDE
:10450800314605462E48FFF7E8FE03F0B7F9434663
:104518002C4A012102F034FF03F0B0F92A4902F0D5
:10452800B7FE03F0ABF90A22394602F0F3FE03F0B6
:10453800A5F9264902F0ACFE03F0A0F90A2231469B
:1045480002F014FF03F09AF9214902F0A1FE03F0EA
:1045580095F90A22294602F009FF03F08FF91D494F
:1045680002F096FE03F08AF90A22214602F0FEFEC6
:104578000AB0BDE8F08100BF0000000000000000A4
:1045880000000000000059400000000000FEAF409D
:10459800A8E4032088E403205CE40320A4E40320C7
:1045A800B0E403202B8D0D00348D0D000000494030
:1045B8007CE40320418D0D0080E4032060E40320A7
:1045C8009CE40320538D0D005E8D0D00698D0D0058
:1045D800778D0D00838D0D002DE9F043374B384D55
:1045E800384E394FDFF80C91DFF80C818FB0012479
:1045F8001C7000F035FE06220221344800F008FB4A
:1046080023460E220F21284600F0AAF832463049E8
:10461800284603F0E3FA2046002100F059FF2D490F
:10462800384609AC01F0F1F92B4904A8002501F03E
:10463800ECF93946204601F0FDF804AB02958DE807
:104648003000102225494846FFF71CFE32464146F5
:10465800484603F0C3FADFF8A490214904A801F002
:10466800D4F93946204601F0E5F804AB02958DE807
:10467800300010221B494846FFF704FE32464146E7
:10468800484603F0ABFA184904A801F0BEF93946C8
:10469800164F204601F0CEF804AB02958DE83000A5
:1046A800102213493846FFF7EDFD32464146384699
:1046B80003F094FA0FB0BDE8F08300BF7CE4032058
:1046C80054E4032050E4032068E4032088E4032032
:1046D80083470D008E8D0D00B38D0D00D88D0D0014
:1046E800DF8D0D00048E0D000D8E0D009CE403205F
:1046F800328E0D0080E40320315E0D0060E403205B
:1047080038B50446C06883180A2B154605D82044D6
:1047180004F04DFAE3681D44E560012038BD00004F
:1047280010B588B0002404AB0122ADF80E00009348
:104738000194094BADF8164011460DF10E00ADF885
:104748001840079400F0DCFE079B0A2B0CBFDDF82D
:104758001600204608B010BD09470D0000F080BDC6
:1047680010B50446017042708370012103EB4300C9
:1047780004F0F8F96060204610BD10B504464068A2
:1047880000F05CFF204610BD10B5002104460078FB
:1047980003F0B1F9142000F053FD2078012103F053
:1047A800AAF91420BDE8104000F04ABD70B50646CD
:1047B8000D46082415F0800F14BF012100217078E0
:1047C80003F099F9013C3046FFF7DEFF6D0014F065
:1047D800FF04EDB2EED170BD13F0800FF8B50D46B1
:1047E800164614BFC021E0215A061F4658BF41F0A3
:1047F80010013306044658BF41F00801700658BF3F
:1048080041F004012A0658BF41F002016B0658BF67
:1048180041F001012046FFF7C9FF39462046FFF75E
:10482800C5FF31462046FFF7C1FF29462046BDE8AF
:10483800F840FFF7BBBF2DE9F84F04460D460021AD
:1048480091469A469DF828B0FFF7B0FF0021204610
:10485800FFF7ACFF00212046FFF7A8FF0021204604
:10486800FFF7A4FF03274FF00108002617FB058870
:10487800A278F3B29A421BD9AB420DD1616815FBFD
:1048880007F201F80290626802F808A0022217FBFA
:104898000522616801F802B0606803EB4301421821
:1048A800415C937852782046FFF796FF0136DFE7A0
:1048B80020460021FFF77AFF20460021FFF776FF08
:1048C80020460021FFF772FF20460021BDE8F84F7F
:1048D800FFF76CBF73B504460121007803F0FAF8BE
:1048E8000121607803F0F6F800252E46A378E9B296
:1048F8008B4205F1010506D9002300961A46204689
:10490800FFF799FFF2E702B070BD00000000000059
:10491800F8B5B5EEC01AF7EE007AF1EE10FA2DED03
:10492800048BF0EE418A48BF71EE278AB0EE408AC8
:10493800F4EEE78AF1EE10FAC4BFF7EE007A78EEEB
:10494800E78AB0EE609A18EE900A03F0FDFB2FA3F9
:10495800D3E9002304460D4603F0BCFE60B179EEAE
:10496800487A17EE900A03F0EFFB0022264B03F07B
:104978003FFC22462B4625E0F6EE007AF4EEE78A65
:10498800F1EE10FA2FD41EA3D3E9002320462946BE
:1049980003F0A0FE50B379EE487A17EE900A03F0C0
:1049A800D3FB224606460F462B4615A1D1E9000146
:1049B80003F06AFA02460B463046394603F018FC03
:1049C800114B002203F014FC044618EE100A0D46A1
:1049D80003F0BAFB02460B462046294603F056FA76
:1049E80003F0C0FE04E019EE100A01E018EE100A08
:1049F800BDEC048B00EE100AF8BD00BFAFF30080D9
:104A0800555555555555E53F0000184055555555D0
:104A18005555C53F000000002DE9F0432DED048BEE
:104A2800F5EE400AF1EE10FA83B080468946F0EEC2
:104A3800409AB0EE609AB0EE418A6ED011EE100A3C
:104A480003F082FBF6EE007AB4EEE78AF1EE10FA94
:104A580006460F4610D519EE100A03F075FB002222
:104A68004D4B03F013FA32463B4603F0C1FB03F00B
:104A780079FE08EE900A03E079EE088AE9EE488AA2
:104A880019EE900A03F060FB32463B4604460D4699
:104A98003046394603F0FAF9064618EE900A0F46F2
:104AA80003F052FB02460B463046394603F0ECF958
:104AB80003F058FE34A3D3E9002309EE100A29466F
:104AC800204603F0E3F903F04DFEF0EE680A01EE2C
:104AD800100AB0EE490AFFF71BFFB0EE691AF0EEB4
:104AE800680AB0EE408AB0EE490AFFF711FF26A324
:104AF800D3E9002320462946F0EE409A03F0C4F992
:104B080003F030FEF0EE680A01EE100AB0EE490A32
:104B1800FFF7FEFEF0EE408A03E0F0EE418AF0EE89
:104B2800419A19EE900A03F00FFB19A3D3E9002369
:104B380003F05EFB03F0F6FDC5B218EE100A03F0B1
:104B480003FB13A3D3E9002303F052FB03F0EAFDB0
:104B5800C4B218EE900A03F0F7FA0DA3D3E90023C4
:104B680003F046FB03F0DEFDC0B200902B46224660
:104B780049464046FFF75FFE03B0BDEC048BBDE835
:104B8800F08300BFAFF30080555555555555D53FB7
:104B98000000000000E06F400000F03F00F060BB44
:104BA80010B503682F2B044604D9074A00210A20B0
:104BB80000F06EFC23681F2B83BF03F01F032360E4
:104BC80002484FF0A04010BD49520D0000030050AC
:104BD80007B502AB43F8040D1846FFF7E1FF019A49
:104BE80001239340C0F8083503B05DF804FB07B50E
:104BF80002AB43F8040D1846FFF7D2FFD0F8103582
:104C0800019823FA00F000F0010003B05DF804FBFE
:104C180002720122817102747047000010B50021F0
:104C28000446807902F056FF074AA37912681B01EF
:104C3800D118D05C4B7803F01F0343EA4010FFF70C
:104C4800C7FF0023E36010BDB8E403202DE9F74F48
:104C5800044600F0FDFAE368834284BF0023E36062
:104C6800237C33B9E368C01AB0F5FA6F01D201208A
:104C7800A8E00025554E257400F0EAFAA3793268B9
:104C8800E0601B01D1182571E570A570657025706D
:104C9800D05C4B7803F01F0343EA4010FFF798FFFE
:104CA800FA2000F03CFD0121A07902F013FFA3795E
:104CB80032681B01D118D25C4B7802A803F01F039D
:104CC80043EA421340F8043DFFF76AFF019B4FF0A7
:104CD800010808FA03F3C0F80C35142000F01FFD92
:104CE80002F0DCF8A37932681B01D118D05C4B784C
:104CF80003F01F0343EA4010FFF76AFF282000F083
:104D08009FFA2946A07902F0E5FE2F464FF0000BE6
:104D1800A37932681B01D11812F803A04B7803F06D
:104D28001F0343EA4A1A5046FFF761FF5046FFF750
:104D38005EFF80455FFA8BF908D101200BF1010B6A
:104D480000F07EFABBF1FF0FE2D1D946A3793268B1
:104D58001B01D11812F803804B7803F01F0343EAB4
:104D680048184046FFF743FF4046FFF740FFB9F1B8
:104D7800FF0F5FFA80F814D0032D0ED9EB070CD47F
:104D8800FA080137A35C5B00DBB2A354217A4945DA
:104D98003CBF43F00103A354FFB20135EDB2552DDA
:104DA800B4D102F07DF8272F0BD9227863782179C6
:104DB8001344A2781344E2781344DBB299423FF4D7
:104DC80056AF002003B0BDE8F08F00BFB8E4032061
:104DD80010B50446FFF73AFF28B1A37800EE103A61
:104DE800B8EE400A10BD9FED010A10BD0000C07F5B
:104DF80008B5FFF7EDFFF2EE027A60EE277AB1EE22
:104E0800047A87EE870ADFED027A30EE270A08BDBA
:104E18000000004210B50446FFF718FF28B12378B8
:104E280000EE103AB8EE400A10BD9FED010A10BD21
:104E38000000C07FFFF7EEBF08B500F011FA014B84
:104E4800186008BDB8E4032010B5054B0360037C67
:104E580004461BB9406808B100F0F0FB204610BDBD
:104E6800488E0D0010B50446FFF7EEFF20461421CA
:104E780002F0B9FE204610BD10B5034B036004468E
:104E8800FFF7E2FF204610BD588E0D0010B504460E
:104E9800FFF7F2FF2046302102F0A5FE204610BDA4
:104EA8000023C36043610376437680F82A30704755
:104EB800002310B5C36001230374054B03604FF052
:104EC800FF3341608260C362FFF7EAFF10BD00BF95
:104ED800588E0D00C368826810B593423FBF426880
:104EE8005C1CC460D15424BF012380F82A3010BD53
:104EF80038B54469651C082D09D800EB4403012422
:104F080045619C76DA76FFF7E5FF204638BD00203C
:104F180038BD10B54369044643B100EB4303597EDD
:104F280009B1FFF7D7FF6369013B6361A368E068D4
:104F3800616898424FF000022ABF5B180A5403F8D0
:104F4800012C10BD70B50446C068A56866682D1AA6
:104F5800134630440A46294600F080FB85422DBF9F
:104F6800E368A368E360C01836BF0123E06084F8F3
:104F78002A3070BD0EB403B503AA52F8041B01927F
:104F8800FFF7E0FF02B05DF804EB03B070470000E4
:104F98002DE9F04104460E46174612B12221FFF7CB
:104FA80099FF0025715D06EB0508002971D0E268BC
:104FB800A3689A426DD20B0633D501F0F003E02BBB
:104FC80017D198F8013003F0C002802A11D105F1F9
:104FD800020816F8082002F0C000802809D102F063
:104FE8003F029B0142EA013203F47C631A4392B206
:104FF80011E001F0E003C02B46D105F1010816F8D5
:10500800083003F0C002802A3ED1890101F4F86219
:1050180003F03F031A4323492046FFF7ABFF4546F9
:1050280035E00C2918D00BD8092921D00A2919D024
:10503800082929D15C212046FFF74CFF622123E093
:1050480022291BD05C2919D00D291DD15C212046AD
:10505800FFF740FF722117E05C212046FFF73AFF77
:10506800662111E05C212046FFF734FF6E210BE03A
:105078005C212046FFF72EFF742105E05C212046C5
:10508800FFF728FF98F800102046FFF723FF0135A7
:1050980088E72FB120462221BDE8F041FFF71ABF6B
:1050A800BDE8F081698E0D00426900EB42031A7E6B
:1050B80012B100221A7670472C21FFF70BBF0000AF
:1050C80007B5C26A002A07DB8DED000B0649FFF71A
:1050D80051FF03B05DF804FB53EC102B034903B0F8
:1050E8005DF804EBFFF746BF808E0D00868E0D003D
:1050F80000F0B6B808B5024B1B689B68019308BD61
:105108007802030008B5024B1B681B6D019308BDAC
:105118007802030008B5024B1B689B6D019308BD1C
:105128007802030008B5024B1B681B6E019308BD8B
:105138007802030008B5034B1B68D3F89830019335
:1051480008BD00007802030008B5034B1B68D3F8BC
:10515800A830019308BD00007802030008B5034B8E
:105168001B68D3F8B430019308BD0000780203002F
:1051780008B5034B1B68D3F8D830019308BD00006D
:105188007802030008B5034B1B68D3F8DC300193A1
:1051980008BD00007802030008B5034B1B68D3F86C
:1051A800EC30019308BD00007802030008B5034BFA
:1051B8001B68D3F8F030019308BD000078020300A3
:1051C80008B5024B1B689B68019308BD48020300A1
:1051D80008B5024B1B681B69019308BD4802030010
:1051E80008B5024B1B685B69019308BD48020300C0
:1051F80008B5024B1B681B6B019308BD48020300EE
:1052080008B5024B1B685B6C019308BD480203009C
:1052180008B5024B1B68DB6C019308BD480203000C
:1052280008B5024B1B685B6D019308BD480203007B
:1052380008B5024B1B685B68019308BD18020300A0
:1052480008B5024B1B68DB68019308BD1802030010
:1052580008B5024B1B685B69019308BD180203007F
:1052680008B5024B1B681B68019308BD2C0203009C
:1052780008B5024B1B685B68019308BD2C0203004C
:1052880008B5024B1B689B68019308BD2C020300FC
:1052980008B5024B1B68DB68019308BD2C020300AC
:1052A80008B5024B1B681B69019308BD2C0203005B
:1052B80008B5024B1B681B6A019308BD2C0203004A
:1052C80008B5024B1B685B6A019308BD2C020300FA
:1052D80008B5024B1B681B6B019308BD2C02030029
:1052E80008B5024B1B681B6A019308BD280203001E
:1052F80008B5024B1B685B6A019308BD28020300CE
:1053080008B5024B1B689B6A019308BD280203007D
:1053180008B5024B1B68DB6A019308BD280203002D
:1053280008B5024B1B681B6B019308BD28020300DC
:1053380008B5024B1B685B6B019308BD280203008C
:1053480008B5024B1B681B6C019308BD28020300BB
:1053580008B5024B1B685B69019308BD6402030032
:1053680008B5024B1B689B68019308BD68020300DF
:1053780008B5024B1B68DB68019308BD680203008F
:1053880008B5024B1B68DB69019308BD30020300B6
:1053980008B5024B1B681B6A019308BD3002030065
:1053A80008B5024B1B681B68019308BD3C0203004B
:1053B80008B5024B1B68DB68019308BD3C0203007B
:1053C80008B5024B1B681B69019308BD3C0203002A
:1053D80008B5024B1B685B69019308BD3C020300DA
:1053E80008B5024B1B689B69019308BD3C0203008A
:1053F80008B5024B1B68DB69019308BD3C0203003A
:1054080008B5024B1B681B6A019308BD3C020300E8
:1054180008B5024B1B689B6A019308BD3C02030058
:1054280008B5024B1B681B68019308BD4C020300BA
:1054380008B5024B1B685B68019308BD4C0203006A
:1054480008B5024B1B681B69019308BD4C02030099
:1054580008B5024B1B685B69019308BD4C02030049
:1054680008B5024B1B689B69019308BD4C020300F9
:1054780008B5024B1B68DB69019308BD4C020300A9
:1054880008B5024B1B681B6A019308BD4C02030058
:1054980008B5024B1B685B6B019308BD60020300F3
:1054A80008B5024B1B681B6D019308BD6002030021
:1054B80008B5024B1B685B68019308BD2002030016
:1054C80008B5024B1B685B69019308BD2002030005
:1054D80008B5024B1B68DB6A019308BD2002030074
:1054E80008B5024B1B68DB6C019308BD2002030062
:1054F80008B5024B1B685B6D019308BD20020300D1
:1055080008B5034B1B68D3F88430019308BD00002D
:105518002002030008B5034B1B68D3F888300193B9
:1055280008BD00002002030008B5034B1B68D3F830
:105538009430019308BD00002002030008B5024B17
:105548001B681B68019308BD4402030008B5024BA1
:105558001B685B68019308BD4402030008B5024B51
:105568001B685B69019308BD4402030008B5024B40
:105578001B681B6A019308BD4402030008B5024B6F
:105588001B68DB6B019308BD4402030008B5024B9E
:105598001B685B68019308BD4002030008B5024B15
:1055A8001B689B68019308BD4002030008B5024BC5
:1055B8001B68DB68019308BD4002030008B5024B75
:1055C8001B681B69019308BD4002030008B5024B24
:1055D8001B685B69019308BD4002030008B5024BD4
:1055E8001B689B69019308BD4002030008B5024B84
:1055F8001B68DB69019308BD4002030008B5024B34
:105608001B681B6A019308BD4002030008B5024BE2
:105618001B681B6B019308BD4002030008B5024BD1
:105628001B685B6B019308BD4002030008B5024B81
:105638001B681B68019308BD1C02030008B5024BD8
:105648001B685B68019308BD1C02030008B5024B88
:105658001B689B68019308BD1C02030008B5024B38
:105668001B685B6A019308BD1C02030008B5024B66
:105678001B68DB6A019308BD1C02030008B5024BD6
:105688001B681B6B019308BD1C0203002DE9F04F3A
:105698002DED028BB0EE448AF0EE648A55EC114B86
:1056A80057EC126B83B011EE102A2B4612EE100A3B
:1056B80039468DED000B5BEC13AB03F001F89DED63
:1056C800000B38BB51EC100B22462B4602F0DCFBDA
:1056D8005246804689465B4651EC180B02F0D4FBD3
:1056E80002460B464046494602F082FD2246804665
:1056F80089462B463046394602F0C6FB02460B4621
:105708004046494602F09EFE52465B4602F0BEFB0A
:1057180041EC100B03B0BDEC028BBDE8F08F00210B
:10572800FFF7CEBE10B5836804460BB902F05DFAE8
:10573800C3689847A3681BB10322214620469847AF
:1057480020461021BDE8104002F04DBA70470020F5
:10575800704770470020704770470020704710B5A9
:105768001421044602F03FFA204610BD10B514215A
:10577800044602F038FA204610BD10B5142104463C
:1057880002F031FA204610BDFEF783BCFEF781BC5B
:10579800FEF77FBC08B50A20024A0021FFF778FE11
:1057A80008BD00BF49520D00A0F13003DAB2092A42
:1057B80001D818467047A0F16103052B01D8573866
:1057C8007047A0F14103052B94BF37384FF0FF30E5
:1057D8007047000010B500230370044B0446186896
:1057E800FFF716FD01232370204610BDC8E40320EF
:1057F80010B5037804461BB1024B1868FFF710FD7B
:10580800204610BDC8E4032008B582798B799A42F6
:1058180006D1062203F0BCF9B0FA80F0400908BDB1
:10582800002008BD10B514220446002103F0E5F954
:10583800204610BD10B5034601F1140251F8044B7F
:1058480043F8044B9142F9D110BD70B50C4605469A
:105858001646FFF7E7FF2CB910222146284603F029
:10586800CCF916E0012E09D12B4604F1100254F8A8
:10587800041B43F8041B9442F9D108E06A1E0F2365
:10588800E15C02F8011F013BDBB2FF2BF8D10123D9
:105898002B74284670BD38B5044615461A46FFF7DE
:1058A800D4FF257301232D0A65732374204638BD60
:1058B800037C13F0FD0F14BF0120002070471FB5B3
:1058C8000446FFF7F5FF08B9208809E010220021F7
:1058D800684603F092F910226946204603F058F909
:1058E800003018BF012004B010BD00887047704711
:1058F80010B5034601F1140251F8044B43F8044B68
:105908009142F9D110BD10B551B1034601F1100211
:1059180051F8044B43F8044B9142F9D10123037425
:1059280010BD10B50446FFF7C3FF28B908882388BF
:105938001B1A5842584110BD1022204603F028F97E
:10594800B0FA80F0400910BDF7B505460E4619B902
:10595800102203F052F951E02421304603F0AFF948
:10596800042802D0002710243BE03078FFF71CFF02
:10597800041E47DB7078FFF717FF002842DB40EA78
:1059880004108DF80400B078FFF70EFF041E39DB11
:10599800F078FFF709FF002834DB40EA04109DF88F
:1059A8000430C0B240EA03202880002327E02CB34B
:1059B800F05DFFF7F9FE030612D4013C00012855FB
:1059C8002421304603F07BF90137874208D2F05D85
:1059D800FFF7EAFE40B20028A2BF2B5D1843285506
:1059E80001372421304603F06AF98742DFD32C447B
:1059F8000023A54202D004F8013DFAE701232B74E5
:105A080003B0F0BD00232B80CFE738B504460D4620
:105A1800FFF708FF20462946FFF796FF204638BDC6
:105A2800F0B58BB10024E51C8D420FD8661C055DCE
:105A3800875D974205D12E44B14207D31C60681C8C
:105A4800F0BD01352C44EEE71846F0BD0020F0BD4E
:105A58002DE9F74304460E461D461746002A3AD05C
:105A68000A4601AB016AFFF7DBFF9DF82830226A7E
:105A780003BBF8B1961C2E44361A1F2E2BD8DDF81E
:105A8800048008F10209C8EB0202121A00EB0801AF
:105A980005EB090092B22144204403F093F86B1CF3
:105AA80004F808302A46394604EB090003F07FF869
:105AB800266210E0901C2B181F2B0CD86B1CA354CB
:105AC800224420623946567020442A4603F06FF873
:105AD800226A2A442262206A03B0BDE8F0831FB517
:105AE8000446034600F11F02002003F8010B93420D
:105AF8004FF00001F9D104AA062302F8013D012361
:105B08002162009120461946FFF7A2FF204604B003
:105B180010BD73B50A460E4601AB016A0446FFF78D
:105B28007FFF054678B10198226A2918121A521B7C
:105B38002144204403F03BF8236A5D1B256231466B
:105B48002046FFF7E6FF02B070BD000038B500251B
:105B58004FF6FF73044643800E22294605700571EF
:105B6800063003F04AF804F11400FFF75BFE04F175
:105B78002800FFF757FE044904F13C0001F019FD25
:105B8800E5642565204638BD30910D0010B5836960
:105B9800C26903EBC2029342184606D004682488FF
:105BA8008C4203F10803F6D110BD002010BD00009F
:105BB80073B514460A4641B33CB305682E78F42CF5
:105BC80028BFF4243EB1A8890023224602B0BDE8CC
:105BD8007040FFF7C3BA68884FF6FF73984216D033
:105BE8002B7943F00801082905D1A9890096234695
:105BF800FFF7BEFA0DE043F00403042B07D1A9898F
:105C080000962346FFF7BEFA03E0034801E06FF071
:105C1800D10002B070BD00BFF2FEFFFF10B50A68E8
:105C280052F8023F03605368436010BD1FB5026815
:105C38000B6812881B889A420C460CD101466846AC
:105C4800FFF7ECFF214602A8FFF7E8FF02A9684624
:105C5800FFF7DAFD00B9002004B010BD10B5044606
:105C68003420FEF714FA014668B10023036043604C
:105C78008360C360036143618361C36103624362FC
:105C88008362C3620363216019B90A4A0A20FFF7D5
:105C9800FFFB0020FFF72EFA20B1064A00210A2058
:105CA800FFF7F6FB002221680348FFF77FFA20463A
:105CB80010BD00BF49520D0091600D0010B50A4C8F
:105CC8002368DB070ED42046FEF7E7F950B10748F2
:105CD800FFF7C4FF2046FEF7E5F9054A05490348E2
:105CE80001F07CFF014810BDC0E40320BCE40320A0
:105CF80050E40320A55E0D0070B504468CB003A8DF
:105D08000E46FFF767FD2368093B012B19D8FFF7FB
:105D1800D5FFA1880068FFF739FF024658B920234C
:105D280004930A4B0590009304AA034608493220BD
:105D3800FFF7B6FB05E0F56C1DB1336DE16820692E
:105D4800A84703A8FFF754FD0CB070BD3A8F0D00AB
:105D5800F08E0D00084609B90A4601E0096A0022DA
:105D6800FFF7D0B910B50C4611B90A46084606E047
:105D780001212046FFF7CDFE216A00222046BDE81A
:105D88001040FFF7C7B913B501A8FFF723FD00209E
:105D9800FFF7C8F9044601A8FFF72AFD204602B01C
:105DA80010BD73B505460C4601A81646FFF712FD4F
:105DB80021462846FFF7CEFF002808DB3146284653
:105DC800FFF7D0FF002802DB2846FFF7DCFF044678
:105DD80001A8FFF70DFD204602B070BD0368D86921
:105DE8000028D4BF0020012070470B68036013B15E
:105DF8005A6801325A60704710B551F8043B04469E
:105E080040F8043BFFF7F1FF23680BB9FFF7C2FC2A
:105E1800204610BD10B551F8043B044640F8043B39
:105E2800FFF7E3FF204610BD10B504460430FEF727
:105E380013FA204610BD70B504684368054604EBA4
:105E4800C306A64204D0201DFEF706FA0834F8E778
:105E58002868FFF7F3FB284670BD70B504684368EF
:105E6800054604EBC306A64204D0201DFEF7F4F94C
:105E78000834F8E72868FFF7E1FB284670BD10B53D
:105E8800046904F11800FFF7E8FF04F10C00FFF7BC
:105E9800D2FF2046BDE81040FEF7FBB8F8B504680D
:105EA8000746C4B1A569E36905EBC306AE4204D051
:105EB800281DFEF7D1F90835F8E7A069FFF7BEFB02
:105EC80004F10C00FFF7C9FF2046FFF7B4FF3421A7
:105ED800204601F088FE3846F8BD000073B500255D
:105EE8000560456006462420FEF7D1F8044678B1DF
:105EF80003464FF6FF7223F8022BC0F802505D608C
:105F08008572C572C560056145618561C5610562B7
:105F1800002314200193FEF7BAF8034628B10122A2
:105F280042608260084A0260046102A8726840F810
:105F3800042D73603460FEF78FF933680BB9FFF7EF
:105F480029FC304602B070BDCC8E0D00884270B579
:105F580015461AD9904219D2A1F10806511A0439E6
:105F6800151F44182B1F9E4225D0042C07D055F826
:105F7800043C44F8043C29462046FFF736FF2846EF
:105F8800FEF76AF9083D083CECE714D00C1D061D25
:105F9800231F9D420FD0042E07D054F8043C46F826
:105FA800043C21463046FFF720FF2046FEF754F90F
:105FB80008340836ECE770BD2DE9F0410468436801
:105FC8000546884604EBC307A74218D04146204639
:105FD800FFF72CFE064608B90834F5E78CB1201DFA
:105FE800FEF73AF92B686A6804F1080103EBC2026C
:105FF8002046FFF7ABFF6B68013B6B6002E00026B1
:1060080000E026463046BDE8F081F7B5044651F871
:10601800043B4768009301A8FFF7E7FE6668A3689A
:106028009E4214DB0136002E0BDDF000FFF7FEFA6E
:10603800054618B394E8060001EBC202FFF786FF95
:1060480000E000252068FFF7F9FA2560A6602668B9
:10605800626806EBC70506EBC202294605F108008F
:10606800FFF774FF35B1009B46F8373001A9281DAA
:10607800FFF7BBFE636801336360012501A8FEF7E3
:10608800EBF8284603B0F0BD2DE9F04104468EB088
:1060980003A80D46FFF79EFB2368032B02D0042BB1
:1060A80042D087E004A8FFF719FF049B22891A80D1
:1060B8006268049952F8083FC1F802305368C1F881
:1060C800063007A8049B069305A9FFF78EFE06A9CC
:1060D80005F11800FFF799FF044607A8FEF7BCF87A
:1060E8002023069374B9364B009306AA23463549F4
:1060F80007943220FFF7D4F9049B21461888FFF74C
:1061080019F80DE0304A0092002306AA2D4907939A
:106118000120FFF7C5F96B6A13B1E96A04A898472B
:1061280005A8FEF799F845E021892846FFF72EFDD6
:10613800074600283ED00468A369E1694FF6FF725C
:10614800228003EBC101994203D053F8080B428027
:10615800F9E7E668236906EBC308B04504D0301DAB
:10616800FEF77AF80836F8E700232361A669E369A1
:1061780006EBC308B04504D0301DFEF76DF80836AD
:10618800F8E70023E361A372E372AB6A13B1296BEA
:106198003846984720230D4A069300920023094960
:1061A8000793012006AAFFF77BF9394605F1180085
:1061B800FFF702FF03A8FFF71BFB0EB0BDE8F08155
:1061C800528F0D00F08E0D00788F0D00958F0D0009
:1061D8008842F8B506460C46154614D9904213D2A3
:1061E800A2F108056C1AA1F108070444AF4218D0BF
:1061F8001CB129462046FFF70DFE281DFEF72CF896
:10620800083D083CF2E70CD0AC420AD01EB121464A
:106218003046FFF7FFFD201DFEF71EF8083408364C
:10622800F2E7F8BD70B50E1E05460BDDF000FFF76E
:10623800FDF9044670B195E8060001EBC202FFF7CC
:10624800C7FF00E000242868FFF7F8F92C60AE606B
:10625800012070BD70BD73B5044645686846FFF7F8
:10626800D9FD6168A368994205DB01312046FFF733
:10627800D9FF064698B12368626803EBC50503EBAE
:10628800C202294605F10800FFF7A2FF1DB16946C1
:106298002846FFF7BFFD636801336360012601A844
:1062A800FDF7DAFF304602B070BD8842F8B5064601
:1062B8000C46154614D9904213D2A2F108056C1A5F
:1062C800A1F108070444AF4218D01CB12946204662
:1062D800FFF792FD281DFDF7BFFF083D083CF2E7D8
:1062E8000CD0AC420AD01EB121463046FFF784FDDF
:1062F800201DFDF7B1FF08340836F2E7F8BD70B588
:106308000E1E05460BDDF000FFF790F9044670B14C
:1063180095E8060001EBC202FFF7C7FF00E0002482
:106328002868FFF78BF92C60AE60012070BD70BD46
:1063380073B5044645686846FFF75EFD6168A36863
:10634800994205DB01312046FFF7D9FF064698B18F
:106358002368626803EBC50503EBC202294605F111
:106368000800FFF7A2FF1DB169462846FFF744FD64
:10637800636801336360012601A8FDF76DFF3046AD
:1063880002B070BD10B50446406808B1FDF781FE43
:10639800204610BD07B503690C308DE8090003F1EC
:1063A8003C0001F0BFF86846FFF7ECFF03B05DF86A
:1063B80004FB000038B500230446036014200D4692
:1063C800FDF765FE28B1012343608360024B03603B
:1063D80005612060204638BD948E0D002DE9F041FE
:1063E80088B005461E46542000230F469046049365
:1063F8000593FDF74CFECDF818D004460790B0B1D0
:10640800FFF7A4FB394604F13C0084F8048001F04E
:10641800FDF80F9BE3643146109B236504F11400DB
:10642800FFF766FA0E9904F12800FFF761FA214692
:10643800002601AB02AA03A80796FFF7BBFF039B40
:10644800059A039203A805930494FDF705FF06A88F
:10645800FFF798FF049B2968059A2B6008A86B68CA
:1064680006916A6040F8043D05960496FDF7F4FE2F
:1064780005A8FDF7F1FE296819B9034A0A20FFF7B4
:1064880007F808B0BDE8F08149520D0010B5044680
:10649800406808B1FDF7FDFD204610BD07B503694A
:1064A8000C308DE809006846FFF7F0FF03B05DF88F
:1064B80004FB000038B500230446036014200D4691
:1064C800FDF7E5FD28B1012343608360024B0360BB
:1064D80005612060204638BDB08E0D00F0B500265D
:1064E80087B006604660044618200F46FDF7CFFDCA
:1064F800CDF810D00546059038B1FFF793F9394625
:106508002846AE82EE82FFF7F3F900232946059369
:1065180002AA01AB03A8FFF7CDFF039B62682560C1
:10652800636003A80392FDF797FE04A8FFF7AEFF88
:1065380023680BB9FFF72EF9204607B0F0BD00001D
:106548002DE9F04F17469FB0804605A80E46FFF785
:1065580041F93C682379002B00F0F3803368DD684B
:106568001B6905EBC303039304F1140A04F1280B18
:10657800039BAB4223D0D5F80090504609F1140193
:10658800FFF7CFF9002800F0E18009F1280158460B
:10659800FFF7C7F9002800F0D980236823F47F416A
:1065A800D9F8003023F47F43994240F0CF8020236C
:1065B8006B4A139300230092149313AABDE004F1CD
:1065C80028052846FFF77BF918B966492846FFF7DA
:1065D8009AF93368D3F800905B6809EBC30AD14590
:1065E800294608D0D9F80000FFF79BF9002837D1D1
:1065F80009F10809F3E706A8FFF770FF13AA2B466D
:1066080004F1380C964618685968154603C50833CE
:1066180063452A46F7D118682860069A0023143281
:1066280071460120FEF790FD00287ED1356806A945
:106638000BA8FFF7EFFB28460BA9FFF70CFE054652
:106648000CA8FDF709FE002D6FD032685368126858
:1066580003F10053013B07A802EBC309FDF7FCFD5A
:1066680004F114052846FFF72AF968B93E4B3D495D
:106678001A88013292B21A8013A80123FFF70BF986
:1066880013A92846FFF734F94FF02C0A5246002187
:1066980013A802F0B2FA012306AAADF84C30ADF8FF
:1066A8004EA02B4604F1240C1546186859689646E6
:1066B800AEE80300083363457246F6D11868CEF891
:1066C80000000FCD0DF1580EAEE80F002B68CEF884
:1066D800003023798DF85030D9F800309B8AADF816
:1066E8006C30E36B15930022204B1C93A11D13A85B
:1066F8001D94FEF751FD20BB0123237034683946F1
:106708000C340BA8FFF778FB20460BA9FFF710FE07
:1067180004460CA8FDF7A0FD9CB920230B93144B4D
:1067280000930C9423460BAA07E039464046FFF72E
:1067380063FB07A8FDF790FD0AE00E493220FEF73B
:10674800AFFE39464046FFF757FB01E008350FE733
:1067580005A8FFF74DF840461FB0BDE8F08F00BF11
:1067680065900D00E08E0D00C4E40320015D0D006E
:106778003E900D00F08E0D00024800230360FEF7E6
:106788003FBD00BFC8E4032070470020704710B524
:106798001021044601F027FA204610BD08B508B1BB
:1067A800FFF7F5FF08BD10B58368044613B103224F
:1067B80001469847204610BD0022026010B54FF6EA
:1067C8009C728280B1F9044084808A8002680C68D7
:1067D80004600A6010BD10B504460068FEF72EFF7D
:1067E800204610BD38B5C468F4B12378022B03D114
:1067F80004F10C00FFF7EFFF656835B12846FFF795
:10680800D2FF1021284601F0EEF9A56835B12846D7
:10681800FFF7C9FF1021284601F0E5F920461421A9
:10682800BDE8384001F0DFB938BD10B588B004467E
:10683800684600F0BEFE694604A800F0DCFE04A825
:10684800A047044604A800F06DFE684600F06AFE02
:10685800204608B010BDF0B5102485B007460E4696
:10686800154600212246684602F0C7F9002269460B
:106878001046ADF80040029703960195FEF766FEB4
:1068880005B0F0BD13B5044691E8050000234B6040
:106898000B602060626001A801930093FDF7DCFCA7
:1068A800204602B010BDF7B50C4602AD54F8043BC3
:1068B80045F8083D06460F4601A82146FFF795FA18
:1068C80029463046FFF7DEFF01A8FDF7C5FC204644
:1068D800FDF7C2FC3846082101F085F9304603B0BF
:1068E800F0BD13B50B46044603C88DE8030093E8D2
:1068F800030084E803009DE8030083E8030002B076
:1069080010BD000038B500230446036010200D4672
:10691800FDF7BDFB28B1012343608360024B036090
:10692800C5602060204638BD98900D00826810B57B
:106938000AB901F05AF9C368BDE81040184708B50C
:10694800006800F11001FFF7F1FF08BD826810B57B
:106958000AB901F04AF9C368BDE81040184708B5FC
:10696800006800F11001FFF7F1FF08BD38B50023FA
:1069780083608B6804460D462BB102229847EB686A
:10698800E360AB68A360204638BD0000F0B589B06D
:1069980004686846FFF710FF00238DF808304FF0B1
:1069A8000202D4E84F3F002B03D1C4E8412F00294D
:1069B800F7D102D08DF8083063E014F10C0503D04C
:1069C80069462846FFF7F8FEBFF35F8F012363701F
:1069D800002004F10803BFF35F8F53E8006F43E81A
:1069E8000002002AF9D1BFF35F8F002E49D0FEF7CD
:1069F80077FD20B129463046FFF798FF3AE0314647
:106A080002A8FFF7B3FFE068B4F9105008B102F02C
:106A180033F906901020ADF81C50FDF738FB0546F9
:106A2800E8B1002787601820FDF731FB044688B1DC
:106A38000146876002A8FFF754FF049BA268A36081
:106A4800059B049206A9E268E36004F11000059230
:106A5800FFF7B2FE0D4BEB600D4B2C60AB6006A848
:106A6800FFF7B9FE02A8FFF79EFE00222946094853
:106A7800FEF73EFD3046FFF796FE1021304601F046
:106A8800B2F86846FFF7A7FE09B0F0BD47690D00E8
:106A9800BD6B0D002D570D002DE9F04F8BB006464C
:106AA8000F46904699469DF850A0FEF757FD07AD52
:106AB800834630BB4FF62E73059005A92846ADF8DE
:106AC8001830FFF779FE1420FDF7E1FA044658B1B3
:106AD8000223037001234370C0F804B0C0F808B063
:106AE80029460C30FFF768FE3046214640F8044B33
:106AF800FFF708FF2846FFF76EFE05A8FFF76BFEB5
:106B080052E000240C2314206C60AC600793FDF75E
:106B1800BEFA014618B1047044704460846004A849
:106B28000391FFF7EFFE224B08930820FDF7AFFA19
:106B3800044628B1039B40F8043B04A9FFF755F924
:106B480000955FFA8AF34A46414638460994FEF7AB
:106B58000DFD20B9039B5B7803F0FF0283B1039B13
:106B6800059304A906A8FFF740F905A93046FFF7E1
:106B780089FE06A8FDF770FB04A8FDF76DFB13E07E
:106B88004FF69C7305A903A80592ADF81830FFF7D6
:106B9800FDFE05A8FFF71FFE05A80999FFF783FE6C
:106BA80006A8FDF759FBDAE730460BB0BDE8F08FD1
:106BB8002D6D0D00022AF8B5044606D0032A17D019
:106BC800012A22D10B6803601FE018200E68FDF728
:106BD8005EFA054650B13146FFF7C8FE3069B6F98E
:106BE800147008B102F048F82861AF8225600CE003
:106BF800046854B104F11000FFF7EDFD2046FFF7DB
:106C0800D2FD1821204600F0EEFF0020F8BD38B56F
:106C1800002383608B6804460D462BB102229847F7
:106C2800EB68E360AB68A360204638BD022A70B504
:106C3800044606D0032A11D0012A18D10B68036034
:106C480015E014200E68FDF722FA054620B13146FA
:106C5800FFF7DDFF337C2B74256008E0046834B14E
:106C68002046FFF7A0FD1421204600F0BCFF0020BD
:106C780070BD0000F0B5002387B00C46BFF35F8FEE
:106C880050E8006F40E80032002AF9D1BFF35F8F67
:106C9800002E3FD01846FEF723FC074620B12146B8
:106CA8003046FFF753FE2EE0314601A8FFF7AFFF4D
:106CB80023788DF814301020FDF7E9F90546D0B196
:106CC80087601420FDF7E3F9044678B18760014630
:106CD80001A8FFF706FE039BA268A360049B03922A
:106CE800E268E3609DF81430049223740A4BEB6069
:106CF8000A4B2C60AB6001A8FFF755FD002229461E
:106D08000748FEF7F5FB3046FFF74DFD10213046EA
:106D180000F069FF07B0F0BD67690D00356C0D0024
:106D28002D570D0030B585B004460D46684611460E
:106D3800FFF7B9FD7CB124B228460DB101F09CFFE4
:106D4800029002A96846ADF80C40FFF71FFE02A8A2
:106D5800FFF741FD1DE000988DF808404FF0010253
:106D6800D0E84F3FA34203D1C0E8412F0029F7D113
:106D780002D08DF808300CE010F10C014FF001033F
:106D880018BF0373BFF35F8F043000F8033CFFF7AD
:106D980071FF01A8FDF760FA05B030BD0022114669
:106DA8004068FEF72BBC002211464068FEF736BC4F
:106DB80000224068FEF72ABC002281F001014068E9
:106DC800FEF714BC00231A4619464068FEF706BCB5
:106DD80000231A4619464068FEF7F8BB0022114600
:106DE8004068FEF7EBBB002211464068FEF7D6BBB1
:106DF800002202214068FEF7D9BB00231A464068EA
:106E0800FEF7C4BB024B03225A60024A1A6070475D
:106E1800CCE40320B4900D007047F8B5064615463B
:106E28000C468F18BC4206D0336814F8011B9B68C7
:106E380030469847F6E72846F8BD0022007CFEF762
:106E48004FBA0021007CFEF753BA0021007CFEF700
:106E580057BA0021007CFEF75BBA0021007CFEF7E0
:106E68005FBA10B51421044600F0BDFE204610BDDF
:106E780010B504464FF47A730846A3600021044B0A
:106E8800207461602360FEF75BFA204610BD00BFE6
:106E9800E8900D000021007CFEF74ABAFEF710BA10
:106EA800FEF706BA704710B51821044600F09BFE9D
:106EB800204610BDF0B5037D062B8DB00E4600F1BF
:106EC80004074FF0000402D000F1080518E00CADEB
:106ED800394605F8304D2F232A460A20FEF738FA9E
:106EE800284601F0E4FE33680246DB68294630464E
:106EF80098470FE024B12E21304600F0CDF9044424
:106F080015F8011D0A22304600F002FABD42044479
:106F1800F0D120460DB0F0BD10B5054B0446112246
:106F280040F8043B002101F068FE204610BD00BF78
:106F380010910D000346074A10B543F8042B01F1E0
:106F4800100251F8044B43F8044B9142F9D10A78E6
:106F58001A7010BD10910D0010B59DF8084044EA54
:106F6800032343EA024242EA0161042341600375B4
:106F780010BD37B50D788B784A78C97800912946C5
:106F8800FFF7EAFF03B030BD014B024A1A607047B1
:106F9800D4E40320CF910D00002211464068FEF78B
:106FA8002DBB002211464068FEF738BB002240681E
:106FB800FEF72CBB002281F001014068FEF716BBEA
:106FC80000231A4601214068FEF708BB00231A4631
:106FD80019464068FEF7FABA002211464068FEF7E3
:106FE800EDBA002211464068FEF7D8BA0022022105
:106FF8004068FEF7DBBA00231A464068FEF7C6BAB7
:1070080038B5054688B104684CB1A3681BB10322A2
:107018002146204698471021204600F0E4FD2846E6
:107028001421BDE8384000F0DEBD38BD10B103685A
:107038005B681847704710B503680446BBB15868C9
:10704800FEF7BEF878B923685A7C12B95868FEF77B
:10705800BFF823685868FEF7C3F820680023236048
:1070680028B1FFF7CDFF206808B1FFF7C9FF204618
:1070780010BD000038B50C4B03600446D0F8CC01B5
:1070880008B1FDF708F8D4F8C45135B12846FFF720
:10709800D2FF0421284600F0A6FDA06808B1FFF73A
:1070A800C5FF204638BD00BF00920D0038B50E4C14
:1070B8000E4B23600025022304F5E4706360A5608D
:1070C800C4F8C451C4F8C851FEF79AF8084BC4F87C
:1070D800CC5184F8D05123602046064A0649BDE8C1
:1070E800384000F07BBD00BFD8E4032034920D0087
:1070F80000920D0050E403207D700D0000231A4615
:107108004068FEF743BA002202214068FEF74EBAF3
:10711800002211464068FEF741BA00221146406835
:10712800FEF74CBA00231A4619464068FEF74EBAD5
:1071380000231A4619464068FEF750BA002281F02B
:1071480001014068FEF752BA00224068FEF75EBAB5
:10715800002211464068FEF761BA002211464068D5
:10716800FEF74CBA2DE9F043002495B016460D46BB
:107178000746FFF7D1FE214620220CA8009401F013
:107188003CFD40230C9321466B460CAA3046FEF783
:10719800EFF80446002844D1024601216868FEF74A
:1071A8000DFA0221804622466868FEF707FA009E1B
:1071B80081462146002E34D0002932D17368022B33
:1071C80002D00A2B09D02AE0B8F1000F27D0716944
:1071D80038460431FFF7CDFE20E0B9F1000F1ED08C
:1071E8007469112201A801F008FD06238DF81430F6
:1071F80001AD04F108031834186859682A4603C217
:107208000833A3421546F7D101A906A807ADFFF731
:1072180091FE0FCD3C1D0FC42B6823700121F66928
:10722800C8E70098FEF79CF8384615B0BDE8F0832B
:10723800024B034A1A6000225A607047ACE60320EA
:1072480034920D00F8B506460D468F180024BD424D
:107258000CD0336815F8011B9B6830469847002806
:1072680001DB0444F3E7002C08BF04462046F8BDC0
:1072780070B505460C46084649B101F018FD2B6863
:10728800024621462846DB68BDE87040184770BDB5
:1072980008B5FFF7EDFF08BD03689B68184738B5C8
:1072A8000D210546FFF7F8FF0A2104462846FFF797
:1072B800F3FF204438BD30B58BB00B4600218DF864
:1072C8002410012A98BF0A220DF12304B3FBF2F51A
:1072D80005FB123303F0FF03092B94BF3033373318
:1072E800DBB2214604F801392B46002DEED1FFF719
:1072F800BFFF0BB030BD10B42AB903685DF8044B6A
:107308009B68C9B21847D2B25DF8044BFFF7D3BFE8
:10731800FFF7F1BF38B50546FFF7EDFF04462846ED
:10732800FFF7BDFF204438BD2DE9F04107460E4662
:1073380015462AB90368C9B29B68BDE8F0411847E9
:107348000A2A02D1002901DA04E0D2B2BDE8F041EC
:10735800FFF7B1BF2D21FFF79FFF2A460446714270
:107368003846FFF7A8FF2044BDE8F08138B5054648
:10737800FFF7DAFF04462846FFF791FF204438BD9F
:107388000CB42DE9F04387B000AF07F13804054687
:1073980054F8049B3C600E4623464A461421381D87
:1073A800FEF75CF9132805D8391D2846FFF760FF5A
:1073B800044613E000F1080323F00703E846ADEBA9
:1073C800030D411C23464A4668463C60FEF746F9D1
:1073D80069462846FFF74CFF0446C5461EB12846B5
:1073E800FFF75DFF044420461C37BD46BDE8F04367
:1073F80002B0704710B50446FFF7D5F9204610BD16
:107408000348044A04490023836000F0E7BB00BF37
:10741800B4E6032050E40320FD730D00704710B557
:107428001021044600F0DFFB204610BD70B5084B64
:107438000360044600250E4640F80C5FFDF7D8FEB1
:1074480030462671FDF79CFFA560204670BD00BF41
:1074580068920D000079FDF79BBF00002DE9F14F00
:1074680059EC108B07460E460022002310EE100A36
:10747800494601F02FF928B109F1004399462D2317
:1074880033700136002301240A22D9B28F4202D96F
:1074980054430133F9E7204600F044FE42464B4688
:1074A80000F0A6FE82468B4601F0C4F98046894664
:1074B80000F068FE02460B465046594600F0E4FCD0
:1074C8000022174B01F01AF918B118F1010849F117
:1074D8000009E51722462B464046494601F092F935
:1074E80001230A22314600F03EFAAFB1304601F0DE
:1074F800DEFB2E2333540130064422462B464046F9
:10750800494601F07FF93B46104631460A2201B050
:10751800BDE8F04F00F027BA01B0BDE8F08F00BF1A
:107528000000E03F10B504460068FEF787F82046E3
:1075380010BD10B50446006808B1FEF77FF80023B7
:107548002360A360636010BD38B504460D4600682B
:107558000131FEF77BF810B184E82100012038BD25
:1075680010B50368044613B143688B4207D220461E
:10757800FFF7EAFF20B1A3680BB922681370012056
:1075880010BD70B50E46114604461546FFF7E8FFD4
:1075980018B92046FFF7CDFF09E02A463146A56015
:1075A800206801F004FB2268A3680021D15420461A
:1075B80070BD38B5002304460360436083600373DD
:1075C8000D4639B1084601F072FB294602462046AD
:1075D800FFF7D7FF204638BD884210B50B46044652
:1075E80007D0096819B19A68FFF7CBFF01E0FFF7E8
:1075F800A0FF204610BD10B5002304460360436079
:1076080083600373FFF7E8FF204610BD38B50546D1
:107618000C4641B1084601F04AFB2146024628467D
:10762800FFF7AFFF01E0FFF784FF284638BD10B52C
:1076380000238AB004460360436083600373C8B2C2
:1076480001A9FFF70BFF01A92046FFF7DFFF20463E
:107658000AB010BD044B00204FF6FF721870588016
:107668009A80FDF725BF00BFC4E60320024B1A68C5
:10767800024B1A60704700BFE8E30320CCE6032002
:1076880070474174704708B5007CFDF7C1FE20EAD9
:10769800E07008BD08B5007CFDF792FE20EAE070B6
:1076A80008BD08B5007CFDF79BFE30EA200028BF26
:1076B8004FF0FF3008BD08B5007CFDF789FE30EAC1
:1076C800200028BF4FF0FF3008BD007CFDF790BEBA
:1076D80010B51421044600F086FA204610BD70B596
:1076E800457C04460E4625B9007CFDF791FE00282E
:1076F80005DD3146207CBDE87040FDF759BE2846BF
:1077080070BD000010B504460846114600226260AC
:107718004FF47A72A260054A2260012220746274D2
:107728001A46FDF73DFE204610BD00BFA4920D008D
:10773800007CFDF765BE0000F8B5194C25684DB909
:107748008420FCF7A4FC064618B18422294601F0DF
:1077580054FA2660134D2E684EB98420FCF797FC26
:10776800074618B18422314601F047FA2F600E4FC0
:10777800396811F0010611D13846FCF78EFC68B162
:1077880022682B6809483146FFF7BCFF3846FCF7EA
:1077980089FC074A0749054800F020FA0348F8BD64
:1077A800ECE60320E4E60320E8E60320D0E6032025
:1077B80050E4032089760D0041747047704708B57E
:1077C8000021007CFDF74CFE30EA200028BF4FF076
:1077D800FF3008BD08B50121007CFDF741FE30EA05
:1077E800200028BF4FF0FF3008BD08B5007CFDF72A
:1077F8002FFE20EAE07008BD08B5007CFDF720FEEA
:1078080020EAE07008BD007CFDF73ABE10B51421EF
:10781800044600F0E8F9204610BD38B50446007C5F
:107828000D46FDF715FE002801DC607C28B12946CD
:10783800207CFDF71DFE20EAE07038BD10B5044637
:10784800002363604FF47A73A360054B2360012320
:107858000846217463741146FDF7E2FD204610BD09
:10786800D4920D000022007CFDF7E2BD10B5142271
:107878000446002101F0C1F9204610BD30B50E4D77
:1078880087B001A8FFF7F2FF296811F0010410D1B1
:107898002846FCF702FC60B101AA21460748FFF719
:1078A800CDFF2846FCF7FEFB054A0649034800F0D1
:1078B80095F9024807B030BDF0E60320F4E603204E
:1078C80050E40320C5770D00002211464068FDF7FB
:1078D80075BE002211464068FDF790BE0022114691
:1078E8004068FDF79BBE00224068FDF78FBE00226E
:1078F80081F001014068FDF779BE00231A46194658
:107908004068FDF76BBE00231A4619464068FDF72C
:107918005DBE002211464068FDF740BE00220221EC
:107928004068FDF743BE00231A464068FDF72EBEA7
:10793800024B04225A60024A1A60704708E7032083
:1079480004930D0010B5044601F0B1F9013823186D
:107958002046984206D20278197800F8011B03F8ED
:107968000129F6E710BD70B50C46911E222920D8D2
:107978002546294610B9234430220EE0B0FBF2F622
:1079880002FB1600C1B205F8011B092894BF30316B
:10799800573105F8011C3046EBE7994202D201F84D
:1079A800012BFAE7002320460B70FFF7CBFF204698
:1079B80070BD002070BD000008B50C4B33B1FFF757
:1079C8005DFF03681B699847002809DC084B63B111
:1079D800FFF7B2FE03681B699847002803DC08BD5F
:1079E800AFF30080F2E7AFF3008008BD00000000AD
:1079F8000000000008B5FFF7DFFFFDF729FC014B89
:107A0800186008BD14E7032007B5002300931A4641
:107A18006FF07701FDF788FD03B05DF804FB000007
:107A280007B543880A2B08D0502B09D1094B1B688E
:107A38003BB103B05DF804EB1847FFF7E5FF06E03C
:107A4800002300931A466FF07701FDF76DFD03B030
:107A58005DF804FB10E7032010B5FDF7E9FB0446C9
:107A680001F0E2F8074B13B12046AFF30080002184
:107A78000448FDF783FD00210348BDE81040FDF7E9
:107A880049BD00BF00000000297A0D0010B504466A
:107A98000F48FFF7DFFC28B1A4F10B03022B01D834
:107AA800002010BD00F058F8FFF7F4F908B1012CD8
:107AB800F6D9FFF741FEFFF73BFE18B1A4F1090321
:107AC800012BEDD9232C8CBF0020012010BD00BF55
:107AD80030E70320232838B504460D460AD8FF2985
:107AE80008D0FFF7D3FF28B129462046BDE8384023
:107AF800FDF7C6BB38BD38B504460D46FDF7C8FBD3
:107B0800FF2810D0062804D84D2323FA00F0C30715
:107B180009D42046FFF7BAFF28B129462046BDE818
:107B28003840FDF7BDBB38BD0D2810B504469CBFD5
:107B38000E34A4B22046FFF7A9FF50B10321204616
:107B4800FDF796FB032804D12046BDE81040FDF759
:107B5800BFBB002010BD000038B50B4D296811F0DF
:107B680001040FD12846FCF798FA58B12146074876
:107B7800FFF77EF92846FCF795FA054A05490348B8
:107B880000F02CF8014838BD18E703201CE7032053
:107B980050E40320216E0D0070B50C4C0C4E0D4DB9
:107BA80000212046FFF742FC20460B4C324629466E
:107BB80000F014F801212046FFF738FC3246294628
:107BC8002046BDE8704000F009B800BF30E7032048
:107BD80050E4032025740D0040E703200B460146BE
:107BE800184600F0C7BFFCF754BA08B5FDF73EFDCC
:107BF800244B1A68D0075CBF01221A60224B1A680E
:107C0800D1075CBF01221A60204B1A68D2075CBFFB
:107C180001221A601E4B1A68D0075CBF01221A6045
:107C28001C4B1A68D1075CBF01221A601A4B1A68EC
:107C3800D2075CBF01221A60184B1A68D0075CBFD4
:107C480001221A60164B1A68D1075CBF01221A601C
:107C5800144B1A68D2075CBF01221A60124B1A68CB
:107C6800D0075CBF01221A60104B1A68D1075CBFAD
:107C780001221A600E4B1A68D2075CBF01221A60F3
:107C8800704700BF7CE7032078E7032074E70320F0
:107C980070E703206CE7032068E7032064E703200C
:107CA80060E703205CE7032058E7032054E703203C
:107CB80050E70320184B1A68D1075CBF01221A60ED
:107CC800164B1A68D2075CBF01221A60144B1A6857
:107CD800D0075CBF01221A60124B1A68D1075CBF3B
:107CE80001221A60104B1A68D2075CBF01221A6081
:107CF8000E4B1A68D0075CBF01221A600C4B1A6839
:107D0800D1075CBF01221A600A4B1A68D2075CBF10
:107D180001221A60704700BF9CE7032098E7032000
:107D280094E7032090E703208CE7032088E70320EB
:107D380084E7032080E70320184B1A68D1075CBF4B
:107D480001221A60164B1A68D2075CBF01221A601A
:107D5800144B1A68D0075CBF01221A60124B1A68CC
:107D6800D1075CBF01221A60104B1A68D2075CBFAA
:107D780001221A600E4B1A68D0075CBF01221A60F4
:107D88000C4B1A68D1075CBF01221A600A4B1A68AB
:107D9800D2075CBF01221A60704700BFBCE703200E
:107DA800B8E70320B4E70320B0E70320ACE70320DB
:107DB800A8E70320A4E70320A0E70320244B1A68C0
:107DC800D0075CBF01221A60224B1A68D1075CBF3A
:107DD80001221A60204B1A68D2075CBF01221A6080
:107DE8001E4B1A68D0075CBF01221A601C4B1A6828
:107DF800D1075CBF01221A601A4B1A68D2075CBF10
:107E080001221A60184B1A68D0075CBF01221A6059
:107E1800164B1A68D1075CBF01221A60144B1A6806
:107E2800D2075CBF01221A60124B1A68D0075CBFE8
:107E380001221A60104B1A68D1075CBF01221A6030
:107E48000E4B1A68D2075CBF01221A60704700BF48
:107E5800ECE70320E8E70320E4E70320E0E703205A
:107E6800DCE70320D8E70320D4E70320D0E703208A
:107E7800CCE70320C8E70320C4E70320C0E70320BA
:107E880081F0004102E000BF83F0004330B54FEAC3
:107E980041044FEA430594EA050F08BF90EA020F30
:107EA8001FBF54EA000C55EA020C7FEA645C7FEAC3
:107EB800655C00F0E2804FEA5454D4EB5555B8BFE6
:107EC8006D420CDD2C4480EA020281EA030382EA57
:107ED800000083EA010180EA020281EA0303362DE9
:107EE80088BF30BD11F0004F4FEA01314FF4801CBC
:107EF8004CEA113102D0404261EB410113F0004FCE
:107F08004FEA03334CEA133302D0524263EB430384
:107F180094EA050F00F0A780A4F10104D5F1200E22
:107F28000DDB02FA0EFC22FA05F2801841F100017D
:107F380003FA0EF2801843FA05F359410EE0A5F151
:107F480020050EF1200E012A03FA0EFC28BF4CF082
:107F5800020C43FA05F3C01851EBE37101F0004538
:107F680007D54FF0000EDCF1000C7EEB00006EEB45
:107F78000101B1F5801F1BD3B1F5001F0CD34908CF
:107F88005FEA30004FEA3C0C04F101044FEA445226
:107F980012F5800F80F09A80BCF1004F08BF5FEAAD
:107FA800500C50F1000041EB045141EA050130BD8D
:107FB8005FEA4C0C404141EB010111F4801FA4F130
:107FC8000104E9D191F0000F04BF01460020B1FA85
:107FD80081F308BF2033A3F10B03B3F120020CDABD
:107FE8000C3208DD02F1140CC2F10C0201FA0CF09B
:107FF80021FA02F10CE002F11402D8BFC2F1200C00
:1080080001FA02F120FA0CFCDCBF41EA0C019040B5
:10801800E41AA2BF01EB0451294330BD6FEA0404FE
:108028001F3C1CDA0C340EDC04F11404C4F12002E9
:1080380020FA04F001FA02F340EA030021FA04F3FB
:1080480045EA030130BDC4F10C04C4F1200220FA52
:1080580002F001FA04F340EA0300294630BD21FA90
:1080680004F0294630BD94F0000F83F4801306BF56
:1080780081F480110134013D4EE77FEA645C18BF4A
:108088007FEA655C29D094EA050F08BF90EA020FE1
:1080980005D054EA000C04BF1946104630BD91EAD9
:1080A800030F1EBF0021002030BD5FEA545C05D1DC
:1080B8004000494128BF41F0004130BD14F580041B
:1080C8003CBF01F5801130BD01F0004545F0FE418F
:1080D80041F470014FF0000030BD7FEA645C1ABFC4
:1080E800194610467FEA655C1CBF0B46024650EAFB
:1080F800013406BF52EA033591EA030F41F4002127
:1081080030BD00BF90F0000F04BF0021704730B5AC
:108118004FF4806404F132044FF000054FF0000181
:1081280050E700BF90F0000F04BF0021704730B542
:108138004FF4806404F1320410F0004548BF404217
:108148004FF000013EE700BF42004FEAE2014FEA6C
:1081580031014FEA02701FBF12F07F4393F07F4F47
:1081680081F06051704792F0000F14BF93F07F4F79
:10817800704730B54FF4607401F0004521F00041BC
:1081880020E700BF50EA010208BF704730B54FF042
:1081980000050AE050EA010208BF704730B511F047
:1081A800004502D5404261EB41014FF4806404F17F
:1081B80032045FEA915C3FF4DCAE4FF003025FEA01
:1081C800DC0C18BF03325FEADC0C18BF033202EB89
:1081D800DC02C2F1200300FA03FC20FA02F001FAE3
:1081E80003FE40EA0E0021FA02F11444C1E600BF82
:1081F80070B54FF0FF0C4CF4E06C1CEA11541DBF35
:108208001CEA135594EA0C0F95EA0C0F00F0DEF8FF
:108218002C4481EA030621EA4C5123EA4C5350EAE4
:10822800013518BF52EA033541F4801143F4801335
:1082380038D0A0FB02CE4FF00005E1FB02E506F0C6
:108248000042E0FB03E54FF00006E1FB03569CF01B
:10825800000F18BF4EF0010EA4F1FF04B6F5007F21
:1082680064F5407404D25FEA4E0E6D4146EB060693
:1082780042EAC62141EA55514FEAC52040EA5E501C
:108288004FEACE2EB4F1FD0C88BFBCF5E06F1ED8C6
:10829800BEF1004F08BF5FEA500E50F1000041EBFD
:1082A800045170BD06F0004646EA010140EA0200AA
:1082B80081EA0301B4EB5C04C2BFD4EB0C0541EACC
:1082C800045170BD41F480114FF0000E013C00F3E1
:1082D800AB8014F1360FDEBF002001F0004170BD05
:1082E800C4F10004203C35DA0C341BDC04F114041E
:1082F800C4F1200500FA05F320FA04F001FA05F2AA
:1083080040EA020001F0004221F0004110EBD37076
:1083180021FA04F642EB06015EEA430E08BF20EAA2
:10832800D37070BDC4F10C04C4F1200500FA04F345
:1083380020FA05F001FA04F240EA020001F00041D7
:1083480010EBD37041F100015EEA430E08BF20EA4A
:10835800D37070BDC4F1200500FA05F24EEA020E92
:1083680020FA04F301FA05F243EA020321FA04F0C1
:1083780001F0004121FA04F220EA020000EBD37078
:108388005EEA430E08BF20EAD37070BD94F0000F78
:108398000FD101F00046400041EB010111F4801FAC
:1083A80008BF013CF7D041EA060195F0000F18BF5D
:1083B800704703F00046520043EB030313F4801F99
:1083C80008BF013DF7D043EA0603704794EA0C0F53
:1083D8000CEA135518BF95EA0C0F0CD050EA410669
:1083E80018BF52EA4306D1D181EA030101F00041E6
:1083F8004FF0000070BD50EA410606BF104619460E
:1084080052EA430619D094EA0C0F02D150EA013619
:1084180013D195EA0C0F05D152EA03361CBF10465A
:1084280019460AD181EA030101F0004141F0FE41F9
:1084380041F470014FF0000070BD41F0FE4141F47D
:10844800780170BD70B54FF0FF0C4CF4E06C1CEA7D
:1084580011541DBF1CEA135594EA0C0F95EA0C0F32
:1084680000F0A7F8A4EB050481EA030E52EA0335ED
:108478004FEA013100F088804FEA03334FF080550E
:1084880045EA131343EA12634FEA022245EA11153B
:1084980045EA10654FEA00260EF000419D4208BFEC
:1084A800964244F1FD0404F5407402D25B084FEA99
:1084B8003202B61A65EB03055B084FEA32024FF445
:1084C80080104FF4002CB6EB020E75EB030E22BFA2
:1084D800B61A754640EA0C005B084FEA3202B6EB62
:1084E800020E75EB030E22BFB61A754640EA5C0011
:1084F8005B084FEA3202B6EB020E75EB030E22BFA1
:10850800B61A754640EA9C005B084FEA3202B6EBA1
:10851800020E75EB030E22BFB61A754640EADC0060
:1085280055EA060E18D04FEA051545EA16754FEAC2
:1085380006164FEAC30343EA52734FEAC2025FEAE0
:108548001C1CC0D111F4801F0BD141EA00014FF06F
:1085580000004FF0004CB6E711F4801F04BF014340
:108568000020B4F1FD0C88BFBCF5E06F3FF6AFAE5C
:10857800B5EB030C04BFB6EB020C5FEA500C50F1EC
:10858800000041EB045170BD0EF0004E4EEA11316F
:1085980014EB5C04C2BFD4EB0C0541EA045170BD76
:1085A80041F480114FF0000E013C90E645EA060EBA
:1085B8008DE60CEA135594EA0C0F08BF95EA0C0FE8
:1085C8003FF43BAF94EA0C0F0AD150EA01347FF430
:1085D80034AF95EA0C0F7FF425AF104619462CE707
:1085E80095EA0C0F06D152EA03353FF4FDAE10466A
:1085F800194622E750EA410618BF52EA43067FF4BB
:10860800C5AE50EA41047FF40DAF52EA43057FF44A
:10861800EBAE12E74FF0FF3C06E000BF4FF0010C55
:1086280002E000BF4FF0010C4DF804CD4FEA410CB9
:108638007FEA6C5C4FEA430C18BF7FEA6C5C1BD086
:1086480001B050EA410C0CBF52EA430C91EA030F07
:1086580002BF90EA020F0020704710F1000F91EA64
:10866800030F58BF994208BF90422CBFD8176FEA32
:10867800E37040F0010070474FEA410C7FEA6C5C00
:1086880002D150EA013C07D14FEA430C7FEA6C5C07
:10869800D6D152EA033CD3D05DF8040B704700BF33
:1086A8008446104662468C461946634600E000BF81
:1086B80001B5FFF7B7FF002848BF10F1000F01BD53
:1086C8004DF808EDFFF7F4FF0CBF012000205DF81E
:1086D80008FB00BF4DF808EDFFF7EAFF34BF0120A3
:1086E80000205DF808FB00BF4DF808EDFFF7E0FF3C
:1086F80094BF012000205DF808FB00BF4DF808ED8D
:10870800FFF7CEFF94BF012000205DF808FB00BFF3
:108718004DF808EDFFF7C4FF34BF012000205DF8D5
:1087280008FB00BF4A0011D212F5001211D20DD574
:108738006FF47873B3EB62520ED44FEAC12343F05F
:10874800004343EA505323FA02F070474FF0000009
:10875800704750EA013002D14FF0FF3070474FF0B8
:10876800000070474FEA4102B2F1E04324BFB3F57D
:10877800001CDCF1FE5C0DD901F0004C4FEAC00290
:108788004CEA5070B2F1004F40EB830008BF20F074
:108798000100704711F0804F21D113F13872BCBF2E
:1087A80001F00040704741F480114FEA5252C2F183
:1087B8001802C2F1200C10FA0CF320FA02F018BFCC
:1087C80040F001004FEAC1234FEAD32303FA0CFC1F
:1087D80040EA0C0023FA02F34FEA4303CCE77FEAAE
:1087E800625307D150EA01331EBF4FF0FE4040F4F8
:1087F8004000704701F0004040F0FE4040F40000A7
:10880800704700BF53B94AB9002908BF00281CBFE8
:108818004FF0FF314FF0FF3000F0A2B9ADF1080C76
:108828006DE904CE00F02AF8DDF804E0DDE9022362
:1088380004B07047D0B500220E4B06460F46FFF72E
:10884800D7FCFFF76FFF0446FFF75CFC00220A4BDA
:10885800FFF7CEFC02460B4630463946FFF714FBBD
:10886800FFF760FF2346002242EA0002104619463D
:10887800D0BD00BF0000F03D0000F0412DE9F047F9
:108888008C460E460446089D002B50D18A42174656
:108898006CD9B2FA82FEBEF1000F0BD0CEF12004E3
:1088A80020FA04F401FA0EF644EA060C02FA0EF76E
:1088B80000FA0EF44FEA1749220CBCFBF9F01FFA34
:1088C80087F809FB10C642EA064600FB08F3B342E4
:1088D80009D9F61900F1FF3280F02281B34240F243
:1088E8001F8102383E44F61AA2B2B6FBF9F309FB1F
:1088F800136642EA064403FB08F8A04509D9E419BF
:1089080003F1FF3280F00A81A04540F20781023B63
:108918003C44C8EB040443EA00400021002D62D027
:1089280024FA0EF400232C606B60BDE8F0878B42BC
:1089380007D9002D55D0002185E841000846BDE83B
:10894800F087B3FA83F1002940F09080B34202D354
:10895800824200F2F880841A66EB03060120B446CE
:10896800002D40D085E81010BDE8F08712B9012726
:10897800B7FBF2F7B7FA87FEBEF1000F35D1F31B4C
:108988004FEA17481FFA87FC0121B3FBF8F0220CC5
:1089980008FB103642EA06460CFB00F3B34207D93F
:1089A800F61900F1FF3202D2B34200F2CE8010462F
:1089B800F61AA2B2B6FBF8F308FB136642EA0644BD
:1089C8000CFB03FCA44507D9E41903F1FF3202D2DA
:1089D800A44500F2B5801346CCEB040443EA0040FA
:1089E8009CE729462846BDE8F087CEF1200106FA23
:1089F8000EF307FA0EF720FA01F94FEA1748CE40AE
:108A080049EA0309B6FBF8FA4FEA194408FB1A6663
:108A18001FFA87FC44EA06430AFB0CF29A4200FA62
:108A28000EF40AD9DB190AF1FF3180F087809A42E7
:108A380040F28480AAF1020A3B449B1A1FFA89F982
:108A4800B3FBF8F108FB113349EA034301FB0CF6C9
:108A58009E4207D9DB1901F1FF326BD29E4269D9D8
:108A680002393B449B1B41EA0A418EE7C1F1200EC3
:108A780022FA0EF48B40234320FA0EF706FA01F48B
:108A88004FEA134C26FA0EF63C43B6FBFCF9270CCA
:108A98000CFB19661FFA83F847EA064609FB08F734
:108AA800B74202FA01F200FA01FA08D9F61809F1F8
:108AB800FF3041D2B7423FD9A9F102091E44F61B43
:108AC800A0B2B6FBFCF40CFB146640EA064704FBB4
:108AD80008F8B84507D9FF1804F1FF3028D2B8457F
:108AE80026D9023C1F4444EA0940C8EB0707A0FB0B
:108AF80002894F4544464E4614D329D065B3BAEB94
:108B0800040367EB060707FA0EFECB40CF404EEA98
:108B1800030385E888000021BDE8F0871346F8E6DE
:108B28001046E0E6B8EB020469EB03060138E5E716
:108B38000446D8E7114695E78146C0E78A467CE7B0
:108B4800023B3C4448E708460AE702383E442FE720
:108B5800C245E7D33E46D1E72946BDE8F08700BFC6
:108B6800704700BF024B0A460146186800F04DB82E
:108B78004CE4032010B5054C13462CB10A460146B7
:108B88000220AFF3008010BD204610BD0000000099
:108B980010B501390244904207D010F8013B11F892
:108BA800014FA342F7D0181B10BD002010BD10B50F
:108BB800431E0A44914204D011F8014B03F8014FB7
:108BC800F8E710BD884210B501EB020301D8421E38
:108BD8000BE09842FBD28118D21AD34204D013F882
:108BE800014D01F8014DF8E710BD994204D011F884
:108BF800014B02F8014FF8E710BD024403469342C7
:108C080002D003F8011BFAE7704738B502FB01F4FC
:108C18002146FCF733FD054618B122460021FFF72F
:108C2800ECFF284638BD000038B5124B1C68A36B12
:108C38000546D3B91820FCF7F9FC43F20E33A063BC
:108C480003804AF6CD33438041F2342383804EF2C9
:108C58006D63C3804DF6EC630381052343810B23C9
:108C6800838101220023C0E90423A36B00221D6134
:108C78005A6138BD4CE40320024B0146186800F0E5
:108C880003B800BF4CE4032070B5064608460C46FE
:108C980000F00DF8451C29463046FCF7EFFC064667
:108CA80018B12A462146FFF782FF304670BD0346B9
:108CB80013F8012B002AFBD1181A0138704710B598
:108CC800034601448B4204D01A785C1C0AB123463F
:108CD800F8E7181A10BD00001D400D0059400D009E
:108CE80085400D0089400D000000000000000000D4
:108CF8000000000001410D0015410D0074656D7004
:108D08000068756D696469747900746F67676C656C
:108D18004C6564006C6967687400656E762D7661D1
:108D28006C730054656D703A2025660048756D694E
:108D3800646974793A202566006C696768742D6DDA
:108D4800657465722F6C6576656C00557074696D15
:108D5800653A20256400537472656E6774683A201A
:108D68000066726565206D656D6F72793A200074D2
:108D78006F74616C2072616D3A20007573656420B0
:108D880072616D3A200035633162396130642D6259
:108D98003562652D346134302D386637612D3636AD
:108DA8006233366430613531373600666463663461
:108DB8006133662D336665642D346564322D38342D
:108DC80065362D303462626239616530346434004E
:108DD800757074696D650063633937633230632D6C
:108DE800353832322D343830302D616465352D31C7
:108DF80066363631643231333365650073747265B3
:108E08006E6774680064326232366266332D3937B1
:108E180039322D343266632D396538612D34316627
:108E280036313037646630346300667265654D6587
:108E38006D6F727900000000000000000000000063
:108E4800514E0D006D4E0D000000000000000000A6
:108E5800814E0D00954E0D00256C75002530347837
:108E6800005C752530345800747275650066616C55
:108E7800736500252E2A6600252E2A6C6600256C4F
:108E880066000000000000000000000061570D00AF
:108E980067570D009D630D0091570D0063570D0036
:108EA80000000000000000005B570D0075570D0022
:108EB800A5640D0095570D005D570D0000000000DA
:108EC8000000000055570D0083570D00875E0D0008
:108ED80099570D0057570D007BE327747BF815ACA5
:108EE800DD49A913000072F5776972696E672E6211
:108EF8006C6500537461727420646973636F76657E
:108F080072696E672073657276696365732E0053A4
:108F18007461727420646973636F766572696E67D1
:108F280020636861726163746572697374696373DD
:108F38002E005065657220646576696365206973E3
:108F4800206D697373696E6721004661696C656499
:108F580020746F20617070656E6420706565722082
:108F680043656E7472616C206465766963652E0072
:108F7800436F6E6E65637465642062792043656E25
:108F88007472616C206465766963652E0044697348
:108F9800636F6E6E65637465642062792072656DB7
:108FA8006F7465206465766963652E0043616E6E33
:108FB8006F7420616464206E657720706565722027
:108FC8006465766963652E004E6577207065726901
:108FD80070686572616C20697320636F6E6E65637B
:108FE8007465642E004661696C656420746F206145
:108FF8007070656E6420646973636F76657265640A
:109008002063686172616374657269737469632E41
:10901800004661696C656420746F20617070656ECC
:109028006420646973636F76657265642073657222
:10903800766963652E004661696C656420746F20EB
:10904800617070656E64206C6F63616C2063686129
:1090580072616374657269737469632E0044757014
:109068006C696361746564206368617261637465C7
:109078007269737469632063616E6E6F74206265D0
:109088002061646465642E00000000000000000098
:1090980091670D0097670D00ED670D00A5670D003E
:1090A80093670D000000000000000000036E0D0033
:1090B800F96D0D00EF6D0D00E56D0D00D96D0D001A
:1090C800CD6D0D00C16D0D00B96D0D00AF6D0D00BA
:1090D800A56D0D006D710D0000000000000000007E
:1090E800216E0D006B6E0D00436E0D00236E0D009A
:1090F8004B6E0D00536E0D005B6E0D00636E0D0020
:109108000000000000000000BD6E0D00AD6E0D00F7
:10911800AF6E0D006C6E00666E00636F6465006470
:10912800657461696C000D0A0025303130752000C6
:109138005D20002C200028293A2000205B00636F66
:109148006465203D200025690064657461696C735D
:10915800203D2000626175640053657269616C008E
:1091680053657269616C3100747970650070617261
:10917800616D00636D6400696400686E64007374F7
:10918800726D0066696C74006C766C00616464488A
:10919800616E646C65720072656D6F766548616EAC
:1091A800646C657200656E756D48616E646C65729D
:1091B80073004A534F4E53747265616D4C6F674824
:1091C800616E646C657200617070006E6F6E650030
:1091D800747261636500696E666F007761726E0014
:1091E8006572726F720070616E696300616C6C0009
:1091F8000000000000000000FF6F0D00F56F0D007B
:10920800EB6F0D00E16F0D00D56F0D00C96F0D00FC
:10921800BD6F0D00B56F0D00AB6F0D00A16F0D0098
:109228006D710D00000000000000000005710D00C8
:109238000F710D0019710D0023710D002D710D00B6
:1092480039710D0045710D0051710D0059710D00F6
:1092580063710D006D710D0000000000000000003A
:1092680025740D0027740D005A00252B3033643AFD
:10927800253032750025592D256D2D256454254836
:109288003A254D3A2553257A0061736374696D65F3
:1092980000000000000000000000000089760D00BA
:1092A800D9760D00E7760D004D720D009D760D0004
:1092B800BF760D00AB760D00D3760D008B760D00D2
:1092C8008F760D000000000000000000C5770D003B
:1092D80015780D0023780D004D720D0001780D00F2
:1092E800C7770D00DD770D000F780D00F3770D00BF
:1092F800C1770D0000000000000000002F790D006C
:1093080025790D001B790D00D1780D000F790D001E
:1093180003790D00F7780D00EF780D00E5780D0062
:10932800DB780D006D710D000000000000000000EA
:109338000000000000000000000000000000000025
:109348000000000000000000000000000000000015
:109358000000000000000000000000000000000005
:1093680000000000000000000000000000000000F5
:1093780000000000000000000000000000000000E5
:10938800000000000000000043000000E1450D005F
:1093980065470D00A54B0D00414E0D00F9500D001D
:1093A80081670D000D6E0D00916F0D00B5700D00F9
:1093B80039720D0009740D005D760D0075760D008B
:1093C80039790D00A17B0D00F97B0D00BD7C0D00E6
:0893D800417D0D00C57D0D0073
:0893E000A4F4FF7F010000006E
:1093E80091920D000000000030930D0050930D0085
:1093F80070930D0000000000000000000000000055
:109408000000000090930D00000000000000000024
:109418000000000000000000000000000000000044
:109428000000000000000000000000000000000034
:109438000000000000000000000000000000000024
:0894480000000000ECE303202A
:10945000FFFFFFFF00000102030405060708090AD9
:109460000B0C0D0E0F101112131415161718191AD4
:089470001B1C1D1E1F2028001B
:0494780078563412DC
:04000003D0004018D1
:00000001FF
