:02000002D0002C
:1040000000400D00AC9C0E00000006000C000501F5
:08401000040115050000000089
:10401800A06D0E0009480A49884208B505D0094A2A
:10402800824202D0121A12F08AFD0748074A00217C
:10403800121A12F0AAFD014808BD00BF74BD032082
:10404800C89A0E0030BF032030BF0320F0E70320DA
:1040580070B511F0C9FC074C074BE41AA4080025F9
:104068001E46A54204D056F8253098470135F8E792
:1040780070BD00BFB89A0E00609A0E0000F0BCB97F
:1040880008B500F0CDFABDE8084011F07BBC0FF090
:1040980087BF0FF085BF0FF08BBF0FF089BF007887
:1040A800B0FA80F04009704701230370704738B5B3
:1040B800044600F5FE7500F50B7010F0A5FE04F53A
:1040C800077010F0A1FE04F5037010F09DFE28465D
:1040D80010F09AFE04F5F67010F096FE204638BDF2
:1040E80010B5104C2DED028B9FED0F8AB6EE001A1D
:1040F800B0EE480AF7EE000A0021204600F048FD1D
:104108004FF47A700FF0DDFFB0EE481AF0EE480A6F
:10411800B0EE480A2046002100F03AFDBDEC028BC3
:10412800012010BD34BF03200000000010B5034B70
:104138000360044600F05CFF204610BDBC6D0E0015
:1041480010B50446FFF7F2FF20464FF4987111F0BE
:1041580012FD204610BD00002DE9F04F91B000255A
:1041680003934FF4616380E82800044602928A466C
:104178000FF0B2FC84F8E45104F5F675C4F8440174
:104188005B49284604F5FE7910F085FE04F50378AE
:104198005749484610F07FFE04F5077754494046D2
:1041A80010F079FE04F50B765149384610F073FE8D
:1041B8004F49304610F06FFE4E4BC4F83C324E4B20
:1041C8001A689B46002A40F08E80504612F049FD3E
:1041D80001300FF0E5FE5146C4F8340112F01EFD1F
:1041E800D4F83411204601F05FF91B9B2360434B40
:1041F800029A1A60424B039A42491A6008A810F0C2
:104208004AFED4F83C110CA810F045FE0CA908A8E9
:1042180010F0BCFE3C4910F0C5FE0146484610F0BF
:104228004DFE0CA810F0F0FD08A810F0EDFD354982
:1042380008A810F030FED4F83C110CA810F02BFEA2
:104248000CA908A810F0A2FE304910F0ABFE0146F8
:10425800404610F033FE0CA810F0D6FD08A810F068
:10426800D3FD2B49384610F043FE2A49304610F05A
:104278003FFED4F8381108A810F00DFE08A904A8CC
:1042880010F02BFE244904A810F08CFED4F83C1141
:1042980006460CA810F0FFFD0CA9304610F076FE7B
:1042A8001E4910F07FFE0146284610F007FE0CA8B4
:1042B80010F0AAFD04A810F0A7FD08A810F0A4FDAE
:1042C8004FF4D160FFF7E3FE054640B11A9B009317
:1042D80042F2B322124BD4F8381101F02BFCC4F887
:1042E800E851CBF80040204611B0BDE8F08F00BF80
:1042F800A07D0E00C46D0E003CBF032088C10320C2
:1043080084C10320C7720E00D0720E00E2720E0044
:10431800FA720E0011730E0055730E0026730E000C
:10432800B1430D002DE9F047894600AF1949804691
:10433800924612F09EFC451D6E4626D01649284628
:1043480012F097FC08B3441B04F1080323F0070399
:10435800ADEB030D621C0021684612F016FC2246E4
:104368002946684612F0EBFB0C4B52461B6849463F
:10437800684698470A490446404612F07AFC094BB9
:10438800011D2246186801F03BF8B546BD46BDE858
:10439800F08700BF51730E003E730E0084C10320E6
:1043A80031750E003CBF032070B50D460E4904461A
:1043B800164612F05EFC844207D10C4B1B6823B1F1
:1043C80032462946FFF7AEFF70BD0949204612F074
:1043D80050FC844207D1074B1B6823B1324629465B
:1043E800BDE87040184770BD41730E0084C10320BA
:1043F800C7720E0088C1032010B511F0F5F9164CEC
:104408004FF4165111F0E4F9144800F0C3FC2046AB
:1044180000F01CFB9FED121A2046F0EE410AB0EEA8
:10442800410A002100F0B4FB0021132011F01AFB0F
:10443800002302220B490C480FF022FD02220B49EF
:104448000B4800230FF01CFD0A4A0B490B48BDE836
:1044580010400FF0ADBE00BF34BF032094C103204D
:104468000000000080C1032057730E00A8C103207C
:104478005C730E0065730E00E9400D008D410E005F
:1044880038B5046805467CB16368013B63605BB975
:10449800236820469B689847A368013BA3601BB923
:1044A80023682046DB689847284638BD70B504461F
:1044B8000E46154600F0B4FE01223146204600F0B3
:1044C80023FE20463A2100F0C1FD2A462046024933
:1044D800BDE8704000F00ABE79750E0030B52DEDCC
:1044E800028BB0EE408AF0EE608AD5B005460C46E5
:1044F8004FF4807214A908A800F096FD3C4B08936D
:104508007D227B2108A800F0AFFD2A4639493A4DA3
:1045180008A8FFF7CBFF22463849394C08A8FFF70F
:10452800C5FF08A800F07CFE0122364908A800F063
:10453800EBFD3A2108A800F089FDB0EE480AF0EE3C
:10454800680A08A800F078FE284600F015FF2378CE
:104558008DF800303C23D8B12B4A2C4904A80FF021
:1045680041FF05A8FFF78CFF08A8D5F83C5100F0DB
:1045780057FE012208A8264900F0C6FD08A83A21DE
:1045880000F064FD0122294608A800F0BDFD07E0FF
:1045980004A8204A1D490FF025FF05A8FFF770FF62
:1045A80008A800F072FD144800F0E6FE50B1099921
:1045B80004A810F070FC04A90F4800F011FF04A82B
:1045C80010F022FC099B03932378039A12498DF873
:1045D800003004A83C230FF005FF05A8FFF750FFA3
:1045E80008A8FFF7A3FD55B0BDEC028B30BD00BF96
:1045F800BC6D0E0057730E0040BF03205C730E00A5
:104608008CC103206F730E0075730E0086730E0045
:1046180098730E00A1730E00B8730E00000000001E
:1046280070B53B4C8AB00FF057FA2368C01A394B63
:104638001B6898425BD90FF04FFA20603648374C18
:10464800374D384E00F090FCBDEEC00A324884ED7C
:10465800000A00F0ABFCBDEEC00A85ED000A11F0BF
:10466800C3F82368304A012110F0FCFA11F0BCF8B5
:104678002B682E4A012110F0F5FA132011F01CFACC
:1046880011F018FD9FED1C3B9FED1D4BB0EE431A3A
:10469800F0EE631A9FED1C2B41EC100B0FF0C8FCD9
:1046A8002968206886ED000BFFF718FF96ED000BD0
:1046B800002251EC100B1E4B8DED020B11F0F0FF98
:1046C8009DED020B98B1062106A810F035FC194B98
:1046D800069A1B788DF8003017493C2304A80FF080
:1046E80081FE05A8FFF7CCFE06A810F08DFB0AB0E6
:1046F80070BD00BFAFF300800000000000000000A4
:1047080000000000000059400000000000FEAF401B
:1047180090C1032074BD032094C1032080C10320ED
:10472800A8C10320B0C10320C1730E00CA730E00D4
:10473800000049408CC10320D7730E000000000020
:1047480038B51D4D1D4C284600F00EFCBDEEC00AC4
:10475800284684ED000A00F029FC194DBDEEC00A78
:10476800132085ED000A11F0A7F911F0A3FC9FEDC5
:104778000C3B41EC100BB0EE431AF0EE631A9FEDC0
:104788000A4B9FED0B2B0FF053FC0E4B296820684A
:1047980083ED000BBDE83840FFF7A0BEAFF3008003
:1047A8000000000000000000000000000000594068
:1047B8000000000000FEAF4094C1032080C1032028
:1047C800A8C10320B0C1032010B51C4986B0044617
:1047D80012F01AFA78B91A4B1A4A1B788DF8003079
:1047E80019493C2302A80FF0FDFD03A8FFF748FE76
:1047F800FFF7A6FF1BE01549204612F005FAC0B9DD
:104808000F4B134A1B7810498DF8003002A83C233F
:104818000FF0E8FD03A8FFF733FE0E4902A810F0D9
:104828003AFB02A8FFF75CFC02A810F0EDFAC820DA
:1048380001E04FF4C87006B010BD00BFE9730E0068
:104848008CC10320F5730E0086730E0065730E008D
:1048580014740E00A07D0E00164B37B501251D708F
:10486800154C0FF059F906220221144800F08CFA71
:104878002B46134D0E220F21204600F02DF82A4614
:1048880010492046104C11F071F94FF4FA724FF4A8
:1048980061638DE80C000D490D4B00222046FFF79F
:1048A8005BFC0C492A46204603B0BDE8304011F0B5
:1048B8005DB900BF8CC1032034BF032094C103201D
:1048C80030BF0320FB480D0040BF032031740E00A9
:1048D800D1470D00B7400D0010B504460170427075
:1048E8008370012103EB430012F004F96060204655
:1048F80010BD10B5044640680FF05AFB204610BDA5
:1049080010B500210446007811F0BDF814200FF00E
:10491800DBF82078012111F0B6F81420BDE810402A
:104928000FF0D2B870B506460D46082415F0800F72
:1049380014BF01210021707811F0A5F8013C304620
:10494800FFF7DEFF6D0014F0FF04EDB2EED170BD8D
:1049580013F0800FF8B50D46164614BFC021E021AC
:104968005A061F4658BF41F010013306044658BF87
:1049780041F00801700658BF41F004012A0658BFEB
:1049880041F002016B0658BF41F001012046FFF7D4
:10499800C9FF39462046FFF7C5FF31462046FFF7D5
:1049A800C1FF29462046BDE8F840FFF7BBBF2DE907
:1049B800F84F04460D46002191469A469DF828B0C6
:1049C800FFF7B0FF00212046FFF7ACFF002120468B
:1049D800FFF7A8FF00212046FFF7A4FF03274FF0A9
:1049E8000108002617FB0588A278F3B29A421BD962
:1049F800AB420DD1616815FB07F201F802906268BD
:104A080002F808A0022217FB0522616801F802B02B
:104A1800606803EB43014218415C93785278204662
:104A2800FFF796FF0136DFE720460021FFF77AFF00
:104A380020460021FFF776FF20460021FFF772FF8E
:104A480020460021BDE8F84FFFF76CBF73B5044658
:104A58000121007811F006F80121607811F002F8C0
:104A680000252E46A378E9B28B4205F1010506D947
:104A7800002300961A462046FFF799FFF2E702B096
:104A880070BD000000000000F8B5B5EEC01AF7EEE2
:104A9800007AF1EE10FA2DED048BF0EE418A48BF52
:104AA80071EE278AB0EE408AF4EEE78AF1EE10FA4A
:104AB800C4BFF7EE007A78EEE78AB0EE609A18EE97
:104AC800900A11F009FB2FA3D3E9002304460D46F1
:104AD80011F0C8FD60B179EE487A17EE900A11F02E
:104AE800FBFA0022264B11F04BFB22462B4625E011
:104AF800F6EE007AF4EEE78AF1EE10FA2FD41EA350
:104B0800D3E900232046294611F0ACFD50B379EED5
:104B1800487A17EE900A11F0DFFA224606460F4649
:104B28002B4615A1D1E9000111F076F902460B4692
:104B38003046394611F024FB114B002211F020FBBE
:104B4800044618EE100A0D4611F0C6FA02460B4646
:104B58002046294611F062F911F0CCFD04E019EE67
:104B6800100A01E018EE100ABDEC048B00EE100AE2
:104B7800F8BD00BFAFF30080555555555555E53F75
:104B880000001840555555555555C53F00000000C3
:104B98002DE9F0432DED048BF5EE400AF1EE10FA05
:104BA80083B080468946F0EE409AB0EE609AB0EE47
:104BB800418A6ED011EE100A11F08EFAF6EE007AE4
:104BC800B4EEE78AF1EE10FA06460F4610D519EE54
:104BD800100A11F081FA00224D4B11F01FF93246EC
:104BE8003B4611F0CDFA11F085FD08EE900A03E07E
:104BF80079EE088AE9EE488A19EE900A11F06CFA03
:104C080032463B4604460D463046394611F006F911
:104C1800064618EE900A0F4611F05EFA02460B4659
:104C28003046394611F0F8F811F064FD34A3D3E9A1
:104C3800002309EE100A2946204611F0EFF811F07A
:104C480059FDF0EE680A01EE100AB0EE490AFFF7C6
:104C58001BFFB0EE691AF0EE680AB0EE408AB0EEBB
:104C6800490AFFF711FF26A3D3E900232046294666
:104C7800F0EE409A11F0D0F811F03CFDF0EE680A21
:104C880001EE100AB0EE490AFFF7FEFEF0EE408A88
:104C980003E0F0EE418AF0EE419A19EE900A11F025
:104CA8001BFA19A3D3E9002311F06AFA11F002FDE7
:104CB800C5B218EE100A11F00FFA13A3D3E90023B6
:104CC80011F05EFA11F0F6FCC4B218EE900A11F079
:104CD80003FA0DA3D3E9002311F052FA11F0EAFC0C
:104CE800C0B200902B46224649464046FFF75FFE79
:104CF80003B0BDEC048BBDE8F08300BFAFF30080C8
:104D0800555555555555D53F0000000000E06F40FA
:104D18000000F03F0EF000BF10B503682F2B0446CB
:104D280004D9074A00210A200FF056F823681F2BE0
:104D380083BF03F01F03236002484FF0A04010BD5B
:104D4800D13A0E000003005007B502AB43F8040D3A
:104D58001846FFF7E1FF019A01239340C0F8083590
:104D680003B05DF804FB07B502AB43F8040D184621
:104D7800FFF7D2FFD0F81035019823FA00F000F0C1
:104D8800010003B05DF804FB027201228171027414
:104D98007047000010B500210446807910F062FECB
:104DA800074AA37912681B01D118D05C4B7803F02D
:104DB8001F0343EA4010FFF7C7FF0023E36010BD5D
:104DC800B8C103202DE9F74F04460EF085FEE368CD
:104DD800834284BF0023E360237C33B9E368C01AAD
:104DE800B0F5FA6F01D20120A8E00025554E2574D0
:104DF8000EF072FEA3793268E0601B01D1182571AC
:104E0800E570A57065702570D05C4B7803F01F03C2
:104E180043EA4010FFF798FFFA200FF052F90121FA
:104E2800A07910F01FFEA37932681B01D118D25C5B
:104E38004B7802A803F01F0343EA421340F8043DED
:104E4800FFF76AFF019B4FF0010808FA03F3C0F867
:104E58000C3514200FF035F90FF0AAFCA37932684D
:104E68001B01D118D05C4B7803F01F0343EA4010B4
:104E7800FFF76AFF28200EF027FE2946A07910F0D8
:104E8800F1FD2F464FF0000BA37932681B01D118B2
:104E980012F803A04B7803F01F0343EA4A1A50465E
:104EA800FFF761FF5046FFF75EFF80455FFA8BF919
:104EB80008D101200BF1010B0EF006FEBBF1FF0F2C
:104EC800E2D1D946A37932681B01D11812F80380C0
:104ED8004B7803F01F0343EA48184046FFF743FFA7
:104EE8004046FFF740FFB9F1FF0F5FFA80F814D092
:104EF800032D0ED9EB070CD4FA080137A35C5B002D
:104F0800DBB2A354217A49453CBF43F00103A354C3
:104F1800FFB20135EDB2552DB4D10FF04BFC272F60
:104F28000BD92278637821791344A2781344E27864
:104F38001344DBB299423FF456AF002003B0BDE8FA
:104F4800F08F00BFB8C1032010B50446FFF73AFF41
:104F580028B1A37800EE103AB8EE400A10BD9FEDD4
:104F6800010A10BD0000C07F08B5FFF7EDFFF2EEA3
:104F7800027A60EE277AB1EE047A87EE870ADFEDCF
:104F8800027A30EE270A08BD0000004210B5044638
:104F9800FFF718FF28B1237800EE103AB8EE400A60
:104FA80010BD9FED010A10BD0000C07FFFF7EEBFE6
:104FB80008B50EF0B1FD014B186008BDB8C103205B
:104FC80010B5054B0360037C04461BB9406808B163
:104FD8000EF0EEFF204610BDEC740E0010B504462E
:104FE800FFF7EEFF2046142110F0C5FD204610BD46
:104FF80010B5034B03600446FFF7E2FF204610BDDF
:10500800FC740E0010B50446FFF7F2FF204630216D
:1050180010F0B1FD204610BD0023C3604361037644
:10502800437680F82A307047002310B5C360012307
:105038000374054B03604FF0FF3341608260C36225
:10504800FFF7EAFF10BD00BFFC740E00C36882685A
:1050580010B593423FBF42685C1CC460D15424BF62
:10506800012380F82A3010BD38B54469651C082D25
:1050780009D800EB4403012445619C76DA76FFF7F2
:10508800E5FF204638BD002038BD10B54369044609
:1050980043B100EB4303597E09B1FFF7D7FF6369BA
:1050A800013B6361A368E068616898424FF00002C1
:1050B8002ABF5B180A5403F8012C10BD70B50446CA
:1050C800C068A56866682D1A134630440A46294602
:1050D8000EF08EFF85422DBFE368A368E360C01819
:1050E80036BF0123E06084F82A3070BD0EB403B5E2
:1050F80003AA52F8041B0192FFF7E0FF02B05DF823
:1051080004EB03B0704700002DE9F04104460E4659
:10511800174612B12221FFF799FF0025715D06EBB2
:105128000508002971D0E268A3689A426DD20B067F
:1051380033D501F0F003E02B17D198F8013003F0D4
:10514800C002802A11D105F1020816F8082002F0E1
:10515800C000802809D102F03F029B0142EA0132D7
:1051680003F47C631A4392B211E001F0E003C02B10
:1051780046D105F1010816F8083003F0C002802A6C
:105188003ED1890101F4F86203F03F031A43234931
:105198002046FFF7ABFF454635E00C2918D00BD861
:1051A800092921D00A2919D0082929D15C212046AA
:1051B800FFF74CFF622123E022291BD05C2919D07C
:1051C8000D291DD15C212046FFF740FF722117E011
:1051D8005C212046FFF73AFF662111E05C2120465A
:1051E800FFF734FF6E210BE05C212046FFF72EFF0E
:1051F800742105E05C212046FFF728FF98F800108D
:105208002046FFF723FF013588E72FB120462221EA
:10521800BDE8F041FFF71ABFBDE8F0810D750E003B
:10522800426900EB42031A7E12B100221A767047D7
:105238002C21FFF70BBF000007B5C26A002A07DB65
:105248008DED000B0649FFF751FF03B05DF804FB35
:1052580053EC102B034903B05DF804EBFFF746BF8E
:1052680024750E002A750E000EF056BC08B50020F5
:105278000EF036FE28B10EF01BFE80F00100C0B221
:1052880008BD012008BD0022114640680EF050BE3E
:105298002DE9F843044600200EF036FC00270646A8
:1052A80041F287384FF0000900200EF02DFC801BDA
:1052B80061EB0701894508BF804506D31A48FFF707
:1052C800E2FF10B90EF0ECFDEEE71748FFF7DBFF41
:1052D8001548FFF7D8FF28B3D4F83C52284611F0F8
:1052E800C0FC2946421CD4F8E80101F011F804F189
:1052F8000803D4F8EC21D4F83C11D4F8E80101F003
:105308005FF9D4F80C12D4F8E80100F033FED4F8B1
:105318001C12D4F8E80100F02DFE012384F8E431D2
:10532800BDE8F883BDE8F88304E7032010B5044618
:10533800D0F80C12D0F8E80100F01FFED4F81C12C7
:10534800D4F8E80100F019FED4F8E80100F071FC87
:10535800002384F8E43110BD10B504460548FFF772
:1053680092FF28B1D4F8E801BDE8104000F0B9BCBC
:1053780010BD00BF04E7032070B590F8E46104464F
:10538800AEB1FFF7E9FF054620466DB100F076F9AA
:1053980028B12046FFF7CAFF2046FFF779FFD4F867
:1053A800E80100F014FE17E0FFF7C0FF14E00B4817
:1053B800FFF769FF054678B130460EF089FDFFF723
:1053C80055FF054628B1FFF751FF204600F056F972
:1053D800E2E70EF065FDF2E7284670BD04E703201A
:1053E80038B504460D46FFF7B7FF40B12A68D4F830
:1053F800FC11D4F8E801BDE8384000F04EBD38BDD6
:1054080070B590B0154604460E4600F50B7108A815
:105418000FF063FD0A22294604A80FF07AFD04A9BB
:1054280008A80FF0B3FD12490FF0BCFD3146054640
:105438000CA80FF030FD0CA928460FF0A7FD014677
:1054480068460FF04AFD0CA80FF0DEFC04A80FF028
:10545800DBFC08A80FF0D8FC064A0099D4F8E8014C
:1054680000F01BFD68460FF0CFFC10B070BD00BF08
:105478002E750E00A07D0E0070B510460D4616461E
:1054880011F0EFFB3146441C284611F0F2FB48B1FD
:105498002C44204611F0E5FB01300EF081FD214639
:1054A80011F0BCFB70BD000038B504460846104931
:1054B80011F0FAFB0546D0B101460E4A2046FFF727
:1054C800DBFF08B1C4F838010B4A29462046FFF72C
:1054D800D3FF08B1C4F83C01084A29462046FFF723
:1054E800CBFF08B1C4F8400101490020E0E738BD0E
:1054F80036750E0038750E0041750E004A750E009F
:105508000EF00ABB08B500200EF0EAFC28B10EF038
:10551800CFFC80F00100C0B208BD012008BD00002A
:10552800F0B5114E013A0B46252712F8014FC4B1C8
:1055380024F02005413D192D03D9A4F13000092894
:1055480002D8581C1C700AE01F7014782411A05D42
:105558005870147804F00F04D81CA45D9C7003469E
:10556800E3E71C70581AF0BD5A750E002DE9F34197
:1055780004460E4610F029F8236818446060304647
:1055880011F06FFB8046014630460EF05DF904F5D8
:10559800A4750746421C0021284611F0F6FA314648
:1055A800244E424628460EF000FA3A46294630462E
:1055B80000F097F963680193D4F83C311E4A0093D0
:1055C8009621D4F8383128460EF00AFD294630468F
:1055D8000FF006FB304600F0C1F9064620200EF019
:1055E80029F90021421C284611F0CFFA3146202221
:1055F80028460EF051F904F10807D4F83C3100931D
:105608000E4AD4F838314FF4967138460EF0E8FC5B
:105618003E182A4631462046FFF782FF3044C11B18
:105628006368074AC1F5967102B0BDE8F0410EF013
:10563800D7BC00BFBCC103206B750E007C750E0083
:10564800A8750E0010B504460EF046FAD4F8443199
:10565800C01A094B98420ED900200EF039FCFFF70A
:1056680051FF10B90EF01CFCF9E7FFF74BFF0EF0E5
:1056780033FAC4F8440110BD005C260510B5044691
:105688000FF0A3FF6368984209DB2046FFF7DAFFB3
:105698002046D4F84011FFF769FF012010BD002013
:1056A80010BD0EF039BA704710B5D021044610F07D
:1056B80062FA204610BD000010B5084B00F14C02FC
:1056C80003F1200153F8044B42F8044B8B42F9D103
:1056D8000023C36680F8483010BD00BF78BE0320A1
:1056E8002DE9F04F89B0C36C0093036D0193436DAE
:1056F8000293836D0393C36D0493036E0593436E06
:105708000693836E069CDDF814C0049D039EDDF8A5
:105718000880DDF80490DDF800E007939A46002140
:105728004FEAB51784EA0C0287EAF5272A4087EA88
:10573800756762403A44394F57F82170CBB2174425
:1057480003F00F0202324FEABE0B50F82220174432
:1057580048EA090257448BEA7E3B02EA0E0208EA4D
:10576800090A8BEABE5B42EA0A025A4401333F291E
:105778003E443A44DBB235D00F2B29D98F1F03F0B2
:105788000F0307F00F0700EB8303023750F827A039
:105798009F680AEB070B4F1E07F00F07023750F8F8
:1057A80027704FEAF74A8AEA774A8AEA9727A1F1E7
:1057B8000E0A0AF00F0A0AF1020A5F4450F82AB0EA
:1057C8004FEABB4A8AEAFB1A8AEADB0A57449F6017
:1057D800A24601316446AC4635464646C846F146BF
:1057E80096469DE7009B1344C364019B734403657D
:1057F800029B4B444365039B43448365049B3344AA
:10580800C365059B1D44069B056663444366079B69
:105818002344836609B0BDE8F08F00BF78BD03203C
:1058280090F8483083F003020133DBB20244402B86
:1058380010B5117280F8483004D1FFF751FF0023EA
:1058480080F8483010BD08B5C36E0133C366FFF752
:10585800E7FF08BD10B580210446FFF7E1FF94F883
:105868004830382B4FF000012046F6D1FFF7D8FF1B
:1058780020460021FFF7D4FF20460021FFF7D0FF84
:10588800E16E2046490FFFF7CBFFE16E2046C1F3DA
:105898004751FFF7C5FFE16E2046C1F34731FFF7D7
:1058A800BFFFE16E2046C1F34711FFF7B9FFE16E74
:1058B800C900204601F0F801BDE81040FFF7B0BF6D
:1058C80010B50446FFF7C6FF04F1480304F1680168
:1058D80053F8042F12BA8B421A60F9D104F14C0024
:1058E80010BDF8B500F17005174604460E46402273
:1058F8000021284611F049F9402F18DD2046FFF70E
:10590800DBFE3744BE4206D0236816F8011B9B68AD
:1059180020469847F6E72046FFF7D2FF00F120031C
:1059280050F8042B45F8042B9842F9D104E03A4684
:105938003146284611F003F92046FFF7BDFE04F171
:105948006F0504F1AF0615F8011F236881F03601D1
:105958009B6820469847B542F5D1F8BD70B5044616
:10596800FFF7AEFF04F1B00300F1200250F8041B6A
:1059780043F8041B9042F9D12046FFF79DFE04F13D
:105988006F0604F1AF0516F8011F236881F05C016A
:105998009B6820469847AE42F5D104F1CF062368AC
:1059A80015F8011F9B6820469847B542F7D1204655
:1059B800BDE87040FFF784BF08B50EF0ADF80548A4
:1059C800054A064900234360054B0360BDE80840CB
:1059D80010F0CCB8BCC1032030BF0320AF560D0077
:1059E800B8750E007047000070B505460C4616469F
:1059F8000FF019FB58B12146324628460FF0FDFA40
:105A0800044638B128460FF00DFB204670BD4FF014
:105A1800FF3070BD004870BD8097FFFF70B5044629
:105A28000D4616460FF0FFFA58B120460FF0E6FC77
:105A380028B13246294620460FF01BFC18B9024807
:105A480070BD4FF0FF3070BD0097FFFF70B50E4678
:105A580015460C462B1B3344032B04D90EF02CF8A7
:105A680044F8040BF6E7AC0806EB84043544AC4272
:105A780004D00EF021F804F8010BF8E7002070BDFF
:105A880000B5ADF2044D0B46054A40F2FF316846B9
:105A98000CF076FB00200DF2044D5DF804FB00BF0E
:105AA800A07D0E0038B584690A4B036005467CB1B9
:105AB8006368013B63605BB9236820469B6898472D
:105AC800A368013BA3601BB923682046DB6898479D
:105AD800284638BDE8980E0010B50446FFF7E2FFE7
:105AE80020461C2110F047F8204610BD38B5044662
:105AF8001D46059B0363002084F8810684F8800610
:105B0800606302B1A26419B104F138000FF0F0F932
:105B1800049BE0692365069BA4F84C50A4F8543014
:105B280008B1FEF7BAFAB4F85400FEF7B2FAE06129
:105B380038BD00002DE9FF41044600251746984668
:105B48000E460FF0F7FCE5610C4904F138000FF040
:105B5800A2F9012384F882360A9B02930F2300934B
:105B68002046A564CDF804803B462A463146FFF717
:105B7800BDFF204604B0BDE8F08100BFA07D0E0047
:105B88000233F0B59BB20D466C1A15F8016BA4B23E
:105B98003EB1B0F854709F4203D95C1CD654A3B2EE
:105BA800F2E7191B0A44211202F8021C02F8014C00
:105BB8001846F0BD10B590F8814614B90FF01DFADB
:105BC80003E000F534700BF0ABFB80B210BDF7B505
:105BD80007468E461E461D46002402A905F07F038F
:105BE8002144ED0918BF43F08003013401F8043C57
:105BF800E4B2002DF1D1C4F10403D11802F803E096
:105C0800A54206DA2B1B01A81344285C58710135FC
:105C1800F6E7721C22443846FFF7CCFF05460DF024
:105C28005BFF01347862A019431B5842584103B006
:105C3800F0BD38B5C369E0221A70C36900255D70EC
:105C480004460222C169FFF7B5FF94F88136BBB15B
:105C580004F57A7084F8805684F881560DF0E5F9D9
:105C680004F21C500DF0E1F904F5CA6004F0B8F92B
:105C780004F561700BF044FD04F534700BF0ACFCD6
:105C880020460FF0A4FB0DF027FF6062A06238BD2C
:105C980037B590F8813604464BB920460FF0AEFB75
:105CA8000028FAD020460FF0CAFAC0B217E090F8E0
:105CB80080369BB100F5347501220DF107012846A5
:105CC8000BF0A8FA002806DA10F5D24FF4D02046D7
:105CD800FFF7AFFF02E09DF8070000E0FF2003B0E8
:105CE80030BD10B504460FF09EF930B194F88136F6
:105CF80013B194F8800610BD012010BD2DE9F047BE
:105D08000546C4698946FFF7C3FF2070EB694FF069
:105D1800010A93F80080002756462846FFF7E1FF5E
:105D2800002849D02846FFF7B3FFEB69985500F0E3
:105D38007F0313FB0AF31F44741C0306A4B2BFB20B
:105D48004FEACA1A01D52646E7E708F0F008631EAD
:105D5800B8F1300F89F8003013D12846D5F81C80E7
:105D6800FFF796FF08F804002846F41CD5F81C80B5
:105D78000236FFF78DFFB6B2A4B208F80600022378
:105D880000E000231B1B9EB2A3199BB29F420BD9B4
:105D98002846FFF77DFFB5F85430A34284BFEB696E
:105DA80018550134A4B2EFE7B5F85400A0422CBF4F
:105DB80020460020BDE8F0874FF6FF70BDE8F08769
:105DC8002DE9F14F0D9E9DF828809DF82C509DF8E7
:105DD800307004468B4691469A46FFF782FF0028AA
:105DE80049D0E36900221A60E26905235946204632
:105DF800FFF7C6FE6B1E012B12D8238CE269013314
:105E08009BB223841B121354411C89B2E369228C70
:105E18005A54023080B21EB1238C5A1C228433801B
:105E2800002291B283188A459BB20AD9B4F854600B
:105E38009E4202F1010204D919F80160E169CE54C9
:105E4800EFE7B8F1000F0CBF302131210FB141F05D
:105E58000801022D02D141F0040103E0012D08BF21
:105E680041F00201053BE2699BB2204601B0BDE862
:105E7800F04FFFF7ACBE01B0BDE8F08F1FB5089C2E
:105E88000394002402949DF81C4001949DF8184046
:105E98000094FFF795FF04B010BD7FB50546104686
:105EA8000E46144610F0DDFE002302930193009382
:105EB8002246034631462846FFF7E0FF04B070BD8E
:105EC80038B504460D46FFF70CFF90B1E36962222E
:105ED8001A70E36902225A70E3692A129A70E36918
:105EE800DD700422E1692046FFF764FE003018BF28
:105EF800012038BD38B504460D46FFF7F2FE90B1D3
:105F0800E36972221A70E36902225A70E3692A125D
:105F18009A70E369DD700422E1692046FFF74AFEC2
:105F2800003018BF012038BD70B504460E4615462E
:105F3800FFF7D7FEE8B1238C01339BB203B90123E5
:105F48002384238CE2691B125371E369228C9A71B2
:105F5800E269314607232046FFF712FEE3691D5424
:105F6800031FE26920469BB28221BDE87040FFF71B
:105F78002EBE70BD0022FFF7D7BF70B504460D4690
:105F8800FFF7AFFED8B1238C01339BB203B90123CD
:105F98002384238CE2691B125371E369228C9A7162
:105FA800E269294607232046FFF7EAFD431FE26915
:105FB80020469BB2A221BDE87040FFF708BE70BD25
:105FC80008B50FF01BFA003018BF012008BD2DE9F5
:105FD800F04F83B000AF0446FFF783FEA0B10DF089
:105FE8007BFD226D4FF47A735343A26A821A9A4258
:105FF800054603D8626A821A934217D294F82C3065
:106008002BB12046FFF715FE4FF00009DDE0E269ED
:10601800C0211170E2695370E16902222046FFF73E
:10602800C9FD01236562A56284F82C302046FFF77C
:10603800C7FF81460028E7D0F91D2046FFF75EFE1E
:106048000246002800F0C180E369A562187800F0D4
:10605800F00130297DD1D4F830B0BBF1000F00F049
:10606800B48097F807C003EB0C00EA46817890F8F3
:1060780001E001EB0E2E1FFA8EFE0EF1080121F051
:106088000701ADEB010D684600218EB2B64506D971
:106098000CEB01061E44F67846540131F5E7002161
:1060A80000F80E101E7806F00606022E0CF1030109
:1060B800CCEB02021ED17144CEEB020213F8018030
:1060C8001944053A497801EB08280CF10501714497
:1060D8001944D847E36940221A70E3695E70E3699E
:1060E8001FFA88F84FEA28229A70E369042283F895
:1060F800038020E0042E24D17144CEEB020213F871
:1061080001801944053A497801EB08280CF105018A
:1061180071441944D847E36950221A70E36902228E
:106128005A70E3691FFA88F84FEA28229A70E369DF
:10613800324683F80380E1692046FFF73BFD65623C
:1061480005E0033A7144CEEB02021944D847D5461C
:106158003BE0502908D19978DB7803EB012189B21B
:106168002046FFF7ADFE30E040290CD0602908D169
:106178009978DB7803EB012189B22046FFF7BAFE54
:1061880023E070290DD1616BF9B1042A1DD110F0FB
:10619800060F1AD19878DB7803EB002080B2884785
:1061A80013E0902911D0C0290AD1D0221A70E369CE
:1061B80000225A70E16902222046FFF7FBFC04E046
:1061C800D02904BF002384F82C3048460C37BD463C
:1061D800BDE8F08F2DE9F04F054685B000F56174F4
:1061E8009946012380F8813605F534762046934692
:1061F800039105F57A7A0BF03DFA30460AF060FF14
:1062080005F21C5750460CF00BFF05F5CA683846D6
:106218000CF006FF404603F0DEFE0022354920461A
:106228000AF05FFF5A46039950460DF091FA00288C
:106238005DDBB9F1000F02D10F9B5BB90CE00E9B3F
:10624800002BF9D01A46494638460DF081FA002845
:10625800F2DA4CE0109B4BB900231A461946204647
:106268000BF00CFA8346002841D109E00023009383
:10627800109A0F99404604F075FE0028ECD036E0DD
:106288000322114620460AF07BFF5A461A49204647
:106298000AF021FF012120460AF016FF5A46174945
:1062A80020460AF01BFF5A46514620460AF02EFFA8
:1062B800B9F1000F06D00F9B23B14246394620465C
:1062C8000AF021FF214630460BF04CF9044668B924
:1062D8000B4B0C4A05F5CB6130460AF00BFF0094D6
:1062E800094B0A4A294630460AF0FEFE204605B008
:1062F800BDE8F08FED590D00895A0D00555A0D0073
:106308000F1A0E00011A0E00255A0D00F1590D0042
:106318001FB50023029301930093FFF75BFF05B0BD
:106328005DF804FB00B500F53470ADF5017D0AF0A9
:106338002CFF034638B1064A4FF4007168460CF04A
:1063480057FA002000E001200DF5017D5DF804FBFF
:10635800D8750E0070B5044600F53476D4F8D432FA
:10636800102B05D0304609F04DFA05460028F5D027
:1063780015F5D24FF2D015F5D14FEFD004F57A705C
:106388000CF053FE04F21C500CF04FFE04F5CA60EA
:1063980003F026FED4F8D432102B09D194F88236B3
:1063A80043B12046FFF7BEFF20B94FF0FF3070BD64
:1063B800284670BD012384F88036002070BD000097
:1063C8002DE9F0438DB00446894617461E46DDF890
:1063D8005080FFF786FC0546002840F0E780A16C56
:1063E800002938D10346B4F84C20A16B20460EF0A2
:1063F80047FE94F88136002B50D0A16B04F5347019
:106408000AF088FE2046FFF7A5FF002840F0CA8062
:1064180001232384684B5968186806AA03C2197AAD
:1064280053F8090F11709A889B798DF816309DF8EA
:106438006430ADF81420042B0490E26931D1531D67
:106448000498C2F80500BDF814109DF8162099802C
:106458009A710C232EE006A80EF036FA2B46B4F8F3
:106468004C2006A920460EF035FF94F88136ABB1D2
:10647800A16CC8784B780A7801908978009106A8B1
:106488004E490DF0A5FD06A904F534700AF042FE48
:106498002046FFF75FFFB0FA80F040090028B7D127
:1064A80080E006AB03CBC2F80500C2F809101B78E0
:1064B80053730E23B8F1000F0AD09DF858209DF8A9
:1064C8005410520142F0060242EAC102D2B200E080
:1064D80002229DF8601009B902F0FD022FB116B929
:1064E80042F0800201E042F0C002E169CA54226D24
:1064F800E169581C12120A549A1CE169206D8854EB
:106508000333E26949462046FFF73AFBB8F1000F2A
:106518000BD00346E26941462046FFF731FBE269AA
:10652800179903462046FFF72BFB67B10346E2693C
:1065380039462046FFF724FB2EB10346E26931466F
:106548002046FFF71DFB431F9BB2E269102120463E
:10655800FFF73DFB0DF0C0FA4FF47A776062A06256
:106568002046FFF72DFD064658B90DF0B5FAA36A87
:10657800C01A236D7B439842F2D92046FFF759FB96
:106588000EE00DF10F012046FFF7B8FB042809D1F2
:10659800E369DF7837B90DF09FFA84F82C70A062B0
:1065A800354604E02046FFF744FB00E00025284676
:1065B8000DB0BDE8F08300BFC8750E00DD750E0094
:1065C80010B586B00424059401240494002403948F
:1065D800029401940094FFF7F3FE06B010BD0DF08D
:1065E8009BBA00002DE9F04FADF6140D01230022EF
:1065F8000DF5826004A940F8232041F8223013F0F9
:10660800800118BF1B2183EA430301324B40B2F5D6
:10661800807FDBB2EED1664C0123002213F08001AB
:1066280044F8223018BF1B21013281EA43030A2AA9
:10663800DBB2F3D15F4E604D63233370002385F8DE
:106648006330012450F8243004AAC3F1FF0352F840
:1066580023E04FEAEE1141EA4E01C9B2CA1142EAFB
:106668004102D2B2D31143EA4203DBB28EF0630E89
:10667800DF118EEA010147EA43074A405340FAB264
:1066880053403355EC540134B4F5807FDAD1836B31
:106698000193436A0293C76A436BDFF818E1DFF896
:1066A8002CC1DFF82C81DFF82C91DFF82CA1DFF862
:1066B80008B10393002212F80E0010F0800F14BFE7
:1066C8001B21002181EA40010304C9B243EA0023E7
:1066D8004B40414043EA01634CF822304FEA3363B0
:1066E80048F822304FEA336349F822304FEA3363DF
:1066F8004AF822301BF802309400D3B10DF58261BC
:10670800019851F823104518FF2095FBF0F6C6EBC9
:106718000626AE1B04AD55F82650029E314491FB67
:10672800F0F0C0EB0020091A04A850F82110090263
:1067380001E01D4619464D4083B10DF5826103986D
:1067480051F823100144FF2091FBF0F0C0EB00202A
:10675800081A04A951F82010090400E019464D4010
:1067680073B10DF5826151F82330FF213B4493FB4F
:10677800F1F1C1EB0121591A04AB53F821301B0682
:106788005D400E4BE5500E4B4FEA3565E5500D4B1D
:106798004FEA3565E55001320B4B4FEA3565B2F5E6
:1067A800807FE55087D10DF6140DBDE8F08F00BF4E
:1067B80090E4032090D3032090D2032090D80320A4
:1067C80090DC032090E0032090D4032090C20320A3
:1067D80090C6032090CA032090CE03204FF48C72F9
:1067E800002110F0D2B938B100F58C720023904224
:1067F80002D003700130FAE770470000F8B5794E0F
:10680800336804460F4615461BB9FFF7EBFE012314
:106818003360C02D07D0B5F5807F06D0802D40F0BD
:10682800DB800A2302E00C2300E00E23236004F13E
:10683800080363606D090020A84210D007EB8001AF
:106848008A784E78C978120442EA062217F820603E
:10685800324342EA016243F820200130ECE7226823
:106868000C2A31D00E2A66D00A2A40F0B8805E4F32
:106878005E4E0025DC6857F825101A685140C4F3AD
:1068880007220135B05C220E4140B25C81EA024128
:10689800E2B20A2DB25C81EA0261C4F3074203F155
:1068A8001003B25C81EA022253F80C1C1A6082EAD7
:1068B800010253F8081C5A6082EA01029A6082EACF
:1068C8000402DA60D6D18AE0474E484D002456F8D3
:1068D800241058691A684A40C0F307210134695CDA
:1068E8004A40010E082C695C82EA0142C1B203F1F8
:1068F8001803695C82EA0162C0F30741695C82EAB5
:10690800012253F8141C1A6082EA010253F8101C81
:106918005A6082EA010253F80C1C9A6082EA01026A
:1069280053F8081CDA6082EA01021A6182EA00025E
:106938005A61CCD153E02C4E2C48002556F825102E
:10694800DC691A685F685140C4F307220135825C2C
:106958005140220E072D825C81EA0241E2B203F126
:106968002003825C81EA0261C4F30742825C81EA07
:10697800022153F8182C196081EA070153F8147C96
:10698800596081EA020187EA0107FAB29960DF607B
:10699800825C53F8101C81EA02014FEA1762825C9C
:1069A80081EA0261C7F30722C7F30747825C81EADD
:1069B8000221C25D81EA024253F80C1C1A6182EA84
:1069C800010253F8081C5A6182EA01029A6182EABC
:1069D8000402DA61B2D102E06FF01F00F8BD0020B6
:1069E800F8BD00BF8CC2032090E4032090D303209D
:1069F8002DE9F04FC9B0044602A80D461646FFF728
:106A0800EDFE04F1080363603246294602A8FFF749
:106A1800F5FE804600284CD10299039821600A01AE
:106A280083188258A2605A68E2609A682261D8681E
:106A3800606104F11802DFF890C0214CDFF88C90F7
:106A4800DFF88CA00139103B00292ADD1D1FA2F1B7
:106A5800040E03F10C0B55F8040FC6B2AB45A75D45
:106A68004FEA1066A65D0196164E56F82770019EED
:106A78005CF8266087EA0607C0F30726C0F30740DC
:106A8800A65D205C59F8266086EA07065AF8207049
:106A980086EA07064EF8046FDDD110320139103B43
:106AA800D2E7196811605968516099689160DB688C
:106AB800D36002A8FFF797FE404649B0BDE8F08FC3
:106AC80090D3032090D8032090D4032090DC032097
:106AD80090E003202DE9F74F46680C6833688D680D
:106AE800DFF874C3DFF874E3D84F84EA030B4C680B
:106AF80073686340B4686C40CD68F1684D400168C4
:106B080049100139019106F11001019EDFF84893FF
:106B1800DFF84883002E08465FFA8BF601F1200162
:106B28004FEA156A40F3BE805EF82A005CF82680BA
:106B3800C74E88EA000851F8200C88EA0008C3F319
:106B480007205FFA83F957F820005CF8299088EA53
:106B58000000C4F307485FFA84FA56F828805CF806
:106B68002AA080EA08084FEA1B605EF8200089EA3C
:106B7800000951F81C0C89EA0000C4F3072957F8EA
:106B8800299080EA0900C5F3074956F8299080EA58
:106B98000909180EC3F307435EF820008AEA000AC1
:106BA80051F8180C8AEA0000C5F3072AEDB257F825
:106BB8002AA080EA0A00CBF3074A56F82AA080EAFE
:106BC8000A004FEA146A5CF825405EF82A506540CE
:106BD80051F8144C6C40CBF307255FFA80FA57F84C
:106BE80025505CF82AA06C4056F8235065402B0EBF
:106BF8005FFA88F45EF823305CF824405C4051F872
:106C0800103C6340C9F3072457F824406340C0F39D
:106C1800074456F8244083EA040B5FFA89F44FEAE4
:106C280018635CF824405EF823305C4051F80C3C53
:106C38006340C0F3072457F824406340C5F3074472
:106C480056F8244063404FEA1964C9F307495EF8CF
:106C580024408AEA040A51F8084C8AEA0404C5F375
:106C6800072AEDB257F82AA084EA0A04C8F3074AAB
:106C7800C8F3072856F82AA084EA0A044FEA106ADB
:106C88005CF825005EF82A50454051F8040C68402D
:106C980057F82850684056F829504540019801385F
:106CA800019032E758F82A1059F82670DFF89CC18D
:106CB800DFF89CE1C3F307264F4001685CF82660C3
:106CC80079407140C4F307465EF82670DEB24F4043
:106CD8004FEA1B6159F8266058F8211086EA010A24
:106CE800C4F3072641685CF826608AEA010171400E
:106CF800C5F307465EF8266081EA060AE6B2190E71
:106D080059F8266058F82110714086684E40C5F33E
:106D18000721240E5CF821104E40CBF30741EDB259
:106D28005EF8211059F825504E4058F82410C468D0
:106D380069404C40CBF30721C3F307435CF82110AB
:106D48005EF823304C405C40F9B2424B250E13F8F4
:106D580001E001698EEA010113F805E0CAF307258D
:106D680081EA0E6113F805E0C6F3074581EA0E21B2
:106D780013F805E081EA0E4E5FFA8AF15D5C41691D
:106D880069403D0E5D5D81EA0561C6F307255D5DDD
:106D980081EA0521C4F307455D5D81EA0545F1B245
:106DA800360E13F801C081698CEA01014FEA1A6CAA
:106DB800CAF3074A13F80CC081EA0C61C4F3072C24
:106DC800E4B213F80CC01C5D81EA0C21C7F3074C30
:106DD800C7F3072713F80CC081EA0C4CC16984EA91
:106DE8000100995D80EA0160D95D13F80A3082F8E4
:106DF80000E080EA01204FEA1E2151704FEA1E414F
:106E08009170290A5171290C91714FEA1C2180EA6D
:106E1800034351724FEA1C419172190A4FEA1E6EE0
:106E2800157182F808C02D0E4FEA1C6C137351734C
:106E38000020190C1B0E82F803E0D57182F80BC0F4
:106E48009173D37303B0BDE8F08F00BF90C60320E1
:106E580090CA032090D3032090C2032090CE032031
:106E68002DE9F74F45680C682B684E680068DFF815
:106E780074C3DFF874E3D84F5C406B6886EA030B91
:106E88008E68AB6840107340CE68E968013801909D
:106E9800714005F11000019EDFF84893DFF8488340
:106EA800002E0546E6B200F120004FEA1B6A40F3C7
:106EB800C0805EF82A505CF82680C84E88EA05082B
:106EC80050F8205C88EA0508C1F307255FFA8BF9BA
:106ED80057F825505CF8299088EA0505C3F3074858
:106EE8005FFA83FA56F828805CF82AA085EA080831
:106EF8001D0EC3F307235EF8255057F8233089EA9F
:106F0800050950F81C5C89EA0505C4F3072957F8F8
:106F1800299085EA0905C1F3074956F8299085EAB9
:106F280009090D0EC9B25EF825505CF821108AEAED
:106F3800050A50F8185C8AEA0505CBF3072A57F8C2
:106F48002AA085EA0A05C4F3074A240E56F82AA09F
:106F58005EF824404C4050F8141C61405940CBF373
:106F680007435FFA88F456F823305CF82440594008
:106F78004FEA196385EA0A055EF823305C4050F849
:106F8800103C6340C1F307245FFA89FA57F824409C
:106F98005CF82AA06340C5F3074456F824405C40D7
:106FA8002B0E5EF823308AEA030A50F80C3C8AEA72
:106FB8000303C8F3072A57F82AA083EA0A03C1F390
:106FC800074A56F82AA083EA0A0B5FFA85FA0B0EDD
:106FD8005CF82AA05EF823308AEA030A50F8083CD5
:106FE8008AEA0303C9F3072AC9B257F82AA05CF84A
:106FF800211083EA0A03C8F3074A4FEA1868C5F361
:1070080007255EF8288057F8255056F82AA081EA07
:10701800080850F8041CC9F3074988EA01016940C7
:1070280056F829506940019D013D83EA0A030195FC
:1070380031E758F82A0059F82670DFF89CC1DFF8C4
:107048009CE1C1F30726474028685CF82660784031
:107058007040C3F307465EF826705FFA8BF6474028
:10706800180E59F8266058F8200086EA000AC4F37A
:10707800072668685CF826608AEA00007040C1F359
:1070880007465EF8266080EA060ADEB2080E59F85E
:10709800266058F820007040AE684640CBF30720C1
:1070A800C9B25CF820004640C4F30740240E5EF8DD
:1070B8002000464059F8210058F82410C3F307234C
:1070C8004840E9685CF8233041405940CBF3074316
:1070D800F8B25EF823305940414B4FEA1A6413F86E
:1070E80000E028698EEA000013F804E0C1F30724E1
:1070F80080EA0E6013F804E0C6F3074480EA0E2025
:1071080013F804E080EA0E4E5FFA8AF01C5C6869A6
:107118006040340E1C5D80EA0460C7F307241C5DE0
:1071280080EA0420C1F307441C5D80EA0444F0B2FD
:10713800C6F3072613F800C0A8698CEA00004FEAD6
:10714800116CC9B213F80CC080EA0C60CAF3072CA2
:10715800CAF3074A13F80CC080EA0C20C7F3074C9F
:107168003F0E13F80CC080EA0C4C585CE9694140AA
:10717800D85D81EA0061985D13F80A3082F800E072
:1071880081EA002181EA03434FEA1E2151704FEA48
:107198001E419170210A5171210C91714FEA1C21F5
:1071A80051724FEA1C419172190A4FEA1E6E14710E
:1071B80082F808C0240E4FEA1C6C13735173002028
:1071C800190C1B0E82F803E0D47182F80BC091737E
:1071D800D37303B0BDE8F08F90DC032090E0032068
:1071E80090D2032090D8032090D4032010B4012912
:1071F800144621461A4603D15DF8044BFFF76ABCD2
:107208005DF8044BFFF72CBE30B50368CD1A002D8E
:1072180002DC6FF05F0030BD1C7814F0800F04D1E1
:107228005C1C04601B78136036E004F07F04013CAA
:10723800032C38D8DFE804F002091320012DE8D028
:107248005B7813600368023325E0022DE1DD5C788A
:107258009B7843EA04231360036803331BE0032D80
:10726800D7DD9C785D78DB78240244EA05441C432A
:107278001460036804330EE0042DCADD9C785D7841
:10728800240444EA05651C79DB782C4344EA03238B
:1072980013600368053303600368C91A13688B42D7
:1072A800B7D8002030BD6FF0630030BD70B40468FB
:1072B8000E1B002E07DD26789E4207D1013404609C
:1072C80070BCFFF7A1BF6FF05F0001E06FF06100D5
:1072D80070BC704737B50123154601AA0446FFF76D
:1072E800E5FF70B9019B012B09D123681B78003396
:1072F80018BF01232B6023680133236001E06FF07E
:10730800630003B030BD37B50223154601AA044611
:10731800FFF7CCFFC8B9019B013B032B13D82368A7
:1073280093F90030002B0EDB2860019B5A1E019256
:107338005BB123682A681B7843EA02232B60236821
:1073480001332360F1E76FF0630003B030BD37B558
:107358000223154601AA0446FFF7A8FF40B9019A7F
:107368002168284600F04CFC2268019B13442360E6
:1073780003B030BD70B5032304460E461546FFF72B
:1073880095FFD8B91368A3B1013B136023681B7834
:107398001371072B10D82368013323609360226888
:1073A8002B6813449E4223600CBF00206FF06500D9
:1073B80070BD6FF05F0070BD6FF0630070BD38B5D1
:1073C800032304461546FFF771FF58B913685A1E80
:1073D800012B2A6004D923685A1C22601B780BB140
:1073E8006FF0670038BD2DE9F7431546984601AAA6
:1073F800302304460F46FFF759FF064678BB22683C
:10740800019B13449F421DD06FF0650627E0236857
:107418009F421AD91B782B604A4643463946204674
:10742800FFF744FFB8B92368AB6022686B68134460
:107438009F422360EBD9102101200FF05BFBE8602D
:1074480058B1054605F10409E1E70023EB6023681C
:107458009F4204D0D8E7064601E06FF0690630463F
:1074680003B0BDE8F083F7B517461D4601AA3023DF
:1074780004460E46FFF71AFF00283AD12368F61A89
:10748800002E34DD3A461B7842F8043B019B2668FF
:107498001E44314606232046FFF708FF48BB2368F1
:1074A800BB6022687B68D1188E42216007D105F144
:1074B8000C02034695421CD02B700135FAE7D35CC9
:1074C8002A46314642F8043B2368013323602046AC
:1074D800FFF79AFE68B92368AB6022686B681344AB
:1074E8009E4223600CBF00206FF0650001E06FF042
:1074F8005F0003B0F0BD1FB500230193029303930F
:1075080001ABFFF7B0FF60B9019B052B00D033B981
:10751800029B002B0CBF00206FF0670001E06FF0AA
:10752800670005B05DF804FB2DE9F043DDF81CE0C9
:10753800DFF81C8100273C463D4675452DD24FF0AB
:10754800000C5E5D202E04D10135AE450CF1010C16
:10755800F7D8AE4521D0C5EB0E06012E06D95E5DE3
:107568000D2E03D15E1976780A2E14D05E5D0A2E90
:1075780011D0BCF1000F66D13D2E02D10137022F88
:1075880061D816F0800F5ED118F806607F2E5AD0A9
:107598003F2E56D901340135CFE71CB91460204677
:1075A800BDE8F08304F0070E0626E40806FB0EFE8D
:1075B80066430EF1070EF61B06EBDE0460B18C4243
:1075C8000AD8002603EB050E014603253446DFF8EA
:1075D80080C0DFF880800FE014606FF02900BDE8FC
:1075E800F08313F8019BA9F10A07FFB2162F06D8FA
:1075F80028FA07F7FF0702D57345F2D11CE01CF8FB
:1076080009700134402F08BF013D07F03F07042CE3
:1076180047EA8616F0D16DB1340C012D0C7001D1FA
:10762800013107E0022D4FEA16244C7016BF8E7008
:10763800023103310024DFE7081A10600020BDE89A
:10764800F083002FA6D06FF02B00BDE8F08300BFB9
:10765800E9750E00090040000023F0B516461C46E7
:10766800844216D0D6F800E0C3EB0E05356051F819
:107678002470BD422CBF4FF0000C4FF0010CED1BE5
:10768800734594BF63460CF1010346F8045B01346B
:10769800E6E702EB840243B11168C81A8B4242F84C
:1076A800040B94BF00230123F5E7F0BD2DE9F04753
:1076B8004FF0000C0D4614468646BEF10F0F05F13B
:1076C800400504F1400440F21E8155F8406CA6FBC9
:1076D800039A54F8406C1CEB090C2CBF4FF00108BE
:1076E8004FF000081CEB060644F8406C55F83C6C5B
:1076F80048EB0A08A3FB069A54F83C6C18EB0908F7
:107708002CBF4FF0010C4FF0000C18EB060644F8A4
:107718003C6C55F8387C54F8386CA3FB07894CEB63
:107728000A0C1CEB080C2CBF012700271CEB0606D3
:1077380044F8386C55F8346C47EB0907A3FB068905
:1077480054F8346C17EB08072CBF4FF0010C4FF0BE
:10775800000CBE1944F8346C55F8307C54F8306C81
:107768004CEB090CA3FB07891CEB080C2CBF012769
:1077780000271CEB060644F8306C55F82C6C47EBD8
:107788000907A3FB068954F82C6C17EB08072CBFD4
:107798004FF0010C4FF0000CBE1944F82C6C55F852
:1077A800287C54F8286C4CEB090CA3FB07891CEBCC
:1077B800080C2CBF012700271CEB060644F8286C90
:1077C80055F8246C47EB0907A3FB068954F8246C89
:1077D80017EB08072CBF4FF0010C4FF0000CBE1937
:1077E80044F8246C55F8207C54F8206C4CEB090CB8
:1077F800A3FB07891CEB080C2CBF012700271CEBF7
:10780800060644F8206C55F81C6C47EB0907A3FBE7
:10781800068954F81C6C17EB08072CBF4FF0010CB5
:107828004FF0000CBE1944F81C6C55F8187C54F83D
:10783800186C4CEB090CA3FB07891CEB080C2CBF3C
:10784800012700271CEB060644F8186C55F8146C41
:1078580047EB0907A3FB068954F8146C17EB0807D4
:107868002CBF4FF0010C4FF0000CBE1944F8146CFB
:1078780055F8107C54F8106C4CEB090CA3FB0789E5
:107888001CEB080C2CBF012700271CEB060644F84C
:10789800106C55F80C6C47EB0907A3FB068954F8E4
:1078A8000C6C17EB08072CBF4FF0010C4FF0000CC5
:1078B800BE1944F80C6C55F8087C54F8086C4CEB6D
:1078C800090CA3FB07891CEB080C2CBF0127002718
:1078D8001CEB060644F8086C55F8046C47EB0907DE
:1078E800A3FB068954F8046C17EB08072CBF4FF06C
:1078F800010C4FF0000CBE194CEB090C44F8046C59
:10790800AEF1100ED9E64FEA101EA0EB0E100728B4
:107918004FEA8E1E01EB0E0502EB0E0466D951F8F4
:107928000E60A6FB037852F80E601CEB070C2CBF08
:10793800012100211CEB060642F80E606E6841EB3F
:107948000801A3FB06786668CA192CBF012100212B
:1079580092196260AE6841EB0801A3FB0678A6683D
:10796800C9192CBF012200228919A160EE6842EBD7
:107978000802A3FB0678E668D2192CBF0121002172
:107988009219E2602E6941EB0801A3FB067826698B
:10799800C9192CBF01220022891921616E6942EBA5
:1079A8000802A3FB06786669D2192CBF01210021C1
:1079B80092196261AE6941EB0801A3FB0678A669DA
:1079C800C9192CBF012200228919A161EE69E16958
:1079D800A3FB066742EB080292192CBF4FF0010C7B
:1079E8004FF0000C52184CEB070CE261C208510131
:1079F800A0EBC2000D440C44800005EB000E2146AC
:107A0800754511D055F8046BA6FB03780E681CEB7E
:107A180007022CBF4FF0010C4FF0000C92194CEBF1
:107A2800080C41F8042BEBE70444236863449C45A5
:107A380044F8043B8CBF4FF0010C4FF0000CF4D815
:107A4800BDE8F08720B10123036000234360836011
:107A5800704710B5044688B1836853B14268002165
:107A680012F1FF3202D319600433F9E7A0680CF071
:107A78009FFA0123236000236360A36010BD42F2D4
:107A8800107399422DE9F04104460F4603D96FF06F
:107A98000F00BDE8F0814668B14219D90421384683
:107AA8000FF028F880460028F1D0A5686DB1B20023
:107AB80029460FF044F8002316F1FF3602D32B6055
:107AC8000435F9E7A0680CF073FA6760C4F8088019
:107AD8000020BDE8F0818842F8B506460F4620D060
:107AE8008D6815B9FFF7B5FF1CE04A68013A1AB16D
:107AF80055F82230002BF9D0541C3B6833602146DE
:107B08003046FFF7BCFF054660B97268014692002F
:107B1800B0680FF03AF8A200B968B0680FF00FF833
:107B280000E000252846F8BD70B50E460121044640
:107B3800FFF7A5FF054688B9626801469200A0686C
:107B48000FF023F8A36886EAE672002EA2EBE6722D
:107B58001A60B4BF4FF0FF3301232360284670BD7D
:107B68004368B1EB431F3FBF83684A0901F01F0018
:107B780053F822303ABF23FA00F000F00100002049
:107B8800704770B5002344681A46A2420ED0816837
:107B980051F82250002125FA01F6F60708D40131E0
:107BA800202903F10103F6D10132EEE7002070BD70
:107BB800184670BD10B54368D3B103F18042013A4D
:107BC800591E9200836821B19C58043A0CB90139B6
:107BD800F8E753F821004FF000420023104204D187
:107BE8000133202B4FEA5202F8D1C3EB4113203363
:107BF800184610BD08B5FFF7DDFF0730C00808BDFF
:107C0800F8B50D4612F0030118BF0121436801EBD6
:107C180092049C420646174605D100213046FFF7DC
:107C280083FF60B1F8BDFFF714FF3046FFF70AFF86
:107C380021463046FFF723FF0028EED0F8BDE919AA
:107C48000346BB4210D04FEA930E11F8015DB268AB
:107C5800DC0004F0180405FA04F452F82E502C4302
:107C680042F82E400133ECE7F8BDF8B51446054656
:107C78000F46FFF7BFFFA042064614D82246002150
:107C880038460EF082FF3C440023B3420ED09F08D2
:107C9800A868DA0002F0180150F82720CA4004F852
:107CA800012D0133F1E76FF00700F8BD0020F8BDA2
:107CB800F8B504460D464E0901F01F07FFF77AFF95
:107CC80063682844B0EB431F09D846B3636803F1DF
:107CD8008042013A6FF00301920071430BE010F00B
:107CE8001F0118BF012101EB50112046FFF7C7FE05
:107CF8000028EAD0F8BD9E4206D2A0688518013B4C
:107D08006D588550043AF6E703F18042013A920033
:107D1800002023B1A168013B8850043AF9E70FB964
:107D28000020F8BDB3000022C7F1200E61688E4222
:107D3800F6D2A068C15801FA07F5C550A068C55821
:107D48002A43C2500136043321FA0EF2EEE7F0B5A9
:107D580043684A099A4201F01F0101D805D159B177
:107D68000021BDE8F040FFF7DFBED2B10023446830
:107D7800A41AA34205D301E05AB30B469A00002582
:107D880007E084689D1854F8255044F823500133BF
:107D9800EDE74468A34204D284680133A550043255
:107DA800F7E7B1B1446804F18043013B9B0000222E
:107DB800C1F1200E6CB18668F55825FA01F7F75025
:107DC8008668F7583A43F250013C043B05FA0EF234
:107DD800F0E70020F0BD70B5436803F18042013A36
:107DE80092002BB18468A458043A0CB9013BF8E717
:107DF8004C6804F18042013A9200C4B18D68AE58D3
:107E0800043A0EB9013CF8E79C420BD313D90BE0B6
:107E1800A2F1040208D3013B93B181688C58A95898
:107E28008C42F5D9012070BD4FF0FF3070BD181C91
:107E380018BF012070BD03F18042013A9200EBE7C0
:107E4800184670BD2DE9F04F85B0164603930E9B7A
:107E58005A68736801339A4281468B4651D30E9B08
:107E6800986800284DD0920000210EF08EFE0E9BDF
:107E7800D6F804A09B680093DBF80430009D5345B6
:107E880028BF53460AF101070293BF000024544556
:107E9800D9F808001BD0DBF8081050F824802A68AD
:107EA8000B68029803FB0823039A534301932A465D
:107EB8004346FFF7FBFB019BB1682A465046FFF794
:107EC800F5FB45F8048B0023EB510134DFE7009BF9
:107ED800391F0B443A4619460EF031FE31464846E2
:107EE800FFF779FF0028B3BF0E9BD9F80820B168C7
:107EF8009A68B8BFD9F808102046FFF7ADFB0020F4
:107F080001E06FF0030005B0BDE8F08F70B543687D
:107F180003F18042013A92002BB18468A458043AD4
:107F28000CB9013BF8E74C6804F18042013A920031
:107F380064B38D68AE58043A0EB9013CF8E79C4228
:107F480001D2026825E0096801D94A4221E00268A5
:107F5800002A01DD002914DB002901DD002A12DBDB
:107F680003F180410139890093B1846866586C58DF
:107F7800A6420ED8A1F1040101D2524209E0013B08
:107F8800F2E7012205E04FF0FF3202E0002BD8D1E2
:107F98001A46104670BD1FB581EAE173A3EBE17381
:107FA80000290093B4BF4FF0FF330123019301A9C7
:107FB80001230293CDF80CD0FFF7A8FF05B05DF8B8
:107FC80004FB90422DE9F0410646154606D088424A
:107FD80005D0FFF780FD074608B149E00D460123AB
:107FE80033606C6804F18043013B9B002CB1AA68A4
:107FF800D258043B0AB9013CF8E721463046FFF75E
:108008003EFD0746002833D1B368D5F808C01846A6
:108018003D463946A1420FD002685CF821E0AD1810
:1080280075442CBF0122002240F8045B0131AE45A3
:1080380094BF1546551CEDE74FEA84084344BDB18B
:108048007268944204F1010406D321463046FFF7D2
:1080580016FD60B9B36843441A682A44954243F848
:10806800042B94BF0025012508F10408E7E707461B
:108078003846BDE8F081F0B50F4685B00646114692
:1080880038461546FFF7A7FE002830DB0123019389
:10809800B5424FF000030293039306D1294601A885
:1080A800FFF719FD0446E8B901ADB74207D101232E
:1080B8003360686800F18043013B9B000BE0394660
:1080C8003046FFF708FD044660B9F0E7AA68D258C1
:1080D800043B12B901380028F8D1B268A968FFF743
:1080E800BBFA002401A8FFF7B4FC204601E06FF0BA
:1080F800090005B0F0BDF8B50C6813686343054680
:108108000F46164613D511463846FFF764FE002879
:1081180005DB324639462846FFF7ADFF09E03A4607
:1081280031462846FFF7A7FF28B9644202E0FFF767
:1081380048FF00B92C60F8BDF8B50C6813686343B4
:10814800002B05460F46164613DD11463846FFF745
:1081580042FE002805DB324639462846FFF78BFFEA
:1081680009E03A4631462846FFF785FF28B96442B8
:1081780002E0FFF726FF00B92C60F8BD1FB582EAC0
:10818800E273A3EBE273002A0093B4BF4FF0FF330E
:108198000123019301AA01230293CDF80CD0FFF724
:1081A800AAFF05B05DF804FB1FB582EAE273A3EBF2
:1081B800E273002A0093B4BF4FF0FF330123019309
:1081C80001AA01230293CDF80CD0FFF7B5FF05B043
:1081D8005DF804FB2DE9F04786B000231546884278
:1081E8004FF0010281460E468DE80C00029303927F
:1081F8000493059306D16846FFF76DFC04460028F2
:108208004DD16E46A94507D1494603A8FFF763FC3F
:108218000446002843D103ADD6F804A00AF18043F0
:10822800013B9B00BAF1000F06D0B268D258043B5C
:1082380012B90AF1FF3AF5E76F6807F18043013B8D
:108248009B002FB1AA68D258043B0AB9013FF8E74E
:108258000AEB07014846FFF712FC0446F8B9014645
:108268004846FFF761FC0446C8B907F1804808F1A1
:10827800FF384FEA88086FB1AB68D9F8082053F87F
:108288000830B16842445046FFF710FA013FA8F1A0
:108298000408F0E732682B685343C9F8003003A894
:1082A800FFF7D7FB6846FFF7D4FB204606B0BDE8CA
:1082B800F0871FB50123009201AA01930293CDF81C
:1082C8000CD0FFF787FF05B05DF804FB2DE9F04FF0
:1082D8009BB00F4601900021184690460493FFF783
:1082E8005AFE002800F0AD810024012504990B9561
:1082F80040460C940D940E950F9410941195129479
:108308001394149515941694179518941994FFF7C7
:1083180062FDA04216DA019B0BB94FB910E0214665
:108328000198FFF701FC0446002840F07981F4E742
:1083380041463846FFF7CFFB0446002840F07081DD
:10834800002080E141460BA8FFF7C5FB0446002842
:1083580040F066810EAE04993046FFF7BCFB044638
:10836800002840F05D81D8F804100E95023111A85C
:108378000B95FFF784FB0446002840F05181014625
:1083880011A8FFF7D1FB0446002840F049810221DB
:1083980014A8FFF774FB0446002840F0418103212C
:1083A80017A8FFF76CFB0446002840F039813046D7
:1083B800FFF700FC00F01F001F2813D0C0F11F03B7
:1083C80019460BA80293FFF773FC0446002840F0F7
:1083D800278102993046FFF76BFC0446002840F0DD
:1083E8001F8100E002940C9DDDF83CA005F1FF39E7
:1083F8000AF1FF33C3EB090B00934FEA4B131946FD
:1084080030460393FFF754FC0446002840F00881E7
:108418004FEA8B0B31460BA8FFF778FD00280EDBDF
:10842800139951F80B20013241F80B200BA9324661
:108438000846FFF781FE04460028EBD0F0E00399D8
:108448003046FFF784FC0446002840F0E980009B92
:108458009B000593043B05F18046089305F10063F2
:10846800013B013ECAEB060605F18045CAEB030A4B
:108478004FEA4A13023DB6000393AD00009B9945AD
:1084880040F2A8802B1D05980D99109A099312584F
:10849800CB581398934203D34FF0FF3383511BE01B
:1084A80000EB060A48599AB1079300230693DDE9C1
:1084B80006BC4BEA000B584661460EF06BF90023E8
:1084C8004FF0FF328B4208BF824203D2104601E0D0
:1084D8004FF0FF30CAF80000139A935901339351B3
:1084E800A5F1040A139A9359013B9351002114A84A
:1084F800FFF71AFB002840F09080009B169A1BB1EA
:10850800109B08995B5800E0009B1360109B059A2C
:108518009A58169B5A60139B14A908469A59FFF754
:10852800C8FE014600287AD117A8FFF7FDFA0028EF
:1085380073D1B9F1010F18BF0D9A199B18BF52F8E2
:108548000A0018600D9B5A59199B5A600D9B099A8D
:108558009A58199B17A99A6014A8FFF7D7FC002806
:10856800C0DC139B0EA99A5914A8FFF7A2FE002895
:1085780053D1039914A8FFF79BFB00284DD10BA9F1
:10858800084614AAFFF7D8FD0146002847D10BA8D2
:10859800FFF701FD002815DA0EA914A8FFF79BFACA
:1085A80000283AD1039914A8FFF782FB002834D198
:1085B8000BA914AA0846FFF79EFD70BB139A93599E
:1085C800013B9351039B203B09F1FF39043E039380
:1085D800043D53E7019B5BB111A91846FFF77BFAED
:1085E800D8B9049BD8F800201B685343019A13603C
:1085F800B7B102990BA8FFF7AAFB70B9D8F80030F9
:108608000B930BA93846FFF766FA014638B9384686
:10861800FFF7C1FC20B901233B60044600E00C468B
:108628000BA8FFF716FA0EA8FFF713FA11A8FFF721
:1086380010FA14A8FFF70DFA17A8FFF70AFA204650
:1086480001E06FF00B001BB0BDE8F08F70B5044679
:108658000E46104600211546FFF79DFC002822DB38
:108668002B46324621460020FFF730FEF8B900219C
:108678002046FFF790FC002807DA2A4621462046C4
:10868800FFF739FD0028F2D070BD29462046FFF7D4
:108698003DFC00280ADB2A4621462046FFF74CFD10
:1086A8000028F2D070BD6FF0090070BD002070BDC9
:1086B8002DE9F04FADF2546D06460F4618460021DD
:1086C80002921D46FFF767FC002805DDAB68D3F86A
:1086D800008018F0010F02D16FF0030003E20021BF
:1086E8000298FFF758FC0028F6DB08F10204640042
:1086F80004F008044444032104FB08F3C3F1020313
:10870800013903FB04F4F7D101234FF4C06214A824
:10871800089309910A910B930C910D910E930F9167
:1087280010910EF032FA0298FFF744FAB0F5287F5C
:108738000AD2EF280BD84F280CD8182834BF4FF08E
:10874800010B4FF0030B07E04FF0060B04E04FF06E
:10875800050B01E04FF0040B6B6803F1010841467B
:108768003046FFF78CF90346002840F094814146D3
:1087780017A8FFF784F90346002840F08C814FEAD8
:1087880048010BA8FFF77BF90346002840F08381D6
:108798003B68049301330AD139460EA8FFF79BF9C9
:1087A8000346002840F0778101230E930EAFDDF8D1
:1087B80078360BB19B682BBB012108A8FFF7B4F9E9
:1087C8000346002840F06781696808A88901FFF717
:1087D8006FFA0346002840F05E8108A92A46084639
:1087E800FFF734FF0346002840F05581DDF878365E
:1087F80083B108AB03CBDDF87826106018685160A8
:10880800906007E0DDF878261068516808AB03C36C
:108818009068186029463846FFF778FB002818DB6F
:108828002A46394617A8FFF711FF0346002840F0EB
:10883800328164420DF12C092346CDF800902A4676
:1088480008A917A8FFF7FEFA0346002840F023817D
:1088580004E0394617A8FFF73EF9E6E708A93046CD
:10886800FFF739F90346002840F0158107AB0127C7
:108878001393CDF8009023462A4611A9304607974E
:1088880011971297FFF7DEFA0346002840F003819C
:10889800BB455BD00BF1FF3303939F40696814AB72
:1088A8004FF00C0808FB073801314046FFF7E7F89E
:1088B8000346002840F0EF8017A94046FFF70BF960
:1088C8000346002840F0E78082462346CDF8009012
:1088D8002A4641464046FFF7B5FA0346002840F0CD
:1088E800DA80039B0AF1010A5345EED801374FF0AD
:1088F80001094FF00C0814AB09FA0BF908FB07380B
:108908000DF12C0A4F4521D2696840460131FFF725
:10891800B6F80346002840F0BE80A8F10C01404696
:10892800FFF7D9F80346002840F0B58023464046B3
:10893800CDF800A02A4617A9FFF784FA08F10C0819
:108948000346002840F0A7800137DBE7029B002799
:108958005B680393B946BA46B846BAF1000F0ED120
:10896800039B3BB9012303FA0BF30593039F0DF116
:108978002C0A5EE0039B013B03934FF0200A029B05
:10898800039A9B6853F822300AF1FF3A23FA0AF354
:1089980013F001030FD1002FDFD0012F0BD10BAB48
:1089A80000932A46234631463046FFF74BFA0346E2
:1089B8000028D2D06FE009F10109C9EB0B029340FE
:1089C800CB4548EA030801D00227C6E700270BABCE
:1089D80000932A46234631463046FFF733FA0346CA
:1089E800002858D10137BB45F1D10BAB14A80C2195
:1089F800009301FB080123462A463046FFF722FA76
:108A08000346002847D1012780468146A5E723462B
:108A1800CDF800A02A4631463046FFF713FA034640
:108A2800002838D1059B4FEA480818EA030F03D1FC
:108A380001374F45EBD10BE02346CDF800A02A467D
:108A480017A93046FFF7FEF903460028F0D022E0C8
:108A5800012307931193129307AB1393CDF800A04A
:108A680023462A4611A93046FFF7ECF9034690B988
:108A7800049A01320FD1029A526862B1029A92683E
:108A88001268D20707D5049B336032462946304620
:108A9800FFF731FB034601220BF1FF3402FA04F41D
:108AA80002FA0BF50C26AC42029307D214AB06FB74
:108AB8000430FEF7CEFF0134029BF4E717A8FEF757
:108AC800C8FF0BA8FEF7C5FF0EA8FEF7C2FFDDF82A
:108AD8007826029B0AB1926822B908A80293FEF789
:108AE800B8FF029B18460DF2546DBDE8F08FF0B543
:108AF8008BB000230126074604A815460196029369
:108B08000393049605930693079608930993FEF733
:108B1800E2FF0446002863D1294607A8FEF7DBFFD9
:108B2800044600285CD104A8FFF72BF8054607A8DF
:108B3800FFF727F8854228BF0546294604A8FFF70E
:108B480006F9044600284BD1294607A8FFF7FFF885
:108B58000446002844D107960496002104A8FFF78C
:108B68001AFA002831D004A8FFF70BF8014604A828
:108B7800FFF7EDF80446002832D107A8FFF701F8FF
:108B8800014607A8FFF7E3F8044648BB07A904A86D
:108B9800FFF7BCF9002809DB04A907AA0846FFF774
:108BA8006AFA0446E0B9012104A808E007A904AA62
:108BB8000846FFF760FA044690B9012107A8FFF7B5
:108BC800C6F804460028C8D00AE0294607A8FFF7D7
:108BD8006FF8044620B907A93846FEF77CFF04461B
:108BE80001A8FEF736FF04A8FEF733FF07A8FEF733
:108BF80030FF20460BB0F0BD70B5B1F5806FADF514
:108C0800806D05460C46164614D80A46184669462D
:108C1800B04720B9224669462846FEF7F1FF0023EF
:108C280040F2014419460DEB03020133A34203D07D
:108C38001170F8E76FF003000DF5806D70BD2DE938
:108C4800F04180469CB00F46104601211646FFF7BA
:108C5800A2F9002840F34C81002301253246394609
:108C680001A80495059306930795089309930A9517
:108C78000B930C930D950E930F9301950293039309
:108C880010951193129313951493159316951793A2
:108C9800189319951A931B93FFF729FF0446002888
:108CA80040F00981294601A8FFF775F9002840F02E
:108CB80000813246394604A8FFF7C8FC044600285C
:108CC80040F0F98004A907A8FEF705FF044600282C
:108CD80040F0F180314610A8FEF7FDFE044600285A
:108CE80040F0E980314613A8FEF7F5FE0446002857
:108CF80040F0E18029460AA8FEF716FF044600283E
:108D080040F0D98001460DA8FEF70EFF0446002862
:108D180040F0D180014616A8FEF706FF0446002859
:108D280040F0C980294619A8FEF7FEFE044600282F
:108D380040F0C180099B1B68DD074CD4012107A8BE
:108D4800FFF705F80446002840F0B5800C9B1B6827
:108D5800DC0710D40F9B1B68D8070CD401210AA884
:108D6800FEF7F5FF0446002840F0A58001210DA874
:108D7800FEF7EDFFDAE70AA910AA0846FFF7BBF9E4
:108D88000446002840F097800DA904AA0846FFF77A
:108D9800D3F904460028E1D08DE0012113A8FEF79D
:108DA800D6FF0446002840F08680189B1B68DA0727
:108DB80016D41B9B1B68DB0712D4012116A8FEF7EB
:108DC800C6FF0446002876D1012119A8FEF7BFFF87
:108DD800044600286FD1159B1B68D90711D4DCE71E
:108DE80016A910AA0846FFF786F90446002862D19A
:108DF80019A904AA0846FFF79FF904460028DCD001
:108E080059E013A907A8FFF781F800281FDB07A975
:108E180013AA0846FFF790F9044600284BD10AA97F
:108E280016AA0846FFF788F90446002843D119AA6C
:108E38000DA90846FFF780F9044600283BD1002118
:108E480007A8FFF7A8F800287FF474AF17E013A964
:108E580007AA0846FFF770F9044660BB16A90AAAD4
:108E68000846FFF769F9044628BB0DAA19A9E0E7E7
:108E780016A932460846FFF73EF90446D8B900213C
:108E880016A8FFF788F80028F2DB06E016A9324694
:108E98000846FFF751F9044668B9314616A8FFF7A6
:108EA80035F80028F2DA16A94046FEF714FE044603
:108EB80001E06FF00D0404A8FEF7CBFD07A8FEF74C
:108EC800C8FD0AA8FEF7C5FD0DA8FEF7C2FD01A85A
:108ED800FEF7BFFD10A8FEF7BCFD13A8FEF7B9FD0D
:108EE80016A8FEF7B6FD19A8FEF7B3FD204601E067
:108EF8006FF003001CB0BDE8F0810000054B53F88B
:108F0800042C22B1083313F8101C8142F7D1104603
:108F1800704700BFC4760E0030B5084C63685BB17B
:108F28009D692D78854205D15D688D4202D15D78B5
:108F3800954201D00834F1E7184630BDBC760E00E2
:108F4800382200210DF021BE10B5044668B1406BEF
:108F580018B123689B695B69984704F138020023BC
:108F6800944202D023700134FAE710BD38B50446A4
:108F78000D4661B158B1382200210DF006FEAB69EB
:108F88001B699847606320B12560002038BD0248FE
:108F980038BD024838BD00BF009FFFFF809EFFFF1D
:108FA80030B4C8B10468BCB12569AD0702D465689E
:108FB800954211D1012B4260037204D06578032DCC
:108FC80001D0052D02D1A3699B6802E023B9A369EA
:108FD800DB68406B30BC1847014830BC704700BFA5
:108FE800009FFFFF38B50446B0B10368A3B199B13B
:108FF800102A0FD81869C00703D4DD68AA4201D225
:109008000AE015462A4604F120000DF098FD256374
:10901800002038BD014838BD014838BD809FFFFF9A
:10902800009FFFFF28B103681BB10023C3611846E6
:1090380070470148704700BF009FFFFF70B4039D51
:10904800144608B91D4836E00268002AFAD0002DF7
:10905800F8D000222A6006680EB1726900E0324634
:109068007678012E0CD1944220D12C600268926946
:1090780054680A46A44690F90810406B70BC6047D3
:10908800062E06D12C600A46406B214670BC00F0C3
:10909800F8BA6AB199420DD1C369002BD2D1B4FB99
:1090A800F2F102FB1144002CCCD103E0044802E0A9
:1090B800044800E0044870BC704700BF009FFFFFF1
:1090C800809DFFFF809CFFFF809FFFFF0346A0B1AC
:1090D800016891B18AB1002010601A685278032A99
:1090E8000ED0511F02290BD9012A08D1DB6983420E
:1090F800A0F5C54008BF00207047024870470248E5
:10910800704700BF009FFFFF809FFFFFF0B585B04D
:1091180005461F460B9E0C9CFFF764FFB0B9284616
:10912800FFF780FF90B9009433460A9A39462846DB
:10913800FFF784FF50B9216803AA31442846FFF796
:10914800C5FF18B92268039B1344236005B0F0BD1E
:109158002DE9F0430768079D7F78089EDDF828E031
:10916800DDF82C90DDF83080DDF834C0062F144689
:10917800099A12D1C9F800200893CDF83480CDF8A7
:1091880030C0CDF82CE00A96099507940B46406B41
:109198000121BDE8F04300F060BB0148BDE8F08361
:1091A800809FFFFF30B505686D7887B0062D0C46A7
:1091B8000C9917D10E9D29600D9D05950B9D049561
:1091C800109D03950F9D02950A9D8DE82800134672
:1091D800406B224600F066FB044B10F1120F08BFEB
:1091E800184600E0024807B030BD00BF009DFFFFF1
:1091F800809FFFFF10B5044600F083FB2046BDE8C2
:1092080010400AF0D5BE10B54FF4C07101200DF022
:1092180071FC044608B100F0DBF8204610BD134687
:109228000A46022100F0D9B810B50446FDF7DBFA6A
:109238002046BDE810400AF0BBBE10B54FF48C7153
:1092480001200DF057FC044608B1FDF7C7FA204687
:1092580010BDFDF7CDBBFDF7D1BAFDF7C7BF0000C4
:109268002DE9F04FCB7BDFF864C103F00F0300EB6F
:10927800C30393B0D3E92E67D3E90E4501F1100378
:109288001093109B13F801ED10930EF00F03119338
:10929800109BC1EB0308B8F10F0F4FEA2E1E3AD00E
:1092A8003307099300230893230943EA05730093BE
:1092B8002B090193119B04F00F04DDE900AB00EBCF
:1092C800C305DDE90889330943EA07735CF83440CC
:1092D80002933B0948EA0A0849EA0B090393230465
:1092E800D5E92E67C246CB460D93DDE902890023F6
:1092F8000C93DDE90C3489EA07094F467C4088EA7B
:1093080006082746D5E90E45464673401E4684EAB8
:109318000A0485EA0B0533070B9300230A932309F4
:1093280043EA0573049304F00F042B0905933309EA
:10933800DDE904AB43EA0773DDE90A895CF83440E8
:1093480006933B0900EBCE0E07932304DEE92E6754
:1093580048EA0A0849EA0B090F93DDE906AB00233E
:109368000E93DDE90E348AEA060A8BEA070B5646A5
:109378005F4673407C401E462746109BDEE90E453B
:10938800994284EA080485EA09057FF47AAF3B0E1E
:1093980013703B0C53703B0A9370330E1371330CEC
:1093A8005371330A93712B0E13722B0C53722B0AC1
:1093B8009372230E1373230C5373230AD770D67139
:1093C800D5729373D47313B0BDE8F08FC8770E00CD
:1093D8004FF4C07200210DF0D8BB2DE9F04F0446C0
:1093E8008DB008469146194601229846FFF794FD2C
:1093F800002800F09C8045690290102D40F097806D
:109408002046FFF7A1FD02992046FFF7AFFD8446ED
:10941800002840F08E800123424649462046FFF747
:10942800BFFD8446002840F08480014607902A4604
:1094380008A80DF0AAFB07AB009308AB2A4619460B
:109448002046FFF7FBFD8446002872D1099B089946
:109458000A9D18BA0BBA0B99624691FA81FE02432B
:1094680029BA4CEA0E00C4E91E01C4E93E234FF0B4
:1094780000094FF00008C4E92E89C4E90E894FF0AD
:10948800030E04254FF0614900F00108D707490889
:109498004FEA30005B084FEA3202002609FB08FB5E
:1094A800304304EBC5083943724083EA0B03BEF12D
:1094B800010EC8E90E01C8E92E234FEA6505E3D17C
:1094C8004FF00308022204F1380904F1B80ED30062
:1094D80009EB03077344D3E90001CDE90201D7E999
:1094E80000017646CDE9040148460121F6E9024526
:1094F800DDE902AB8AEA040A8BEA050B54465D46AD
:10950800E3E90245DDE904ABF0E9024501318AEA05
:10951800040A8BEA050B54465D469142E7E9024589
:10952800E4D1B8F101084FEA4202D0D101E06FF06E
:10953800130C60460DB0BDE8F08F2DE9F04F8BB0ED
:109548004FF0000904468B461746DDF85480CDF8E5
:1095580014901D46002B00F08E8000F5AC7610228A
:109568004946304604F5B47A0DF00FFB49461022FF
:1095780050460DF00AFBC4F878B10020002104F52C
:109588009C73A3460C2DC3E90001EBE950010AD1F5
:109598003B68C4F858317B687360BB68B3600123CB
:1095A80084F867313AE01022494606A80DF0EDFA32
:1095B800EB001A0E8DF824201A0C8DF825201A0AB3
:1095C8008DF826208DF82730102D2B4604F25719D8
:1095D80028BF10233A4649461F4412F801EB11F8F8
:1095E800010FBA428EEA00000870F6D132463146C1
:1095F80020460393FFF734FE039BED1AE4D106AB34
:1096080019F8012F5B5D01355340102D89F80030A2
:10961800F5D1324631462046FFF722FE05AB0093CE
:10962800102204F5A47331462046FFF707FD0546CE
:1096380018BBC4F84081CBF80400B8F1000F1CD067
:109648004646149B102E28BF10261946314404F2B2
:109658006712149113F8010B12F8011F41401170A1
:1096680014999942F6D1524651462046FFF7F8FD23
:10967800C6EB0808E1E76FF0130528460BB0BDE814
:10968800F08F2DE9F04F1F468BB000239742044618
:109698000E469046059302D9BB1A8B425DD32546E8
:1096A800F5E94E01821941F100038B4208BF82425D
:1096B80053D30F216FF01F00994208BF90424CD33B
:1096C800C5E9002304F5B273029304F5AC730DF1F8
:1096D800180A0393002E43D004F5B475102EB14632
:1096E8002A4628BF4FF01009AB4612F8013D013356
:1096F800DBB2137013B9029B9A42F6D105AB009303
:109708001022534603992046FFF798FC48BB42466F
:10971800D4F878311BB9297813784B402B7012F89C
:10972800011B1AF800304B403B54D4F8781101293A
:1097380008BF297800F1010004BF4B402B70814518
:1097480005F10105E4D15A4659462046FFF788FD40
:10975800C9EB0606C8444F44BCE76FF0130000E0AD
:1097680030460BB0BDE8F08F2DE9FF478846D0F8AA
:109778003C11D0F83831CD00D0F8441145EA537582
:10978800DC00D0F84031CF0047EA5377DE00131FE2
:109798000C2B814692465BD800F5A47140460DF02B
:1097A800CEF954EA050304D156EA070301D1002093
:1097B80050E01022002168460DF0E7F93B0E8DF8C5
:1097C80000303B0C8DF801303B0A8DF80230330E27
:1097D8008DF80430330C8DF80530330A8DF80630D7
:1097E8002B0E8DF808302B0C8DF809302B0A8DF8CC
:1097F8000A30230E8DF80C30230C8DF80D308DF8BF
:109808000F40230A09F267148DF80E308DF80370A3
:109818008DF807608DF80B502246002312F8010FCF
:109828001DF8031001334140102B1170F6D109F5D2
:10983800B47211464846FFF713FDC24441460A7800
:1098480014F8013F534001F8013B5145F7D1AEE709
:109858006FF0130004B0BDE8F0872DE9F743174611
:109868001A460C9B01930B9B00930A9BDDF83480EE
:10987800DDF838900F9E109D0446FFF75EFE70B924
:109888004B46424639462046FFF7FBFE38B932467A
:109898002946204603B0BDE8F043FFF765BF03B093
:1098A800BDE8F083F0B58DB00E4616990391139973
:1098B800159D179C029108AF129901910093069784
:1098C80013460595049432460021FFF7C6FFB0B948
:1098D80002460346AB4208D0149911F803E0F95C3C
:1098E8008EEA01010A430133F4E742B1264400231A
:1098F800A64202D023700134FAE76FF011000DB0D0
:10990800F0BD10B50446FFF71FFB04F5C072002335
:10991800944202D023700134FAE710BD0438C0B273
:1099280004289ABF024B53F820000020704700BF5C
:1099380048780E000023036043608360704710B5C9
:109948000446E0B10368D3B1406808B15B6A984740
:10995800A36863B12268D268002103EB42029A42ED
:1099680002D019700133FAE7A0680AF021FB04F16C
:109978000C020023944202D023700134FAE710BD90
:10998800F8B5054617460C4699B190B10B6A984749
:109998000646686078B14FB1E16802200DF0AAF878
:1099A800A86018B9636A3046984704E02C60002024
:1099B800F8BD0248F8BD0248F8BD00BF00AFFFFF80
:1099C80080AEFFFF20B1036813B11B6940681847D8
:1099D8000048704700AFFFFF20B1036813B15B690F
:1099E800406818470048704700AFFFFF20B1036880
:1099F80013B19B69406818470048704700AFFFFFE4
:109A080030B40D46114628B1C4691A462846234683
:109A180030BC1847014830BC704700BF00AFFFFF9B
:109A28002DE9F0410D4690B017460446002850D065
:109A38000368002B4DD08268002A4AD0DA68BA42FF
:109A480015D21B6940689847002839D12368606897
:109A58005B693A4629469847002831D123686068EF
:109A68009B696946984758BB23689F686D46236879
:109A7800A668DA683621304606EB02080DF085F84C
:109A880023685C21DA6840460DF07FF800239F4286
:109A98000BD0F15CEA5C4A40F25418F80310EA5C17
:109AA8004A4008F803200133F1E7236860681B691E
:109AB800984728B9236860685D69DA683146A8471D
:109AC800002319460DEB03020133412B02D011701C
